{
	"Ejercicio5/Lotery/contracts/LotteryStorage.sol": {
		"LotteryStorage": {
			"abi": [
				{
					"anonymous": false,
					"inputs": [
						{
							"indexed": true,
							"internalType": "uint256",
							"name": "lotteryId",
							"type": "uint256"
						},
						{
							"indexed": false,
							"internalType": "uint256",
							"name": "oldPercent",
							"type": "uint256"
						},
						{
							"indexed": false,
							"internalType": "uint256",
							"name": "newPercent",
							"type": "uint256"
						}
					],
					"name": "CommissionChanged",
					"type": "event"
				},
				{
					"anonymous": false,
					"inputs": [
						{
							"indexed": true,
							"internalType": "uint256",
							"name": "lotteryId",
							"type": "uint256"
						},
						{
							"indexed": true,
							"internalType": "address",
							"name": "closer",
							"type": "address"
						}
					],
					"name": "LotteryClosed",
					"type": "event"
				},
				{
					"anonymous": false,
					"inputs": [
						{
							"indexed": true,
							"internalType": "uint256",
							"name": "lotteryId",
							"type": "uint256"
						},
						{
							"indexed": true,
							"internalType": "address",
							"name": "creator",
							"type": "address"
						}
					],
					"name": "LotteryCreated",
					"type": "event"
				},
				{
					"anonymous": false,
					"inputs": [
						{
							"indexed": true,
							"internalType": "uint256",
							"name": "lotteryId",
							"type": "uint256"
						},
						{
							"indexed": true,
							"internalType": "address",
							"name": "buyer",
							"type": "address"
						},
						{
							"indexed": false,
							"internalType": "uint256",
							"name": "quantity",
							"type": "uint256"
						}
					],
					"name": "TicketPurchased",
					"type": "event"
				},
				{
					"anonymous": false,
					"inputs": [
						{
							"indexed": true,
							"internalType": "uint256",
							"name": "lotteryId",
							"type": "uint256"
						},
						{
							"indexed": true,
							"internalType": "address",
							"name": "winner",
							"type": "address"
						},
						{
							"indexed": false,
							"internalType": "uint256",
							"name": "prize",
							"type": "uint256"
						}
					],
					"name": "WinnerSelected",
					"type": "event"
				},
				{
					"inputs": [],
					"name": "MAX_COMMISSION_PERCENT",
					"outputs": [
						{
							"internalType": "uint256",
							"name": "",
							"type": "uint256"
						}
					],
					"stateMutability": "view",
					"type": "function"
				},
				{
					"inputs": [],
					"name": "activeLotteriesCount",
					"outputs": [
						{
							"internalType": "uint256",
							"name": "",
							"type": "uint256"
						}
					],
					"stateMutability": "view",
					"type": "function"
				},
				{
					"inputs": [],
					"name": "defaultCommissionPercent",
					"outputs": [
						{
							"internalType": "uint256",
							"name": "",
							"type": "uint256"
						}
					],
					"stateMutability": "view",
					"type": "function"
				},
				{
					"inputs": [
						{
							"internalType": "uint256",
							"name": "",
							"type": "uint256"
						}
					],
					"name": "lotteries",
					"outputs": [
						{
							"internalType": "uint256",
							"name": "id",
							"type": "uint256"
						},
						{
							"internalType": "address",
							"name": "creator",
							"type": "address"
						},
						{
							"internalType": "string",
							"name": "name",
							"type": "string"
						},
						{
							"internalType": "uint256",
							"name": "ticketPrice",
							"type": "uint256"
						},
						{
							"internalType": "uint256",
							"name": "maxTickets",
							"type": "uint256"
						},
						{
							"internalType": "uint256",
							"name": "ticketsSold",
							"type": "uint256"
						},
						{
							"internalType": "uint256",
							"name": "startTime",
							"type": "uint256"
						},
						{
							"internalType": "uint256",
							"name": "endTime",
							"type": "uint256"
						},
						{
							"internalType": "uint256",
							"name": "commissionPercent",
							"type": "uint256"
						},
						{
							"internalType": "bool",
							"name": "closed",
							"type": "bool"
						},
						{
							"internalType": "address",
							"name": "winner",
							"type": "address"
						},
						{
							"internalType": "uint256",
							"name": "pot",
							"type": "uint256"
						}
					],
					"stateMutability": "view",
					"type": "function"
				},
				{
					"inputs": [],
					"name": "nextLotteryId",
					"outputs": [
						{
							"internalType": "uint256",
							"name": "",
							"type": "uint256"
						}
					],
					"stateMutability": "view",
					"type": "function"
				},
				{
					"inputs": [],
					"name": "owner",
					"outputs": [
						{
							"internalType": "address",
							"name": "",
							"type": "address"
						}
					],
					"stateMutability": "view",
					"type": "function"
				},
				{
					"inputs": [
						{
							"internalType": "address",
							"name": "",
							"type": "address"
						}
					],
					"name": "pendingWithdrawals",
					"outputs": [
						{
							"internalType": "uint256",
							"name": "",
							"type": "uint256"
						}
					],
					"stateMutability": "view",
					"type": "function"
				}
			],
			"devdoc": {
				"details": "Define structs, eventos y variables de estado del sistema de lotería",
				"kind": "dev",
				"methods": {},
				"title": "LotteryStorage",
				"version": 1
			},
			"evm": {
				"assembly": "    /* \"Ejercicio5/Lotery/contracts/LotteryStorage.sol\":209:3642  contract LotteryStorage {... */\n  mstore(0x40, 0x80)\n    /* \"Ejercicio5/Lotery/contracts/LotteryStorage.sol\":3238:3241  200 */\n  0xc8\n    /* \"Ejercicio5/Lotery/contracts/LotteryStorage.sol\":3196:3241  uint256 public defaultCommissionPercent = 200 */\n  0x02\n  sstore\n    /* \"Ejercicio5/Lotery/contracts/LotteryStorage.sol\":209:3642  contract LotteryStorage {... */\n  callvalue\n  dup1\n  iszero\n  tag_1\n  jumpi\n  revert(0x00, 0x00)\ntag_1:\n  pop\n  dataSize(sub_0)\n  dup1\n  dataOffset(sub_0)\n  0x00\n  codecopy\n  0x00\n  return\nstop\n\nsub_0: assembly {\n        /* \"Ejercicio5/Lotery/contracts/LotteryStorage.sol\":209:3642  contract LotteryStorage {... */\n      mstore(0x40, 0x80)\n      callvalue\n      dup1\n      iszero\n      tag_1\n      jumpi\n      revert(0x00, 0x00)\n    tag_1:\n      pop\n      jumpi(tag_2, lt(calldatasize, 0x04))\n      shr(0xe0, calldataload(0x00))\n      dup1\n      0x8009df68\n      gt\n      tag_10\n      jumpi\n      dup1\n      0x8009df68\n      eq\n      tag_6\n      jumpi\n      dup1\n      0x84143958\n      eq\n      tag_7\n      jumpi\n      dup1\n      0x8da5cb5b\n      eq\n      tag_8\n      jumpi\n      dup1\n      0xf3f43703\n      eq\n      tag_9\n      jumpi\n      jump(tag_2)\n    tag_10:\n      dup1\n      0x1398e076\n      eq\n      tag_3\n      jumpi\n      dup1\n      0x77f00a6b\n      eq\n      tag_4\n      jumpi\n      dup1\n      0x7cb15bca\n      eq\n      tag_5\n      jumpi\n    tag_2:\n      revert(0x00, 0x00)\n        /* \"Ejercicio5/Lotery/contracts/LotteryStorage.sol\":3143:3187  mapping(uint256 => Lottery) public lotteries */\n    tag_3:\n      tag_11\n      0x04\n      dup1\n      calldatasize\n      sub\n      dup2\n      add\n      swap1\n      tag_12\n      swap2\n      swap1\n      tag_13\n      jump\t// in\n    tag_12:\n      tag_14\n      jump\t// in\n    tag_11:\n      mload(0x40)\n      tag_15\n      swap13\n      swap12\n      swap11\n      swap10\n      swap9\n      swap8\n      swap7\n      swap6\n      swap5\n      swap4\n      swap3\n      swap2\n      swap1\n      tag_16\n      jump\t// in\n    tag_15:\n      mload(0x40)\n      dup1\n      swap2\n      sub\n      swap1\n      return\n        /* \"Ejercicio5/Lotery/contracts/LotteryStorage.sol\":3453:3506  uint256 public constant MAX_COMMISSION_PERCENT = 1000 */\n    tag_4:\n      tag_17\n      tag_18\n      jump\t// in\n    tag_17:\n      mload(0x40)\n      tag_19\n      swap2\n      swap1\n      tag_20\n      jump\t// in\n    tag_19:\n      mload(0x40)\n      dup1\n      swap2\n      sub\n      swap1\n      return\n        /* \"Ejercicio5/Lotery/contracts/LotteryStorage.sol\":3363:3398  uint256 public activeLotteriesCount */\n    tag_5:\n      tag_21\n      tag_22\n      jump\t// in\n    tag_21:\n      mload(0x40)\n      tag_23\n      swap2\n      swap1\n      tag_20\n      jump\t// in\n    tag_23:\n      mload(0x40)\n      dup1\n      swap2\n      sub\n      swap1\n      return\n        /* \"Ejercicio5/Lotery/contracts/LotteryStorage.sol\":3106:3134  uint256 public nextLotteryId */\n    tag_6:\n      tag_24\n      tag_25\n      jump\t// in\n    tag_24:\n      mload(0x40)\n      tag_26\n      swap2\n      swap1\n      tag_20\n      jump\t// in\n    tag_26:\n      mload(0x40)\n      dup1\n      swap2\n      sub\n      swap1\n      return\n        /* \"Ejercicio5/Lotery/contracts/LotteryStorage.sol\":3196:3241  uint256 public defaultCommissionPercent = 200 */\n    tag_7:\n      tag_27\n      tag_28\n      jump\t// in\n    tag_27:\n      mload(0x40)\n      tag_29\n      swap2\n      swap1\n      tag_20\n      jump\t// in\n    tag_29:\n      mload(0x40)\n      dup1\n      swap2\n      sub\n      swap1\n      return\n        /* \"Ejercicio5/Lotery/contracts/LotteryStorage.sol\":3284:3304  address public owner */\n    tag_8:\n      tag_30\n      tag_31\n      jump\t// in\n    tag_30:\n      mload(0x40)\n      tag_32\n      swap2\n      swap1\n      tag_33\n      jump\t// in\n    tag_32:\n      mload(0x40)\n      dup1\n      swap2\n      sub\n      swap1\n      return\n        /* \"Ejercicio5/Lotery/contracts/LotteryStorage.sol\":3585:3638  mapping(address => uint256) public pendingWithdrawals */\n    tag_9:\n      tag_34\n      0x04\n      dup1\n      calldatasize\n      sub\n      dup2\n      add\n      swap1\n      tag_35\n      swap2\n      swap1\n      tag_36\n      jump\t// in\n    tag_35:\n      tag_37\n      jump\t// in\n    tag_34:\n      mload(0x40)\n      tag_38\n      swap2\n      swap1\n      tag_20\n      jump\t// in\n    tag_38:\n      mload(0x40)\n      dup1\n      swap2\n      sub\n      swap1\n      return\n        /* \"Ejercicio5/Lotery/contracts/LotteryStorage.sol\":3143:3187  mapping(uint256 => Lottery) public lotteries */\n    tag_14:\n      mstore(0x20, 0x01)\n      dup1\n      0x00\n      mstore\n      keccak256(0x00, 0x40)\n      0x00\n      swap2\n      pop\n      swap1\n      pop\n      dup1\n      0x00\n      add\n      sload\n      swap1\n      dup1\n      0x01\n      add\n      0x00\n      swap1\n      sload\n      swap1\n      0x0100\n      exp\n      swap1\n      div\n      0xffffffffffffffffffffffffffffffffffffffff\n      and\n      swap1\n      dup1\n      0x02\n      add\n      dup1\n      sload\n      tag_39\n      swap1\n      tag_40\n      jump\t// in\n    tag_39:\n      dup1\n      0x1f\n      add\n      0x20\n      dup1\n      swap2\n      div\n      mul\n      0x20\n      add\n      mload(0x40)\n      swap1\n      dup2\n      add\n      0x40\n      mstore\n      dup1\n      swap3\n      swap2\n      swap1\n      dup2\n      dup2\n      mstore\n      0x20\n      add\n      dup3\n      dup1\n      sload\n      tag_41\n      swap1\n      tag_40\n      jump\t// in\n    tag_41:\n      dup1\n      iszero\n      tag_42\n      jumpi\n      dup1\n      0x1f\n      lt\n      tag_43\n      jumpi\n      0x0100\n      dup1\n      dup4\n      sload\n      div\n      mul\n      dup4\n      mstore\n      swap2\n      0x20\n      add\n      swap2\n      jump(tag_42)\n    tag_43:\n      dup3\n      add\n      swap2\n      swap1\n      0x00\n      mstore\n      keccak256(0x00, 0x20)\n      swap1\n    tag_44:\n      dup2\n      sload\n      dup2\n      mstore\n      swap1\n      0x01\n      add\n      swap1\n      0x20\n      add\n      dup1\n      dup4\n      gt\n      tag_44\n      jumpi\n      dup3\n      swap1\n      sub\n      0x1f\n      and\n      dup3\n      add\n      swap2\n    tag_42:\n      pop\n      pop\n      pop\n      pop\n      pop\n      swap1\n      dup1\n      0x03\n      add\n      sload\n      swap1\n      dup1\n      0x04\n      add\n      sload\n      swap1\n      dup1\n      0x05\n      add\n      sload\n      swap1\n      dup1\n      0x06\n      add\n      sload\n      swap1\n      dup1\n      0x07\n      add\n      sload\n      swap1\n      dup1\n      0x0a\n      add\n      sload\n      swap1\n      dup1\n      0x0b\n      add\n      0x00\n      swap1\n      sload\n      swap1\n      0x0100\n      exp\n      swap1\n      div\n      0xff\n      and\n      swap1\n      dup1\n      0x0b\n      add\n      0x01\n      swap1\n      sload\n      swap1\n      0x0100\n      exp\n      swap1\n      div\n      0xffffffffffffffffffffffffffffffffffffffff\n      and\n      swap1\n      dup1\n      0x0c\n      add\n      sload\n      swap1\n      pop\n      dup13\n      jump\t// out\n        /* \"Ejercicio5/Lotery/contracts/LotteryStorage.sol\":3453:3506  uint256 public constant MAX_COMMISSION_PERCENT = 1000 */\n    tag_18:\n        /* \"Ejercicio5/Lotery/contracts/LotteryStorage.sol\":3502:3506  1000 */\n      0x03e8\n        /* \"Ejercicio5/Lotery/contracts/LotteryStorage.sol\":3453:3506  uint256 public constant MAX_COMMISSION_PERCENT = 1000 */\n      dup2\n      jump\t// out\n        /* \"Ejercicio5/Lotery/contracts/LotteryStorage.sol\":3363:3398  uint256 public activeLotteriesCount */\n    tag_22:\n      sload(0x04)\n      dup2\n      jump\t// out\n        /* \"Ejercicio5/Lotery/contracts/LotteryStorage.sol\":3106:3134  uint256 public nextLotteryId */\n    tag_25:\n      sload(0x00)\n      dup2\n      jump\t// out\n        /* \"Ejercicio5/Lotery/contracts/LotteryStorage.sol\":3196:3241  uint256 public defaultCommissionPercent = 200 */\n    tag_28:\n      sload(0x02)\n      dup2\n      jump\t// out\n        /* \"Ejercicio5/Lotery/contracts/LotteryStorage.sol\":3284:3304  address public owner */\n    tag_31:\n      0x03\n      0x00\n      swap1\n      sload\n      swap1\n      0x0100\n      exp\n      swap1\n      div\n      0xffffffffffffffffffffffffffffffffffffffff\n      and\n      dup2\n      jump\t// out\n        /* \"Ejercicio5/Lotery/contracts/LotteryStorage.sol\":3585:3638  mapping(address => uint256) public pendingWithdrawals */\n    tag_37:\n      mstore(0x20, 0x05)\n      dup1\n      0x00\n      mstore\n      keccak256(0x00, 0x40)\n      0x00\n      swap2\n      pop\n      swap1\n      pop\n      sload\n      dup2\n      jump\t// out\n        /* \"#utility.yul\":88:205   */\n    tag_46:\n        /* \"#utility.yul\":197:198   */\n      0x00\n        /* \"#utility.yul\":194:195   */\n      0x00\n        /* \"#utility.yul\":187:199   */\n      revert\n        /* \"#utility.yul\":334:411   */\n    tag_48:\n        /* \"#utility.yul\":371:378   */\n      0x00\n        /* \"#utility.yul\":400:405   */\n      dup2\n        /* \"#utility.yul\":389:405   */\n      swap1\n      pop\n        /* \"#utility.yul\":334:411   */\n      swap2\n      swap1\n      pop\n      jump\t// out\n        /* \"#utility.yul\":417:539   */\n    tag_49:\n        /* \"#utility.yul\":490:514   */\n      tag_71\n        /* \"#utility.yul\":508:513   */\n      dup2\n        /* \"#utility.yul\":490:514   */\n      tag_48\n      jump\t// in\n    tag_71:\n        /* \"#utility.yul\":483:488   */\n      dup2\n        /* \"#utility.yul\":480:515   */\n      eq\n        /* \"#utility.yul\":470:533   */\n      tag_72\n      jumpi\n        /* \"#utility.yul\":529:530   */\n      0x00\n        /* \"#utility.yul\":526:527   */\n      0x00\n        /* \"#utility.yul\":519:531   */\n      revert\n        /* \"#utility.yul\":470:533   */\n    tag_72:\n        /* \"#utility.yul\":417:539   */\n      pop\n      jump\t// out\n        /* \"#utility.yul\":545:684   */\n    tag_50:\n        /* \"#utility.yul\":591:596   */\n      0x00\n        /* \"#utility.yul\":629:635   */\n      dup2\n        /* \"#utility.yul\":616:636   */\n      calldataload\n        /* \"#utility.yul\":607:636   */\n      swap1\n      pop\n        /* \"#utility.yul\":645:678   */\n      tag_74\n        /* \"#utility.yul\":672:677   */\n      dup2\n        /* \"#utility.yul\":645:678   */\n      tag_49\n      jump\t// in\n    tag_74:\n        /* \"#utility.yul\":545:684   */\n      swap3\n      swap2\n      pop\n      pop\n      jump\t// out\n        /* \"#utility.yul\":690:1019   */\n    tag_13:\n        /* \"#utility.yul\":749:755   */\n      0x00\n        /* \"#utility.yul\":798:800   */\n      0x20\n        /* \"#utility.yul\":786:795   */\n      dup3\n        /* \"#utility.yul\":777:784   */\n      dup5\n        /* \"#utility.yul\":773:796   */\n      sub\n        /* \"#utility.yul\":769:801   */\n      slt\n        /* \"#utility.yul\":766:885   */\n      iszero\n      tag_76\n      jumpi\n        /* \"#utility.yul\":804:883   */\n      tag_77\n      tag_46\n      jump\t// in\n    tag_77:\n        /* \"#utility.yul\":766:885   */\n    tag_76:\n        /* \"#utility.yul\":924:925   */\n      0x00\n        /* \"#utility.yul\":949:1002   */\n      tag_78\n        /* \"#utility.yul\":994:1001   */\n      dup5\n        /* \"#utility.yul\":985:991   */\n      dup3\n        /* \"#utility.yul\":974:983   */\n      dup6\n        /* \"#utility.yul\":970:992   */\n      add\n        /* \"#utility.yul\":949:1002   */\n      tag_50\n      jump\t// in\n    tag_78:\n        /* \"#utility.yul\":939:1002   */\n      swap2\n      pop\n        /* \"#utility.yul\":895:1012   */\n      pop\n        /* \"#utility.yul\":690:1019   */\n      swap3\n      swap2\n      pop\n      pop\n      jump\t// out\n        /* \"#utility.yul\":1025:1143   */\n    tag_51:\n        /* \"#utility.yul\":1112:1136   */\n      tag_80\n        /* \"#utility.yul\":1130:1135   */\n      dup2\n        /* \"#utility.yul\":1112:1136   */\n      tag_48\n      jump\t// in\n    tag_80:\n        /* \"#utility.yul\":1107:1110   */\n      dup3\n        /* \"#utility.yul\":1100:1137   */\n      mstore\n        /* \"#utility.yul\":1025:1143   */\n      pop\n      pop\n      jump\t// out\n        /* \"#utility.yul\":1149:1275   */\n    tag_52:\n        /* \"#utility.yul\":1186:1193   */\n      0x00\n        /* \"#utility.yul\":1226:1268   */\n      0xffffffffffffffffffffffffffffffffffffffff\n        /* \"#utility.yul\":1219:1224   */\n      dup3\n        /* \"#utility.yul\":1215:1269   */\n      and\n        /* \"#utility.yul\":1204:1269   */\n      swap1\n      pop\n        /* \"#utility.yul\":1149:1275   */\n      swap2\n      swap1\n      pop\n      jump\t// out\n        /* \"#utility.yul\":1281:1377   */\n    tag_53:\n        /* \"#utility.yul\":1318:1325   */\n      0x00\n        /* \"#utility.yul\":1347:1371   */\n      tag_83\n        /* \"#utility.yul\":1365:1370   */\n      dup3\n        /* \"#utility.yul\":1347:1371   */\n      tag_52\n      jump\t// in\n    tag_83:\n        /* \"#utility.yul\":1336:1371   */\n      swap1\n      pop\n        /* \"#utility.yul\":1281:1377   */\n      swap2\n      swap1\n      pop\n      jump\t// out\n        /* \"#utility.yul\":1383:1501   */\n    tag_54:\n        /* \"#utility.yul\":1470:1494   */\n      tag_85\n        /* \"#utility.yul\":1488:1493   */\n      dup2\n        /* \"#utility.yul\":1470:1494   */\n      tag_53\n      jump\t// in\n    tag_85:\n        /* \"#utility.yul\":1465:1468   */\n      dup3\n        /* \"#utility.yul\":1458:1495   */\n      mstore\n        /* \"#utility.yul\":1383:1501   */\n      pop\n      pop\n      jump\t// out\n        /* \"#utility.yul\":1507:1606   */\n    tag_55:\n        /* \"#utility.yul\":1559:1565   */\n      0x00\n        /* \"#utility.yul\":1593:1598   */\n      dup2\n        /* \"#utility.yul\":1587:1599   */\n      mload\n        /* \"#utility.yul\":1577:1599   */\n      swap1\n      pop\n        /* \"#utility.yul\":1507:1606   */\n      swap2\n      swap1\n      pop\n      jump\t// out\n        /* \"#utility.yul\":1612:1781   */\n    tag_56:\n        /* \"#utility.yul\":1696:1707   */\n      0x00\n        /* \"#utility.yul\":1730:1736   */\n      dup3\n        /* \"#utility.yul\":1725:1728   */\n      dup3\n        /* \"#utility.yul\":1718:1737   */\n      mstore\n        /* \"#utility.yul\":1770:1774   */\n      0x20\n        /* \"#utility.yul\":1765:1768   */\n      dup3\n        /* \"#utility.yul\":1761:1775   */\n      add\n        /* \"#utility.yul\":1746:1775   */\n      swap1\n      pop\n        /* \"#utility.yul\":1612:1781   */\n      swap3\n      swap2\n      pop\n      pop\n      jump\t// out\n        /* \"#utility.yul\":1787:1926   */\n    tag_57:\n        /* \"#utility.yul\":1876:1882   */\n      dup3\n        /* \"#utility.yul\":1871:1874   */\n      dup2\n        /* \"#utility.yul\":1866:1869   */\n      dup4\n        /* \"#utility.yul\":1860:1883   */\n      mcopy\n        /* \"#utility.yul\":1917:1918   */\n      0x00\n        /* \"#utility.yul\":1908:1914   */\n      dup4\n        /* \"#utility.yul\":1903:1906   */\n      dup4\n        /* \"#utility.yul\":1899:1915   */\n      add\n        /* \"#utility.yul\":1892:1919   */\n      mstore\n        /* \"#utility.yul\":1787:1926   */\n      pop\n      pop\n      pop\n      jump\t// out\n        /* \"#utility.yul\":1932:2034   */\n    tag_58:\n        /* \"#utility.yul\":1973:1979   */\n      0x00\n        /* \"#utility.yul\":2024:2026   */\n      0x1f\n        /* \"#utility.yul\":2020:2027   */\n      not\n        /* \"#utility.yul\":2015:2017   */\n      0x1f\n        /* \"#utility.yul\":2008:2013   */\n      dup4\n        /* \"#utility.yul\":2004:2018   */\n      add\n        /* \"#utility.yul\":2000:2028   */\n      and\n        /* \"#utility.yul\":1990:2028   */\n      swap1\n      pop\n        /* \"#utility.yul\":1932:2034   */\n      swap2\n      swap1\n      pop\n      jump\t// out\n        /* \"#utility.yul\":2040:2417   */\n    tag_59:\n        /* \"#utility.yul\":2128:2131   */\n      0x00\n        /* \"#utility.yul\":2156:2195   */\n      tag_91\n        /* \"#utility.yul\":2189:2194   */\n      dup3\n        /* \"#utility.yul\":2156:2195   */\n      tag_55\n      jump\t// in\n    tag_91:\n        /* \"#utility.yul\":2211:2282   */\n      tag_92\n        /* \"#utility.yul\":2275:2281   */\n      dup2\n        /* \"#utility.yul\":2270:2273   */\n      dup6\n        /* \"#utility.yul\":2211:2282   */\n      tag_56\n      jump\t// in\n    tag_92:\n        /* \"#utility.yul\":2204:2282   */\n      swap4\n      pop\n        /* \"#utility.yul\":2291:2356   */\n      tag_93\n        /* \"#utility.yul\":2349:2355   */\n      dup2\n        /* \"#utility.yul\":2344:2347   */\n      dup6\n        /* \"#utility.yul\":2337:2341   */\n      0x20\n        /* \"#utility.yul\":2330:2335   */\n      dup7\n        /* \"#utility.yul\":2326:2342   */\n      add\n        /* \"#utility.yul\":2291:2356   */\n      tag_57\n      jump\t// in\n    tag_93:\n        /* \"#utility.yul\":2381:2410   */\n      tag_94\n        /* \"#utility.yul\":2403:2409   */\n      dup2\n        /* \"#utility.yul\":2381:2410   */\n      tag_58\n      jump\t// in\n    tag_94:\n        /* \"#utility.yul\":2376:2379   */\n      dup5\n        /* \"#utility.yul\":2372:2411   */\n      add\n        /* \"#utility.yul\":2365:2411   */\n      swap2\n      pop\n        /* \"#utility.yul\":2132:2417   */\n      pop\n        /* \"#utility.yul\":2040:2417   */\n      swap3\n      swap2\n      pop\n      pop\n      jump\t// out\n        /* \"#utility.yul\":2423:2513   */\n    tag_60:\n        /* \"#utility.yul\":2457:2464   */\n      0x00\n        /* \"#utility.yul\":2500:2505   */\n      dup2\n        /* \"#utility.yul\":2493:2506   */\n      iszero\n        /* \"#utility.yul\":2486:2507   */\n      iszero\n        /* \"#utility.yul\":2475:2507   */\n      swap1\n      pop\n        /* \"#utility.yul\":2423:2513   */\n      swap2\n      swap1\n      pop\n      jump\t// out\n        /* \"#utility.yul\":2519:2628   */\n    tag_61:\n        /* \"#utility.yul\":2600:2621   */\n      tag_97\n        /* \"#utility.yul\":2615:2620   */\n      dup2\n        /* \"#utility.yul\":2600:2621   */\n      tag_60\n      jump\t// in\n    tag_97:\n        /* \"#utility.yul\":2595:2598   */\n      dup3\n        /* \"#utility.yul\":2588:2622   */\n      mstore\n        /* \"#utility.yul\":2519:2628   */\n      pop\n      pop\n      jump\t// out\n        /* \"#utility.yul\":2634:4158   */\n    tag_16:\n        /* \"#utility.yul\":3051:3055   */\n      0x00\n        /* \"#utility.yul\":3089:3092   */\n      0x0180\n        /* \"#utility.yul\":3078:3087   */\n      dup3\n        /* \"#utility.yul\":3074:3093   */\n      add\n        /* \"#utility.yul\":3066:3093   */\n      swap1\n      pop\n        /* \"#utility.yul\":3103:3174   */\n      tag_99\n        /* \"#utility.yul\":3171:3172   */\n      0x00\n        /* \"#utility.yul\":3160:3169   */\n      dup4\n        /* \"#utility.yul\":3156:3173   */\n      add\n        /* \"#utility.yul\":3147:3153   */\n      dup16\n        /* \"#utility.yul\":3103:3174   */\n      tag_51\n      jump\t// in\n    tag_99:\n        /* \"#utility.yul\":3184:3256   */\n      tag_100\n        /* \"#utility.yul\":3252:3254   */\n      0x20\n        /* \"#utility.yul\":3241:3250   */\n      dup4\n        /* \"#utility.yul\":3237:3255   */\n      add\n        /* \"#utility.yul\":3228:3234   */\n      dup15\n        /* \"#utility.yul\":3184:3256   */\n      tag_54\n      jump\t// in\n    tag_100:\n        /* \"#utility.yul\":3303:3312   */\n      dup2\n        /* \"#utility.yul\":3297:3301   */\n      dup2\n        /* \"#utility.yul\":3293:3313   */\n      sub\n        /* \"#utility.yul\":3288:3290   */\n      0x40\n        /* \"#utility.yul\":3277:3286   */\n      dup4\n        /* \"#utility.yul\":3273:3291   */\n      add\n        /* \"#utility.yul\":3266:3314   */\n      mstore\n        /* \"#utility.yul\":3331:3409   */\n      tag_101\n        /* \"#utility.yul\":3404:3408   */\n      dup2\n        /* \"#utility.yul\":3395:3401   */\n      dup14\n        /* \"#utility.yul\":3331:3409   */\n      tag_59\n      jump\t// in\n    tag_101:\n        /* \"#utility.yul\":3323:3409   */\n      swap1\n      pop\n        /* \"#utility.yul\":3419:3491   */\n      tag_102\n        /* \"#utility.yul\":3487:3489   */\n      0x60\n        /* \"#utility.yul\":3476:3485   */\n      dup4\n        /* \"#utility.yul\":3472:3490   */\n      add\n        /* \"#utility.yul\":3463:3469   */\n      dup13\n        /* \"#utility.yul\":3419:3491   */\n      tag_51\n      jump\t// in\n    tag_102:\n        /* \"#utility.yul\":3501:3574   */\n      tag_103\n        /* \"#utility.yul\":3569:3572   */\n      0x80\n        /* \"#utility.yul\":3558:3567   */\n      dup4\n        /* \"#utility.yul\":3554:3573   */\n      add\n        /* \"#utility.yul\":3545:3551   */\n      dup12\n        /* \"#utility.yul\":3501:3574   */\n      tag_51\n      jump\t// in\n    tag_103:\n        /* \"#utility.yul\":3584:3657   */\n      tag_104\n        /* \"#utility.yul\":3652:3655   */\n      0xa0\n        /* \"#utility.yul\":3641:3650   */\n      dup4\n        /* \"#utility.yul\":3637:3656   */\n      add\n        /* \"#utility.yul\":3628:3634   */\n      dup11\n        /* \"#utility.yul\":3584:3657   */\n      tag_51\n      jump\t// in\n    tag_104:\n        /* \"#utility.yul\":3667:3740   */\n      tag_105\n        /* \"#utility.yul\":3735:3738   */\n      0xc0\n        /* \"#utility.yul\":3724:3733   */\n      dup4\n        /* \"#utility.yul\":3720:3739   */\n      add\n        /* \"#utility.yul\":3711:3717   */\n      dup10\n        /* \"#utility.yul\":3667:3740   */\n      tag_51\n      jump\t// in\n    tag_105:\n        /* \"#utility.yul\":3750:3823   */\n      tag_106\n        /* \"#utility.yul\":3818:3821   */\n      0xe0\n        /* \"#utility.yul\":3807:3816   */\n      dup4\n        /* \"#utility.yul\":3803:3822   */\n      add\n        /* \"#utility.yul\":3794:3800   */\n      dup9\n        /* \"#utility.yul\":3750:3823   */\n      tag_51\n      jump\t// in\n    tag_106:\n        /* \"#utility.yul\":3833:3906   */\n      tag_107\n        /* \"#utility.yul\":3901:3904   */\n      0x0100\n        /* \"#utility.yul\":3890:3899   */\n      dup4\n        /* \"#utility.yul\":3886:3905   */\n      add\n        /* \"#utility.yul\":3877:3883   */\n      dup8\n        /* \"#utility.yul\":3833:3906   */\n      tag_51\n      jump\t// in\n    tag_107:\n        /* \"#utility.yul\":3916:3983   */\n      tag_108\n        /* \"#utility.yul\":3978:3981   */\n      0x0120\n        /* \"#utility.yul\":3967:3976   */\n      dup4\n        /* \"#utility.yul\":3963:3982   */\n      add\n        /* \"#utility.yul\":3954:3960   */\n      dup7\n        /* \"#utility.yul\":3916:3983   */\n      tag_61\n      jump\t// in\n    tag_108:\n        /* \"#utility.yul\":3993:4067   */\n      tag_109\n        /* \"#utility.yul\":4062:4065   */\n      0x0140\n        /* \"#utility.yul\":4051:4060   */\n      dup4\n        /* \"#utility.yul\":4047:4066   */\n      add\n        /* \"#utility.yul\":4037:4044   */\n      dup6\n        /* \"#utility.yul\":3993:4067   */\n      tag_54\n      jump\t// in\n    tag_109:\n        /* \"#utility.yul\":4077:4151   */\n      tag_110\n        /* \"#utility.yul\":4146:4149   */\n      0x0160\n        /* \"#utility.yul\":4135:4144   */\n      dup4\n        /* \"#utility.yul\":4131:4150   */\n      add\n        /* \"#utility.yul\":4121:4128   */\n      dup5\n        /* \"#utility.yul\":4077:4151   */\n      tag_51\n      jump\t// in\n    tag_110:\n        /* \"#utility.yul\":2634:4158   */\n      swap14\n      swap13\n      pop\n      pop\n      pop\n      pop\n      pop\n      pop\n      pop\n      pop\n      pop\n      pop\n      pop\n      pop\n      pop\n      jump\t// out\n        /* \"#utility.yul\":4164:4386   */\n    tag_20:\n        /* \"#utility.yul\":4257:4261   */\n      0x00\n        /* \"#utility.yul\":4295:4297   */\n      0x20\n        /* \"#utility.yul\":4284:4293   */\n      dup3\n        /* \"#utility.yul\":4280:4298   */\n      add\n        /* \"#utility.yul\":4272:4298   */\n      swap1\n      pop\n        /* \"#utility.yul\":4308:4379   */\n      tag_112\n        /* \"#utility.yul\":4376:4377   */\n      0x00\n        /* \"#utility.yul\":4365:4374   */\n      dup4\n        /* \"#utility.yul\":4361:4378   */\n      add\n        /* \"#utility.yul\":4352:4358   */\n      dup5\n        /* \"#utility.yul\":4308:4379   */\n      tag_51\n      jump\t// in\n    tag_112:\n        /* \"#utility.yul\":4164:4386   */\n      swap3\n      swap2\n      pop\n      pop\n      jump\t// out\n        /* \"#utility.yul\":4392:4614   */\n    tag_33:\n        /* \"#utility.yul\":4485:4489   */\n      0x00\n        /* \"#utility.yul\":4523:4525   */\n      0x20\n        /* \"#utility.yul\":4512:4521   */\n      dup3\n        /* \"#utility.yul\":4508:4526   */\n      add\n        /* \"#utility.yul\":4500:4526   */\n      swap1\n      pop\n        /* \"#utility.yul\":4536:4607   */\n      tag_114\n        /* \"#utility.yul\":4604:4605   */\n      0x00\n        /* \"#utility.yul\":4593:4602   */\n      dup4\n        /* \"#utility.yul\":4589:4606   */\n      add\n        /* \"#utility.yul\":4580:4586   */\n      dup5\n        /* \"#utility.yul\":4536:4607   */\n      tag_54\n      jump\t// in\n    tag_114:\n        /* \"#utility.yul\":4392:4614   */\n      swap3\n      swap2\n      pop\n      pop\n      jump\t// out\n        /* \"#utility.yul\":4620:4742   */\n    tag_62:\n        /* \"#utility.yul\":4693:4717   */\n      tag_116\n        /* \"#utility.yul\":4711:4716   */\n      dup2\n        /* \"#utility.yul\":4693:4717   */\n      tag_53\n      jump\t// in\n    tag_116:\n        /* \"#utility.yul\":4686:4691   */\n      dup2\n        /* \"#utility.yul\":4683:4718   */\n      eq\n        /* \"#utility.yul\":4673:4736   */\n      tag_117\n      jumpi\n        /* \"#utility.yul\":4732:4733   */\n      0x00\n        /* \"#utility.yul\":4729:4730   */\n      0x00\n        /* \"#utility.yul\":4722:4734   */\n      revert\n        /* \"#utility.yul\":4673:4736   */\n    tag_117:\n        /* \"#utility.yul\":4620:4742   */\n      pop\n      jump\t// out\n        /* \"#utility.yul\":4748:4887   */\n    tag_63:\n        /* \"#utility.yul\":4794:4799   */\n      0x00\n        /* \"#utility.yul\":4832:4838   */\n      dup2\n        /* \"#utility.yul\":4819:4839   */\n      calldataload\n        /* \"#utility.yul\":4810:4839   */\n      swap1\n      pop\n        /* \"#utility.yul\":4848:4881   */\n      tag_119\n        /* \"#utility.yul\":4875:4880   */\n      dup2\n        /* \"#utility.yul\":4848:4881   */\n      tag_62\n      jump\t// in\n    tag_119:\n        /* \"#utility.yul\":4748:4887   */\n      swap3\n      swap2\n      pop\n      pop\n      jump\t// out\n        /* \"#utility.yul\":4893:5222   */\n    tag_36:\n        /* \"#utility.yul\":4952:4958   */\n      0x00\n        /* \"#utility.yul\":5001:5003   */\n      0x20\n        /* \"#utility.yul\":4989:4998   */\n      dup3\n        /* \"#utility.yul\":4980:4987   */\n      dup5\n        /* \"#utility.yul\":4976:4999   */\n      sub\n        /* \"#utility.yul\":4972:5004   */\n      slt\n        /* \"#utility.yul\":4969:5088   */\n      iszero\n      tag_121\n      jumpi\n        /* \"#utility.yul\":5007:5086   */\n      tag_122\n      tag_46\n      jump\t// in\n    tag_122:\n        /* \"#utility.yul\":4969:5088   */\n    tag_121:\n        /* \"#utility.yul\":5127:5128   */\n      0x00\n        /* \"#utility.yul\":5152:5205   */\n      tag_123\n        /* \"#utility.yul\":5197:5204   */\n      dup5\n        /* \"#utility.yul\":5188:5194   */\n      dup3\n        /* \"#utility.yul\":5177:5186   */\n      dup6\n        /* \"#utility.yul\":5173:5195   */\n      add\n        /* \"#utility.yul\":5152:5205   */\n      tag_63\n      jump\t// in\n    tag_123:\n        /* \"#utility.yul\":5142:5205   */\n      swap2\n      pop\n        /* \"#utility.yul\":5098:5215   */\n      pop\n        /* \"#utility.yul\":4893:5222   */\n      swap3\n      swap2\n      pop\n      pop\n      jump\t// out\n        /* \"#utility.yul\":5228:5408   */\n    tag_64:\n        /* \"#utility.yul\":5276:5353   */\n      0x4e487b7100000000000000000000000000000000000000000000000000000000\n        /* \"#utility.yul\":5273:5274   */\n      0x00\n        /* \"#utility.yul\":5266:5354   */\n      mstore\n        /* \"#utility.yul\":5373:5377   */\n      0x22\n        /* \"#utility.yul\":5370:5371   */\n      0x04\n        /* \"#utility.yul\":5363:5378   */\n      mstore\n        /* \"#utility.yul\":5397:5401   */\n      0x24\n        /* \"#utility.yul\":5394:5395   */\n      0x00\n        /* \"#utility.yul\":5387:5402   */\n      revert\n        /* \"#utility.yul\":5414:5734   */\n    tag_40:\n        /* \"#utility.yul\":5458:5464   */\n      0x00\n        /* \"#utility.yul\":5495:5496   */\n      0x02\n        /* \"#utility.yul\":5489:5493   */\n      dup3\n        /* \"#utility.yul\":5485:5497   */\n      div\n        /* \"#utility.yul\":5475:5497   */\n      swap1\n      pop\n        /* \"#utility.yul\":5542:5543   */\n      0x01\n        /* \"#utility.yul\":5536:5540   */\n      dup3\n        /* \"#utility.yul\":5532:5544   */\n      and\n        /* \"#utility.yul\":5563:5581   */\n      dup1\n        /* \"#utility.yul\":5553:5634   */\n      tag_126\n      jumpi\n        /* \"#utility.yul\":5619:5623   */\n      0x7f\n        /* \"#utility.yul\":5611:5617   */\n      dup3\n        /* \"#utility.yul\":5607:5624   */\n      and\n        /* \"#utility.yul\":5597:5624   */\n      swap2\n      pop\n        /* \"#utility.yul\":5553:5634   */\n    tag_126:\n        /* \"#utility.yul\":5681:5683   */\n      0x20\n        /* \"#utility.yul\":5673:5679   */\n      dup3\n        /* \"#utility.yul\":5670:5684   */\n      lt\n        /* \"#utility.yul\":5650:5668   */\n      dup2\n        /* \"#utility.yul\":5647:5685   */\n      sub\n        /* \"#utility.yul\":5644:5728   */\n      tag_127\n      jumpi\n        /* \"#utility.yul\":5700:5718   */\n      tag_128\n      tag_64\n      jump\t// in\n    tag_128:\n        /* \"#utility.yul\":5644:5728   */\n    tag_127:\n        /* \"#utility.yul\":5465:5734   */\n      pop\n        /* \"#utility.yul\":5414:5734   */\n      swap2\n      swap1\n      pop\n      jump\t// out\n\n    auxdata: 0xa2646970667358221220a85a15c4a7c2a4b2da2a25d9a7472a92330a95cf9e326143ca566b1ea7629bf164736f6c634300081e0033\n}\n",
				"bytecode": {
					"linkReferences": {},
					"object": "608060405260c86002553480156013575f5ffd5b50610611806100215f395ff3fe608060405234801561000f575f5ffd5b506004361061007b575f3560e01c80638009df68116100595780638009df68146100f657806384143958146101145780638da5cb5b14610132578063f3f43703146101505761007b565b80631398e0761461007f57806377f00a6b146100ba5780637cb15bca146100d8575b5f5ffd5b61009960048036038101906100949190610335565b610180565b6040516100b19c9b9a99989796959493929190610438565b60405180910390f35b6100c26102ad565b6040516100cf91906104f7565b60405180910390f35b6100e06102b3565b6040516100ed91906104f7565b60405180910390f35b6100fe6102b9565b60405161010b91906104f7565b60405180910390f35b61011c6102be565b60405161012991906104f7565b60405180910390f35b61013a6102c4565b6040516101479190610510565b60405180910390f35b61016a60048036038101906101659190610553565b6102e9565b60405161017791906104f7565b60405180910390f35b6001602052805f5260405f205f91509050805f015490806001015f9054906101000a900473ffffffffffffffffffffffffffffffffffffffff16908060020180546101ca906105ab565b80601f01602080910402602001604051908101604052809291908181526020018280546101f6906105ab565b80156102415780601f1061021857610100808354040283529160200191610241565b820191905f5260205f20905b81548152906001019060200180831161022457829003601f168201915b50505050509080600301549080600401549080600501549080600601549080600701549080600a01549080600b015f9054906101000a900460ff169080600b0160019054906101000a900473ffffffffffffffffffffffffffffffffffffffff169080600c015490508c565b6103e881565b60045481565b5f5481565b60025481565b60035f9054906101000a900473ffffffffffffffffffffffffffffffffffffffff1681565b6005602052805f5260405f205f915090505481565b5f5ffd5b5f819050919050565b61031481610302565b811461031e575f5ffd5b50565b5f8135905061032f8161030b565b92915050565b5f6020828403121561034a576103496102fe565b5b5f61035784828501610321565b91505092915050565b61036981610302565b82525050565b5f73ffffffffffffffffffffffffffffffffffffffff82169050919050565b5f6103988261036f565b9050919050565b6103a88161038e565b82525050565b5f81519050919050565b5f82825260208201905092915050565b8281835e5f83830152505050565b5f601f19601f8301169050919050565b5f6103f0826103ae565b6103fa81856103b8565b935061040a8185602086016103c8565b610413816103d6565b840191505092915050565b5f8115159050919050565b6104328161041e565b82525050565b5f6101808201905061044c5f83018f610360565b610459602083018e61039f565b818103604083015261046b818d6103e6565b905061047a606083018c610360565b610487608083018b610360565b61049460a083018a610360565b6104a160c0830189610360565b6104ae60e0830188610360565b6104bc610100830187610360565b6104ca610120830186610429565b6104d861014083018561039f565b6104e6610160830184610360565b9d9c50505050505050505050505050565b5f60208201905061050a5f830184610360565b92915050565b5f6020820190506105235f83018461039f565b92915050565b6105328161038e565b811461053c575f5ffd5b50565b5f8135905061054d81610529565b92915050565b5f60208284031215610568576105676102fe565b5b5f6105758482850161053f565b91505092915050565b7f4e487b71000000000000000000000000000000000000000000000000000000005f52602260045260245ffd5b5f60028204905060018216806105c257607f821691505b6020821081036105d5576105d461057e565b5b5091905056fea2646970667358221220a85a15c4a7c2a4b2da2a25d9a7472a92330a95cf9e326143ca566b1ea7629bf164736f6c634300081e0033",
					"opcodes": "PUSH1 0x80 PUSH1 0x40 MSTORE PUSH1 0xC8 PUSH1 0x2 SSTORE CALLVALUE DUP1 ISZERO PUSH1 0x13 JUMPI PUSH0 PUSH0 REVERT JUMPDEST POP PUSH2 0x611 DUP1 PUSH2 0x21 PUSH0 CODECOPY PUSH0 RETURN INVALID PUSH1 0x80 PUSH1 0x40 MSTORE CALLVALUE DUP1 ISZERO PUSH2 0xF JUMPI PUSH0 PUSH0 REVERT JUMPDEST POP PUSH1 0x4 CALLDATASIZE LT PUSH2 0x7B JUMPI PUSH0 CALLDATALOAD PUSH1 0xE0 SHR DUP1 PUSH4 0x8009DF68 GT PUSH2 0x59 JUMPI DUP1 PUSH4 0x8009DF68 EQ PUSH2 0xF6 JUMPI DUP1 PUSH4 0x84143958 EQ PUSH2 0x114 JUMPI DUP1 PUSH4 0x8DA5CB5B EQ PUSH2 0x132 JUMPI DUP1 PUSH4 0xF3F43703 EQ PUSH2 0x150 JUMPI PUSH2 0x7B JUMP JUMPDEST DUP1 PUSH4 0x1398E076 EQ PUSH2 0x7F JUMPI DUP1 PUSH4 0x77F00A6B EQ PUSH2 0xBA JUMPI DUP1 PUSH4 0x7CB15BCA EQ PUSH2 0xD8 JUMPI JUMPDEST PUSH0 PUSH0 REVERT JUMPDEST PUSH2 0x99 PUSH1 0x4 DUP1 CALLDATASIZE SUB DUP2 ADD SWAP1 PUSH2 0x94 SWAP2 SWAP1 PUSH2 0x335 JUMP JUMPDEST PUSH2 0x180 JUMP JUMPDEST PUSH1 0x40 MLOAD PUSH2 0xB1 SWAP13 SWAP12 SWAP11 SWAP10 SWAP9 SWAP8 SWAP7 SWAP6 SWAP5 SWAP4 SWAP3 SWAP2 SWAP1 PUSH2 0x438 JUMP JUMPDEST PUSH1 0x40 MLOAD DUP1 SWAP2 SUB SWAP1 RETURN JUMPDEST PUSH2 0xC2 PUSH2 0x2AD JUMP JUMPDEST PUSH1 0x40 MLOAD PUSH2 0xCF SWAP2 SWAP1 PUSH2 0x4F7 JUMP JUMPDEST PUSH1 0x40 MLOAD DUP1 SWAP2 SUB SWAP1 RETURN JUMPDEST PUSH2 0xE0 PUSH2 0x2B3 JUMP JUMPDEST PUSH1 0x40 MLOAD PUSH2 0xED SWAP2 SWAP1 PUSH2 0x4F7 JUMP JUMPDEST PUSH1 0x40 MLOAD DUP1 SWAP2 SUB SWAP1 RETURN JUMPDEST PUSH2 0xFE PUSH2 0x2B9 JUMP JUMPDEST PUSH1 0x40 MLOAD PUSH2 0x10B SWAP2 SWAP1 PUSH2 0x4F7 JUMP JUMPDEST PUSH1 0x40 MLOAD DUP1 SWAP2 SUB SWAP1 RETURN JUMPDEST PUSH2 0x11C PUSH2 0x2BE JUMP JUMPDEST PUSH1 0x40 MLOAD PUSH2 0x129 SWAP2 SWAP1 PUSH2 0x4F7 JUMP JUMPDEST PUSH1 0x40 MLOAD DUP1 SWAP2 SUB SWAP1 RETURN JUMPDEST PUSH2 0x13A PUSH2 0x2C4 JUMP JUMPDEST PUSH1 0x40 MLOAD PUSH2 0x147 SWAP2 SWAP1 PUSH2 0x510 JUMP JUMPDEST PUSH1 0x40 MLOAD DUP1 SWAP2 SUB SWAP1 RETURN JUMPDEST PUSH2 0x16A PUSH1 0x4 DUP1 CALLDATASIZE SUB DUP2 ADD SWAP1 PUSH2 0x165 SWAP2 SWAP1 PUSH2 0x553 JUMP JUMPDEST PUSH2 0x2E9 JUMP JUMPDEST PUSH1 0x40 MLOAD PUSH2 0x177 SWAP2 SWAP1 PUSH2 0x4F7 JUMP JUMPDEST PUSH1 0x40 MLOAD DUP1 SWAP2 SUB SWAP1 RETURN JUMPDEST PUSH1 0x1 PUSH1 0x20 MSTORE DUP1 PUSH0 MSTORE PUSH1 0x40 PUSH0 KECCAK256 PUSH0 SWAP2 POP SWAP1 POP DUP1 PUSH0 ADD SLOAD SWAP1 DUP1 PUSH1 0x1 ADD PUSH0 SWAP1 SLOAD SWAP1 PUSH2 0x100 EXP SWAP1 DIV PUSH20 0xFFFFFFFFFFFFFFFFFFFFFFFFFFFFFFFFFFFFFFFF AND SWAP1 DUP1 PUSH1 0x2 ADD DUP1 SLOAD PUSH2 0x1CA SWAP1 PUSH2 0x5AB JUMP JUMPDEST DUP1 PUSH1 0x1F ADD PUSH1 0x20 DUP1 SWAP2 DIV MUL PUSH1 0x20 ADD PUSH1 0x40 MLOAD SWAP1 DUP2 ADD PUSH1 0x40 MSTORE DUP1 SWAP3 SWAP2 SWAP1 DUP2 DUP2 MSTORE PUSH1 0x20 ADD DUP3 DUP1 SLOAD PUSH2 0x1F6 SWAP1 PUSH2 0x5AB JUMP JUMPDEST DUP1 ISZERO PUSH2 0x241 JUMPI DUP1 PUSH1 0x1F LT PUSH2 0x218 JUMPI PUSH2 0x100 DUP1 DUP4 SLOAD DIV MUL DUP4 MSTORE SWAP2 PUSH1 0x20 ADD SWAP2 PUSH2 0x241 JUMP JUMPDEST DUP3 ADD SWAP2 SWAP1 PUSH0 MSTORE PUSH1 0x20 PUSH0 KECCAK256 SWAP1 JUMPDEST DUP2 SLOAD DUP2 MSTORE SWAP1 PUSH1 0x1 ADD SWAP1 PUSH1 0x20 ADD DUP1 DUP4 GT PUSH2 0x224 JUMPI DUP3 SWAP1 SUB PUSH1 0x1F AND DUP3 ADD SWAP2 JUMPDEST POP POP POP POP POP SWAP1 DUP1 PUSH1 0x3 ADD SLOAD SWAP1 DUP1 PUSH1 0x4 ADD SLOAD SWAP1 DUP1 PUSH1 0x5 ADD SLOAD SWAP1 DUP1 PUSH1 0x6 ADD SLOAD SWAP1 DUP1 PUSH1 0x7 ADD SLOAD SWAP1 DUP1 PUSH1 0xA ADD SLOAD SWAP1 DUP1 PUSH1 0xB ADD PUSH0 SWAP1 SLOAD SWAP1 PUSH2 0x100 EXP SWAP1 DIV PUSH1 0xFF AND SWAP1 DUP1 PUSH1 0xB ADD PUSH1 0x1 SWAP1 SLOAD SWAP1 PUSH2 0x100 EXP SWAP1 DIV PUSH20 0xFFFFFFFFFFFFFFFFFFFFFFFFFFFFFFFFFFFFFFFF AND SWAP1 DUP1 PUSH1 0xC ADD SLOAD SWAP1 POP DUP13 JUMP JUMPDEST PUSH2 0x3E8 DUP2 JUMP JUMPDEST PUSH1 0x4 SLOAD DUP2 JUMP JUMPDEST PUSH0 SLOAD DUP2 JUMP JUMPDEST PUSH1 0x2 SLOAD DUP2 JUMP JUMPDEST PUSH1 0x3 PUSH0 SWAP1 SLOAD SWAP1 PUSH2 0x100 EXP SWAP1 DIV PUSH20 0xFFFFFFFFFFFFFFFFFFFFFFFFFFFFFFFFFFFFFFFF AND DUP2 JUMP JUMPDEST PUSH1 0x5 PUSH1 0x20 MSTORE DUP1 PUSH0 MSTORE PUSH1 0x40 PUSH0 KECCAK256 PUSH0 SWAP2 POP SWAP1 POP SLOAD DUP2 JUMP JUMPDEST PUSH0 PUSH0 REVERT JUMPDEST PUSH0 DUP2 SWAP1 POP SWAP2 SWAP1 POP JUMP JUMPDEST PUSH2 0x314 DUP2 PUSH2 0x302 JUMP JUMPDEST DUP2 EQ PUSH2 0x31E JUMPI PUSH0 PUSH0 REVERT JUMPDEST POP JUMP JUMPDEST PUSH0 DUP2 CALLDATALOAD SWAP1 POP PUSH2 0x32F DUP2 PUSH2 0x30B JUMP JUMPDEST SWAP3 SWAP2 POP POP JUMP JUMPDEST PUSH0 PUSH1 0x20 DUP3 DUP5 SUB SLT ISZERO PUSH2 0x34A JUMPI PUSH2 0x349 PUSH2 0x2FE JUMP JUMPDEST JUMPDEST PUSH0 PUSH2 0x357 DUP5 DUP3 DUP6 ADD PUSH2 0x321 JUMP JUMPDEST SWAP2 POP POP SWAP3 SWAP2 POP POP JUMP JUMPDEST PUSH2 0x369 DUP2 PUSH2 0x302 JUMP JUMPDEST DUP3 MSTORE POP POP JUMP JUMPDEST PUSH0 PUSH20 0xFFFFFFFFFFFFFFFFFFFFFFFFFFFFFFFFFFFFFFFF DUP3 AND SWAP1 POP SWAP2 SWAP1 POP JUMP JUMPDEST PUSH0 PUSH2 0x398 DUP3 PUSH2 0x36F JUMP JUMPDEST SWAP1 POP SWAP2 SWAP1 POP JUMP JUMPDEST PUSH2 0x3A8 DUP2 PUSH2 0x38E JUMP JUMPDEST DUP3 MSTORE POP POP JUMP JUMPDEST PUSH0 DUP2 MLOAD SWAP1 POP SWAP2 SWAP1 POP JUMP JUMPDEST PUSH0 DUP3 DUP3 MSTORE PUSH1 0x20 DUP3 ADD SWAP1 POP SWAP3 SWAP2 POP POP JUMP JUMPDEST DUP3 DUP2 DUP4 MCOPY PUSH0 DUP4 DUP4 ADD MSTORE POP POP POP JUMP JUMPDEST PUSH0 PUSH1 0x1F NOT PUSH1 0x1F DUP4 ADD AND SWAP1 POP SWAP2 SWAP1 POP JUMP JUMPDEST PUSH0 PUSH2 0x3F0 DUP3 PUSH2 0x3AE JUMP JUMPDEST PUSH2 0x3FA DUP2 DUP6 PUSH2 0x3B8 JUMP JUMPDEST SWAP4 POP PUSH2 0x40A DUP2 DUP6 PUSH1 0x20 DUP7 ADD PUSH2 0x3C8 JUMP JUMPDEST PUSH2 0x413 DUP2 PUSH2 0x3D6 JUMP JUMPDEST DUP5 ADD SWAP2 POP POP SWAP3 SWAP2 POP POP JUMP JUMPDEST PUSH0 DUP2 ISZERO ISZERO SWAP1 POP SWAP2 SWAP1 POP JUMP JUMPDEST PUSH2 0x432 DUP2 PUSH2 0x41E JUMP JUMPDEST DUP3 MSTORE POP POP JUMP JUMPDEST PUSH0 PUSH2 0x180 DUP3 ADD SWAP1 POP PUSH2 0x44C PUSH0 DUP4 ADD DUP16 PUSH2 0x360 JUMP JUMPDEST PUSH2 0x459 PUSH1 0x20 DUP4 ADD DUP15 PUSH2 0x39F JUMP JUMPDEST DUP2 DUP2 SUB PUSH1 0x40 DUP4 ADD MSTORE PUSH2 0x46B DUP2 DUP14 PUSH2 0x3E6 JUMP JUMPDEST SWAP1 POP PUSH2 0x47A PUSH1 0x60 DUP4 ADD DUP13 PUSH2 0x360 JUMP JUMPDEST PUSH2 0x487 PUSH1 0x80 DUP4 ADD DUP12 PUSH2 0x360 JUMP JUMPDEST PUSH2 0x494 PUSH1 0xA0 DUP4 ADD DUP11 PUSH2 0x360 JUMP JUMPDEST PUSH2 0x4A1 PUSH1 0xC0 DUP4 ADD DUP10 PUSH2 0x360 JUMP JUMPDEST PUSH2 0x4AE PUSH1 0xE0 DUP4 ADD DUP9 PUSH2 0x360 JUMP JUMPDEST PUSH2 0x4BC PUSH2 0x100 DUP4 ADD DUP8 PUSH2 0x360 JUMP JUMPDEST PUSH2 0x4CA PUSH2 0x120 DUP4 ADD DUP7 PUSH2 0x429 JUMP JUMPDEST PUSH2 0x4D8 PUSH2 0x140 DUP4 ADD DUP6 PUSH2 0x39F JUMP JUMPDEST PUSH2 0x4E6 PUSH2 0x160 DUP4 ADD DUP5 PUSH2 0x360 JUMP JUMPDEST SWAP14 SWAP13 POP POP POP POP POP POP POP POP POP POP POP POP POP JUMP JUMPDEST PUSH0 PUSH1 0x20 DUP3 ADD SWAP1 POP PUSH2 0x50A PUSH0 DUP4 ADD DUP5 PUSH2 0x360 JUMP JUMPDEST SWAP3 SWAP2 POP POP JUMP JUMPDEST PUSH0 PUSH1 0x20 DUP3 ADD SWAP1 POP PUSH2 0x523 PUSH0 DUP4 ADD DUP5 PUSH2 0x39F JUMP JUMPDEST SWAP3 SWAP2 POP POP JUMP JUMPDEST PUSH2 0x532 DUP2 PUSH2 0x38E JUMP JUMPDEST DUP2 EQ PUSH2 0x53C JUMPI PUSH0 PUSH0 REVERT JUMPDEST POP JUMP JUMPDEST PUSH0 DUP2 CALLDATALOAD SWAP1 POP PUSH2 0x54D DUP2 PUSH2 0x529 JUMP JUMPDEST SWAP3 SWAP2 POP POP JUMP JUMPDEST PUSH0 PUSH1 0x20 DUP3 DUP5 SUB SLT ISZERO PUSH2 0x568 JUMPI PUSH2 0x567 PUSH2 0x2FE JUMP JUMPDEST JUMPDEST PUSH0 PUSH2 0x575 DUP5 DUP3 DUP6 ADD PUSH2 0x53F JUMP JUMPDEST SWAP2 POP POP SWAP3 SWAP2 POP POP JUMP JUMPDEST PUSH32 0x4E487B7100000000000000000000000000000000000000000000000000000000 PUSH0 MSTORE PUSH1 0x22 PUSH1 0x4 MSTORE PUSH1 0x24 PUSH0 REVERT JUMPDEST PUSH0 PUSH1 0x2 DUP3 DIV SWAP1 POP PUSH1 0x1 DUP3 AND DUP1 PUSH2 0x5C2 JUMPI PUSH1 0x7F DUP3 AND SWAP2 POP JUMPDEST PUSH1 0x20 DUP3 LT DUP2 SUB PUSH2 0x5D5 JUMPI PUSH2 0x5D4 PUSH2 0x57E JUMP JUMPDEST JUMPDEST POP SWAP2 SWAP1 POP JUMP INVALID LOG2 PUSH5 0x6970667358 0x22 SLT KECCAK256 0xA8 GAS ISZERO 0xC4 0xA7 0xC2 LOG4 0xB2 0xDA 0x2A 0x25 0xD9 0xA7 SELFBALANCE 0x2A SWAP3 CALLER EXP SWAP6 0xCF SWAP15 ORIGIN PUSH2 0x43CA JUMP PUSH12 0x1EA7629BF164736F6C634300 ADDMOD 0x1E STOP CALLER "
				},
				"gasEstimates": {
					"creation": {
						"codeDepositCost": "310600",
						"executionCost": "22453",
						"totalCost": "333053"
					},
					"external": {
						"MAX_COMMISSION_PERCENT()": "348",
						"activeLotteriesCount()": "2470",
						"defaultCommissionPercent()": "2447",
						"lotteries(uint256)": "infinite",
						"nextLotteryId()": "2424",
						"owner()": "2552",
						"pendingWithdrawals(address)": "2868"
					}
				},
				"methodIdentifiers": {
					"MAX_COMMISSION_PERCENT()": "77f00a6b",
					"activeLotteriesCount()": "7cb15bca",
					"defaultCommissionPercent()": "84143958",
					"lotteries(uint256)": "1398e076",
					"nextLotteryId()": "8009df68",
					"owner()": "8da5cb5b",
					"pendingWithdrawals(address)": "f3f43703"
				}
			},
			"storageLayout": {
				"storage": [
					{
						"astId": 1363,
						"contract": "Ejercicio5/Lotery/contracts/LotteryStorage.sol:LotteryStorage",
						"label": "nextLotteryId",
						"offset": 0,
						"slot": "0",
						"type": "t_uint256"
					},
					{
						"astId": 1368,
						"contract": "Ejercicio5/Lotery/contracts/LotteryStorage.sol:LotteryStorage",
						"label": "lotteries",
						"offset": 0,
						"slot": "1",
						"type": "t_mapping(t_uint256,t_struct(Lottery)1333_storage)"
					},
					{
						"astId": 1371,
						"contract": "Ejercicio5/Lotery/contracts/LotteryStorage.sol:LotteryStorage",
						"label": "defaultCommissionPercent",
						"offset": 0,
						"slot": "2",
						"type": "t_uint256"
					},
					{
						"astId": 1373,
						"contract": "Ejercicio5/Lotery/contracts/LotteryStorage.sol:LotteryStorage",
						"label": "owner",
						"offset": 0,
						"slot": "3",
						"type": "t_address"
					},
					{
						"astId": 1375,
						"contract": "Ejercicio5/Lotery/contracts/LotteryStorage.sol:LotteryStorage",
						"label": "activeLotteriesCount",
						"offset": 0,
						"slot": "4",
						"type": "t_uint256"
					},
					{
						"astId": 1382,
						"contract": "Ejercicio5/Lotery/contracts/LotteryStorage.sol:LotteryStorage",
						"label": "pendingWithdrawals",
						"offset": 0,
						"slot": "5",
						"type": "t_mapping(t_address,t_uint256)"
					}
				],
				"types": {
					"t_address": {
						"encoding": "inplace",
						"label": "address",
						"numberOfBytes": "20"
					},
					"t_array(t_address)dyn_storage": {
						"base": "t_address",
						"encoding": "dynamic_array",
						"label": "address[]",
						"numberOfBytes": "32"
					},
					"t_bool": {
						"encoding": "inplace",
						"label": "bool",
						"numberOfBytes": "1"
					},
					"t_mapping(t_address,t_uint256)": {
						"encoding": "mapping",
						"key": "t_address",
						"label": "mapping(address => uint256)",
						"numberOfBytes": "32",
						"value": "t_uint256"
					},
					"t_mapping(t_uint256,t_address)": {
						"encoding": "mapping",
						"key": "t_uint256",
						"label": "mapping(uint256 => address)",
						"numberOfBytes": "32",
						"value": "t_address"
					},
					"t_mapping(t_uint256,t_struct(Lottery)1333_storage)": {
						"encoding": "mapping",
						"key": "t_uint256",
						"label": "mapping(uint256 => struct LotteryStorage.Lottery)",
						"numberOfBytes": "32",
						"value": "t_struct(Lottery)1333_storage"
					},
					"t_string_storage": {
						"encoding": "bytes",
						"label": "string",
						"numberOfBytes": "32"
					},
					"t_struct(Lottery)1333_storage": {
						"encoding": "inplace",
						"label": "struct LotteryStorage.Lottery",
						"members": [
							{
								"astId": 1299,
								"contract": "Ejercicio5/Lotery/contracts/LotteryStorage.sol:LotteryStorage",
								"label": "id",
								"offset": 0,
								"slot": "0",
								"type": "t_uint256"
							},
							{
								"astId": 1301,
								"contract": "Ejercicio5/Lotery/contracts/LotteryStorage.sol:LotteryStorage",
								"label": "creator",
								"offset": 0,
								"slot": "1",
								"type": "t_address"
							},
							{
								"astId": 1303,
								"contract": "Ejercicio5/Lotery/contracts/LotteryStorage.sol:LotteryStorage",
								"label": "name",
								"offset": 0,
								"slot": "2",
								"type": "t_string_storage"
							},
							{
								"astId": 1305,
								"contract": "Ejercicio5/Lotery/contracts/LotteryStorage.sol:LotteryStorage",
								"label": "ticketPrice",
								"offset": 0,
								"slot": "3",
								"type": "t_uint256"
							},
							{
								"astId": 1307,
								"contract": "Ejercicio5/Lotery/contracts/LotteryStorage.sol:LotteryStorage",
								"label": "maxTickets",
								"offset": 0,
								"slot": "4",
								"type": "t_uint256"
							},
							{
								"astId": 1309,
								"contract": "Ejercicio5/Lotery/contracts/LotteryStorage.sol:LotteryStorage",
								"label": "ticketsSold",
								"offset": 0,
								"slot": "5",
								"type": "t_uint256"
							},
							{
								"astId": 1311,
								"contract": "Ejercicio5/Lotery/contracts/LotteryStorage.sol:LotteryStorage",
								"label": "startTime",
								"offset": 0,
								"slot": "6",
								"type": "t_uint256"
							},
							{
								"astId": 1313,
								"contract": "Ejercicio5/Lotery/contracts/LotteryStorage.sol:LotteryStorage",
								"label": "endTime",
								"offset": 0,
								"slot": "7",
								"type": "t_uint256"
							},
							{
								"astId": 1317,
								"contract": "Ejercicio5/Lotery/contracts/LotteryStorage.sol:LotteryStorage",
								"label": "ticketsByAddress",
								"offset": 0,
								"slot": "8",
								"type": "t_mapping(t_address,t_uint256)"
							},
							{
								"astId": 1320,
								"contract": "Ejercicio5/Lotery/contracts/LotteryStorage.sol:LotteryStorage",
								"label": "participants",
								"offset": 0,
								"slot": "9",
								"type": "t_array(t_address)dyn_storage"
							},
							{
								"astId": 1322,
								"contract": "Ejercicio5/Lotery/contracts/LotteryStorage.sol:LotteryStorage",
								"label": "commissionPercent",
								"offset": 0,
								"slot": "10",
								"type": "t_uint256"
							},
							{
								"astId": 1324,
								"contract": "Ejercicio5/Lotery/contracts/LotteryStorage.sol:LotteryStorage",
								"label": "closed",
								"offset": 0,
								"slot": "11",
								"type": "t_bool"
							},
							{
								"astId": 1326,
								"contract": "Ejercicio5/Lotery/contracts/LotteryStorage.sol:LotteryStorage",
								"label": "winner",
								"offset": 1,
								"slot": "11",
								"type": "t_address"
							},
							{
								"astId": 1328,
								"contract": "Ejercicio5/Lotery/contracts/LotteryStorage.sol:LotteryStorage",
								"label": "pot",
								"offset": 0,
								"slot": "12",
								"type": "t_uint256"
							},
							{
								"astId": 1332,
								"contract": "Ejercicio5/Lotery/contracts/LotteryStorage.sol:LotteryStorage",
								"label": "ticketOwner",
								"offset": 0,
								"slot": "13",
								"type": "t_mapping(t_uint256,t_address)"
							}
						],
						"numberOfBytes": "448"
					},
					"t_uint256": {
						"encoding": "inplace",
						"label": "uint256",
						"numberOfBytes": "32"
					}
				}
			},
			"userdoc": {
				"events": {
					"CommissionChanged(uint256,uint256,uint256)": {
						"notice": "Se emite cuando se modifica la comisión de una lotería"
					},
					"LotteryClosed(uint256,address)": {
						"notice": "Se emite cuando se cierra una lotería"
					},
					"LotteryCreated(uint256,address)": {
						"notice": "Se emite cuando se crea una nueva lotería"
					},
					"TicketPurchased(uint256,address,uint256)": {
						"notice": "Se emite cuando un usuario compra boletos"
					},
					"WinnerSelected(uint256,address,uint256)": {
						"notice": "Se emite cuando se selecciona un ganador"
					}
				},
				"kind": "user",
				"methods": {},
				"version": 1
			}
		}
	}
}