{
	"Ejercicio5/Lotery/contracts/Lottery.sol": {
		"Lottery": {
			"abi": [
				{
					"inputs": [],
					"stateMutability": "nonpayable",
					"type": "constructor"
				},
				{
					"anonymous": false,
					"inputs": [
						{
							"indexed": true,
							"internalType": "uint256",
							"name": "lotteryId",
							"type": "uint256"
						},
						{
							"indexed": false,
							"internalType": "uint256",
							"name": "oldPercent",
							"type": "uint256"
						},
						{
							"indexed": false,
							"internalType": "uint256",
							"name": "newPercent",
							"type": "uint256"
						}
					],
					"name": "CommissionChanged",
					"type": "event"
				},
				{
					"anonymous": false,
					"inputs": [
						{
							"indexed": true,
							"internalType": "uint256",
							"name": "lotteryId",
							"type": "uint256"
						},
						{
							"indexed": true,
							"internalType": "address",
							"name": "closer",
							"type": "address"
						}
					],
					"name": "LotteryClosed",
					"type": "event"
				},
				{
					"anonymous": false,
					"inputs": [
						{
							"indexed": true,
							"internalType": "uint256",
							"name": "lotteryId",
							"type": "uint256"
						},
						{
							"indexed": true,
							"internalType": "address",
							"name": "creator",
							"type": "address"
						}
					],
					"name": "LotteryCreated",
					"type": "event"
				},
				{
					"anonymous": false,
					"inputs": [
						{
							"indexed": true,
							"internalType": "uint256",
							"name": "lotteryId",
							"type": "uint256"
						},
						{
							"indexed": true,
							"internalType": "address",
							"name": "buyer",
							"type": "address"
						},
						{
							"indexed": false,
							"internalType": "uint256",
							"name": "quantity",
							"type": "uint256"
						}
					],
					"name": "TicketPurchased",
					"type": "event"
				},
				{
					"anonymous": false,
					"inputs": [
						{
							"indexed": true,
							"internalType": "uint256",
							"name": "lotteryId",
							"type": "uint256"
						},
						{
							"indexed": true,
							"internalType": "address",
							"name": "winner",
							"type": "address"
						},
						{
							"indexed": false,
							"internalType": "uint256",
							"name": "prize",
							"type": "uint256"
						}
					],
					"name": "WinnerSelected",
					"type": "event"
				},
				{
					"inputs": [],
					"name": "MAX_COMMISSION_PERCENT",
					"outputs": [
						{
							"internalType": "uint256",
							"name": "",
							"type": "uint256"
						}
					],
					"stateMutability": "view",
					"type": "function"
				},
				{
					"inputs": [],
					"name": "activeLotteriesCount",
					"outputs": [
						{
							"internalType": "uint256",
							"name": "",
							"type": "uint256"
						}
					],
					"stateMutability": "view",
					"type": "function"
				},
				{
					"inputs": [
						{
							"internalType": "uint256",
							"name": "lotteryId",
							"type": "uint256"
						},
						{
							"internalType": "uint256",
							"name": "quantity",
							"type": "uint256"
						}
					],
					"name": "buyTickets",
					"outputs": [],
					"stateMutability": "payable",
					"type": "function"
				},
				{
					"inputs": [
						{
							"internalType": "uint256",
							"name": "lotteryId",
							"type": "uint256"
						}
					],
					"name": "canCloseLottery",
					"outputs": [
						{
							"internalType": "bool",
							"name": "",
							"type": "bool"
						}
					],
					"stateMutability": "view",
					"type": "function"
				},
				{
					"inputs": [
						{
							"internalType": "uint256",
							"name": "lotteryId",
							"type": "uint256"
						}
					],
					"name": "claimPrize",
					"outputs": [],
					"stateMutability": "nonpayable",
					"type": "function"
				},
				{
					"inputs": [
						{
							"internalType": "uint256",
							"name": "lotteryId",
							"type": "uint256"
						}
					],
					"name": "closeLottery",
					"outputs": [],
					"stateMutability": "nonpayable",
					"type": "function"
				},
				{
					"inputs": [
						{
							"internalType": "string",
							"name": "name",
							"type": "string"
						},
						{
							"internalType": "uint256",
							"name": "ticketPrice",
							"type": "uint256"
						},
						{
							"internalType": "uint256",
							"name": "maxTickets",
							"type": "uint256"
						},
						{
							"internalType": "uint256",
							"name": "endTime",
							"type": "uint256"
						},
						{
							"internalType": "uint256",
							"name": "commissionPercent",
							"type": "uint256"
						}
					],
					"name": "createLottery",
					"outputs": [
						{
							"internalType": "uint256",
							"name": "",
							"type": "uint256"
						}
					],
					"stateMutability": "nonpayable",
					"type": "function"
				},
				{
					"inputs": [],
					"name": "defaultCommissionPercent",
					"outputs": [
						{
							"internalType": "uint256",
							"name": "",
							"type": "uint256"
						}
					],
					"stateMutability": "view",
					"type": "function"
				},
				{
					"inputs": [],
					"name": "getActiveLotteries",
					"outputs": [
						{
							"internalType": "uint256[]",
							"name": "",
							"type": "uint256[]"
						}
					],
					"stateMutability": "view",
					"type": "function"
				},
				{
					"inputs": [],
					"name": "getContractSummary",
					"outputs": [
						{
							"internalType": "uint256",
							"name": "totalLotteries",
							"type": "uint256"
						},
						{
							"internalType": "uint256",
							"name": "activeLotteries",
							"type": "uint256"
						},
						{
							"internalType": "address",
							"name": "contractOwner",
							"type": "address"
						},
						{
							"internalType": "uint256",
							"name": "defaultCommission",
							"type": "uint256"
						}
					],
					"stateMutability": "view",
					"type": "function"
				},
				{
					"inputs": [
						{
							"internalType": "address",
							"name": "creator",
							"type": "address"
						}
					],
					"name": "getLotteriesByCreator",
					"outputs": [
						{
							"internalType": "uint256[]",
							"name": "",
							"type": "uint256[]"
						}
					],
					"stateMutability": "view",
					"type": "function"
				},
				{
					"inputs": [
						{
							"internalType": "uint256",
							"name": "lotteryId",
							"type": "uint256"
						}
					],
					"name": "getLotteryInfo",
					"outputs": [
						{
							"components": [
								{
									"internalType": "uint256",
									"name": "id",
									"type": "uint256"
								},
								{
									"internalType": "address",
									"name": "creator",
									"type": "address"
								},
								{
									"internalType": "string",
									"name": "name",
									"type": "string"
								},
								{
									"internalType": "uint256",
									"name": "ticketPrice",
									"type": "uint256"
								},
								{
									"internalType": "uint256",
									"name": "maxTickets",
									"type": "uint256"
								},
								{
									"internalType": "uint256",
									"name": "ticketsSold",
									"type": "uint256"
								},
								{
									"internalType": "uint256",
									"name": "startTime",
									"type": "uint256"
								},
								{
									"internalType": "uint256",
									"name": "endTime",
									"type": "uint256"
								},
								{
									"internalType": "uint256",
									"name": "commissionPercent",
									"type": "uint256"
								},
								{
									"internalType": "bool",
									"name": "closed",
									"type": "bool"
								},
								{
									"internalType": "address",
									"name": "winner",
									"type": "address"
								},
								{
									"internalType": "uint256",
									"name": "pot",
									"type": "uint256"
								},
								{
									"internalType": "address[]",
									"name": "participants",
									"type": "address[]"
								}
							],
							"internalType": "struct LotteryStorage.LotteryView",
							"name": "",
							"type": "tuple"
						}
					],
					"stateMutability": "view",
					"type": "function"
				},
				{
					"inputs": [
						{
							"internalType": "uint256",
							"name": "lotteryId",
							"type": "uint256"
						},
						{
							"internalType": "address",
							"name": "participant",
							"type": "address"
						}
					],
					"name": "getMyTickets",
					"outputs": [
						{
							"internalType": "uint256",
							"name": "",
							"type": "uint256"
						}
					],
					"stateMutability": "view",
					"type": "function"
				},
				{
					"inputs": [
						{
							"internalType": "address",
							"name": "participant",
							"type": "address"
						}
					],
					"name": "getParticipantStats",
					"outputs": [
						{
							"internalType": "uint256",
							"name": "lotteriesParticipated",
							"type": "uint256"
						},
						{
							"internalType": "uint256",
							"name": "totalTickets",
							"type": "uint256"
						},
						{
							"internalType": "uint256",
							"name": "lotteriesWon",
							"type": "uint256"
						}
					],
					"stateMutability": "view",
					"type": "function"
				},
				{
					"inputs": [
						{
							"internalType": "uint256",
							"name": "lotteryId",
							"type": "uint256"
						}
					],
					"name": "getParticipants",
					"outputs": [
						{
							"internalType": "address[]",
							"name": "",
							"type": "address[]"
						}
					],
					"stateMutability": "view",
					"type": "function"
				},
				{
					"inputs": [
						{
							"internalType": "address",
							"name": "account",
							"type": "address"
						}
					],
					"name": "getPendingWithdrawal",
					"outputs": [
						{
							"internalType": "uint256",
							"name": "",
							"type": "uint256"
						}
					],
					"stateMutability": "view",
					"type": "function"
				},
				{
					"inputs": [
						{
							"internalType": "uint256",
							"name": "lotteryId",
							"type": "uint256"
						},
						{
							"internalType": "address",
							"name": "user",
							"type": "address"
						}
					],
					"name": "getTicketsOf",
					"outputs": [
						{
							"internalType": "uint256",
							"name": "",
							"type": "uint256"
						}
					],
					"stateMutability": "view",
					"type": "function"
				},
				{
					"inputs": [],
					"name": "getTotalLotteries",
					"outputs": [
						{
							"internalType": "uint256",
							"name": "",
							"type": "uint256"
						}
					],
					"stateMutability": "view",
					"type": "function"
				},
				{
					"inputs": [
						{
							"internalType": "uint256",
							"name": "",
							"type": "uint256"
						}
					],
					"name": "lotteries",
					"outputs": [
						{
							"internalType": "uint256",
							"name": "id",
							"type": "uint256"
						},
						{
							"internalType": "address",
							"name": "creator",
							"type": "address"
						},
						{
							"internalType": "string",
							"name": "name",
							"type": "string"
						},
						{
							"internalType": "uint256",
							"name": "ticketPrice",
							"type": "uint256"
						},
						{
							"internalType": "uint256",
							"name": "maxTickets",
							"type": "uint256"
						},
						{
							"internalType": "uint256",
							"name": "ticketsSold",
							"type": "uint256"
						},
						{
							"internalType": "uint256",
							"name": "startTime",
							"type": "uint256"
						},
						{
							"internalType": "uint256",
							"name": "endTime",
							"type": "uint256"
						},
						{
							"internalType": "uint256",
							"name": "commissionPercent",
							"type": "uint256"
						},
						{
							"internalType": "bool",
							"name": "closed",
							"type": "bool"
						},
						{
							"internalType": "address",
							"name": "winner",
							"type": "address"
						},
						{
							"internalType": "uint256",
							"name": "pot",
							"type": "uint256"
						}
					],
					"stateMutability": "view",
					"type": "function"
				},
				{
					"inputs": [],
					"name": "nextLotteryId",
					"outputs": [
						{
							"internalType": "uint256",
							"name": "",
							"type": "uint256"
						}
					],
					"stateMutability": "view",
					"type": "function"
				},
				{
					"inputs": [],
					"name": "owner",
					"outputs": [
						{
							"internalType": "address",
							"name": "",
							"type": "address"
						}
					],
					"stateMutability": "view",
					"type": "function"
				},
				{
					"inputs": [
						{
							"internalType": "address",
							"name": "",
							"type": "address"
						}
					],
					"name": "pendingWithdrawals",
					"outputs": [
						{
							"internalType": "uint256",
							"name": "",
							"type": "uint256"
						}
					],
					"stateMutability": "view",
					"type": "function"
				},
				{
					"inputs": [
						{
							"internalType": "uint256",
							"name": "newPercent",
							"type": "uint256"
						}
					],
					"name": "setDefaultCommissionPercent",
					"outputs": [],
					"stateMutability": "nonpayable",
					"type": "function"
				},
				{
					"inputs": [
						{
							"internalType": "uint256",
							"name": "lotteryId",
							"type": "uint256"
						},
						{
							"internalType": "uint256",
							"name": "newPercent",
							"type": "uint256"
						}
					],
					"name": "setLotteryCommission",
					"outputs": [],
					"stateMutability": "nonpayable",
					"type": "function"
				},
				{
					"inputs": [],
					"name": "withdraw",
					"outputs": [],
					"stateMutability": "nonpayable",
					"type": "function"
				}
			],
			"devdoc": {
				"details": "Contrato principal con toda la lógica del sistema de lotería",
				"kind": "dev",
				"methods": {
					"canCloseLottery(uint256)": {
						"params": {
							"lotteryId": "ID de la lotería"
						},
						"returns": {
							"_0": "true si puede cerrarse"
						}
					},
					"claimPrize(uint256)": {
						"params": {
							"lotteryId": "ID de la lotería"
						}
					},
					"closeLottery(uint256)": {
						"params": {
							"lotteryId": "ID de la lotería a cerrar"
						}
					},
					"createLottery(string,uint256,uint256,uint256,uint256)": {
						"params": {
							"commissionPercent": "Porcentaje de comisión (0 = usar default)",
							"endTime": "Timestamp de cierre (0 = manual)",
							"maxTickets": "Límite de tickets (0 = sin límite)",
							"name": "Nombre de la lotería",
							"ticketPrice": "Precio por ticket en wei"
						},
						"returns": {
							"_0": "ID de la lotería creada"
						}
					},
					"getActiveLotteries()": {
						"returns": {
							"_0": "Array con IDs de loterías activas"
						}
					},
					"getContractSummary()": {
						"returns": {
							"activeLotteries": "Número de loterías activas",
							"contractOwner": "Dirección del propietario",
							"defaultCommission": "Comisión por defecto",
							"totalLotteries": "Total de loterías creadas"
						}
					},
					"getLotteriesByCreator(address)": {
						"params": {
							"creator": "Dirección del creador"
						},
						"returns": {
							"_0": "Array con IDs de sus loterías"
						}
					},
					"getParticipantStats(address)": {
						"params": {
							"participant": "Dirección del participante"
						},
						"returns": {
							"lotteriesParticipated": "Número de loterías participadas",
							"lotteriesWon": "Número de loterías ganadas",
							"totalTickets": "Total de tickets comprados"
						}
					},
					"getPendingWithdrawal(address)": {
						"params": {
							"account": "Dirección a consultar"
						},
						"returns": {
							"_0": "Cantidad pendiente de retirar en wei"
						}
					},
					"getTotalLotteries()": {
						"returns": {
							"_0": "Total de loterías"
						}
					},
					"setDefaultCommissionPercent(uint256)": {
						"params": {
							"newPercent": "Nuevo porcentaje (base 10000)"
						}
					},
					"setLotteryCommission(uint256,uint256)": {
						"params": {
							"lotteryId": "ID de la lotería",
							"newPercent": "Nuevo porcentaje"
						}
					},
					"withdraw()": {
						"details": "Patrón Pull: los usuarios retiran cuando quieran"
					}
				},
				"title": "Lottery",
				"version": 1
			},
			"evm": {
				"assembly": "    /* \"Ejercicio5/Lotery/contracts/Lottery.sol\":276:16348  contract Lottery is LotteryStorage, GetRandom {... */\n  mstore(0x40, 0x80)\n    /* \"Ejercicio5/Lotery/contracts/LotteryStorage.sol\":3238:3241  200 */\n  0xc8\n    /* \"Ejercicio5/Lotery/contracts/LotteryStorage.sol\":3196:3241  uint256 public defaultCommissionPercent = 200 */\n  0x02\n  sstore\n    /* \"Ejercicio5/Lotery/contracts/Lottery.sol\":506:639  constructor() {... */\n  callvalue\n  dup1\n  iszero\n  tag_1\n  jumpi\n  revert(0x00, 0x00)\ntag_1:\n  pop\n    /* \"Ejercicio5/Lotery/contracts/Lottery.sol\":538:548  msg.sender */\n  caller\n    /* \"Ejercicio5/Lotery/contracts/Lottery.sol\":530:535  owner */\n  0x03\n  0x00\n    /* \"Ejercicio5/Lotery/contracts/Lottery.sol\":530:548  owner = msg.sender */\n  0x0100\n  exp\n  dup2\n  sload\n  dup2\n  0xffffffffffffffffffffffffffffffffffffffff\n  mul\n  not\n  and\n  swap1\n  dup4\n  0xffffffffffffffffffffffffffffffffffffffff\n  and\n  mul\n  or\n  swap1\n  sstore\n  pop\n    /* \"Ejercicio5/Lotery/contracts/Lottery.sol\":574:575  0 */\n  0x00\n    /* \"Ejercicio5/Lotery/contracts/Lottery.sol\":558:571  nextLotteryId */\n  0x00\n    /* \"Ejercicio5/Lotery/contracts/Lottery.sol\":558:575  nextLotteryId = 0 */\n  dup2\n  swap1\n  sstore\n  pop\n    /* \"Ejercicio5/Lotery/contracts/Lottery.sol\":631:632  0 */\n  0x00\n    /* \"Ejercicio5/Lotery/contracts/Lottery.sol\":608:628  activeLotteriesCount */\n  0x04\n    /* \"Ejercicio5/Lotery/contracts/Lottery.sol\":608:632  activeLotteriesCount = 0 */\n  dup2\n  swap1\n  sstore\n  pop\n    /* \"Ejercicio5/Lotery/contracts/Lottery.sol\":276:16348  contract Lottery is LotteryStorage, GetRandom {... */\n  dataSize(sub_0)\n  dup1\n  dataOffset(sub_0)\n  0x00\n  codecopy\n  0x00\n  return\nstop\n\nsub_0: assembly {\n        /* \"Ejercicio5/Lotery/contracts/Lottery.sol\":276:16348  contract Lottery is LotteryStorage, GetRandom {... */\n      mstore(0x40, 0x80)\n      jumpi(tag_1, lt(calldatasize, 0x04))\n      shr(0xe0, calldataload(0x00))\n      dup1\n      0x8627df46\n      gt\n      tag_27\n      jumpi\n      dup1\n      0xba2f93a7\n      gt\n      tag_28\n      jumpi\n      dup1\n      0xd7098154\n      gt\n      tag_29\n      jumpi\n      dup1\n      0xd7098154\n      eq\n      tag_23\n      jumpi\n      dup1\n      0xdb0cdf18\n      eq\n      tag_24\n      jumpi\n      dup1\n      0xf3f43703\n      eq\n      tag_25\n      jumpi\n      dup1\n      0xf627fd20\n      eq\n      tag_26\n      jumpi\n      jump(tag_1)\n    tag_29:\n      dup1\n      0xba2f93a7\n      eq\n      tag_20\n      jumpi\n      dup1\n      0xc1e3bd3e\n      eq\n      tag_21\n      jumpi\n      dup1\n      0xd27339a5\n      eq\n      tag_22\n      jumpi\n      jump(tag_1)\n    tag_28:\n      dup1\n      0x8627df46\n      eq\n      tag_14\n      jumpi\n      dup1\n      0x8da5cb5b\n      eq\n      tag_15\n      jumpi\n      dup1\n      0x9c5320af\n      eq\n      tag_16\n      jumpi\n      dup1\n      0x9d8ca531\n      eq\n      tag_17\n      jumpi\n      dup1\n      0xa4bb62f0\n      eq\n      tag_18\n      jumpi\n      dup1\n      0xb0deaf32\n      eq\n      tag_19\n      jumpi\n      jump(tag_1)\n    tag_27:\n      dup1\n      0x77f00a6b\n      gt\n      tag_30\n      jumpi\n      dup1\n      0x77f00a6b\n      eq\n      tag_8\n      jumpi\n      dup1\n      0x7cb15bca\n      eq\n      tag_9\n      jumpi\n      dup1\n      0x7d23464b\n      eq\n      tag_10\n      jumpi\n      dup1\n      0x7ee8b2f8\n      eq\n      tag_11\n      jumpi\n      dup1\n      0x8009df68\n      eq\n      tag_12\n      jumpi\n      dup1\n      0x84143958\n      eq\n      tag_13\n      jumpi\n      jump(tag_1)\n    tag_30:\n      dup1\n      0x055b66cd\n      eq\n      tag_2\n      jumpi\n      dup1\n      0x1398e076\n      eq\n      tag_3\n      jumpi\n      dup1\n      0x3ccfd60b\n      eq\n      tag_4\n      jumpi\n      dup1\n      0x5b669de4\n      eq\n      tag_5\n      jumpi\n      dup1\n      0x6cbe7a8d\n      eq\n      tag_6\n      jumpi\n      dup1\n      0x76b3c8a8\n      eq\n      tag_7\n      jumpi\n    tag_1:\n      revert(0x00, 0x00)\n        /* \"Ejercicio5/Lotery/contracts/Lottery.sol\":13143:13940  function getActiveLotteries() external view returns (uint256[] memory) {... */\n    tag_2:\n      callvalue\n      dup1\n      iszero\n      tag_31\n      jumpi\n      revert(0x00, 0x00)\n    tag_31:\n      pop\n      tag_32\n      tag_33\n      jump\t// in\n    tag_32:\n      mload(0x40)\n      tag_34\n      swap2\n      swap1\n      tag_35\n      jump\t// in\n    tag_34:\n      mload(0x40)\n      dup1\n      swap2\n      sub\n      swap1\n      return\n        /* \"Ejercicio5/Lotery/contracts/LotteryStorage.sol\":3143:3187  mapping(uint256 => Lottery) public lotteries */\n    tag_3:\n      callvalue\n      dup1\n      iszero\n      tag_36\n      jumpi\n      revert(0x00, 0x00)\n    tag_36:\n      pop\n      tag_37\n      0x04\n      dup1\n      calldatasize\n      sub\n      dup2\n      add\n      swap1\n      tag_38\n      swap2\n      swap1\n      tag_39\n      jump\t// in\n    tag_38:\n      tag_40\n      jump\t// in\n    tag_37:\n      mload(0x40)\n      tag_41\n      swap13\n      swap12\n      swap11\n      swap10\n      swap9\n      swap8\n      swap7\n      swap6\n      swap5\n      swap4\n      swap3\n      swap2\n      swap1\n      tag_42\n      jump\t// in\n    tag_41:\n      mload(0x40)\n      dup1\n      swap2\n      sub\n      swap1\n      return\n        /* \"Ejercicio5/Lotery/contracts/Lottery.sol\":7126:7545  function withdraw() external {... */\n    tag_4:\n      callvalue\n      dup1\n      iszero\n      tag_43\n      jumpi\n      revert(0x00, 0x00)\n    tag_43:\n      pop\n      tag_44\n      tag_45\n      jump\t// in\n    tag_44:\n      stop\n        /* \"Ejercicio5/Lotery/contracts/Lottery.sol\":15338:16009  function getParticipantStats(address participant)... */\n    tag_5:\n      callvalue\n      dup1\n      iszero\n      tag_46\n      jumpi\n      revert(0x00, 0x00)\n    tag_46:\n      pop\n      tag_47\n      0x04\n      dup1\n      calldatasize\n      sub\n      dup2\n      add\n      swap1\n      tag_48\n      swap2\n      swap1\n      tag_49\n      jump\t// in\n    tag_48:\n      tag_50\n      jump\t// in\n    tag_47:\n      mload(0x40)\n      tag_51\n      swap4\n      swap3\n      swap2\n      swap1\n      tag_52\n      jump\t// in\n    tag_51:\n      mload(0x40)\n      dup1\n      swap2\n      sub\n      swap1\n      return\n        /* \"Ejercicio5/Lotery/contracts/Lottery.sol\":14101:14800  function canCloseLottery(uint256 lotteryId) external view returns (bool) {... */\n    tag_6:\n      callvalue\n      dup1\n      iszero\n      tag_53\n      jumpi\n      revert(0x00, 0x00)\n    tag_53:\n      pop\n      tag_54\n      0x04\n      dup1\n      calldatasize\n      sub\n      dup2\n      add\n      swap1\n      tag_55\n      swap2\n      swap1\n      tag_39\n      jump\t// in\n    tag_55:\n      tag_56\n      jump\t// in\n    tag_54:\n      mload(0x40)\n      tag_57\n      swap2\n      swap1\n      tag_58\n      jump\t// in\n    tag_57:\n      mload(0x40)\n      dup1\n      swap2\n      sub\n      swap1\n      return\n        /* \"Ejercicio5/Lotery/contracts/Lottery.sol\":10318:10973  function getLotteryInfo(uint256 lotteryId) external view returns (LotteryView memory){... */\n    tag_7:\n      callvalue\n      dup1\n      iszero\n      tag_59\n      jumpi\n      revert(0x00, 0x00)\n    tag_59:\n      pop\n      tag_60\n      0x04\n      dup1\n      calldatasize\n      sub\n      dup2\n      add\n      swap1\n      tag_61\n      swap2\n      swap1\n      tag_39\n      jump\t// in\n    tag_61:\n      tag_62\n      jump\t// in\n    tag_60:\n      mload(0x40)\n      tag_63\n      swap2\n      swap1\n      tag_64\n      jump\t// in\n    tag_63:\n      mload(0x40)\n      dup1\n      swap2\n      sub\n      swap1\n      return\n        /* \"Ejercicio5/Lotery/contracts/LotteryStorage.sol\":3453:3506  uint256 public constant MAX_COMMISSION_PERCENT = 1000 */\n    tag_8:\n      callvalue\n      dup1\n      iszero\n      tag_65\n      jumpi\n      revert(0x00, 0x00)\n    tag_65:\n      pop\n      tag_66\n      tag_67\n      jump\t// in\n    tag_66:\n      mload(0x40)\n      tag_68\n      swap2\n      swap1\n      tag_69\n      jump\t// in\n    tag_68:\n      mload(0x40)\n      dup1\n      swap2\n      sub\n      swap1\n      return\n        /* \"Ejercicio5/Lotery/contracts/LotteryStorage.sol\":3363:3398  uint256 public activeLotteriesCount */\n    tag_9:\n      callvalue\n      dup1\n      iszero\n      tag_70\n      jumpi\n      revert(0x00, 0x00)\n    tag_70:\n      pop\n      tag_71\n      tag_72\n      jump\t// in\n    tag_71:\n      mload(0x40)\n      tag_73\n      swap2\n      swap1\n      tag_69\n      jump\t// in\n    tag_73:\n      mload(0x40)\n      dup1\n      swap2\n      sub\n      swap1\n      return\n        /* \"Ejercicio5/Lotery/contracts/Lottery.sol\":5172:5339  function getMyTickets(uint256 lotteryId, address participant) external view returns (uint256){... */\n    tag_10:\n      callvalue\n      dup1\n      iszero\n      tag_74\n      jumpi\n      revert(0x00, 0x00)\n    tag_74:\n      pop\n      tag_75\n      0x04\n      dup1\n      calldatasize\n      sub\n      dup2\n      add\n      swap1\n      tag_76\n      swap2\n      swap1\n      tag_77\n      jump\t// in\n    tag_76:\n      tag_78\n      jump\t// in\n    tag_75:\n      mload(0x40)\n      tag_79\n      swap2\n      swap1\n      tag_69\n      jump\t// in\n    tag_79:\n      mload(0x40)\n      dup1\n      swap2\n      sub\n      swap1\n      return\n        /* \"Ejercicio5/Lotery/contracts/Lottery.sol\":16216:16346  function getPendingWithdrawal(address account) external view returns (uint256) {... */\n    tag_11:\n      callvalue\n      dup1\n      iszero\n      tag_80\n      jumpi\n      revert(0x00, 0x00)\n    tag_80:\n      pop\n      tag_81\n      0x04\n      dup1\n      calldatasize\n      sub\n      dup2\n      add\n      swap1\n      tag_82\n      swap2\n      swap1\n      tag_49\n      jump\t// in\n    tag_82:\n      tag_83\n      jump\t// in\n    tag_81:\n      mload(0x40)\n      tag_84\n      swap2\n      swap1\n      tag_69\n      jump\t// in\n    tag_84:\n      mload(0x40)\n      dup1\n      swap2\n      sub\n      swap1\n      return\n        /* \"Ejercicio5/Lotery/contracts/LotteryStorage.sol\":3106:3134  uint256 public nextLotteryId */\n    tag_12:\n      callvalue\n      dup1\n      iszero\n      tag_85\n      jumpi\n      revert(0x00, 0x00)\n    tag_85:\n      pop\n      tag_86\n      tag_87\n      jump\t// in\n    tag_86:\n      mload(0x40)\n      tag_88\n      swap2\n      swap1\n      tag_69\n      jump\t// in\n    tag_88:\n      mload(0x40)\n      dup1\n      swap2\n      sub\n      swap1\n      return\n        /* \"Ejercicio5/Lotery/contracts/LotteryStorage.sol\":3196:3241  uint256 public defaultCommissionPercent = 200 */\n    tag_13:\n      callvalue\n      dup1\n      iszero\n      tag_89\n      jumpi\n      revert(0x00, 0x00)\n    tag_89:\n      pop\n      tag_90\n      tag_91\n      jump\t// in\n    tag_90:\n      mload(0x40)\n      tag_92\n      swap2\n      swap1\n      tag_69\n      jump\t// in\n    tag_92:\n      mload(0x40)\n      dup1\n      swap2\n      sub\n      swap1\n      return\n        /* \"Ejercicio5/Lotery/contracts/Lottery.sol\":3971:5166  function buyTickets(uint256 lotteryId, uint256 quantity) external payable{... */\n    tag_14:\n      tag_93\n      0x04\n      dup1\n      calldatasize\n      sub\n      dup2\n      add\n      swap1\n      tag_94\n      swap2\n      swap1\n      tag_95\n      jump\t// in\n    tag_94:\n      tag_96\n      jump\t// in\n    tag_93:\n      stop\n        /* \"Ejercicio5/Lotery/contracts/LotteryStorage.sol\":3284:3304  address public owner */\n    tag_15:\n      callvalue\n      dup1\n      iszero\n      tag_97\n      jumpi\n      revert(0x00, 0x00)\n    tag_97:\n      pop\n      tag_98\n      tag_99\n      jump\t// in\n    tag_98:\n      mload(0x40)\n      tag_100\n      swap2\n      swap1\n      tag_101\n      jump\t// in\n    tag_100:\n      mload(0x40)\n      dup1\n      swap2\n      sub\n      swap1\n      return\n        /* \"Ejercicio5/Lotery/contracts/Lottery.sol\":11715:12139  function getContractSummary() ... */\n    tag_16:\n      callvalue\n      dup1\n      iszero\n      tag_102\n      jumpi\n      revert(0x00, 0x00)\n    tag_102:\n      pop\n      tag_103\n      tag_104\n      jump\t// in\n    tag_103:\n      mload(0x40)\n      tag_105\n      swap5\n      swap4\n      swap3\n      swap2\n      swap1\n      tag_106\n      jump\t// in\n    tag_105:\n      mload(0x40)\n      dup1\n      swap2\n      sub\n      swap1\n      return\n        /* \"Ejercicio5/Lotery/contracts/Lottery.sol\":5635:6139  function closeLottery(uint256 lotteryId) external {... */\n    tag_17:\n      callvalue\n      dup1\n      iszero\n      tag_107\n      jumpi\n      revert(0x00, 0x00)\n    tag_107:\n      pop\n      tag_108\n      0x04\n      dup1\n      calldatasize\n      sub\n      dup2\n      add\n      swap1\n      tag_109\n      swap2\n      swap1\n      tag_39\n      jump\t// in\n    tag_109:\n      tag_110\n      jump\t// in\n    tag_108:\n      stop\n        /* \"Ejercicio5/Lotery/contracts/Lottery.sol\":12312:13015  function getLotteriesByCreator(address creator) ... */\n    tag_18:\n      callvalue\n      dup1\n      iszero\n      tag_111\n      jumpi\n      revert(0x00, 0x00)\n    tag_111:\n      pop\n      tag_112\n      0x04\n      dup1\n      calldatasize\n      sub\n      dup2\n      add\n      swap1\n      tag_113\n      swap2\n      swap1\n      tag_49\n      jump\t// in\n    tag_113:\n      tag_114\n      jump\t// in\n    tag_112:\n      mload(0x40)\n      tag_115\n      swap2\n      swap1\n      tag_35\n      jump\t// in\n    tag_115:\n      mload(0x40)\n      dup1\n      swap2\n      sub\n      swap1\n      return\n        /* \"Ejercicio5/Lotery/contracts/Lottery.sol\":11252:11406  function getTicketsOf(uint256 lotteryId, address user) external view returns (uint256) {... */\n    tag_19:\n      callvalue\n      dup1\n      iszero\n      tag_116\n      jumpi\n      revert(0x00, 0x00)\n    tag_116:\n      pop\n      tag_117\n      0x04\n      dup1\n      calldatasize\n      sub\n      dup2\n      add\n      swap1\n      tag_118\n      swap2\n      swap1\n      tag_77\n      jump\t// in\n    tag_118:\n      tag_119\n      jump\t// in\n    tag_117:\n      mload(0x40)\n      tag_120\n      swap2\n      swap1\n      tag_69\n      jump\t// in\n    tag_120:\n      mload(0x40)\n      dup1\n      swap2\n      sub\n      swap1\n      return\n        /* \"Ejercicio5/Lotery/contracts/Lottery.sol\":3139:3791  function setLotteryCommission(uint256 lotteryId, uint256 newPercent) external {... */\n    tag_20:\n      callvalue\n      dup1\n      iszero\n      tag_121\n      jumpi\n      revert(0x00, 0x00)\n    tag_121:\n      pop\n      tag_122\n      0x04\n      dup1\n      calldatasize\n      sub\n      dup2\n      add\n      swap1\n      tag_123\n      swap2\n      swap1\n      tag_95\n      jump\t// in\n    tag_123:\n      tag_124\n      jump\t// in\n    tag_122:\n      stop\n        /* \"Ejercicio5/Lotery/contracts/Lottery.sol\":11028:11169  function getParticipants(uint256 lotteryId) external view returns (address[] memory){... */\n    tag_21:\n      callvalue\n      dup1\n      iszero\n      tag_125\n      jumpi\n      revert(0x00, 0x00)\n    tag_125:\n      pop\n      tag_126\n      0x04\n      dup1\n      calldatasize\n      sub\n      dup2\n      add\n      swap1\n      tag_127\n      swap2\n      swap1\n      tag_39\n      jump\t// in\n    tag_127:\n      tag_128\n      jump\t// in\n    tag_126:\n      mload(0x40)\n      tag_129\n      swap2\n      swap1\n      tag_130\n      jump\t// in\n    tag_129:\n      mload(0x40)\n      dup1\n      swap2\n      sub\n      swap1\n      return\n        /* \"Ejercicio5/Lotery/contracts/Lottery.sol\":2705:2964  function setDefaultCommissionPercent(uint256 newPercent) external {... */\n    tag_22:\n      callvalue\n      dup1\n      iszero\n      tag_131\n      jumpi\n      revert(0x00, 0x00)\n    tag_131:\n      pop\n      tag_132\n      0x04\n      dup1\n      calldatasize\n      sub\n      dup2\n      add\n      swap1\n      tag_133\n      swap2\n      swap1\n      tag_39\n      jump\t// in\n    tag_133:\n      tag_134\n      jump\t// in\n    tag_132:\n      stop\n        /* \"Ejercicio5/Lotery/contracts/Lottery.sol\":6279:6953  function claimPrize(uint256 lotteryId) external {... */\n    tag_23:\n      callvalue\n      dup1\n      iszero\n      tag_135\n      jumpi\n      revert(0x00, 0x00)\n    tag_135:\n      pop\n      tag_136\n      0x04\n      dup1\n      calldatasize\n      sub\n      dup2\n      add\n      swap1\n      tag_137\n      swap2\n      swap1\n      tag_39\n      jump\t// in\n    tag_137:\n      tag_138\n      jump\t// in\n    tag_136:\n      stop\n        /* \"Ejercicio5/Lotery/contracts/Lottery.sol\":14921:15019  function getTotalLotteries() external view returns (uint256) {... */\n    tag_24:\n      callvalue\n      dup1\n      iszero\n      tag_139\n      jumpi\n      revert(0x00, 0x00)\n    tag_139:\n      pop\n      tag_140\n      tag_141\n      jump\t// in\n    tag_140:\n      mload(0x40)\n      tag_142\n      swap2\n      swap1\n      tag_69\n      jump\t// in\n    tag_142:\n      mload(0x40)\n      dup1\n      swap2\n      sub\n      swap1\n      return\n        /* \"Ejercicio5/Lotery/contracts/LotteryStorage.sol\":3585:3638  mapping(address => uint256) public pendingWithdrawals */\n    tag_25:\n      callvalue\n      dup1\n      iszero\n      tag_143\n      jumpi\n      revert(0x00, 0x00)\n    tag_143:\n      pop\n      tag_144\n      0x04\n      dup1\n      calldatasize\n      sub\n      dup2\n      add\n      swap1\n      tag_145\n      swap2\n      swap1\n      tag_49\n      jump\t// in\n    tag_145:\n      tag_146\n      jump\t// in\n    tag_144:\n      mload(0x40)\n      tag_147\n      swap2\n      swap1\n      tag_69\n      jump\t// in\n    tag_147:\n      mload(0x40)\n      dup1\n      swap2\n      sub\n      swap1\n      return\n        /* \"Ejercicio5/Lotery/contracts/Lottery.sol\":1185:2562  function createLottery(... */\n    tag_26:\n      callvalue\n      dup1\n      iszero\n      tag_148\n      jumpi\n      revert(0x00, 0x00)\n    tag_148:\n      pop\n      tag_149\n      0x04\n      dup1\n      calldatasize\n      sub\n      dup2\n      add\n      swap1\n      tag_150\n      swap2\n      swap1\n      tag_151\n      jump\t// in\n    tag_150:\n      tag_152\n      jump\t// in\n    tag_149:\n      mload(0x40)\n      tag_153\n      swap2\n      swap1\n      tag_69\n      jump\t// in\n    tag_153:\n      mload(0x40)\n      dup1\n      swap2\n      sub\n      swap1\n      return\n        /* \"Ejercicio5/Lotery/contracts/Lottery.sol\":13143:13940  function getActiveLotteries() external view returns (uint256[] memory) {... */\n    tag_33:\n        /* \"Ejercicio5/Lotery/contracts/Lottery.sol\":13196:13212  uint256[] memory */\n      0x60\n        /* \"Ejercicio5/Lotery/contracts/Lottery.sol\":13250:13263  uint256 count */\n      0x00\n        /* \"Ejercicio5/Lotery/contracts/Lottery.sol\":13266:13267  0 */\n      0x00\n        /* \"Ejercicio5/Lotery/contracts/Lottery.sol\":13250:13267  uint256 count = 0 */\n      swap1\n      pop\n        /* \"Ejercicio5/Lotery/contracts/Lottery.sol\":13282:13291  uint256 i */\n      0x00\n        /* \"Ejercicio5/Lotery/contracts/Lottery.sol\":13294:13295  0 */\n      0x00\n        /* \"Ejercicio5/Lotery/contracts/Lottery.sol\":13282:13295  uint256 i = 0 */\n      swap1\n      pop\n        /* \"Ejercicio5/Lotery/contracts/Lottery.sol\":13277:13501  for (uint256 i = 0; i < nextLotteryId; i++) {... */\n    tag_155:\n        /* \"Ejercicio5/Lotery/contracts/Lottery.sol\":13301:13314  nextLotteryId */\n      sload(0x00)\n        /* \"Ejercicio5/Lotery/contracts/Lottery.sol\":13297:13298  i */\n      dup2\n        /* \"Ejercicio5/Lotery/contracts/Lottery.sol\":13297:13314  i < nextLotteryId */\n      lt\n        /* \"Ejercicio5/Lotery/contracts/Lottery.sol\":13277:13501  for (uint256 i = 0; i < nextLotteryId; i++) {... */\n      iszero\n      tag_156\n      jumpi\n        /* \"Ejercicio5/Lotery/contracts/Lottery.sol\":13340:13349  lotteries */\n      0x01\n        /* \"Ejercicio5/Lotery/contracts/Lottery.sol\":13340:13352  lotteries[i] */\n      0x00\n        /* \"Ejercicio5/Lotery/contracts/Lottery.sol\":13350:13351  i */\n      dup3\n        /* \"Ejercicio5/Lotery/contracts/Lottery.sol\":13340:13352  lotteries[i] */\n      dup2\n      mstore\n      0x20\n      add\n      swap1\n      dup2\n      mstore\n      0x20\n      add\n      0x00\n      keccak256\n        /* \"Ejercicio5/Lotery/contracts/Lottery.sol\":13340:13359  lotteries[i].closed */\n      0x0b\n      add\n      0x00\n      swap1\n      sload\n      swap1\n      0x0100\n      exp\n      swap1\n      div\n      0xff\n      and\n        /* \"Ejercicio5/Lotery/contracts/Lottery.sol\":13339:13359  !lotteries[i].closed */\n      iszero\n        /* \"Ejercicio5/Lotery/contracts/Lottery.sol\":13339:13449  !lotteries[i].closed && ... */\n      dup1\n      iszero\n      tag_158\n      jumpi\n      pop\n        /* \"Ejercicio5/Lotery/contracts/Lottery.sol\":13405:13406  0 */\n      0x00\n        /* \"Ejercicio5/Lotery/contracts/Lottery.sol\":13381:13390  lotteries */\n      0x01\n        /* \"Ejercicio5/Lotery/contracts/Lottery.sol\":13381:13393  lotteries[i] */\n      0x00\n        /* \"Ejercicio5/Lotery/contracts/Lottery.sol\":13391:13392  i */\n      dup4\n        /* \"Ejercicio5/Lotery/contracts/Lottery.sol\":13381:13393  lotteries[i] */\n      dup2\n      mstore\n      0x20\n      add\n      swap1\n      dup2\n      mstore\n      0x20\n      add\n      0x00\n      keccak256\n        /* \"Ejercicio5/Lotery/contracts/Lottery.sol\":13381:13401  lotteries[i].endTime */\n      0x07\n      add\n      sload\n        /* \"Ejercicio5/Lotery/contracts/Lottery.sol\":13381:13406  lotteries[i].endTime == 0 */\n      eq\n        /* \"Ejercicio5/Lotery/contracts/Lottery.sol\":13381:13448  lotteries[i].endTime == 0 || block.timestamp < lotteries[i].endTime */\n      dup1\n      tag_159\n      jumpi\n      pop\n        /* \"Ejercicio5/Lotery/contracts/Lottery.sol\":13428:13437  lotteries */\n      0x01\n        /* \"Ejercicio5/Lotery/contracts/Lottery.sol\":13428:13440  lotteries[i] */\n      0x00\n        /* \"Ejercicio5/Lotery/contracts/Lottery.sol\":13438:13439  i */\n      dup3\n        /* \"Ejercicio5/Lotery/contracts/Lottery.sol\":13428:13440  lotteries[i] */\n      dup2\n      mstore\n      0x20\n      add\n      swap1\n      dup2\n      mstore\n      0x20\n      add\n      0x00\n      keccak256\n        /* \"Ejercicio5/Lotery/contracts/Lottery.sol\":13428:13448  lotteries[i].endTime */\n      0x07\n      add\n      sload\n        /* \"Ejercicio5/Lotery/contracts/Lottery.sol\":13410:13425  block.timestamp */\n      timestamp\n        /* \"Ejercicio5/Lotery/contracts/Lottery.sol\":13410:13448  block.timestamp < lotteries[i].endTime */\n      lt\n        /* \"Ejercicio5/Lotery/contracts/Lottery.sol\":13381:13448  lotteries[i].endTime == 0 || block.timestamp < lotteries[i].endTime */\n    tag_159:\n        /* \"Ejercicio5/Lotery/contracts/Lottery.sol\":13339:13449  !lotteries[i].closed && ... */\n    tag_158:\n        /* \"Ejercicio5/Lotery/contracts/Lottery.sol\":13335:13491  if (!lotteries[i].closed && ... */\n      iszero\n      tag_160\n      jumpi\n        /* \"Ejercicio5/Lotery/contracts/Lottery.sol\":13469:13476  count++ */\n      dup2\n      dup1\n      tag_161\n      swap1\n      tag_162\n      jump\t// in\n    tag_161:\n      swap3\n      pop\n      pop\n        /* \"Ejercicio5/Lotery/contracts/Lottery.sol\":13335:13491  if (!lotteries[i].closed && ... */\n    tag_160:\n        /* \"Ejercicio5/Lotery/contracts/Lottery.sol\":13316:13319  i++ */\n      dup1\n      dup1\n      0x01\n      add\n      swap2\n      pop\n      pop\n        /* \"Ejercicio5/Lotery/contracts/Lottery.sol\":13277:13501  for (uint256 i = 0; i < nextLotteryId; i++) {... */\n      jump(tag_155)\n    tag_156:\n      pop\n        /* \"Ejercicio5/Lotery/contracts/Lottery.sol\":13551:13574  uint256[] memory result */\n      0x00\n        /* \"Ejercicio5/Lotery/contracts/Lottery.sol\":13591:13596  count */\n      dup2\n        /* \"Ejercicio5/Lotery/contracts/Lottery.sol\":13577:13597  new uint256[](count) */\n      0xffffffffffffffff\n      dup2\n      gt\n      iszero\n      tag_163\n      jumpi\n      tag_164\n      tag_165\n      jump\t// in\n    tag_164:\n    tag_163:\n      mload(0x40)\n      swap1\n      dup1\n      dup3\n      mstore\n      dup1\n      0x20\n      mul\n      0x20\n      add\n      dup3\n      add\n      0x40\n      mstore\n      dup1\n      iszero\n      tag_166\n      jumpi\n      dup2\n      0x20\n      add\n      0x20\n      dup3\n      mul\n      dup1\n      calldatasize\n      dup4\n      calldatacopy\n      dup1\n      dup3\n      add\n      swap2\n      pop\n      pop\n      swap1\n      pop\n    tag_166:\n      pop\n        /* \"Ejercicio5/Lotery/contracts/Lottery.sol\":13551:13597  uint256[] memory result = new uint256[](count) */\n      swap1\n      pop\n        /* \"Ejercicio5/Lotery/contracts/Lottery.sol\":13607:13620  uint256 index */\n      0x00\n        /* \"Ejercicio5/Lotery/contracts/Lottery.sol\":13623:13624  0 */\n      0x00\n        /* \"Ejercicio5/Lotery/contracts/Lottery.sol\":13607:13624  uint256 index = 0 */\n      swap1\n      pop\n        /* \"Ejercicio5/Lotery/contracts/Lottery.sol\":13648:13657  uint256 i */\n      0x00\n        /* \"Ejercicio5/Lotery/contracts/Lottery.sol\":13660:13661  0 */\n      0x00\n        /* \"Ejercicio5/Lotery/contracts/Lottery.sol\":13648:13661  uint256 i = 0 */\n      swap1\n      pop\n        /* \"Ejercicio5/Lotery/contracts/Lottery.sol\":13643:13902  for (uint256 i = 0; i < nextLotteryId; i++) {... */\n    tag_167:\n        /* \"Ejercicio5/Lotery/contracts/Lottery.sol\":13667:13680  nextLotteryId */\n      sload(0x00)\n        /* \"Ejercicio5/Lotery/contracts/Lottery.sol\":13663:13664  i */\n      dup2\n        /* \"Ejercicio5/Lotery/contracts/Lottery.sol\":13663:13680  i < nextLotteryId */\n      lt\n        /* \"Ejercicio5/Lotery/contracts/Lottery.sol\":13643:13902  for (uint256 i = 0; i < nextLotteryId; i++) {... */\n      iszero\n      tag_168\n      jumpi\n        /* \"Ejercicio5/Lotery/contracts/Lottery.sol\":13706:13715  lotteries */\n      0x01\n        /* \"Ejercicio5/Lotery/contracts/Lottery.sol\":13706:13718  lotteries[i] */\n      0x00\n        /* \"Ejercicio5/Lotery/contracts/Lottery.sol\":13716:13717  i */\n      dup3\n        /* \"Ejercicio5/Lotery/contracts/Lottery.sol\":13706:13718  lotteries[i] */\n      dup2\n      mstore\n      0x20\n      add\n      swap1\n      dup2\n      mstore\n      0x20\n      add\n      0x00\n      keccak256\n        /* \"Ejercicio5/Lotery/contracts/Lottery.sol\":13706:13725  lotteries[i].closed */\n      0x0b\n      add\n      0x00\n      swap1\n      sload\n      swap1\n      0x0100\n      exp\n      swap1\n      div\n      0xff\n      and\n        /* \"Ejercicio5/Lotery/contracts/Lottery.sol\":13705:13725  !lotteries[i].closed */\n      iszero\n        /* \"Ejercicio5/Lotery/contracts/Lottery.sol\":13705:13815  !lotteries[i].closed && ... */\n      dup1\n      iszero\n      tag_170\n      jumpi\n      pop\n        /* \"Ejercicio5/Lotery/contracts/Lottery.sol\":13771:13772  0 */\n      0x00\n        /* \"Ejercicio5/Lotery/contracts/Lottery.sol\":13747:13756  lotteries */\n      0x01\n        /* \"Ejercicio5/Lotery/contracts/Lottery.sol\":13747:13759  lotteries[i] */\n      0x00\n        /* \"Ejercicio5/Lotery/contracts/Lottery.sol\":13757:13758  i */\n      dup4\n        /* \"Ejercicio5/Lotery/contracts/Lottery.sol\":13747:13759  lotteries[i] */\n      dup2\n      mstore\n      0x20\n      add\n      swap1\n      dup2\n      mstore\n      0x20\n      add\n      0x00\n      keccak256\n        /* \"Ejercicio5/Lotery/contracts/Lottery.sol\":13747:13767  lotteries[i].endTime */\n      0x07\n      add\n      sload\n        /* \"Ejercicio5/Lotery/contracts/Lottery.sol\":13747:13772  lotteries[i].endTime == 0 */\n      eq\n        /* \"Ejercicio5/Lotery/contracts/Lottery.sol\":13747:13814  lotteries[i].endTime == 0 || block.timestamp < lotteries[i].endTime */\n      dup1\n      tag_171\n      jumpi\n      pop\n        /* \"Ejercicio5/Lotery/contracts/Lottery.sol\":13794:13803  lotteries */\n      0x01\n        /* \"Ejercicio5/Lotery/contracts/Lottery.sol\":13794:13806  lotteries[i] */\n      0x00\n        /* \"Ejercicio5/Lotery/contracts/Lottery.sol\":13804:13805  i */\n      dup3\n        /* \"Ejercicio5/Lotery/contracts/Lottery.sol\":13794:13806  lotteries[i] */\n      dup2\n      mstore\n      0x20\n      add\n      swap1\n      dup2\n      mstore\n      0x20\n      add\n      0x00\n      keccak256\n        /* \"Ejercicio5/Lotery/contracts/Lottery.sol\":13794:13814  lotteries[i].endTime */\n      0x07\n      add\n      sload\n        /* \"Ejercicio5/Lotery/contracts/Lottery.sol\":13776:13791  block.timestamp */\n      timestamp\n        /* \"Ejercicio5/Lotery/contracts/Lottery.sol\":13776:13814  block.timestamp < lotteries[i].endTime */\n      lt\n        /* \"Ejercicio5/Lotery/contracts/Lottery.sol\":13747:13814  lotteries[i].endTime == 0 || block.timestamp < lotteries[i].endTime */\n    tag_171:\n        /* \"Ejercicio5/Lotery/contracts/Lottery.sol\":13705:13815  !lotteries[i].closed && ... */\n    tag_170:\n        /* \"Ejercicio5/Lotery/contracts/Lottery.sol\":13701:13892  if (!lotteries[i].closed && ... */\n      iszero\n      tag_172\n      jumpi\n        /* \"Ejercicio5/Lotery/contracts/Lottery.sol\":13851:13852  i */\n      dup1\n        /* \"Ejercicio5/Lotery/contracts/Lottery.sol\":13835:13841  result */\n      dup4\n        /* \"Ejercicio5/Lotery/contracts/Lottery.sol\":13842:13847  index */\n      dup4\n        /* \"Ejercicio5/Lotery/contracts/Lottery.sol\":13835:13848  result[index] */\n      dup2\n      mload\n      dup2\n      lt\n      tag_173\n      jumpi\n      tag_174\n      tag_175\n      jump\t// in\n    tag_174:\n    tag_173:\n      0x20\n      mul\n      0x20\n      add\n      add\n        /* \"Ejercicio5/Lotery/contracts/Lottery.sol\":13835:13852  result[index] = i */\n      dup2\n      dup2\n      mstore\n      pop\n      pop\n        /* \"Ejercicio5/Lotery/contracts/Lottery.sol\":13870:13877  index++ */\n      dup2\n      dup1\n      tag_176\n      swap1\n      tag_162\n      jump\t// in\n    tag_176:\n      swap3\n      pop\n      pop\n        /* \"Ejercicio5/Lotery/contracts/Lottery.sol\":13701:13892  if (!lotteries[i].closed && ... */\n    tag_172:\n        /* \"Ejercicio5/Lotery/contracts/Lottery.sol\":13682:13685  i++ */\n      dup1\n      dup1\n      0x01\n      add\n      swap2\n      pop\n      pop\n        /* \"Ejercicio5/Lotery/contracts/Lottery.sol\":13643:13902  for (uint256 i = 0; i < nextLotteryId; i++) {... */\n      jump(tag_167)\n    tag_168:\n      pop\n        /* \"Ejercicio5/Lotery/contracts/Lottery.sol\":13927:13933  result */\n      dup2\n        /* \"Ejercicio5/Lotery/contracts/Lottery.sol\":13920:13933  return result */\n      swap4\n      pop\n      pop\n      pop\n      pop\n        /* \"Ejercicio5/Lotery/contracts/Lottery.sol\":13143:13940  function getActiveLotteries() external view returns (uint256[] memory) {... */\n      swap1\n      jump\t// out\n        /* \"Ejercicio5/Lotery/contracts/LotteryStorage.sol\":3143:3187  mapping(uint256 => Lottery) public lotteries */\n    tag_40:\n      mstore(0x20, 0x01)\n      dup1\n      0x00\n      mstore\n      keccak256(0x00, 0x40)\n      0x00\n      swap2\n      pop\n      swap1\n      pop\n      dup1\n      0x00\n      add\n      sload\n      swap1\n      dup1\n      0x01\n      add\n      0x00\n      swap1\n      sload\n      swap1\n      0x0100\n      exp\n      swap1\n      div\n      0xffffffffffffffffffffffffffffffffffffffff\n      and\n      swap1\n      dup1\n      0x02\n      add\n      dup1\n      sload\n      tag_177\n      swap1\n      tag_178\n      jump\t// in\n    tag_177:\n      dup1\n      0x1f\n      add\n      0x20\n      dup1\n      swap2\n      div\n      mul\n      0x20\n      add\n      mload(0x40)\n      swap1\n      dup2\n      add\n      0x40\n      mstore\n      dup1\n      swap3\n      swap2\n      swap1\n      dup2\n      dup2\n      mstore\n      0x20\n      add\n      dup3\n      dup1\n      sload\n      tag_179\n      swap1\n      tag_178\n      jump\t// in\n    tag_179:\n      dup1\n      iszero\n      tag_180\n      jumpi\n      dup1\n      0x1f\n      lt\n      tag_181\n      jumpi\n      0x0100\n      dup1\n      dup4\n      sload\n      div\n      mul\n      dup4\n      mstore\n      swap2\n      0x20\n      add\n      swap2\n      jump(tag_180)\n    tag_181:\n      dup3\n      add\n      swap2\n      swap1\n      0x00\n      mstore\n      keccak256(0x00, 0x20)\n      swap1\n    tag_182:\n      dup2\n      sload\n      dup2\n      mstore\n      swap1\n      0x01\n      add\n      swap1\n      0x20\n      add\n      dup1\n      dup4\n      gt\n      tag_182\n      jumpi\n      dup3\n      swap1\n      sub\n      0x1f\n      and\n      dup3\n      add\n      swap2\n    tag_180:\n      pop\n      pop\n      pop\n      pop\n      pop\n      swap1\n      dup1\n      0x03\n      add\n      sload\n      swap1\n      dup1\n      0x04\n      add\n      sload\n      swap1\n      dup1\n      0x05\n      add\n      sload\n      swap1\n      dup1\n      0x06\n      add\n      sload\n      swap1\n      dup1\n      0x07\n      add\n      sload\n      swap1\n      dup1\n      0x0a\n      add\n      sload\n      swap1\n      dup1\n      0x0b\n      add\n      0x00\n      swap1\n      sload\n      swap1\n      0x0100\n      exp\n      swap1\n      div\n      0xff\n      and\n      swap1\n      dup1\n      0x0b\n      add\n      0x01\n      swap1\n      sload\n      swap1\n      0x0100\n      exp\n      swap1\n      div\n      0xffffffffffffffffffffffffffffffffffffffff\n      and\n      swap1\n      dup1\n      0x0c\n      add\n      sload\n      swap1\n      pop\n      dup13\n      jump\t// out\n        /* \"Ejercicio5/Lotery/contracts/Lottery.sol\":7126:7545  function withdraw() external {... */\n    tag_45:\n        /* \"Ejercicio5/Lotery/contracts/Lottery.sol\":7165:7179  uint256 amount */\n      0x00\n        /* \"Ejercicio5/Lotery/contracts/Lottery.sol\":7182:7200  pendingWithdrawals */\n      0x05\n        /* \"Ejercicio5/Lotery/contracts/Lottery.sol\":7182:7212  pendingWithdrawals[msg.sender] */\n      0x00\n        /* \"Ejercicio5/Lotery/contracts/Lottery.sol\":7201:7211  msg.sender */\n      caller\n        /* \"Ejercicio5/Lotery/contracts/Lottery.sol\":7182:7212  pendingWithdrawals[msg.sender] */\n      0xffffffffffffffffffffffffffffffffffffffff\n      and\n      0xffffffffffffffffffffffffffffffffffffffff\n      and\n      dup2\n      mstore\n      0x20\n      add\n      swap1\n      dup2\n      mstore\n      0x20\n      add\n      0x00\n      keccak256\n      sload\n        /* \"Ejercicio5/Lotery/contracts/Lottery.sol\":7165:7212  uint256 amount = pendingWithdrawals[msg.sender] */\n      swap1\n      pop\n        /* \"Ejercicio5/Lotery/contracts/Lottery.sol\":7239:7240  0 */\n      0x00\n        /* \"Ejercicio5/Lotery/contracts/Lottery.sol\":7230:7236  amount */\n      dup2\n        /* \"Ejercicio5/Lotery/contracts/Lottery.sol\":7230:7240  amount > 0 */\n      gt\n        /* \"Ejercicio5/Lotery/contracts/Lottery.sol\":7222:7265  require(amount > 0, \"No funds to withdraw\") */\n      tag_184\n      jumpi\n      mload(0x40)\n      0x08c379a000000000000000000000000000000000000000000000000000000000\n      dup2\n      mstore\n      0x04\n      add\n      tag_185\n      swap1\n      tag_186\n      jump\t// in\n    tag_185:\n      mload(0x40)\n      dup1\n      swap2\n      sub\n      swap1\n      revert\n    tag_184:\n        /* \"Ejercicio5/Lotery/contracts/Lottery.sol\":7383:7384  0 */\n      0x00\n        /* \"Ejercicio5/Lotery/contracts/Lottery.sol\":7350:7368  pendingWithdrawals */\n      0x05\n        /* \"Ejercicio5/Lotery/contracts/Lottery.sol\":7350:7380  pendingWithdrawals[msg.sender] */\n      0x00\n        /* \"Ejercicio5/Lotery/contracts/Lottery.sol\":7369:7379  msg.sender */\n      caller\n        /* \"Ejercicio5/Lotery/contracts/Lottery.sol\":7350:7380  pendingWithdrawals[msg.sender] */\n      0xffffffffffffffffffffffffffffffffffffffff\n      and\n      0xffffffffffffffffffffffffffffffffffffffff\n      and\n      dup2\n      mstore\n      0x20\n      add\n      swap1\n      dup2\n      mstore\n      0x20\n      add\n      0x00\n      keccak256\n        /* \"Ejercicio5/Lotery/contracts/Lottery.sol\":7350:7384  pendingWithdrawals[msg.sender] = 0 */\n      dup2\n      swap1\n      sstore\n      pop\n        /* \"Ejercicio5/Lotery/contracts/Lottery.sol\":7432:7444  bool success */\n      0x00\n        /* \"Ejercicio5/Lotery/contracts/Lottery.sol\":7458:7468  msg.sender */\n      caller\n        /* \"Ejercicio5/Lotery/contracts/Lottery.sol\":7450:7474  payable(msg.sender).call */\n      0xffffffffffffffffffffffffffffffffffffffff\n      and\n        /* \"Ejercicio5/Lotery/contracts/Lottery.sol\":7482:7488  amount */\n      dup3\n        /* \"Ejercicio5/Lotery/contracts/Lottery.sol\":7450:7493  payable(msg.sender).call{value: amount}(\"\") */\n      mload(0x40)\n      tag_187\n      swap1\n      tag_188\n      jump\t// in\n    tag_187:\n      0x00\n      mload(0x40)\n      dup1\n      dup4\n      sub\n      dup2\n      dup6\n      dup8\n      gas\n      call\n      swap3\n      pop\n      pop\n      pop\n      returndatasize\n      dup1\n      0x00\n      dup2\n      eq\n      tag_191\n      jumpi\n      mload(0x40)\n      swap2\n      pop\n      and(add(returndatasize, 0x3f), not(0x1f))\n      dup3\n      add\n      0x40\n      mstore\n      returndatasize\n      dup3\n      mstore\n      returndatasize\n      0x00\n      0x20\n      dup5\n      add\n      returndatacopy\n      jump(tag_190)\n    tag_191:\n      0x60\n      swap2\n      pop\n    tag_190:\n      pop\n        /* \"Ejercicio5/Lotery/contracts/Lottery.sol\":7431:7493  (bool success, ) = payable(msg.sender).call{value: amount}(\"\") */\n      pop\n      swap1\n      pop\n        /* \"Ejercicio5/Lotery/contracts/Lottery.sol\":7511:7518  success */\n      dup1\n        /* \"Ejercicio5/Lotery/contracts/Lottery.sol\":7503:7538  require(success, \"Transfer failed\") */\n      tag_192\n      jumpi\n      mload(0x40)\n      0x08c379a000000000000000000000000000000000000000000000000000000000\n      dup2\n      mstore\n      0x04\n      add\n      tag_193\n      swap1\n      tag_194\n      jump\t// in\n    tag_193:\n      mload(0x40)\n      dup1\n      swap2\n      sub\n      swap1\n      revert\n    tag_192:\n        /* \"Ejercicio5/Lotery/contracts/Lottery.sol\":7155:7545  {... */\n      pop\n      pop\n        /* \"Ejercicio5/Lotery/contracts/Lottery.sol\":7126:7545  function withdraw() external {... */\n      jump\t// out\n        /* \"Ejercicio5/Lotery/contracts/Lottery.sol\":15338:16009  function getParticipantStats(address participant)... */\n    tag_50:\n        /* \"Ejercicio5/Lotery/contracts/Lottery.sol\":15448:15477  uint256 lotteriesParticipated */\n      0x00\n        /* \"Ejercicio5/Lotery/contracts/Lottery.sol\":15491:15511  uint256 totalTickets */\n      0x00\n        /* \"Ejercicio5/Lotery/contracts/Lottery.sol\":15525:15545  uint256 lotteriesWon */\n      0x00\n        /* \"Ejercicio5/Lotery/contracts/Lottery.sol\":15575:15584  uint256 i */\n      0x00\n        /* \"Ejercicio5/Lotery/contracts/Lottery.sol\":15587:15588  0 */\n      0x00\n        /* \"Ejercicio5/Lotery/contracts/Lottery.sol\":15575:15588  uint256 i = 0 */\n      swap1\n      pop\n        /* \"Ejercicio5/Lotery/contracts/Lottery.sol\":15570:15926  for (uint256 i = 0; i < nextLotteryId; i++) {... */\n    tag_196:\n        /* \"Ejercicio5/Lotery/contracts/Lottery.sol\":15594:15607  nextLotteryId */\n      sload(0x00)\n        /* \"Ejercicio5/Lotery/contracts/Lottery.sol\":15590:15591  i */\n      dup2\n        /* \"Ejercicio5/Lotery/contracts/Lottery.sol\":15590:15607  i < nextLotteryId */\n      lt\n        /* \"Ejercicio5/Lotery/contracts/Lottery.sol\":15570:15926  for (uint256 i = 0; i < nextLotteryId; i++) {... */\n      iszero\n      tag_197\n      jumpi\n        /* \"Ejercicio5/Lotery/contracts/Lottery.sol\":15628:15643  uint256 tickets */\n      0x00\n        /* \"Ejercicio5/Lotery/contracts/Lottery.sol\":15646:15655  lotteries */\n      0x01\n        /* \"Ejercicio5/Lotery/contracts/Lottery.sol\":15646:15658  lotteries[i] */\n      0x00\n        /* \"Ejercicio5/Lotery/contracts/Lottery.sol\":15656:15657  i */\n      dup4\n        /* \"Ejercicio5/Lotery/contracts/Lottery.sol\":15646:15658  lotteries[i] */\n      dup2\n      mstore\n      0x20\n      add\n      swap1\n      dup2\n      mstore\n      0x20\n      add\n      0x00\n      keccak256\n        /* \"Ejercicio5/Lotery/contracts/Lottery.sol\":15646:15675  lotteries[i].ticketsByAddress */\n      0x08\n      add\n        /* \"Ejercicio5/Lotery/contracts/Lottery.sol\":15646:15688  lotteries[i].ticketsByAddress[participant] */\n      0x00\n        /* \"Ejercicio5/Lotery/contracts/Lottery.sol\":15676:15687  participant */\n      dup8\n        /* \"Ejercicio5/Lotery/contracts/Lottery.sol\":15646:15688  lotteries[i].ticketsByAddress[participant] */\n      0xffffffffffffffffffffffffffffffffffffffff\n      and\n      0xffffffffffffffffffffffffffffffffffffffff\n      and\n      dup2\n      mstore\n      0x20\n      add\n      swap1\n      dup2\n      mstore\n      0x20\n      add\n      0x00\n      keccak256\n      sload\n        /* \"Ejercicio5/Lotery/contracts/Lottery.sol\":15628:15688  uint256 tickets = lotteries[i].ticketsByAddress[participant] */\n      swap1\n      pop\n        /* \"Ejercicio5/Lotery/contracts/Lottery.sol\":15716:15717  0 */\n      0x00\n        /* \"Ejercicio5/Lotery/contracts/Lottery.sol\":15706:15713  tickets */\n      dup2\n        /* \"Ejercicio5/Lotery/contracts/Lottery.sol\":15706:15717  tickets > 0 */\n      gt\n        /* \"Ejercicio5/Lotery/contracts/Lottery.sol\":15702:15816  if (tickets > 0) {... */\n      iszero\n      tag_199\n      jumpi\n        /* \"Ejercicio5/Lotery/contracts/Lottery.sol\":15737:15760  lotteriesParticipated++ */\n      dup5\n      dup1\n      tag_200\n      swap1\n      tag_162\n      jump\t// in\n    tag_200:\n      swap6\n      pop\n      pop\n        /* \"Ejercicio5/Lotery/contracts/Lottery.sol\":15794:15801  tickets */\n      dup1\n        /* \"Ejercicio5/Lotery/contracts/Lottery.sol\":15778:15801  totalTickets += tickets */\n      dup5\n      tag_201\n      swap2\n      swap1\n      tag_202\n      jump\t// in\n    tag_201:\n      swap4\n      pop\n        /* \"Ejercicio5/Lotery/contracts/Lottery.sol\":15702:15816  if (tickets > 0) {... */\n    tag_199:\n        /* \"Ejercicio5/Lotery/contracts/Lottery.sol\":15856:15867  participant */\n      dup6\n        /* \"Ejercicio5/Lotery/contracts/Lottery.sol\":15833:15867  lotteries[i].winner == participant */\n      0xffffffffffffffffffffffffffffffffffffffff\n      and\n        /* \"Ejercicio5/Lotery/contracts/Lottery.sol\":15833:15842  lotteries */\n      0x01\n        /* \"Ejercicio5/Lotery/contracts/Lottery.sol\":15833:15845  lotteries[i] */\n      0x00\n        /* \"Ejercicio5/Lotery/contracts/Lottery.sol\":15843:15844  i */\n      dup5\n        /* \"Ejercicio5/Lotery/contracts/Lottery.sol\":15833:15845  lotteries[i] */\n      dup2\n      mstore\n      0x20\n      add\n      swap1\n      dup2\n      mstore\n      0x20\n      add\n      0x00\n      keccak256\n        /* \"Ejercicio5/Lotery/contracts/Lottery.sol\":15833:15852  lotteries[i].winner */\n      0x0b\n      add\n      0x01\n      swap1\n      sload\n      swap1\n      0x0100\n      exp\n      swap1\n      div\n      0xffffffffffffffffffffffffffffffffffffffff\n      and\n        /* \"Ejercicio5/Lotery/contracts/Lottery.sol\":15833:15867  lotteries[i].winner == participant */\n      0xffffffffffffffffffffffffffffffffffffffff\n      and\n      sub\n        /* \"Ejercicio5/Lotery/contracts/Lottery.sol\":15829:15916  if (lotteries[i].winner == participant) {... */\n      tag_203\n      jumpi\n        /* \"Ejercicio5/Lotery/contracts/Lottery.sol\":15887:15901  lotteriesWon++ */\n      dup3\n      dup1\n      tag_204\n      swap1\n      tag_162\n      jump\t// in\n    tag_204:\n      swap4\n      pop\n      pop\n        /* \"Ejercicio5/Lotery/contracts/Lottery.sol\":15829:15916  if (lotteries[i].winner == participant) {... */\n    tag_203:\n        /* \"Ejercicio5/Lotery/contracts/Lottery.sol\":15614:15926  {... */\n      pop\n        /* \"Ejercicio5/Lotery/contracts/Lottery.sol\":15609:15612  i++ */\n      dup1\n      dup1\n      0x01\n      add\n      swap2\n      pop\n      pop\n        /* \"Ejercicio5/Lotery/contracts/Lottery.sol\":15570:15926  for (uint256 i = 0; i < nextLotteryId; i++) {... */\n      jump(tag_196)\n    tag_197:\n      pop\n        /* \"Ejercicio5/Lotery/contracts/Lottery.sol\":15338:16009  function getParticipantStats(address participant)... */\n      swap2\n      swap4\n      swap1\n      swap3\n      pop\n      jump\t// out\n        /* \"Ejercicio5/Lotery/contracts/Lottery.sol\":14101:14800  function canCloseLottery(uint256 lotteryId) external view returns (bool) {... */\n    tag_56:\n        /* \"Ejercicio5/Lotery/contracts/Lottery.sol\":14168:14172  bool */\n      0x00\n        /* \"Ejercicio5/Lotery/contracts/Lottery.sol\":14204:14217  nextLotteryId */\n      sload(0x00)\n        /* \"Ejercicio5/Lotery/contracts/Lottery.sol\":14192:14201  lotteryId */\n      dup3\n        /* \"Ejercicio5/Lotery/contracts/Lottery.sol\":14192:14217  lotteryId < nextLotteryId */\n      lt\n        /* \"Ejercicio5/Lotery/contracts/Lottery.sol\":14184:14244  require(lotteryId < nextLotteryId, \"Lottery does not exist\") */\n      tag_206\n      jumpi\n      mload(0x40)\n      0x08c379a000000000000000000000000000000000000000000000000000000000\n      dup2\n      mstore\n      0x04\n      add\n      tag_207\n      swap1\n      tag_208\n      jump\t// in\n    tag_207:\n      mload(0x40)\n      dup1\n      swap2\n      sub\n      swap1\n      revert\n    tag_206:\n        /* \"Ejercicio5/Lotery/contracts/Lottery.sol\":14263:14282  Lottery storage lot */\n      0x00\n        /* \"Ejercicio5/Lotery/contracts/Lottery.sol\":14285:14294  lotteries */\n      0x01\n        /* \"Ejercicio5/Lotery/contracts/Lottery.sol\":14285:14305  lotteries[lotteryId] */\n      0x00\n        /* \"Ejercicio5/Lotery/contracts/Lottery.sol\":14295:14304  lotteryId */\n      dup5\n        /* \"Ejercicio5/Lotery/contracts/Lottery.sol\":14285:14305  lotteries[lotteryId] */\n      dup2\n      mstore\n      0x20\n      add\n      swap1\n      dup2\n      mstore\n      0x20\n      add\n      0x00\n      keccak256\n        /* \"Ejercicio5/Lotery/contracts/Lottery.sol\":14263:14305  Lottery storage lot = lotteries[lotteryId] */\n      swap1\n      pop\n        /* \"Ejercicio5/Lotery/contracts/Lottery.sol\":14328:14331  lot */\n      dup1\n        /* \"Ejercicio5/Lotery/contracts/Lottery.sol\":14328:14338  lot.closed */\n      0x0b\n      add\n      0x00\n      swap1\n      sload\n      swap1\n      0x0100\n      exp\n      swap1\n      div\n      0xff\n      and\n        /* \"Ejercicio5/Lotery/contracts/Lottery.sol\":14328:14362  lot.closed || lot.ticketsSold == 0 */\n      dup1\n      tag_209\n      jumpi\n      pop\n        /* \"Ejercicio5/Lotery/contracts/Lottery.sol\":14361:14362  0 */\n      0x00\n        /* \"Ejercicio5/Lotery/contracts/Lottery.sol\":14342:14345  lot */\n      dup2\n        /* \"Ejercicio5/Lotery/contracts/Lottery.sol\":14342:14357  lot.ticketsSold */\n      0x05\n      add\n      sload\n        /* \"Ejercicio5/Lotery/contracts/Lottery.sol\":14342:14362  lot.ticketsSold == 0 */\n      eq\n        /* \"Ejercicio5/Lotery/contracts/Lottery.sol\":14328:14362  lot.closed || lot.ticketsSold == 0 */\n    tag_209:\n        /* \"Ejercicio5/Lotery/contracts/Lottery.sol\":14324:14401  if (lot.closed || lot.ticketsSold == 0) {... */\n      iszero\n      tag_210\n      jumpi\n        /* \"Ejercicio5/Lotery/contracts/Lottery.sol\":14385:14390  false */\n      0x00\n        /* \"Ejercicio5/Lotery/contracts/Lottery.sol\":14378:14390  return false */\n      swap2\n      pop\n      pop\n      jump(tag_205)\n        /* \"Ejercicio5/Lotery/contracts/Lottery.sol\":14324:14401  if (lot.closed || lot.ticketsSold == 0) {... */\n    tag_210:\n        /* \"Ejercicio5/Lotery/contracts/Lottery.sol\":14489:14490  0 */\n      0x00\n        /* \"Ejercicio5/Lotery/contracts/Lottery.sol\":14472:14475  lot */\n      dup2\n        /* \"Ejercicio5/Lotery/contracts/Lottery.sol\":14472:14486  lot.maxTickets */\n      0x04\n      add\n      sload\n        /* \"Ejercicio5/Lotery/contracts/Lottery.sol\":14472:14490  lot.maxTickets > 0 */\n      gt\n        /* \"Ejercicio5/Lotery/contracts/Lottery.sol\":14472:14527  lot.maxTickets > 0 && lot.ticketsSold >= lot.maxTickets */\n      dup1\n      iszero\n      tag_211\n      jumpi\n      pop\n        /* \"Ejercicio5/Lotery/contracts/Lottery.sol\":14513:14516  lot */\n      dup1\n        /* \"Ejercicio5/Lotery/contracts/Lottery.sol\":14513:14527  lot.maxTickets */\n      0x04\n      add\n      sload\n        /* \"Ejercicio5/Lotery/contracts/Lottery.sol\":14494:14497  lot */\n      dup2\n        /* \"Ejercicio5/Lotery/contracts/Lottery.sol\":14494:14509  lot.ticketsSold */\n      0x05\n      add\n      sload\n        /* \"Ejercicio5/Lotery/contracts/Lottery.sol\":14494:14527  lot.ticketsSold >= lot.maxTickets */\n      lt\n      iszero\n        /* \"Ejercicio5/Lotery/contracts/Lottery.sol\":14472:14527  lot.maxTickets > 0 && lot.ticketsSold >= lot.maxTickets */\n    tag_211:\n        /* \"Ejercicio5/Lotery/contracts/Lottery.sol\":14468:14565  if (lot.maxTickets > 0 && lot.ticketsSold >= lot.maxTickets) {... */\n      iszero\n      tag_212\n      jumpi\n        /* \"Ejercicio5/Lotery/contracts/Lottery.sol\":14550:14554  true */\n      0x01\n        /* \"Ejercicio5/Lotery/contracts/Lottery.sol\":14543:14554  return true */\n      swap2\n      pop\n      pop\n      jump(tag_205)\n        /* \"Ejercicio5/Lotery/contracts/Lottery.sol\":14468:14565  if (lot.maxTickets > 0 && lot.ticketsSold >= lot.maxTickets) {... */\n    tag_212:\n        /* \"Ejercicio5/Lotery/contracts/Lottery.sol\":14645:14646  0 */\n      0x00\n        /* \"Ejercicio5/Lotery/contracts/Lottery.sol\":14631:14634  lot */\n      dup2\n        /* \"Ejercicio5/Lotery/contracts/Lottery.sol\":14631:14642  lot.endTime */\n      0x07\n      add\n      sload\n        /* \"Ejercicio5/Lotery/contracts/Lottery.sol\":14631:14646  lot.endTime > 0 */\n      gt\n        /* \"Ejercicio5/Lotery/contracts/Lottery.sol\":14631:14680  lot.endTime > 0 && block.timestamp >= lot.endTime */\n      dup1\n      iszero\n      tag_213\n      jumpi\n      pop\n        /* \"Ejercicio5/Lotery/contracts/Lottery.sol\":14669:14672  lot */\n      dup1\n        /* \"Ejercicio5/Lotery/contracts/Lottery.sol\":14669:14680  lot.endTime */\n      0x07\n      add\n      sload\n        /* \"Ejercicio5/Lotery/contracts/Lottery.sol\":14650:14665  block.timestamp */\n      timestamp\n        /* \"Ejercicio5/Lotery/contracts/Lottery.sol\":14650:14680  block.timestamp >= lot.endTime */\n      lt\n      iszero\n        /* \"Ejercicio5/Lotery/contracts/Lottery.sol\":14631:14680  lot.endTime > 0 && block.timestamp >= lot.endTime */\n    tag_213:\n        /* \"Ejercicio5/Lotery/contracts/Lottery.sol\":14627:14718  if (lot.endTime > 0 && block.timestamp >= lot.endTime) {... */\n      iszero\n      tag_214\n      jumpi\n        /* \"Ejercicio5/Lotery/contracts/Lottery.sol\":14703:14707  true */\n      0x01\n        /* \"Ejercicio5/Lotery/contracts/Lottery.sol\":14696:14707  return true */\n      swap2\n      pop\n      pop\n      jump(tag_205)\n        /* \"Ejercicio5/Lotery/contracts/Lottery.sol\":14627:14718  if (lot.endTime > 0 && block.timestamp >= lot.endTime) {... */\n    tag_214:\n        /* \"Ejercicio5/Lotery/contracts/Lottery.sol\":14789:14793  true */\n      0x01\n        /* \"Ejercicio5/Lotery/contracts/Lottery.sol\":14782:14793  return true */\n      swap2\n      pop\n      pop\n        /* \"Ejercicio5/Lotery/contracts/Lottery.sol\":14101:14800  function canCloseLottery(uint256 lotteryId) external view returns (bool) {... */\n    tag_205:\n      swap2\n      swap1\n      pop\n      jump\t// out\n        /* \"Ejercicio5/Lotery/contracts/Lottery.sol\":10318:10973  function getLotteryInfo(uint256 lotteryId) external view returns (LotteryView memory){... */\n    tag_62:\n        /* \"Ejercicio5/Lotery/contracts/Lottery.sol\":10384:10402  LotteryView memory */\n      tag_215\n      tag_216\n      jump\t// in\n    tag_215:\n        /* \"Ejercicio5/Lotery/contracts/Lottery.sol\":10413:10432  Lottery storage lot */\n      0x00\n        /* \"Ejercicio5/Lotery/contracts/Lottery.sol\":10435:10444  lotteries */\n      0x01\n        /* \"Ejercicio5/Lotery/contracts/Lottery.sol\":10435:10455  lotteries[lotteryId] */\n      0x00\n        /* \"Ejercicio5/Lotery/contracts/Lottery.sol\":10445:10454  lotteryId */\n      dup5\n        /* \"Ejercicio5/Lotery/contracts/Lottery.sol\":10435:10455  lotteries[lotteryId] */\n      dup2\n      mstore\n      0x20\n      add\n      swap1\n      dup2\n      mstore\n      0x20\n      add\n      0x00\n      keccak256\n        /* \"Ejercicio5/Lotery/contracts/Lottery.sol\":10413:10455  Lottery storage lot = lotteries[lotteryId] */\n      swap1\n      pop\n        /* \"Ejercicio5/Lotery/contracts/Lottery.sol\":10473:10966  LotteryView({... */\n      mload(0x40)\n      dup1\n      0x01a0\n      add\n      0x40\n      mstore\n      dup1\n        /* \"Ejercicio5/Lotery/contracts/Lottery.sol\":10503:10506  lot */\n      dup3\n        /* \"Ejercicio5/Lotery/contracts/Lottery.sol\":10503:10509  lot.id */\n      0x00\n      add\n      sload\n        /* \"Ejercicio5/Lotery/contracts/Lottery.sol\":10473:10966  LotteryView({... */\n      dup2\n      mstore\n      0x20\n      add\n        /* \"Ejercicio5/Lotery/contracts/Lottery.sol\":10532:10535  lot */\n      dup3\n        /* \"Ejercicio5/Lotery/contracts/Lottery.sol\":10532:10543  lot.creator */\n      0x01\n      add\n      0x00\n      swap1\n      sload\n      swap1\n      0x0100\n      exp\n      swap1\n      div\n      0xffffffffffffffffffffffffffffffffffffffff\n      and\n        /* \"Ejercicio5/Lotery/contracts/Lottery.sol\":10473:10966  LotteryView({... */\n      0xffffffffffffffffffffffffffffffffffffffff\n      and\n      dup2\n      mstore\n      0x20\n      add\n        /* \"Ejercicio5/Lotery/contracts/Lottery.sol\":10563:10566  lot */\n      dup3\n        /* \"Ejercicio5/Lotery/contracts/Lottery.sol\":10563:10571  lot.name */\n      0x02\n      add\n        /* \"Ejercicio5/Lotery/contracts/Lottery.sol\":10473:10966  LotteryView({... */\n      dup1\n      sload\n      tag_218\n      swap1\n      tag_178\n      jump\t// in\n    tag_218:\n      dup1\n      0x1f\n      add\n      0x20\n      dup1\n      swap2\n      div\n      mul\n      0x20\n      add\n      mload(0x40)\n      swap1\n      dup2\n      add\n      0x40\n      mstore\n      dup1\n      swap3\n      swap2\n      swap1\n      dup2\n      dup2\n      mstore\n      0x20\n      add\n      dup3\n      dup1\n      sload\n      tag_219\n      swap1\n      tag_178\n      jump\t// in\n    tag_219:\n      dup1\n      iszero\n      tag_220\n      jumpi\n      dup1\n      0x1f\n      lt\n      tag_221\n      jumpi\n      0x0100\n      dup1\n      dup4\n      sload\n      div\n      mul\n      dup4\n      mstore\n      swap2\n      0x20\n      add\n      swap2\n      jump(tag_220)\n    tag_221:\n      dup3\n      add\n      swap2\n      swap1\n      0x00\n      mstore\n      keccak256(0x00, 0x20)\n      swap1\n    tag_222:\n      dup2\n      sload\n      dup2\n      mstore\n      swap1\n      0x01\n      add\n      swap1\n      0x20\n      add\n      dup1\n      dup4\n      gt\n      tag_222\n      jumpi\n      dup3\n      swap1\n      sub\n      0x1f\n      and\n      dup3\n      add\n      swap2\n    tag_220:\n      pop\n      pop\n      pop\n      pop\n      pop\n      dup2\n      mstore\n      0x20\n      add\n        /* \"Ejercicio5/Lotery/contracts/Lottery.sol\":10598:10601  lot */\n      dup3\n        /* \"Ejercicio5/Lotery/contracts/Lottery.sol\":10598:10613  lot.ticketPrice */\n      0x03\n      add\n      sload\n        /* \"Ejercicio5/Lotery/contracts/Lottery.sol\":10473:10966  LotteryView({... */\n      dup2\n      mstore\n      0x20\n      add\n        /* \"Ejercicio5/Lotery/contracts/Lottery.sol\":10639:10642  lot */\n      dup3\n        /* \"Ejercicio5/Lotery/contracts/Lottery.sol\":10639:10653  lot.maxTickets */\n      0x04\n      add\n      sload\n        /* \"Ejercicio5/Lotery/contracts/Lottery.sol\":10473:10966  LotteryView({... */\n      dup2\n      mstore\n      0x20\n      add\n        /* \"Ejercicio5/Lotery/contracts/Lottery.sol\":10680:10683  lot */\n      dup3\n        /* \"Ejercicio5/Lotery/contracts/Lottery.sol\":10680:10695  lot.ticketsSold */\n      0x05\n      add\n      sload\n        /* \"Ejercicio5/Lotery/contracts/Lottery.sol\":10473:10966  LotteryView({... */\n      dup2\n      mstore\n      0x20\n      add\n        /* \"Ejercicio5/Lotery/contracts/Lottery.sol\":10720:10723  lot */\n      dup3\n        /* \"Ejercicio5/Lotery/contracts/Lottery.sol\":10720:10733  lot.startTime */\n      0x06\n      add\n      sload\n        /* \"Ejercicio5/Lotery/contracts/Lottery.sol\":10473:10966  LotteryView({... */\n      dup2\n      mstore\n      0x20\n      add\n        /* \"Ejercicio5/Lotery/contracts/Lottery.sol\":10756:10759  lot */\n      dup3\n        /* \"Ejercicio5/Lotery/contracts/Lottery.sol\":10756:10767  lot.endTime */\n      0x07\n      add\n      sload\n        /* \"Ejercicio5/Lotery/contracts/Lottery.sol\":10473:10966  LotteryView({... */\n      dup2\n      mstore\n      0x20\n      add\n        /* \"Ejercicio5/Lotery/contracts/Lottery.sol\":10800:10803  lot */\n      dup3\n        /* \"Ejercicio5/Lotery/contracts/Lottery.sol\":10800:10821  lot.commissionPercent */\n      0x0a\n      add\n      sload\n        /* \"Ejercicio5/Lotery/contracts/Lottery.sol\":10473:10966  LotteryView({... */\n      dup2\n      mstore\n      0x20\n      add\n        /* \"Ejercicio5/Lotery/contracts/Lottery.sol\":10843:10846  lot */\n      dup3\n        /* \"Ejercicio5/Lotery/contracts/Lottery.sol\":10843:10853  lot.closed */\n      0x0b\n      add\n      0x00\n      swap1\n      sload\n      swap1\n      0x0100\n      exp\n      swap1\n      div\n      0xff\n      and\n        /* \"Ejercicio5/Lotery/contracts/Lottery.sol\":10473:10966  LotteryView({... */\n      iszero\n      iszero\n      dup2\n      mstore\n      0x20\n      add\n        /* \"Ejercicio5/Lotery/contracts/Lottery.sol\":10875:10878  lot */\n      dup3\n        /* \"Ejercicio5/Lotery/contracts/Lottery.sol\":10875:10885  lot.winner */\n      0x0b\n      add\n      0x01\n      swap1\n      sload\n      swap1\n      0x0100\n      exp\n      swap1\n      div\n      0xffffffffffffffffffffffffffffffffffffffff\n      and\n        /* \"Ejercicio5/Lotery/contracts/Lottery.sol\":10473:10966  LotteryView({... */\n      0xffffffffffffffffffffffffffffffffffffffff\n      and\n      dup2\n      mstore\n      0x20\n      add\n        /* \"Ejercicio5/Lotery/contracts/Lottery.sol\":10904:10907  lot */\n      dup3\n        /* \"Ejercicio5/Lotery/contracts/Lottery.sol\":10904:10911  lot.pot */\n      0x0c\n      add\n      sload\n        /* \"Ejercicio5/Lotery/contracts/Lottery.sol\":10473:10966  LotteryView({... */\n      dup2\n      mstore\n      0x20\n      add\n        /* \"Ejercicio5/Lotery/contracts/Lottery.sol\":10939:10942  lot */\n      dup3\n        /* \"Ejercicio5/Lotery/contracts/Lottery.sol\":10939:10955  lot.participants */\n      0x09\n      add\n        /* \"Ejercicio5/Lotery/contracts/Lottery.sol\":10473:10966  LotteryView({... */\n      dup1\n      sload\n      dup1\n      0x20\n      mul\n      0x20\n      add\n      mload(0x40)\n      swap1\n      dup2\n      add\n      0x40\n      mstore\n      dup1\n      swap3\n      swap2\n      swap1\n      dup2\n      dup2\n      mstore\n      0x20\n      add\n      dup3\n      dup1\n      sload\n      dup1\n      iszero\n      tag_223\n      jumpi\n      0x20\n      mul\n      dup3\n      add\n      swap2\n      swap1\n      0x00\n      mstore\n      keccak256(0x00, 0x20)\n      swap1\n    tag_224:\n      dup2\n      0x00\n      swap1\n      sload\n      swap1\n      0x0100\n      exp\n      swap1\n      div\n      0xffffffffffffffffffffffffffffffffffffffff\n      and\n      0xffffffffffffffffffffffffffffffffffffffff\n      and\n      dup2\n      mstore\n      0x20\n      add\n      swap1\n      0x01\n      add\n      swap1\n      dup1\n      dup4\n      gt\n      tag_224\n      jumpi\n    tag_223:\n      pop\n      pop\n      pop\n      pop\n      pop\n      dup2\n      mstore\n      pop\n        /* \"Ejercicio5/Lotery/contracts/Lottery.sol\":10466:10966  return LotteryView({... */\n      swap2\n      pop\n      pop\n        /* \"Ejercicio5/Lotery/contracts/Lottery.sol\":10318:10973  function getLotteryInfo(uint256 lotteryId) external view returns (LotteryView memory){... */\n      swap2\n      swap1\n      pop\n      jump\t// out\n        /* \"Ejercicio5/Lotery/contracts/LotteryStorage.sol\":3453:3506  uint256 public constant MAX_COMMISSION_PERCENT = 1000 */\n    tag_67:\n        /* \"Ejercicio5/Lotery/contracts/LotteryStorage.sol\":3502:3506  1000 */\n      0x03e8\n        /* \"Ejercicio5/Lotery/contracts/LotteryStorage.sol\":3453:3506  uint256 public constant MAX_COMMISSION_PERCENT = 1000 */\n      dup2\n      jump\t// out\n        /* \"Ejercicio5/Lotery/contracts/LotteryStorage.sol\":3363:3398  uint256 public activeLotteriesCount */\n    tag_72:\n      sload(0x04)\n      dup2\n      jump\t// out\n        /* \"Ejercicio5/Lotery/contracts/Lottery.sol\":5172:5339  function getMyTickets(uint256 lotteryId, address participant) external view returns (uint256){... */\n    tag_78:\n        /* \"Ejercicio5/Lotery/contracts/Lottery.sol\":5257:5264  uint256 */\n      0x00\n        /* \"Ejercicio5/Lotery/contracts/Lottery.sol\":5282:5291  lotteries */\n      0x01\n        /* \"Ejercicio5/Lotery/contracts/Lottery.sol\":5282:5302  lotteries[lotteryId] */\n      0x00\n        /* \"Ejercicio5/Lotery/contracts/Lottery.sol\":5292:5301  lotteryId */\n      dup5\n        /* \"Ejercicio5/Lotery/contracts/Lottery.sol\":5282:5302  lotteries[lotteryId] */\n      dup2\n      mstore\n      0x20\n      add\n      swap1\n      dup2\n      mstore\n      0x20\n      add\n      0x00\n      keccak256\n        /* \"Ejercicio5/Lotery/contracts/Lottery.sol\":5282:5319  lotteries[lotteryId].ticketsByAddress */\n      0x08\n      add\n        /* \"Ejercicio5/Lotery/contracts/Lottery.sol\":5282:5332  lotteries[lotteryId].ticketsByAddress[participant] */\n      0x00\n        /* \"Ejercicio5/Lotery/contracts/Lottery.sol\":5320:5331  participant */\n      dup4\n        /* \"Ejercicio5/Lotery/contracts/Lottery.sol\":5282:5332  lotteries[lotteryId].ticketsByAddress[participant] */\n      0xffffffffffffffffffffffffffffffffffffffff\n      and\n      0xffffffffffffffffffffffffffffffffffffffff\n      and\n      dup2\n      mstore\n      0x20\n      add\n      swap1\n      dup2\n      mstore\n      0x20\n      add\n      0x00\n      keccak256\n      sload\n        /* \"Ejercicio5/Lotery/contracts/Lottery.sol\":5275:5332  return lotteries[lotteryId].ticketsByAddress[participant] */\n      swap1\n      pop\n        /* \"Ejercicio5/Lotery/contracts/Lottery.sol\":5172:5339  function getMyTickets(uint256 lotteryId, address participant) external view returns (uint256){... */\n      swap3\n      swap2\n      pop\n      pop\n      jump\t// out\n        /* \"Ejercicio5/Lotery/contracts/Lottery.sol\":16216:16346  function getPendingWithdrawal(address account) external view returns (uint256) {... */\n    tag_83:\n        /* \"Ejercicio5/Lotery/contracts/Lottery.sol\":16286:16293  uint256 */\n      0x00\n        /* \"Ejercicio5/Lotery/contracts/Lottery.sol\":16312:16330  pendingWithdrawals */\n      0x05\n        /* \"Ejercicio5/Lotery/contracts/Lottery.sol\":16312:16339  pendingWithdrawals[account] */\n      0x00\n        /* \"Ejercicio5/Lotery/contracts/Lottery.sol\":16331:16338  account */\n      dup4\n        /* \"Ejercicio5/Lotery/contracts/Lottery.sol\":16312:16339  pendingWithdrawals[account] */\n      0xffffffffffffffffffffffffffffffffffffffff\n      and\n      0xffffffffffffffffffffffffffffffffffffffff\n      and\n      dup2\n      mstore\n      0x20\n      add\n      swap1\n      dup2\n      mstore\n      0x20\n      add\n      0x00\n      keccak256\n      sload\n        /* \"Ejercicio5/Lotery/contracts/Lottery.sol\":16305:16339  return pendingWithdrawals[account] */\n      swap1\n      pop\n        /* \"Ejercicio5/Lotery/contracts/Lottery.sol\":16216:16346  function getPendingWithdrawal(address account) external view returns (uint256) {... */\n      swap2\n      swap1\n      pop\n      jump\t// out\n        /* \"Ejercicio5/Lotery/contracts/LotteryStorage.sol\":3106:3134  uint256 public nextLotteryId */\n    tag_87:\n      sload(0x00)\n      dup2\n      jump\t// out\n        /* \"Ejercicio5/Lotery/contracts/LotteryStorage.sol\":3196:3241  uint256 public defaultCommissionPercent = 200 */\n    tag_91:\n      sload(0x02)\n      dup2\n      jump\t// out\n        /* \"Ejercicio5/Lotery/contracts/Lottery.sol\":3971:5166  function buyTickets(uint256 lotteryId, uint256 quantity) external payable{... */\n    tag_96:\n        /* \"Ejercicio5/Lotery/contracts/Lottery.sol\":4054:4073  Lottery storage lot */\n      0x00\n        /* \"Ejercicio5/Lotery/contracts/Lottery.sol\":4076:4085  lotteries */\n      0x01\n        /* \"Ejercicio5/Lotery/contracts/Lottery.sol\":4076:4096  lotteries[lotteryId] */\n      0x00\n        /* \"Ejercicio5/Lotery/contracts/Lottery.sol\":4086:4095  lotteryId */\n      dup5\n        /* \"Ejercicio5/Lotery/contracts/Lottery.sol\":4076:4096  lotteries[lotteryId] */\n      dup2\n      mstore\n      0x20\n      add\n      swap1\n      dup2\n      mstore\n      0x20\n      add\n      0x00\n      keccak256\n        /* \"Ejercicio5/Lotery/contracts/Lottery.sol\":4054:4096  Lottery storage lot = lotteries[lotteryId] */\n      swap1\n      pop\n        /* \"Ejercicio5/Lotery/contracts/Lottery.sol\":4111:4129  uint256 totalPrice */\n      0x00\n        /* \"Ejercicio5/Lotery/contracts/Lottery.sol\":4143:4146  lot */\n      dup2\n        /* \"Ejercicio5/Lotery/contracts/Lottery.sol\":4143:4158  lot.ticketPrice */\n      0x03\n      add\n      sload\n        /* \"Ejercicio5/Lotery/contracts/Lottery.sol\":4132:4140  quantity */\n      dup4\n        /* \"Ejercicio5/Lotery/contracts/Lottery.sol\":4132:4158  quantity * lot.ticketPrice */\n      tag_228\n      swap2\n      swap1\n      tag_229\n      jump\t// in\n    tag_228:\n        /* \"Ejercicio5/Lotery/contracts/Lottery.sol\":4111:4158  uint256 totalPrice = quantity * lot.ticketPrice */\n      swap1\n      pop\n        /* \"Ejercicio5/Lotery/contracts/Lottery.sol\":4178:4181  lot */\n      dup2\n        /* \"Ejercicio5/Lotery/contracts/Lottery.sol\":4178:4188  lot.closed */\n      0x0b\n      add\n      0x00\n      swap1\n      sload\n      swap1\n      0x0100\n      exp\n      swap1\n      div\n      0xff\n      and\n        /* \"Ejercicio5/Lotery/contracts/Lottery.sol\":4177:4188  !lot.closed */\n      iszero\n        /* \"Ejercicio5/Lotery/contracts/Lottery.sol\":4169:4210  require(!lot.closed, \"Lottery is closed\") */\n      tag_230\n      jumpi\n      mload(0x40)\n      0x08c379a000000000000000000000000000000000000000000000000000000000\n      dup2\n      mstore\n      0x04\n      add\n      tag_231\n      swap1\n      tag_232\n      jump\t// in\n    tag_231:\n      mload(0x40)\n      dup1\n      swap2\n      sub\n      swap1\n      revert\n    tag_230:\n        /* \"Ejercicio5/Lotery/contracts/Lottery.sol\":4239:4240  0 */\n      0x00\n        /* \"Ejercicio5/Lotery/contracts/Lottery.sol\":4228:4236  quantity */\n      dup4\n        /* \"Ejercicio5/Lotery/contracts/Lottery.sol\":4228:4240  quantity > 0 */\n      gt\n        /* \"Ejercicio5/Lotery/contracts/Lottery.sol\":4220:4276  require(quantity > 0, \"Quantity must be greater than 0\") */\n      tag_233\n      jumpi\n      mload(0x40)\n      0x08c379a000000000000000000000000000000000000000000000000000000000\n      dup2\n      mstore\n      0x04\n      add\n      tag_234\n      swap1\n      tag_235\n      jump\t// in\n    tag_234:\n      mload(0x40)\n      dup1\n      swap2\n      sub\n      swap1\n      revert\n    tag_233:\n        /* \"Ejercicio5/Lotery/contracts/Lottery.sol\":4307:4317  totalPrice */\n      dup1\n        /* \"Ejercicio5/Lotery/contracts/Lottery.sol\":4294:4303  msg.value */\n      callvalue\n        /* \"Ejercicio5/Lotery/contracts/Lottery.sol\":4294:4317  msg.value == totalPrice */\n      eq\n        /* \"Ejercicio5/Lotery/contracts/Lottery.sol\":4286:4348  require(msg.value == totalPrice, \"Invalid amount of ETH sent\") */\n      tag_236\n      jumpi\n      mload(0x40)\n      0x08c379a000000000000000000000000000000000000000000000000000000000\n      dup2\n      mstore\n      0x04\n      add\n      tag_237\n      swap1\n      tag_238\n      jump\t// in\n    tag_237:\n      mload(0x40)\n      dup1\n      swap2\n      sub\n      swap1\n      revert\n    tag_236:\n        /* \"Ejercicio5/Lotery/contracts/Lottery.sol\":4437:4458  uint256 startTicketId */\n      0x00\n        /* \"Ejercicio5/Lotery/contracts/Lottery.sol\":4461:4464  lot */\n      dup3\n        /* \"Ejercicio5/Lotery/contracts/Lottery.sol\":4461:4476  lot.ticketsSold */\n      0x05\n      add\n      sload\n        /* \"Ejercicio5/Lotery/contracts/Lottery.sol\":4437:4476  uint256 startTicketId = lot.ticketsSold */\n      swap1\n      pop\n        /* \"Ejercicio5/Lotery/contracts/Lottery.sol\":4491:4500  uint256 i */\n      0x00\n        /* \"Ejercicio5/Lotery/contracts/Lottery.sol\":4503:4504  0 */\n      0x00\n        /* \"Ejercicio5/Lotery/contracts/Lottery.sol\":4491:4504  uint256 i = 0 */\n      swap1\n      pop\n        /* \"Ejercicio5/Lotery/contracts/Lottery.sol\":4486:4597  for (uint256 i = 0; i < quantity; i++) {... */\n    tag_239:\n        /* \"Ejercicio5/Lotery/contracts/Lottery.sol\":4510:4518  quantity */\n      dup5\n        /* \"Ejercicio5/Lotery/contracts/Lottery.sol\":4506:4507  i */\n      dup2\n        /* \"Ejercicio5/Lotery/contracts/Lottery.sol\":4506:4518  i < quantity */\n      lt\n        /* \"Ejercicio5/Lotery/contracts/Lottery.sol\":4486:4597  for (uint256 i = 0; i < quantity; i++) {... */\n      iszero\n      tag_240\n      jumpi\n        /* \"Ejercicio5/Lotery/contracts/Lottery.sol\":4576:4586  msg.sender */\n      caller\n        /* \"Ejercicio5/Lotery/contracts/Lottery.sol\":4539:4542  lot */\n      dup5\n        /* \"Ejercicio5/Lotery/contracts/Lottery.sol\":4539:4554  lot.ticketOwner */\n      0x0d\n      add\n        /* \"Ejercicio5/Lotery/contracts/Lottery.sol\":4539:4573  lot.ticketOwner[startTicketId + i] */\n      0x00\n        /* \"Ejercicio5/Lotery/contracts/Lottery.sol\":4571:4572  i */\n      dup4\n        /* \"Ejercicio5/Lotery/contracts/Lottery.sol\":4555:4568  startTicketId */\n      dup6\n        /* \"Ejercicio5/Lotery/contracts/Lottery.sol\":4555:4572  startTicketId + i */\n      tag_242\n      swap2\n      swap1\n      tag_202\n      jump\t// in\n    tag_242:\n        /* \"Ejercicio5/Lotery/contracts/Lottery.sol\":4539:4573  lot.ticketOwner[startTicketId + i] */\n      dup2\n      mstore\n      0x20\n      add\n      swap1\n      dup2\n      mstore\n      0x20\n      add\n      0x00\n      keccak256\n      0x00\n        /* \"Ejercicio5/Lotery/contracts/Lottery.sol\":4539:4586  lot.ticketOwner[startTicketId + i] = msg.sender */\n      0x0100\n      exp\n      dup2\n      sload\n      dup2\n      0xffffffffffffffffffffffffffffffffffffffff\n      mul\n      not\n      and\n      swap1\n      dup4\n      0xffffffffffffffffffffffffffffffffffffffff\n      and\n      mul\n      or\n      swap1\n      sstore\n      pop\n        /* \"Ejercicio5/Lotery/contracts/Lottery.sol\":4520:4523  i++ */\n      dup1\n      dup1\n      0x01\n      add\n      swap2\n      pop\n      pop\n        /* \"Ejercicio5/Lotery/contracts/Lottery.sol\":4486:4597  for (uint256 i = 0; i < quantity; i++) {... */\n      jump(tag_239)\n    tag_240:\n      pop\n        /* \"Ejercicio5/Lotery/contracts/Lottery.sol\":4682:4690  quantity */\n      dup4\n        /* \"Ejercicio5/Lotery/contracts/Lottery.sol\":4664:4667  lot */\n      dup4\n        /* \"Ejercicio5/Lotery/contracts/Lottery.sol\":4664:4679  lot.ticketsSold */\n      0x05\n      add\n      sload\n        /* \"Ejercicio5/Lotery/contracts/Lottery.sol\":4664:4690  lot.ticketsSold + quantity */\n      tag_243\n      swap2\n      swap1\n      tag_202\n      jump\t// in\n    tag_243:\n        /* \"Ejercicio5/Lotery/contracts/Lottery.sol\":4646:4649  lot */\n      dup4\n        /* \"Ejercicio5/Lotery/contracts/Lottery.sol\":4646:4661  lot.ticketsSold */\n      0x05\n      add\n        /* \"Ejercicio5/Lotery/contracts/Lottery.sol\":4646:4690  lot.ticketsSold = lot.ticketsSold + quantity */\n      dup2\n      swap1\n      sstore\n      pop\n        /* \"Ejercicio5/Lotery/contracts/Lottery.sol\":4818:4826  quantity */\n      dup4\n        /* \"Ejercicio5/Lotery/contracts/Lottery.sol\":4783:4786  lot */\n      dup4\n        /* \"Ejercicio5/Lotery/contracts/Lottery.sol\":4783:4803  lot.ticketsByAddress */\n      0x08\n      add\n        /* \"Ejercicio5/Lotery/contracts/Lottery.sol\":4783:4815  lot.ticketsByAddress[msg.sender] */\n      0x00\n        /* \"Ejercicio5/Lotery/contracts/Lottery.sol\":4804:4814  msg.sender */\n      caller\n        /* \"Ejercicio5/Lotery/contracts/Lottery.sol\":4783:4815  lot.ticketsByAddress[msg.sender] */\n      0xffffffffffffffffffffffffffffffffffffffff\n      and\n      0xffffffffffffffffffffffffffffffffffffffff\n      and\n      dup2\n      mstore\n      0x20\n      add\n      swap1\n      dup2\n      mstore\n      0x20\n      add\n      0x00\n      keccak256\n      sload\n        /* \"Ejercicio5/Lotery/contracts/Lottery.sol\":4783:4826  lot.ticketsByAddress[msg.sender] + quantity */\n      tag_244\n      swap2\n      swap1\n      tag_202\n      jump\t// in\n    tag_244:\n        /* \"Ejercicio5/Lotery/contracts/Lottery.sol\":4748:4751  lot */\n      dup4\n        /* \"Ejercicio5/Lotery/contracts/Lottery.sol\":4748:4768  lot.ticketsByAddress */\n      0x08\n      add\n        /* \"Ejercicio5/Lotery/contracts/Lottery.sol\":4748:4780  lot.ticketsByAddress[msg.sender] */\n      0x00\n        /* \"Ejercicio5/Lotery/contracts/Lottery.sol\":4769:4779  msg.sender */\n      caller\n        /* \"Ejercicio5/Lotery/contracts/Lottery.sol\":4748:4780  lot.ticketsByAddress[msg.sender] */\n      0xffffffffffffffffffffffffffffffffffffffff\n      and\n      0xffffffffffffffffffffffffffffffffffffffff\n      and\n      dup2\n      mstore\n      0x20\n      add\n      swap1\n      dup2\n      mstore\n      0x20\n      add\n      0x00\n      keccak256\n        /* \"Ejercicio5/Lotery/contracts/Lottery.sol\":4748:4826  lot.ticketsByAddress[msg.sender] = lot.ticketsByAddress[msg.sender] + quantity */\n      dup2\n      swap1\n      sstore\n      pop\n        /* \"Ejercicio5/Lotery/contracts/Lottery.sol\":4933:4941  quantity */\n      dup4\n        /* \"Ejercicio5/Lotery/contracts/Lottery.sol\":4897:4900  lot */\n      dup4\n        /* \"Ejercicio5/Lotery/contracts/Lottery.sol\":4897:4917  lot.ticketsByAddress */\n      0x08\n      add\n        /* \"Ejercicio5/Lotery/contracts/Lottery.sol\":4897:4929  lot.ticketsByAddress[msg.sender] */\n      0x00\n        /* \"Ejercicio5/Lotery/contracts/Lottery.sol\":4918:4928  msg.sender */\n      caller\n        /* \"Ejercicio5/Lotery/contracts/Lottery.sol\":4897:4929  lot.ticketsByAddress[msg.sender] */\n      0xffffffffffffffffffffffffffffffffffffffff\n      and\n      0xffffffffffffffffffffffffffffffffffffffff\n      and\n      dup2\n      mstore\n      0x20\n      add\n      swap1\n      dup2\n      mstore\n      0x20\n      add\n      0x00\n      keccak256\n      sload\n        /* \"Ejercicio5/Lotery/contracts/Lottery.sol\":4897:4941  lot.ticketsByAddress[msg.sender] == quantity */\n      sub\n        /* \"Ejercicio5/Lotery/contracts/Lottery.sol\":4893:5001  if (lot.ticketsByAddress[msg.sender] == quantity) {... */\n      tag_245\n      jumpi\n        /* \"Ejercicio5/Lotery/contracts/Lottery.sol\":4957:4960  lot */\n      dup3\n        /* \"Ejercicio5/Lotery/contracts/Lottery.sol\":4957:4973  lot.participants */\n      0x09\n      add\n        /* \"Ejercicio5/Lotery/contracts/Lottery.sol\":4979:4989  msg.sender */\n      caller\n        /* \"Ejercicio5/Lotery/contracts/Lottery.sol\":4957:4990  lot.participants.push(msg.sender) */\n      swap1\n      dup1\n      0x01\n      dup2\n      sload\n      add\n      dup1\n      dup3\n      sstore\n      dup1\n      swap2\n      pop\n      pop\n      0x01\n      swap1\n      sub\n      swap1\n      0x00\n      mstore\n      keccak256(0x00, 0x20)\n      add\n      0x00\n      swap1\n      swap2\n      swap1\n      swap2\n      swap1\n      swap2\n      0x0100\n      exp\n      dup2\n      sload\n      dup2\n      0xffffffffffffffffffffffffffffffffffffffff\n      mul\n      not\n      and\n      swap1\n      dup4\n      0xffffffffffffffffffffffffffffffffffffffff\n      and\n      mul\n      or\n      swap1\n      sstore\n      pop\n        /* \"Ejercicio5/Lotery/contracts/Lottery.sol\":4893:5001  if (lot.ticketsByAddress[msg.sender] == quantity) {... */\n    tag_245:\n        /* \"Ejercicio5/Lotery/contracts/Lottery.sol\":5060:5069  msg.value */\n      callvalue\n        /* \"Ejercicio5/Lotery/contracts/Lottery.sol\":5050:5053  lot */\n      dup4\n        /* \"Ejercicio5/Lotery/contracts/Lottery.sol\":5050:5057  lot.pot */\n      0x0c\n      add\n      sload\n        /* \"Ejercicio5/Lotery/contracts/Lottery.sol\":5050:5069  lot.pot + msg.value */\n      tag_247\n      swap2\n      swap1\n      tag_202\n      jump\t// in\n    tag_247:\n        /* \"Ejercicio5/Lotery/contracts/Lottery.sol\":5040:5043  lot */\n      dup4\n        /* \"Ejercicio5/Lotery/contracts/Lottery.sol\":5040:5047  lot.pot */\n      0x0c\n      add\n        /* \"Ejercicio5/Lotery/contracts/Lottery.sol\":5040:5069  lot.pot = lot.pot + msg.value */\n      dup2\n      swap1\n      sstore\n      pop\n        /* \"Ejercicio5/Lotery/contracts/Lottery.sol\":5137:5147  msg.sender */\n      caller\n        /* \"Ejercicio5/Lotery/contracts/Lottery.sol\":5110:5158  TicketPurchased(lotteryId, msg.sender, quantity) */\n      0xffffffffffffffffffffffffffffffffffffffff\n      and\n        /* \"Ejercicio5/Lotery/contracts/Lottery.sol\":5126:5135  lotteryId */\n      dup6\n        /* \"Ejercicio5/Lotery/contracts/Lottery.sol\":5110:5158  TicketPurchased(lotteryId, msg.sender, quantity) */\n      0xdbaaf4c87ce30816c961a81d110622a3227ede77953d4383d514ff88ab2e0fd3\n        /* \"Ejercicio5/Lotery/contracts/Lottery.sol\":5149:5157  quantity */\n      dup7\n        /* \"Ejercicio5/Lotery/contracts/Lottery.sol\":5110:5158  TicketPurchased(lotteryId, msg.sender, quantity) */\n      mload(0x40)\n      tag_248\n      swap2\n      swap1\n      tag_69\n      jump\t// in\n    tag_248:\n      mload(0x40)\n      dup1\n      swap2\n      sub\n      swap1\n      log3\n        /* \"Ejercicio5/Lotery/contracts/Lottery.sol\":4044:5166  {... */\n      pop\n      pop\n      pop\n        /* \"Ejercicio5/Lotery/contracts/Lottery.sol\":3971:5166  function buyTickets(uint256 lotteryId, uint256 quantity) external payable{... */\n      pop\n      pop\n      jump\t// out\n        /* \"Ejercicio5/Lotery/contracts/LotteryStorage.sol\":3284:3304  address public owner */\n    tag_99:\n      0x03\n      0x00\n      swap1\n      sload\n      swap1\n      0x0100\n      exp\n      swap1\n      div\n      0xffffffffffffffffffffffffffffffffffffffff\n      and\n      dup2\n      jump\t// out\n        /* \"Ejercicio5/Lotery/contracts/Lottery.sol\":11715:12139  function getContractSummary() ... */\n    tag_104:\n        /* \"Ejercicio5/Lotery/contracts/Lottery.sol\":11808:11830  uint256 totalLotteries */\n      0x00\n        /* \"Ejercicio5/Lotery/contracts/Lottery.sol\":11844:11867  uint256 activeLotteries */\n      0x00\n        /* \"Ejercicio5/Lotery/contracts/Lottery.sol\":11881:11902  address contractOwner */\n      0x00\n        /* \"Ejercicio5/Lotery/contracts/Lottery.sol\":11916:11941  uint256 defaultCommission */\n      0x00\n        /* \"Ejercicio5/Lotery/contracts/Lottery.sol\":11991:12004  nextLotteryId */\n      sload(0x00)\n        /* \"Ejercicio5/Lotery/contracts/Lottery.sol\":12045:12065  activeLotteriesCount */\n      sload(0x04)\n        /* \"Ejercicio5/Lotery/contracts/Lottery.sol\":12079:12084  owner */\n      0x03\n      0x00\n      swap1\n      sload\n      swap1\n      0x0100\n      exp\n      swap1\n      div\n      0xffffffffffffffffffffffffffffffffffffffff\n      and\n        /* \"Ejercicio5/Lotery/contracts/Lottery.sol\":12098:12122  defaultCommissionPercent */\n      sload(0x02)\n        /* \"Ejercicio5/Lotery/contracts/Lottery.sol\":11970:12132  return (... */\n      swap4\n      pop\n      swap4\n      pop\n      swap4\n      pop\n      swap4\n      pop\n        /* \"Ejercicio5/Lotery/contracts/Lottery.sol\":11715:12139  function getContractSummary() ... */\n      swap1\n      swap2\n      swap3\n      swap4\n      jump\t// out\n        /* \"Ejercicio5/Lotery/contracts/Lottery.sol\":5635:6139  function closeLottery(uint256 lotteryId) external {... */\n    tag_110:\n        /* \"Ejercicio5/Lotery/contracts/Lottery.sol\":5695:5714  Lottery storage lot */\n      0x00\n        /* \"Ejercicio5/Lotery/contracts/Lottery.sol\":5717:5726  lotteries */\n      0x01\n        /* \"Ejercicio5/Lotery/contracts/Lottery.sol\":5717:5737  lotteries[lotteryId] */\n      0x00\n        /* \"Ejercicio5/Lotery/contracts/Lottery.sol\":5727:5736  lotteryId */\n      dup4\n        /* \"Ejercicio5/Lotery/contracts/Lottery.sol\":5717:5737  lotteries[lotteryId] */\n      dup2\n      mstore\n      0x20\n      add\n      swap1\n      dup2\n      mstore\n      0x20\n      add\n      0x00\n      keccak256\n        /* \"Ejercicio5/Lotery/contracts/Lottery.sol\":5695:5737  Lottery storage lot = lotteries[lotteryId] */\n      swap1\n      pop\n        /* \"Ejercicio5/Lotery/contracts/Lottery.sol\":5815:5818  lot */\n      dup1\n        /* \"Ejercicio5/Lotery/contracts/Lottery.sol\":5815:5826  lot.creator */\n      0x01\n      add\n      0x00\n      swap1\n      sload\n      swap1\n      0x0100\n      exp\n      swap1\n      div\n      0xffffffffffffffffffffffffffffffffffffffff\n      and\n        /* \"Ejercicio5/Lotery/contracts/Lottery.sol\":5801:5826  msg.sender == lot.creator */\n      0xffffffffffffffffffffffffffffffffffffffff\n      and\n        /* \"Ejercicio5/Lotery/contracts/Lottery.sol\":5801:5811  msg.sender */\n      caller\n        /* \"Ejercicio5/Lotery/contracts/Lottery.sol\":5801:5826  msg.sender == lot.creator */\n      0xffffffffffffffffffffffffffffffffffffffff\n      and\n      eq\n        /* \"Ejercicio5/Lotery/contracts/Lottery.sol\":5801:5849  msg.sender == lot.creator || msg.sender == owner */\n      dup1\n      tag_251\n      jumpi\n      pop\n        /* \"Ejercicio5/Lotery/contracts/Lottery.sol\":5844:5849  owner */\n      0x03\n      0x00\n      swap1\n      sload\n      swap1\n      0x0100\n      exp\n      swap1\n      div\n      0xffffffffffffffffffffffffffffffffffffffff\n      and\n        /* \"Ejercicio5/Lotery/contracts/Lottery.sol\":5830:5849  msg.sender == owner */\n      0xffffffffffffffffffffffffffffffffffffffff\n      and\n        /* \"Ejercicio5/Lotery/contracts/Lottery.sol\":5830:5840  msg.sender */\n      caller\n        /* \"Ejercicio5/Lotery/contracts/Lottery.sol\":5830:5849  msg.sender == owner */\n      0xffffffffffffffffffffffffffffffffffffffff\n      and\n      eq\n        /* \"Ejercicio5/Lotery/contracts/Lottery.sol\":5801:5849  msg.sender == lot.creator || msg.sender == owner */\n    tag_251:\n        /* \"Ejercicio5/Lotery/contracts/Lottery.sol\":5780:5906  require(... */\n      tag_252\n      jumpi\n      mload(0x40)\n      0x08c379a000000000000000000000000000000000000000000000000000000000\n      dup2\n      mstore\n      0x04\n      add\n      tag_253\n      swap1\n      tag_254\n      jump\t// in\n    tag_253:\n      mload(0x40)\n      dup1\n      swap2\n      sub\n      swap1\n      revert\n    tag_252:\n        /* \"Ejercicio5/Lotery/contracts/Lottery.sol\":5936:5949  nextLotteryId */\n      sload(0x00)\n        /* \"Ejercicio5/Lotery/contracts/Lottery.sol\":5924:5933  lotteryId */\n      dup3\n        /* \"Ejercicio5/Lotery/contracts/Lottery.sol\":5924:5949  lotteryId < nextLotteryId */\n      lt\n        /* \"Ejercicio5/Lotery/contracts/Lottery.sol\":5916:5976  require(lotteryId < nextLotteryId, \"Lottery does not exist\") */\n      tag_255\n      jumpi\n      mload(0x40)\n      0x08c379a000000000000000000000000000000000000000000000000000000000\n      dup2\n      mstore\n      0x04\n      add\n      tag_256\n      swap1\n      tag_208\n      jump\t// in\n    tag_256:\n      mload(0x40)\n      dup1\n      swap2\n      sub\n      swap1\n      revert\n    tag_255:\n        /* \"Ejercicio5/Lotery/contracts/Lottery.sol\":5995:5998  lot */\n      dup1\n        /* \"Ejercicio5/Lotery/contracts/Lottery.sol\":5995:6005  lot.closed */\n      0x0b\n      add\n      0x00\n      swap1\n      sload\n      swap1\n      0x0100\n      exp\n      swap1\n      div\n      0xff\n      and\n        /* \"Ejercicio5/Lotery/contracts/Lottery.sol\":5994:6005  !lot.closed */\n      iszero\n        /* \"Ejercicio5/Lotery/contracts/Lottery.sol\":5986:6032  require(!lot.closed, \"Lottery already closed\") */\n      tag_257\n      jumpi\n      mload(0x40)\n      0x08c379a000000000000000000000000000000000000000000000000000000000\n      dup2\n      mstore\n      0x04\n      add\n      tag_258\n      swap1\n      tag_259\n      jump\t// in\n    tag_258:\n      mload(0x40)\n      dup1\n      swap2\n      sub\n      swap1\n      revert\n    tag_257:\n        /* \"Ejercicio5/Lotery/contracts/Lottery.sol\":6068:6069  0 */\n      0x00\n        /* \"Ejercicio5/Lotery/contracts/Lottery.sol\":6050:6053  lot */\n      dup2\n        /* \"Ejercicio5/Lotery/contracts/Lottery.sol\":6050:6065  lot.ticketsSold */\n      0x05\n      add\n      sload\n        /* \"Ejercicio5/Lotery/contracts/Lottery.sol\":6050:6069  lot.ticketsSold > 0 */\n      gt\n        /* \"Ejercicio5/Lotery/contracts/Lottery.sol\":6042:6089  require(lot.ticketsSold > 0, \"No tickets sold\") */\n      tag_260\n      jumpi\n      mload(0x40)\n      0x08c379a000000000000000000000000000000000000000000000000000000000\n      dup2\n      mstore\n      0x04\n      add\n      tag_261\n      swap1\n      tag_262\n      jump\t// in\n    tag_261:\n      mload(0x40)\n      dup1\n      swap2\n      sub\n      swap1\n      revert\n    tag_260:\n        /* \"Ejercicio5/Lotery/contracts/Lottery.sol\":6108:6132  _closeLottery(lotteryId) */\n      tag_263\n        /* \"Ejercicio5/Lotery/contracts/Lottery.sol\":6122:6131  lotteryId */\n      dup3\n        /* \"Ejercicio5/Lotery/contracts/Lottery.sol\":6108:6121  _closeLottery */\n      tag_264\n        /* \"Ejercicio5/Lotery/contracts/Lottery.sol\":6108:6132  _closeLottery(lotteryId) */\n      jump\t// in\n    tag_263:\n        /* \"Ejercicio5/Lotery/contracts/Lottery.sol\":5685:6139  {... */\n      pop\n        /* \"Ejercicio5/Lotery/contracts/Lottery.sol\":5635:6139  function closeLottery(uint256 lotteryId) external {... */\n      pop\n      jump\t// out\n        /* \"Ejercicio5/Lotery/contracts/Lottery.sol\":12312:13015  function getLotteriesByCreator(address creator) ... */\n    tag_114:\n        /* \"Ejercicio5/Lotery/contracts/Lottery.sol\":12410:12426  uint256[] memory */\n      0x60\n        /* \"Ejercicio5/Lotery/contracts/Lottery.sol\":12483:12496  uint256 count */\n      0x00\n        /* \"Ejercicio5/Lotery/contracts/Lottery.sol\":12499:12500  0 */\n      0x00\n        /* \"Ejercicio5/Lotery/contracts/Lottery.sol\":12483:12500  uint256 count = 0 */\n      swap1\n      pop\n        /* \"Ejercicio5/Lotery/contracts/Lottery.sol\":12515:12524  uint256 i */\n      0x00\n        /* \"Ejercicio5/Lotery/contracts/Lottery.sol\":12527:12528  0 */\n      0x00\n        /* \"Ejercicio5/Lotery/contracts/Lottery.sol\":12515:12528  uint256 i = 0 */\n      swap1\n      pop\n        /* \"Ejercicio5/Lotery/contracts/Lottery.sol\":12510:12655  for (uint256 i = 0; i < nextLotteryId; i++) {... */\n    tag_266:\n        /* \"Ejercicio5/Lotery/contracts/Lottery.sol\":12534:12547  nextLotteryId */\n      sload(0x00)\n        /* \"Ejercicio5/Lotery/contracts/Lottery.sol\":12530:12531  i */\n      dup2\n        /* \"Ejercicio5/Lotery/contracts/Lottery.sol\":12530:12547  i < nextLotteryId */\n      lt\n        /* \"Ejercicio5/Lotery/contracts/Lottery.sol\":12510:12655  for (uint256 i = 0; i < nextLotteryId; i++) {... */\n      iszero\n      tag_267\n      jumpi\n        /* \"Ejercicio5/Lotery/contracts/Lottery.sol\":12596:12603  creator */\n      dup4\n        /* \"Ejercicio5/Lotery/contracts/Lottery.sol\":12572:12603  lotteries[i].creator == creator */\n      0xffffffffffffffffffffffffffffffffffffffff\n      and\n        /* \"Ejercicio5/Lotery/contracts/Lottery.sol\":12572:12581  lotteries */\n      0x01\n        /* \"Ejercicio5/Lotery/contracts/Lottery.sol\":12572:12584  lotteries[i] */\n      0x00\n        /* \"Ejercicio5/Lotery/contracts/Lottery.sol\":12582:12583  i */\n      dup4\n        /* \"Ejercicio5/Lotery/contracts/Lottery.sol\":12572:12584  lotteries[i] */\n      dup2\n      mstore\n      0x20\n      add\n      swap1\n      dup2\n      mstore\n      0x20\n      add\n      0x00\n      keccak256\n        /* \"Ejercicio5/Lotery/contracts/Lottery.sol\":12572:12592  lotteries[i].creator */\n      0x01\n      add\n      0x00\n      swap1\n      sload\n      swap1\n      0x0100\n      exp\n      swap1\n      div\n      0xffffffffffffffffffffffffffffffffffffffff\n      and\n        /* \"Ejercicio5/Lotery/contracts/Lottery.sol\":12572:12603  lotteries[i].creator == creator */\n      0xffffffffffffffffffffffffffffffffffffffff\n      and\n      sub\n        /* \"Ejercicio5/Lotery/contracts/Lottery.sol\":12568:12645  if (lotteries[i].creator == creator) {... */\n      tag_269\n      jumpi\n        /* \"Ejercicio5/Lotery/contracts/Lottery.sol\":12623:12630  count++ */\n      dup2\n      dup1\n      tag_270\n      swap1\n      tag_162\n      jump\t// in\n    tag_270:\n      swap3\n      pop\n      pop\n        /* \"Ejercicio5/Lotery/contracts/Lottery.sol\":12568:12645  if (lotteries[i].creator == creator) {... */\n    tag_269:\n        /* \"Ejercicio5/Lotery/contracts/Lottery.sol\":12549:12552  i++ */\n      dup1\n      dup1\n      0x01\n      add\n      swap2\n      pop\n      pop\n        /* \"Ejercicio5/Lotery/contracts/Lottery.sol\":12510:12655  for (uint256 i = 0; i < nextLotteryId; i++) {... */\n      jump(tag_266)\n    tag_267:\n      pop\n        /* \"Ejercicio5/Lotery/contracts/Lottery.sol\":12705:12728  uint256[] memory result */\n      0x00\n        /* \"Ejercicio5/Lotery/contracts/Lottery.sol\":12745:12750  count */\n      dup2\n        /* \"Ejercicio5/Lotery/contracts/Lottery.sol\":12731:12751  new uint256[](count) */\n      0xffffffffffffffff\n      dup2\n      gt\n      iszero\n      tag_271\n      jumpi\n      tag_272\n      tag_165\n      jump\t// in\n    tag_272:\n    tag_271:\n      mload(0x40)\n      swap1\n      dup1\n      dup3\n      mstore\n      dup1\n      0x20\n      mul\n      0x20\n      add\n      dup3\n      add\n      0x40\n      mstore\n      dup1\n      iszero\n      tag_273\n      jumpi\n      dup2\n      0x20\n      add\n      0x20\n      dup3\n      mul\n      dup1\n      calldatasize\n      dup4\n      calldatacopy\n      dup1\n      dup3\n      add\n      swap2\n      pop\n      pop\n      swap1\n      pop\n    tag_273:\n      pop\n        /* \"Ejercicio5/Lotery/contracts/Lottery.sol\":12705:12751  uint256[] memory result = new uint256[](count) */\n      swap1\n      pop\n        /* \"Ejercicio5/Lotery/contracts/Lottery.sol\":12761:12774  uint256 index */\n      0x00\n        /* \"Ejercicio5/Lotery/contracts/Lottery.sol\":12777:12778  0 */\n      0x00\n        /* \"Ejercicio5/Lotery/contracts/Lottery.sol\":12761:12778  uint256 index = 0 */\n      swap1\n      pop\n        /* \"Ejercicio5/Lotery/contracts/Lottery.sol\":12802:12811  uint256 i */\n      0x00\n        /* \"Ejercicio5/Lotery/contracts/Lottery.sol\":12814:12815  0 */\n      0x00\n        /* \"Ejercicio5/Lotery/contracts/Lottery.sol\":12802:12815  uint256 i = 0 */\n      swap1\n      pop\n        /* \"Ejercicio5/Lotery/contracts/Lottery.sol\":12797:12977  for (uint256 i = 0; i < nextLotteryId; i++) {... */\n    tag_274:\n        /* \"Ejercicio5/Lotery/contracts/Lottery.sol\":12821:12834  nextLotteryId */\n      sload(0x00)\n        /* \"Ejercicio5/Lotery/contracts/Lottery.sol\":12817:12818  i */\n      dup2\n        /* \"Ejercicio5/Lotery/contracts/Lottery.sol\":12817:12834  i < nextLotteryId */\n      lt\n        /* \"Ejercicio5/Lotery/contracts/Lottery.sol\":12797:12977  for (uint256 i = 0; i < nextLotteryId; i++) {... */\n      iszero\n      tag_275\n      jumpi\n        /* \"Ejercicio5/Lotery/contracts/Lottery.sol\":12883:12890  creator */\n      dup6\n        /* \"Ejercicio5/Lotery/contracts/Lottery.sol\":12859:12890  lotteries[i].creator == creator */\n      0xffffffffffffffffffffffffffffffffffffffff\n      and\n        /* \"Ejercicio5/Lotery/contracts/Lottery.sol\":12859:12868  lotteries */\n      0x01\n        /* \"Ejercicio5/Lotery/contracts/Lottery.sol\":12859:12871  lotteries[i] */\n      0x00\n        /* \"Ejercicio5/Lotery/contracts/Lottery.sol\":12869:12870  i */\n      dup4\n        /* \"Ejercicio5/Lotery/contracts/Lottery.sol\":12859:12871  lotteries[i] */\n      dup2\n      mstore\n      0x20\n      add\n      swap1\n      dup2\n      mstore\n      0x20\n      add\n      0x00\n      keccak256\n        /* \"Ejercicio5/Lotery/contracts/Lottery.sol\":12859:12879  lotteries[i].creator */\n      0x01\n      add\n      0x00\n      swap1\n      sload\n      swap1\n      0x0100\n      exp\n      swap1\n      div\n      0xffffffffffffffffffffffffffffffffffffffff\n      and\n        /* \"Ejercicio5/Lotery/contracts/Lottery.sol\":12859:12890  lotteries[i].creator == creator */\n      0xffffffffffffffffffffffffffffffffffffffff\n      and\n      sub\n        /* \"Ejercicio5/Lotery/contracts/Lottery.sol\":12855:12967  if (lotteries[i].creator == creator) {... */\n      tag_277\n      jumpi\n        /* \"Ejercicio5/Lotery/contracts/Lottery.sol\":12926:12927  i */\n      dup1\n        /* \"Ejercicio5/Lotery/contracts/Lottery.sol\":12910:12916  result */\n      dup4\n        /* \"Ejercicio5/Lotery/contracts/Lottery.sol\":12917:12922  index */\n      dup4\n        /* \"Ejercicio5/Lotery/contracts/Lottery.sol\":12910:12923  result[index] */\n      dup2\n      mload\n      dup2\n      lt\n      tag_278\n      jumpi\n      tag_279\n      tag_175\n      jump\t// in\n    tag_279:\n    tag_278:\n      0x20\n      mul\n      0x20\n      add\n      add\n        /* \"Ejercicio5/Lotery/contracts/Lottery.sol\":12910:12927  result[index] = i */\n      dup2\n      dup2\n      mstore\n      pop\n      pop\n        /* \"Ejercicio5/Lotery/contracts/Lottery.sol\":12945:12952  index++ */\n      dup2\n      dup1\n      tag_280\n      swap1\n      tag_162\n      jump\t// in\n    tag_280:\n      swap3\n      pop\n      pop\n        /* \"Ejercicio5/Lotery/contracts/Lottery.sol\":12855:12967  if (lotteries[i].creator == creator) {... */\n    tag_277:\n        /* \"Ejercicio5/Lotery/contracts/Lottery.sol\":12836:12839  i++ */\n      dup1\n      dup1\n      0x01\n      add\n      swap2\n      pop\n      pop\n        /* \"Ejercicio5/Lotery/contracts/Lottery.sol\":12797:12977  for (uint256 i = 0; i < nextLotteryId; i++) {... */\n      jump(tag_274)\n    tag_275:\n      pop\n        /* \"Ejercicio5/Lotery/contracts/Lottery.sol\":13002:13008  result */\n      dup2\n        /* \"Ejercicio5/Lotery/contracts/Lottery.sol\":12995:13008  return result */\n      swap4\n      pop\n      pop\n      pop\n      pop\n        /* \"Ejercicio5/Lotery/contracts/Lottery.sol\":12312:13015  function getLotteriesByCreator(address creator) ... */\n      swap2\n      swap1\n      pop\n      jump\t// out\n        /* \"Ejercicio5/Lotery/contracts/Lottery.sol\":11252:11406  function getTicketsOf(uint256 lotteryId, address user) external view returns (uint256) {... */\n    tag_119:\n        /* \"Ejercicio5/Lotery/contracts/Lottery.sol\":11330:11337  uint256 */\n      0x00\n        /* \"Ejercicio5/Lotery/contracts/Lottery.sol\":11356:11365  lotteries */\n      0x01\n        /* \"Ejercicio5/Lotery/contracts/Lottery.sol\":11356:11376  lotteries[lotteryId] */\n      0x00\n        /* \"Ejercicio5/Lotery/contracts/Lottery.sol\":11366:11375  lotteryId */\n      dup5\n        /* \"Ejercicio5/Lotery/contracts/Lottery.sol\":11356:11376  lotteries[lotteryId] */\n      dup2\n      mstore\n      0x20\n      add\n      swap1\n      dup2\n      mstore\n      0x20\n      add\n      0x00\n      keccak256\n        /* \"Ejercicio5/Lotery/contracts/Lottery.sol\":11356:11393  lotteries[lotteryId].ticketsByAddress */\n      0x08\n      add\n        /* \"Ejercicio5/Lotery/contracts/Lottery.sol\":11356:11399  lotteries[lotteryId].ticketsByAddress[user] */\n      0x00\n        /* \"Ejercicio5/Lotery/contracts/Lottery.sol\":11394:11398  user */\n      dup4\n        /* \"Ejercicio5/Lotery/contracts/Lottery.sol\":11356:11399  lotteries[lotteryId].ticketsByAddress[user] */\n      0xffffffffffffffffffffffffffffffffffffffff\n      and\n      0xffffffffffffffffffffffffffffffffffffffff\n      and\n      dup2\n      mstore\n      0x20\n      add\n      swap1\n      dup2\n      mstore\n      0x20\n      add\n      0x00\n      keccak256\n      sload\n        /* \"Ejercicio5/Lotery/contracts/Lottery.sol\":11349:11399  return lotteries[lotteryId].ticketsByAddress[user] */\n      swap1\n      pop\n        /* \"Ejercicio5/Lotery/contracts/Lottery.sol\":11252:11406  function getTicketsOf(uint256 lotteryId, address user) external view returns (uint256) {... */\n      swap3\n      swap2\n      pop\n      pop\n      jump\t// out\n        /* \"Ejercicio5/Lotery/contracts/Lottery.sol\":3139:3791  function setLotteryCommission(uint256 lotteryId, uint256 newPercent) external {... */\n    tag_124:\n        /* \"Ejercicio5/Lotery/contracts/Lottery.sol\":3227:3246  Lottery storage lot */\n      0x00\n        /* \"Ejercicio5/Lotery/contracts/Lottery.sol\":3249:3258  lotteries */\n      0x01\n        /* \"Ejercicio5/Lotery/contracts/Lottery.sol\":3249:3269  lotteries[lotteryId] */\n      0x00\n        /* \"Ejercicio5/Lotery/contracts/Lottery.sol\":3259:3268  lotteryId */\n      dup5\n        /* \"Ejercicio5/Lotery/contracts/Lottery.sol\":3249:3269  lotteries[lotteryId] */\n      dup2\n      mstore\n      0x20\n      add\n      swap1\n      dup2\n      mstore\n      0x20\n      add\n      0x00\n      keccak256\n        /* \"Ejercicio5/Lotery/contracts/Lottery.sol\":3227:3269  Lottery storage lot = lotteries[lotteryId] */\n      swap1\n      pop\n        /* \"Ejercicio5/Lotery/contracts/Lottery.sol\":3323:3326  lot */\n      dup1\n        /* \"Ejercicio5/Lotery/contracts/Lottery.sol\":3323:3334  lot.creator */\n      0x01\n      add\n      0x00\n      swap1\n      sload\n      swap1\n      0x0100\n      exp\n      swap1\n      div\n      0xffffffffffffffffffffffffffffffffffffffff\n      and\n        /* \"Ejercicio5/Lotery/contracts/Lottery.sol\":3309:3334  msg.sender == lot.creator */\n      0xffffffffffffffffffffffffffffffffffffffff\n      and\n        /* \"Ejercicio5/Lotery/contracts/Lottery.sol\":3309:3319  msg.sender */\n      caller\n        /* \"Ejercicio5/Lotery/contracts/Lottery.sol\":3309:3334  msg.sender == lot.creator */\n      0xffffffffffffffffffffffffffffffffffffffff\n      and\n      eq\n        /* \"Ejercicio5/Lotery/contracts/Lottery.sol\":3309:3357  msg.sender == lot.creator || msg.sender == owner */\n      dup1\n      tag_283\n      jumpi\n      pop\n        /* \"Ejercicio5/Lotery/contracts/Lottery.sol\":3352:3357  owner */\n      0x03\n      0x00\n      swap1\n      sload\n      swap1\n      0x0100\n      exp\n      swap1\n      div\n      0xffffffffffffffffffffffffffffffffffffffff\n      and\n        /* \"Ejercicio5/Lotery/contracts/Lottery.sol\":3338:3357  msg.sender == owner */\n      0xffffffffffffffffffffffffffffffffffffffff\n      and\n        /* \"Ejercicio5/Lotery/contracts/Lottery.sol\":3338:3348  msg.sender */\n      caller\n        /* \"Ejercicio5/Lotery/contracts/Lottery.sol\":3338:3357  msg.sender == owner */\n      0xffffffffffffffffffffffffffffffffffffffff\n      and\n      eq\n        /* \"Ejercicio5/Lotery/contracts/Lottery.sol\":3309:3357  msg.sender == lot.creator || msg.sender == owner */\n    tag_283:\n        /* \"Ejercicio5/Lotery/contracts/Lottery.sol\":3288:3404  require(... */\n      tag_284\n      jumpi\n      mload(0x40)\n      0x08c379a000000000000000000000000000000000000000000000000000000000\n      dup2\n      mstore\n      0x04\n      add\n      tag_285\n      swap1\n      tag_286\n      jump\t// in\n    tag_285:\n      mload(0x40)\n      dup1\n      swap2\n      sub\n      swap1\n      revert\n    tag_284:\n        /* \"Ejercicio5/Lotery/contracts/Lottery.sol\":3434:3447  nextLotteryId */\n      sload(0x00)\n        /* \"Ejercicio5/Lotery/contracts/Lottery.sol\":3422:3431  lotteryId */\n      dup4\n        /* \"Ejercicio5/Lotery/contracts/Lottery.sol\":3422:3447  lotteryId < nextLotteryId */\n      lt\n        /* \"Ejercicio5/Lotery/contracts/Lottery.sol\":3414:3474  require(lotteryId < nextLotteryId, \"Lottery does not exist\") */\n      tag_287\n      jumpi\n      mload(0x40)\n      0x08c379a000000000000000000000000000000000000000000000000000000000\n      dup2\n      mstore\n      0x04\n      add\n      tag_288\n      swap1\n      tag_208\n      jump\t// in\n    tag_288:\n      mload(0x40)\n      dup1\n      swap2\n      sub\n      swap1\n      revert\n    tag_287:\n        /* \"Ejercicio5/Lotery/contracts/Lottery.sol\":3493:3496  lot */\n      dup1\n        /* \"Ejercicio5/Lotery/contracts/Lottery.sol\":3493:3503  lot.closed */\n      0x0b\n      add\n      0x00\n      swap1\n      sload\n      swap1\n      0x0100\n      exp\n      swap1\n      div\n      0xff\n      and\n        /* \"Ejercicio5/Lotery/contracts/Lottery.sol\":3492:3503  !lot.closed */\n      iszero\n        /* \"Ejercicio5/Lotery/contracts/Lottery.sol\":3484:3525  require(!lot.closed, \"Lottery is closed\") */\n      tag_289\n      jumpi\n      mload(0x40)\n      0x08c379a000000000000000000000000000000000000000000000000000000000\n      dup2\n      mstore\n      0x04\n      add\n      tag_290\n      swap1\n      tag_232\n      jump\t// in\n    tag_290:\n      mload(0x40)\n      dup1\n      swap2\n      sub\n      swap1\n      revert\n    tag_289:\n        /* \"Ejercicio5/Lotery/contracts/LotteryStorage.sol\":3502:3506  1000 */\n      0x03e8\n        /* \"Ejercicio5/Lotery/contracts/Lottery.sol\":3543:3553  newPercent */\n      dup3\n        /* \"Ejercicio5/Lotery/contracts/Lottery.sol\":3543:3579  newPercent <= MAX_COMMISSION_PERCENT */\n      gt\n      iszero\n        /* \"Ejercicio5/Lotery/contracts/Lottery.sol\":3535:3603  require(newPercent <= MAX_COMMISSION_PERCENT, \"Commission too high\") */\n      tag_291\n      jumpi\n      mload(0x40)\n      0x08c379a000000000000000000000000000000000000000000000000000000000\n      dup2\n      mstore\n      0x04\n      add\n      tag_292\n      swap1\n      tag_293\n      jump\t// in\n    tag_292:\n      mload(0x40)\n      dup1\n      swap2\n      sub\n      swap1\n      revert\n    tag_291:\n        /* \"Ejercicio5/Lotery/contracts/Lottery.sol\":3622:3640  uint256 oldPercent */\n      0x00\n        /* \"Ejercicio5/Lotery/contracts/Lottery.sol\":3643:3646  lot */\n      dup2\n        /* \"Ejercicio5/Lotery/contracts/Lottery.sol\":3643:3664  lot.commissionPercent */\n      0x0a\n      add\n      sload\n        /* \"Ejercicio5/Lotery/contracts/Lottery.sol\":3622:3664  uint256 oldPercent = lot.commissionPercent */\n      swap1\n      pop\n        /* \"Ejercicio5/Lotery/contracts/Lottery.sol\":3698:3708  newPercent */\n      dup3\n        /* \"Ejercicio5/Lotery/contracts/Lottery.sol\":3674:3677  lot */\n      dup3\n        /* \"Ejercicio5/Lotery/contracts/Lottery.sol\":3674:3695  lot.commissionPercent */\n      0x0a\n      add\n        /* \"Ejercicio5/Lotery/contracts/Lottery.sol\":3674:3708  lot.commissionPercent = newPercent */\n      dup2\n      swap1\n      sstore\n      pop\n        /* \"Ejercicio5/Lotery/contracts/Lottery.sol\":3750:3759  lotteryId */\n      dup4\n        /* \"Ejercicio5/Lotery/contracts/Lottery.sol\":3732:3784  CommissionChanged(lotteryId, oldPercent, newPercent) */\n      0x4d5e33fff0b69cb78771d362961f6672859941e41aa7ee769fddffdc0e9696e8\n        /* \"Ejercicio5/Lotery/contracts/Lottery.sol\":3761:3771  oldPercent */\n      dup3\n        /* \"Ejercicio5/Lotery/contracts/Lottery.sol\":3773:3783  newPercent */\n      dup6\n        /* \"Ejercicio5/Lotery/contracts/Lottery.sol\":3732:3784  CommissionChanged(lotteryId, oldPercent, newPercent) */\n      mload(0x40)\n      tag_294\n      swap3\n      swap2\n      swap1\n      tag_295\n      jump\t// in\n    tag_294:\n      mload(0x40)\n      dup1\n      swap2\n      sub\n      swap1\n      log2\n        /* \"Ejercicio5/Lotery/contracts/Lottery.sol\":3217:3791  {... */\n      pop\n      pop\n        /* \"Ejercicio5/Lotery/contracts/Lottery.sol\":3139:3791  function setLotteryCommission(uint256 lotteryId, uint256 newPercent) external {... */\n      pop\n      pop\n      jump\t// out\n        /* \"Ejercicio5/Lotery/contracts/Lottery.sol\":11028:11169  function getParticipants(uint256 lotteryId) external view returns (address[] memory){... */\n    tag_128:\n        /* \"Ejercicio5/Lotery/contracts/Lottery.sol\":11095:11111  address[] memory */\n      0x60\n        /* \"Ejercicio5/Lotery/contracts/Lottery.sol\":11129:11138  lotteries */\n      0x01\n        /* \"Ejercicio5/Lotery/contracts/Lottery.sol\":11129:11149  lotteries[lotteryId] */\n      0x00\n        /* \"Ejercicio5/Lotery/contracts/Lottery.sol\":11139:11148  lotteryId */\n      dup4\n        /* \"Ejercicio5/Lotery/contracts/Lottery.sol\":11129:11149  lotteries[lotteryId] */\n      dup2\n      mstore\n      0x20\n      add\n      swap1\n      dup2\n      mstore\n      0x20\n      add\n      0x00\n      keccak256\n        /* \"Ejercicio5/Lotery/contracts/Lottery.sol\":11129:11162  lotteries[lotteryId].participants */\n      0x09\n      add\n        /* \"Ejercicio5/Lotery/contracts/Lottery.sol\":11122:11162  return lotteries[lotteryId].participants */\n      dup1\n      sload\n      dup1\n      0x20\n      mul\n      0x20\n      add\n      mload(0x40)\n      swap1\n      dup2\n      add\n      0x40\n      mstore\n      dup1\n      swap3\n      swap2\n      swap1\n      dup2\n      dup2\n      mstore\n      0x20\n      add\n      dup3\n      dup1\n      sload\n      dup1\n      iszero\n      tag_297\n      jumpi\n      0x20\n      mul\n      dup3\n      add\n      swap2\n      swap1\n      0x00\n      mstore\n      keccak256(0x00, 0x20)\n      swap1\n    tag_298:\n      dup2\n      0x00\n      swap1\n      sload\n      swap1\n      0x0100\n      exp\n      swap1\n      div\n      0xffffffffffffffffffffffffffffffffffffffff\n      and\n      0xffffffffffffffffffffffffffffffffffffffff\n      and\n      dup2\n      mstore\n      0x20\n      add\n      swap1\n      0x01\n      add\n      swap1\n      dup1\n      dup4\n      gt\n      tag_298\n      jumpi\n    tag_297:\n      pop\n      pop\n      pop\n      pop\n      pop\n      swap1\n      pop\n        /* \"Ejercicio5/Lotery/contracts/Lottery.sol\":11028:11169  function getParticipants(uint256 lotteryId) external view returns (address[] memory){... */\n      swap2\n      swap1\n      pop\n      jump\t// out\n        /* \"Ejercicio5/Lotery/contracts/Lottery.sol\":2705:2964  function setDefaultCommissionPercent(uint256 newPercent) external {... */\n    tag_134:\n        /* \"Ejercicio5/Lotery/contracts/Lottery.sol\":2803:2808  owner */\n      0x03\n      0x00\n      swap1\n      sload\n      swap1\n      0x0100\n      exp\n      swap1\n      div\n      0xffffffffffffffffffffffffffffffffffffffff\n      and\n        /* \"Ejercicio5/Lotery/contracts/Lottery.sol\":2789:2808  msg.sender == owner */\n      0xffffffffffffffffffffffffffffffffffffffff\n      and\n        /* \"Ejercicio5/Lotery/contracts/Lottery.sol\":2789:2799  msg.sender */\n      caller\n        /* \"Ejercicio5/Lotery/contracts/Lottery.sol\":2789:2808  msg.sender == owner */\n      0xffffffffffffffffffffffffffffffffffffffff\n      and\n      eq\n        /* \"Ejercicio5/Lotery/contracts/Lottery.sol\":2781:2823  require(msg.sender == owner, \"Only owner\") */\n      tag_300\n      jumpi\n      mload(0x40)\n      0x08c379a000000000000000000000000000000000000000000000000000000000\n      dup2\n      mstore\n      0x04\n      add\n      tag_301\n      swap1\n      tag_302\n      jump\t// in\n    tag_301:\n      mload(0x40)\n      dup1\n      swap2\n      sub\n      swap1\n      revert\n    tag_300:\n        /* \"Ejercicio5/Lotery/contracts/LotteryStorage.sol\":3502:3506  1000 */\n      0x03e8\n        /* \"Ejercicio5/Lotery/contracts/Lottery.sol\":2841:2851  newPercent */\n      dup2\n        /* \"Ejercicio5/Lotery/contracts/Lottery.sol\":2841:2877  newPercent <= MAX_COMMISSION_PERCENT */\n      gt\n      iszero\n        /* \"Ejercicio5/Lotery/contracts/Lottery.sol\":2833:2901  require(newPercent <= MAX_COMMISSION_PERCENT, \"Commission too high\") */\n      tag_303\n      jumpi\n      mload(0x40)\n      0x08c379a000000000000000000000000000000000000000000000000000000000\n      dup2\n      mstore\n      0x04\n      add\n      tag_304\n      swap1\n      tag_293\n      jump\t// in\n    tag_304:\n      mload(0x40)\n      dup1\n      swap2\n      sub\n      swap1\n      revert\n    tag_303:\n        /* \"Ejercicio5/Lotery/contracts/Lottery.sol\":2947:2957  newPercent */\n      dup1\n        /* \"Ejercicio5/Lotery/contracts/Lottery.sol\":2920:2944  defaultCommissionPercent */\n      0x02\n        /* \"Ejercicio5/Lotery/contracts/Lottery.sol\":2920:2957  defaultCommissionPercent = newPercent */\n      dup2\n      swap1\n      sstore\n      pop\n        /* \"Ejercicio5/Lotery/contracts/Lottery.sol\":2705:2964  function setDefaultCommissionPercent(uint256 newPercent) external {... */\n      pop\n      jump\t// out\n        /* \"Ejercicio5/Lotery/contracts/Lottery.sol\":6279:6953  function claimPrize(uint256 lotteryId) external {... */\n    tag_138:\n        /* \"Ejercicio5/Lotery/contracts/Lottery.sol\":6337:6356  Lottery storage lot */\n      0x00\n        /* \"Ejercicio5/Lotery/contracts/Lottery.sol\":6359:6368  lotteries */\n      0x01\n        /* \"Ejercicio5/Lotery/contracts/Lottery.sol\":6359:6379  lotteries[lotteryId] */\n      0x00\n        /* \"Ejercicio5/Lotery/contracts/Lottery.sol\":6369:6378  lotteryId */\n      dup4\n        /* \"Ejercicio5/Lotery/contracts/Lottery.sol\":6359:6379  lotteries[lotteryId] */\n      dup2\n      mstore\n      0x20\n      add\n      swap1\n      dup2\n      mstore\n      0x20\n      add\n      0x00\n      keccak256\n        /* \"Ejercicio5/Lotery/contracts/Lottery.sol\":6337:6379  Lottery storage lot = lotteries[lotteryId] */\n      swap1\n      pop\n        /* \"Ejercicio5/Lotery/contracts/Lottery.sol\":6418:6431  nextLotteryId */\n      sload(0x00)\n        /* \"Ejercicio5/Lotery/contracts/Lottery.sol\":6406:6415  lotteryId */\n      dup3\n        /* \"Ejercicio5/Lotery/contracts/Lottery.sol\":6406:6431  lotteryId < nextLotteryId */\n      lt\n        /* \"Ejercicio5/Lotery/contracts/Lottery.sol\":6398:6458  require(lotteryId < nextLotteryId, \"Lottery does not exist\") */\n      tag_306\n      jumpi\n      mload(0x40)\n      0x08c379a000000000000000000000000000000000000000000000000000000000\n      dup2\n      mstore\n      0x04\n      add\n      tag_307\n      swap1\n      tag_208\n      jump\t// in\n    tag_307:\n      mload(0x40)\n      dup1\n      swap2\n      sub\n      swap1\n      revert\n    tag_306:\n        /* \"Ejercicio5/Lotery/contracts/Lottery.sol\":6476:6479  lot */\n      dup1\n        /* \"Ejercicio5/Lotery/contracts/Lottery.sol\":6476:6486  lot.closed */\n      0x0b\n      add\n      0x00\n      swap1\n      sload\n      swap1\n      0x0100\n      exp\n      swap1\n      div\n      0xff\n      and\n        /* \"Ejercicio5/Lotery/contracts/Lottery.sol\":6468:6513  require(lot.closed, \"Lottery not closed yet\") */\n      tag_308\n      jumpi\n      mload(0x40)\n      0x08c379a000000000000000000000000000000000000000000000000000000000\n      dup2\n      mstore\n      0x04\n      add\n      tag_309\n      swap1\n      tag_310\n      jump\t// in\n    tag_309:\n      mload(0x40)\n      dup1\n      swap2\n      sub\n      swap1\n      revert\n    tag_308:\n        /* \"Ejercicio5/Lotery/contracts/Lottery.sol\":6545:6548  lot */\n      dup1\n        /* \"Ejercicio5/Lotery/contracts/Lottery.sol\":6545:6555  lot.winner */\n      0x0b\n      add\n      0x01\n      swap1\n      sload\n      swap1\n      0x0100\n      exp\n      swap1\n      div\n      0xffffffffffffffffffffffffffffffffffffffff\n      and\n        /* \"Ejercicio5/Lotery/contracts/Lottery.sol\":6531:6555  msg.sender == lot.winner */\n      0xffffffffffffffffffffffffffffffffffffffff\n      and\n        /* \"Ejercicio5/Lotery/contracts/Lottery.sol\":6531:6541  msg.sender */\n      caller\n        /* \"Ejercicio5/Lotery/contracts/Lottery.sol\":6531:6555  msg.sender == lot.winner */\n      0xffffffffffffffffffffffffffffffffffffffff\n      and\n      eq\n        /* \"Ejercicio5/Lotery/contracts/Lottery.sol\":6523:6581  require(msg.sender == lot.winner, \"Only winner can claim\") */\n      tag_311\n      jumpi\n      mload(0x40)\n      0x08c379a000000000000000000000000000000000000000000000000000000000\n      dup2\n      mstore\n      0x04\n      add\n      tag_312\n      swap1\n      tag_313\n      jump\t// in\n    tag_312:\n      mload(0x40)\n      dup1\n      swap2\n      sub\n      swap1\n      revert\n    tag_311:\n        /* \"Ejercicio5/Lotery/contracts/Lottery.sol\":6632:6633  0 */\n      0x00\n        /* \"Ejercicio5/Lotery/contracts/Lottery.sol\":6599:6617  pendingWithdrawals */\n      0x05\n        /* \"Ejercicio5/Lotery/contracts/Lottery.sol\":6599:6629  pendingWithdrawals[msg.sender] */\n      0x00\n        /* \"Ejercicio5/Lotery/contracts/Lottery.sol\":6618:6628  msg.sender */\n      caller\n        /* \"Ejercicio5/Lotery/contracts/Lottery.sol\":6599:6629  pendingWithdrawals[msg.sender] */\n      0xffffffffffffffffffffffffffffffffffffffff\n      and\n      0xffffffffffffffffffffffffffffffffffffffff\n      and\n      dup2\n      mstore\n      0x20\n      add\n      swap1\n      dup2\n      mstore\n      0x20\n      add\n      0x00\n      keccak256\n      sload\n        /* \"Ejercicio5/Lotery/contracts/Lottery.sol\":6599:6633  pendingWithdrawals[msg.sender] > 0 */\n      gt\n        /* \"Ejercicio5/Lotery/contracts/Lottery.sol\":6591:6655  require(pendingWithdrawals[msg.sender] > 0, \"No prize to claim\") */\n      tag_314\n      jumpi\n      mload(0x40)\n      0x08c379a000000000000000000000000000000000000000000000000000000000\n      dup2\n      mstore\n      0x04\n      add\n      tag_315\n      swap1\n      tag_316\n      jump\t// in\n    tag_315:\n      mload(0x40)\n      dup1\n      swap2\n      sub\n      swap1\n      revert\n    tag_314:\n        /* \"Ejercicio5/Lotery/contracts/Lottery.sol\":6674:6688  uint256 amount */\n      0x00\n        /* \"Ejercicio5/Lotery/contracts/Lottery.sol\":6691:6709  pendingWithdrawals */\n      0x05\n        /* \"Ejercicio5/Lotery/contracts/Lottery.sol\":6691:6721  pendingWithdrawals[msg.sender] */\n      0x00\n        /* \"Ejercicio5/Lotery/contracts/Lottery.sol\":6710:6720  msg.sender */\n      caller\n        /* \"Ejercicio5/Lotery/contracts/Lottery.sol\":6691:6721  pendingWithdrawals[msg.sender] */\n      0xffffffffffffffffffffffffffffffffffffffff\n      and\n      0xffffffffffffffffffffffffffffffffffffffff\n      and\n      dup2\n      mstore\n      0x20\n      add\n      swap1\n      dup2\n      mstore\n      0x20\n      add\n      0x00\n      keccak256\n      sload\n        /* \"Ejercicio5/Lotery/contracts/Lottery.sol\":6674:6721  uint256 amount = pendingWithdrawals[msg.sender] */\n      swap1\n      pop\n        /* \"Ejercicio5/Lotery/contracts/Lottery.sol\":6764:6765  0 */\n      0x00\n        /* \"Ejercicio5/Lotery/contracts/Lottery.sol\":6731:6749  pendingWithdrawals */\n      0x05\n        /* \"Ejercicio5/Lotery/contracts/Lottery.sol\":6731:6761  pendingWithdrawals[msg.sender] */\n      0x00\n        /* \"Ejercicio5/Lotery/contracts/Lottery.sol\":6750:6760  msg.sender */\n      caller\n        /* \"Ejercicio5/Lotery/contracts/Lottery.sol\":6731:6761  pendingWithdrawals[msg.sender] */\n      0xffffffffffffffffffffffffffffffffffffffff\n      and\n      0xffffffffffffffffffffffffffffffffffffffff\n      and\n      dup2\n      mstore\n      0x20\n      add\n      swap1\n      dup2\n      mstore\n      0x20\n      add\n      0x00\n      keccak256\n        /* \"Ejercicio5/Lotery/contracts/Lottery.sol\":6731:6765  pendingWithdrawals[msg.sender] = 0 */\n      dup2\n      swap1\n      sstore\n      pop\n        /* \"Ejercicio5/Lotery/contracts/Lottery.sol\":6840:6852  bool success */\n      0x00\n        /* \"Ejercicio5/Lotery/contracts/Lottery.sol\":6866:6876  msg.sender */\n      caller\n        /* \"Ejercicio5/Lotery/contracts/Lottery.sol\":6858:6882  payable(msg.sender).call */\n      0xffffffffffffffffffffffffffffffffffffffff\n      and\n        /* \"Ejercicio5/Lotery/contracts/Lottery.sol\":6890:6896  amount */\n      dup3\n        /* \"Ejercicio5/Lotery/contracts/Lottery.sol\":6858:6901  payable(msg.sender).call{value: amount}(\"\") */\n      mload(0x40)\n      tag_317\n      swap1\n      tag_188\n      jump\t// in\n    tag_317:\n      0x00\n      mload(0x40)\n      dup1\n      dup4\n      sub\n      dup2\n      dup6\n      dup8\n      gas\n      call\n      swap3\n      pop\n      pop\n      pop\n      returndatasize\n      dup1\n      0x00\n      dup2\n      eq\n      tag_320\n      jumpi\n      mload(0x40)\n      swap2\n      pop\n      and(add(returndatasize, 0x3f), not(0x1f))\n      dup3\n      add\n      0x40\n      mstore\n      returndatasize\n      dup3\n      mstore\n      returndatasize\n      0x00\n      0x20\n      dup5\n      add\n      returndatacopy\n      jump(tag_319)\n    tag_320:\n      0x60\n      swap2\n      pop\n    tag_319:\n      pop\n        /* \"Ejercicio5/Lotery/contracts/Lottery.sol\":6839:6901  (bool success, ) = payable(msg.sender).call{value: amount}(\"\") */\n      pop\n      swap1\n      pop\n        /* \"Ejercicio5/Lotery/contracts/Lottery.sol\":6919:6926  success */\n      dup1\n        /* \"Ejercicio5/Lotery/contracts/Lottery.sol\":6911:6946  require(success, \"Transfer failed\") */\n      tag_321\n      jumpi\n      mload(0x40)\n      0x08c379a000000000000000000000000000000000000000000000000000000000\n      dup2\n      mstore\n      0x04\n      add\n      tag_322\n      swap1\n      tag_194\n      jump\t// in\n    tag_322:\n      mload(0x40)\n      dup1\n      swap2\n      sub\n      swap1\n      revert\n    tag_321:\n        /* \"Ejercicio5/Lotery/contracts/Lottery.sol\":6327:6953  {... */\n      pop\n      pop\n      pop\n        /* \"Ejercicio5/Lotery/contracts/Lottery.sol\":6279:6953  function claimPrize(uint256 lotteryId) external {... */\n      pop\n      jump\t// out\n        /* \"Ejercicio5/Lotery/contracts/Lottery.sol\":14921:15019  function getTotalLotteries() external view returns (uint256) {... */\n    tag_141:\n        /* \"Ejercicio5/Lotery/contracts/Lottery.sol\":14973:14980  uint256 */\n      0x00\n        /* \"Ejercicio5/Lotery/contracts/Lottery.sol\":14999:15012  nextLotteryId */\n      sload(0x00)\n        /* \"Ejercicio5/Lotery/contracts/Lottery.sol\":14992:15012  return nextLotteryId */\n      swap1\n      pop\n        /* \"Ejercicio5/Lotery/contracts/Lottery.sol\":14921:15019  function getTotalLotteries() external view returns (uint256) {... */\n      swap1\n      jump\t// out\n        /* \"Ejercicio5/Lotery/contracts/LotteryStorage.sol\":3585:3638  mapping(address => uint256) public pendingWithdrawals */\n    tag_146:\n      mstore(0x20, 0x05)\n      dup1\n      0x00\n      mstore\n      keccak256(0x00, 0x40)\n      0x00\n      swap2\n      pop\n      swap1\n      pop\n      sload\n      dup2\n      jump\t// out\n        /* \"Ejercicio5/Lotery/contracts/Lottery.sol\":1185:2562  function createLottery(... */\n    tag_152:\n        /* \"Ejercicio5/Lotery/contracts/Lottery.sol\":1377:1384  uint256 */\n      0x00\n        /* \"Ejercicio5/Lotery/contracts/Lottery.sol\":1418:1419  0 */\n      0x00\n        /* \"Ejercicio5/Lotery/contracts/Lottery.sol\":1404:1415  ticketPrice */\n      dup6\n        /* \"Ejercicio5/Lotery/contracts/Lottery.sol\":1404:1419  ticketPrice > 0 */\n      gt\n        /* \"Ejercicio5/Lotery/contracts/Lottery.sol\":1396:1448  require(ticketPrice > 0, \"Ticket price must be > 0\") */\n      tag_325\n      jumpi\n      mload(0x40)\n      0x08c379a000000000000000000000000000000000000000000000000000000000\n      dup2\n      mstore\n      0x04\n      add\n      tag_326\n      swap1\n      tag_327\n      jump\t// in\n    tag_326:\n      mload(0x40)\n      dup1\n      swap2\n      sub\n      swap1\n      revert\n    tag_325:\n        /* \"Ejercicio5/Lotery/contracts/Lottery.sol\":1490:1491  0 */\n      0x00\n        /* \"Ejercicio5/Lotery/contracts/Lottery.sol\":1479:1486  endTime */\n      dup4\n        /* \"Ejercicio5/Lotery/contracts/Lottery.sol\":1479:1491  endTime == 0 */\n      eq\n        /* \"Ejercicio5/Lotery/contracts/Lottery.sol\":1479:1520  endTime == 0 || endTime > block.timestamp */\n      dup1\n      tag_328\n      jumpi\n      pop\n        /* \"Ejercicio5/Lotery/contracts/Lottery.sol\":1505:1520  block.timestamp */\n      timestamp\n        /* \"Ejercicio5/Lotery/contracts/Lottery.sol\":1495:1502  endTime */\n      dup4\n        /* \"Ejercicio5/Lotery/contracts/Lottery.sol\":1495:1520  endTime > block.timestamp */\n      gt\n        /* \"Ejercicio5/Lotery/contracts/Lottery.sol\":1479:1520  endTime == 0 || endTime > block.timestamp */\n    tag_328:\n        /* \"Ejercicio5/Lotery/contracts/Lottery.sol\":1458:1562  require(... */\n      tag_329\n      jumpi\n      mload(0x40)\n      0x08c379a000000000000000000000000000000000000000000000000000000000\n      dup2\n      mstore\n      0x04\n      add\n      tag_330\n      swap1\n      tag_331\n      jump\t// in\n    tag_330:\n      mload(0x40)\n      dup1\n      swap2\n      sub\n      swap1\n      revert\n    tag_329:\n        /* \"Ejercicio5/Lotery/contracts/Lottery.sol\":1624:1642  uint256 commission */\n      0x00\n        /* \"Ejercicio5/Lotery/contracts/Lottery.sol\":1666:1667  0 */\n      0x00\n        /* \"Ejercicio5/Lotery/contracts/Lottery.sol\":1645:1662  commissionPercent */\n      dup4\n        /* \"Ejercicio5/Lotery/contracts/Lottery.sol\":1645:1667  commissionPercent == 0 */\n      eq\n        /* \"Ejercicio5/Lotery/contracts/Lottery.sol\":1645:1740  commissionPercent == 0 ... */\n      tag_332\n      jumpi\n        /* \"Ejercicio5/Lotery/contracts/Lottery.sol\":1723:1740  commissionPercent */\n      dup3\n        /* \"Ejercicio5/Lotery/contracts/Lottery.sol\":1645:1740  commissionPercent == 0 ... */\n      jump(tag_333)\n    tag_332:\n        /* \"Ejercicio5/Lotery/contracts/Lottery.sol\":1683:1707  defaultCommissionPercent */\n      sload(0x02)\n        /* \"Ejercicio5/Lotery/contracts/Lottery.sol\":1645:1740  commissionPercent == 0 ... */\n    tag_333:\n        /* \"Ejercicio5/Lotery/contracts/Lottery.sol\":1624:1740  uint256 commission = commissionPercent == 0 ... */\n      swap1\n      pop\n        /* \"Ejercicio5/Lotery/contracts/LotteryStorage.sol\":3502:3506  1000 */\n      0x03e8\n        /* \"Ejercicio5/Lotery/contracts/Lottery.sol\":1767:1777  commission */\n      dup2\n        /* \"Ejercicio5/Lotery/contracts/Lottery.sol\":1767:1803  commission <= MAX_COMMISSION_PERCENT */\n      gt\n      iszero\n        /* \"Ejercicio5/Lotery/contracts/Lottery.sol\":1759:1827  require(commission <= MAX_COMMISSION_PERCENT, \"Commission too high\") */\n      tag_334\n      jumpi\n      mload(0x40)\n      0x08c379a000000000000000000000000000000000000000000000000000000000\n      dup2\n      mstore\n      0x04\n      add\n      tag_335\n      swap1\n      tag_293\n      jump\t// in\n    tag_335:\n      mload(0x40)\n      dup1\n      swap2\n      sub\n      swap1\n      revert\n    tag_334:\n        /* \"Ejercicio5/Lotery/contracts/Lottery.sol\":1846:1863  uint256 lotteryId */\n      0x00\n        /* \"Ejercicio5/Lotery/contracts/Lottery.sol\":1866:1879  nextLotteryId */\n      sload(0x00)\n        /* \"Ejercicio5/Lotery/contracts/Lottery.sol\":1846:1879  uint256 lotteryId = nextLotteryId */\n      swap1\n      pop\n        /* \"Ejercicio5/Lotery/contracts/Lottery.sol\":1898:1920  Lottery storage newLot */\n      0x00\n        /* \"Ejercicio5/Lotery/contracts/Lottery.sol\":1923:1932  lotteries */\n      0x01\n        /* \"Ejercicio5/Lotery/contracts/Lottery.sol\":1923:1943  lotteries[lotteryId] */\n      0x00\n        /* \"Ejercicio5/Lotery/contracts/Lottery.sol\":1933:1942  lotteryId */\n      dup4\n        /* \"Ejercicio5/Lotery/contracts/Lottery.sol\":1923:1943  lotteries[lotteryId] */\n      dup2\n      mstore\n      0x20\n      add\n      swap1\n      dup2\n      mstore\n      0x20\n      add\n      0x00\n      keccak256\n        /* \"Ejercicio5/Lotery/contracts/Lottery.sol\":1898:1943  Lottery storage newLot = lotteries[lotteryId] */\n      swap1\n      pop\n        /* \"Ejercicio5/Lotery/contracts/Lottery.sol\":1965:1974  lotteryId */\n      dup2\n        /* \"Ejercicio5/Lotery/contracts/Lottery.sol\":1953:1959  newLot */\n      dup2\n        /* \"Ejercicio5/Lotery/contracts/Lottery.sol\":1953:1962  newLot.id */\n      0x00\n      add\n        /* \"Ejercicio5/Lotery/contracts/Lottery.sol\":1953:1974  newLot.id = lotteryId */\n      dup2\n      swap1\n      sstore\n      pop\n        /* \"Ejercicio5/Lotery/contracts/Lottery.sol\":2001:2011  msg.sender */\n      caller\n        /* \"Ejercicio5/Lotery/contracts/Lottery.sol\":1984:1990  newLot */\n      dup2\n        /* \"Ejercicio5/Lotery/contracts/Lottery.sol\":1984:1998  newLot.creator */\n      0x01\n      add\n      0x00\n        /* \"Ejercicio5/Lotery/contracts/Lottery.sol\":1984:2011  newLot.creator = msg.sender */\n      0x0100\n      exp\n      dup2\n      sload\n      dup2\n      0xffffffffffffffffffffffffffffffffffffffff\n      mul\n      not\n      and\n      swap1\n      dup4\n      0xffffffffffffffffffffffffffffffffffffffff\n      and\n      mul\n      or\n      swap1\n      sstore\n      pop\n        /* \"Ejercicio5/Lotery/contracts/Lottery.sol\":2035:2039  name */\n      dup9\n        /* \"Ejercicio5/Lotery/contracts/Lottery.sol\":2021:2027  newLot */\n      dup2\n        /* \"Ejercicio5/Lotery/contracts/Lottery.sol\":2021:2032  newLot.name */\n      0x02\n      add\n        /* \"Ejercicio5/Lotery/contracts/Lottery.sol\":2021:2039  newLot.name = name */\n      swap1\n      dup2\n      tag_336\n      swap2\n      swap1\n      tag_337\n      jump\t// in\n    tag_336:\n      pop\n        /* \"Ejercicio5/Lotery/contracts/Lottery.sol\":2070:2081  ticketPrice */\n      dup8\n        /* \"Ejercicio5/Lotery/contracts/Lottery.sol\":2049:2055  newLot */\n      dup2\n        /* \"Ejercicio5/Lotery/contracts/Lottery.sol\":2049:2067  newLot.ticketPrice */\n      0x03\n      add\n        /* \"Ejercicio5/Lotery/contracts/Lottery.sol\":2049:2081  newLot.ticketPrice = ticketPrice */\n      dup2\n      swap1\n      sstore\n      pop\n        /* \"Ejercicio5/Lotery/contracts/Lottery.sol\":2111:2121  maxTickets */\n      dup7\n        /* \"Ejercicio5/Lotery/contracts/Lottery.sol\":2091:2097  newLot */\n      dup2\n        /* \"Ejercicio5/Lotery/contracts/Lottery.sol\":2091:2108  newLot.maxTickets */\n      0x04\n      add\n        /* \"Ejercicio5/Lotery/contracts/Lottery.sol\":2091:2121  newLot.maxTickets = maxTickets */\n      dup2\n      swap1\n      sstore\n      pop\n        /* \"Ejercicio5/Lotery/contracts/Lottery.sol\":2152:2153  0 */\n      0x00\n        /* \"Ejercicio5/Lotery/contracts/Lottery.sol\":2131:2137  newLot */\n      dup2\n        /* \"Ejercicio5/Lotery/contracts/Lottery.sol\":2131:2149  newLot.ticketsSold */\n      0x05\n      add\n        /* \"Ejercicio5/Lotery/contracts/Lottery.sol\":2131:2153  newLot.ticketsSold = 0 */\n      dup2\n      swap1\n      sstore\n      pop\n        /* \"Ejercicio5/Lotery/contracts/Lottery.sol\":2182:2197  block.timestamp */\n      timestamp\n        /* \"Ejercicio5/Lotery/contracts/Lottery.sol\":2163:2169  newLot */\n      dup2\n        /* \"Ejercicio5/Lotery/contracts/Lottery.sol\":2163:2179  newLot.startTime */\n      0x06\n      add\n        /* \"Ejercicio5/Lotery/contracts/Lottery.sol\":2163:2197  newLot.startTime = block.timestamp */\n      dup2\n      swap1\n      sstore\n      pop\n        /* \"Ejercicio5/Lotery/contracts/Lottery.sol\":2224:2231  endTime */\n      dup6\n        /* \"Ejercicio5/Lotery/contracts/Lottery.sol\":2207:2213  newLot */\n      dup2\n        /* \"Ejercicio5/Lotery/contracts/Lottery.sol\":2207:2221  newLot.endTime */\n      0x07\n      add\n        /* \"Ejercicio5/Lotery/contracts/Lottery.sol\":2207:2231  newLot.endTime = endTime */\n      dup2\n      swap1\n      sstore\n      pop\n        /* \"Ejercicio5/Lotery/contracts/Lottery.sol\":2268:2278  commission */\n      dup3\n        /* \"Ejercicio5/Lotery/contracts/Lottery.sol\":2241:2247  newLot */\n      dup2\n        /* \"Ejercicio5/Lotery/contracts/Lottery.sol\":2241:2265  newLot.commissionPercent */\n      0x0a\n      add\n        /* \"Ejercicio5/Lotery/contracts/Lottery.sol\":2241:2278  newLot.commissionPercent = commission */\n      dup2\n      swap1\n      sstore\n      pop\n        /* \"Ejercicio5/Lotery/contracts/Lottery.sol\":2304:2309  false */\n      0x00\n        /* \"Ejercicio5/Lotery/contracts/Lottery.sol\":2288:2294  newLot */\n      dup2\n        /* \"Ejercicio5/Lotery/contracts/Lottery.sol\":2288:2301  newLot.closed */\n      0x0b\n      add\n      0x00\n        /* \"Ejercicio5/Lotery/contracts/Lottery.sol\":2288:2309  newLot.closed = false */\n      0x0100\n      exp\n      dup2\n      sload\n      dup2\n      0xff\n      mul\n      not\n      and\n      swap1\n      dup4\n      iszero\n      iszero\n      mul\n      or\n      swap1\n      sstore\n      pop\n        /* \"Ejercicio5/Lotery/contracts/Lottery.sol\":2343:2344  0 */\n      0x00\n        /* \"Ejercicio5/Lotery/contracts/Lottery.sol\":2319:2325  newLot */\n      dup2\n        /* \"Ejercicio5/Lotery/contracts/Lottery.sol\":2319:2332  newLot.winner */\n      0x0b\n      add\n      0x01\n        /* \"Ejercicio5/Lotery/contracts/Lottery.sol\":2319:2345  newLot.winner = address(0) */\n      0x0100\n      exp\n      dup2\n      sload\n      dup2\n      0xffffffffffffffffffffffffffffffffffffffff\n      mul\n      not\n      and\n      swap1\n      dup4\n      0xffffffffffffffffffffffffffffffffffffffff\n      and\n      mul\n      or\n      swap1\n      sstore\n      pop\n        /* \"Ejercicio5/Lotery/contracts/Lottery.sol\":2368:2369  0 */\n      0x00\n        /* \"Ejercicio5/Lotery/contracts/Lottery.sol\":2355:2361  newLot */\n      dup2\n        /* \"Ejercicio5/Lotery/contracts/Lottery.sol\":2355:2365  newLot.pot */\n      0x0c\n      add\n        /* \"Ejercicio5/Lotery/contracts/Lottery.sol\":2355:2369  newLot.pot = 0 */\n      dup2\n      swap1\n      sstore\n      pop\n        /* \"Ejercicio5/Lotery/contracts/Lottery.sol\":2388:2401  nextLotteryId */\n      0x00\n      0x00\n        /* \"Ejercicio5/Lotery/contracts/Lottery.sol\":2388:2403  nextLotteryId++ */\n      dup2\n      sload\n      dup1\n      swap3\n      swap2\n      swap1\n      tag_338\n      swap1\n      tag_162\n      jump\t// in\n    tag_338:\n      swap2\n      swap1\n      pop\n      sstore\n      pop\n        /* \"Ejercicio5/Lotery/contracts/Lottery.sol\":2437:2457  activeLotteriesCount */\n      0x04\n      0x00\n        /* \"Ejercicio5/Lotery/contracts/Lottery.sol\":2437:2459  activeLotteriesCount++ */\n      dup2\n      sload\n      dup1\n      swap3\n      swap2\n      swap1\n      tag_339\n      swap1\n      tag_162\n      jump\t// in\n    tag_339:\n      swap2\n      swap1\n      pop\n      sstore\n      pop\n        /* \"Ejercicio5/Lotery/contracts/Lottery.sol\":2509:2519  msg.sender */\n      caller\n        /* \"Ejercicio5/Lotery/contracts/Lottery.sol\":2483:2520  LotteryCreated(lotteryId, msg.sender) */\n      0xffffffffffffffffffffffffffffffffffffffff\n      and\n        /* \"Ejercicio5/Lotery/contracts/Lottery.sol\":2498:2507  lotteryId */\n      dup3\n        /* \"Ejercicio5/Lotery/contracts/Lottery.sol\":2483:2520  LotteryCreated(lotteryId, msg.sender) */\n      0x73ac9939c0fae9d35f1ff5450b52cb43bf0601ae6cc29f9d7eb5967b91e75059\n      mload(0x40)\n      mload(0x40)\n      dup1\n      swap2\n      sub\n      swap1\n      log3\n        /* \"Ejercicio5/Lotery/contracts/Lottery.sol\":2546:2555  lotteryId */\n      dup2\n        /* \"Ejercicio5/Lotery/contracts/Lottery.sol\":2539:2555  return lotteryId */\n      swap4\n      pop\n      pop\n      pop\n      pop\n        /* \"Ejercicio5/Lotery/contracts/Lottery.sol\":1185:2562  function createLottery(... */\n      swap6\n      swap5\n      pop\n      pop\n      pop\n      pop\n      pop\n      jump\t// out\n        /* \"Ejercicio5/Lotery/contracts/Lottery.sol\":7602:7964  function _closeLottery(uint256 lotteryId) internal {... */\n    tag_264:\n        /* \"Ejercicio5/Lotery/contracts/Lottery.sol\":7663:7682  Lottery storage lot */\n      0x00\n        /* \"Ejercicio5/Lotery/contracts/Lottery.sol\":7685:7694  lotteries */\n      0x01\n        /* \"Ejercicio5/Lotery/contracts/Lottery.sol\":7685:7705  lotteries[lotteryId] */\n      0x00\n        /* \"Ejercicio5/Lotery/contracts/Lottery.sol\":7695:7704  lotteryId */\n      dup4\n        /* \"Ejercicio5/Lotery/contracts/Lottery.sol\":7685:7705  lotteries[lotteryId] */\n      dup2\n      mstore\n      0x20\n      add\n      swap1\n      dup2\n      mstore\n      0x20\n      add\n      0x00\n      keccak256\n        /* \"Ejercicio5/Lotery/contracts/Lottery.sol\":7663:7705  Lottery storage lot = lotteries[lotteryId] */\n      swap1\n      pop\n        /* \"Ejercicio5/Lotery/contracts/Lottery.sol\":7737:7741  true */\n      0x01\n        /* \"Ejercicio5/Lotery/contracts/Lottery.sol\":7724:7727  lot */\n      dup2\n        /* \"Ejercicio5/Lotery/contracts/Lottery.sol\":7724:7734  lot.closed */\n      0x0b\n      add\n      0x00\n        /* \"Ejercicio5/Lotery/contracts/Lottery.sol\":7724:7741  lot.closed = true */\n      0x0100\n      exp\n      dup2\n      sload\n      dup2\n      0xff\n      mul\n      not\n      and\n      swap1\n      dup4\n      iszero\n      iszero\n      mul\n      or\n      swap1\n      sstore\n      pop\n        /* \"Ejercicio5/Lotery/contracts/Lottery.sol\":7801:7802  0 */\n      0x00\n        /* \"Ejercicio5/Lotery/contracts/Lottery.sol\":7778:7798  activeLotteriesCount */\n      sload(0x04)\n        /* \"Ejercicio5/Lotery/contracts/Lottery.sol\":7778:7802  activeLotteriesCount > 0 */\n      gt\n        /* \"Ejercicio5/Lotery/contracts/Lottery.sol\":7774:7851  if (activeLotteriesCount > 0) {... */\n      iszero\n      tag_341\n      jumpi\n        /* \"Ejercicio5/Lotery/contracts/Lottery.sol\":7818:7838  activeLotteriesCount */\n      0x04\n      0x00\n        /* \"Ejercicio5/Lotery/contracts/Lottery.sol\":7818:7840  activeLotteriesCount-- */\n      dup2\n      sload\n      dup1\n      swap3\n      swap2\n      swap1\n      tag_342\n      swap1\n      tag_343\n      jump\t// in\n    tag_342:\n      swap2\n      swap1\n      pop\n      sstore\n      pop\n        /* \"Ejercicio5/Lotery/contracts/Lottery.sol\":7774:7851  if (activeLotteriesCount > 0) {... */\n    tag_341:\n        /* \"Ejercicio5/Lotery/contracts/Lottery.sol\":7890:7900  msg.sender */\n      caller\n        /* \"Ejercicio5/Lotery/contracts/Lottery.sol\":7865:7901  LotteryClosed(lotteryId, msg.sender) */\n      0xffffffffffffffffffffffffffffffffffffffff\n      and\n        /* \"Ejercicio5/Lotery/contracts/Lottery.sol\":7879:7888  lotteryId */\n      dup3\n        /* \"Ejercicio5/Lotery/contracts/Lottery.sol\":7865:7901  LotteryClosed(lotteryId, msg.sender) */\n      0xe983b889c5b0419f1fb6aded8b9552b95691be88059a486820b5c342ebf974f4\n      mload(0x40)\n      mload(0x40)\n      dup1\n      swap2\n      sub\n      swap1\n      log3\n        /* \"Ejercicio5/Lotery/contracts/Lottery.sol\":7920:7957  _selectWinnerAndDistribute(lotteryId) */\n      tag_344\n        /* \"Ejercicio5/Lotery/contracts/Lottery.sol\":7947:7956  lotteryId */\n      dup3\n        /* \"Ejercicio5/Lotery/contracts/Lottery.sol\":7920:7946  _selectWinnerAndDistribute */\n      tag_345\n        /* \"Ejercicio5/Lotery/contracts/Lottery.sol\":7920:7957  _selectWinnerAndDistribute(lotteryId) */\n      jump\t// in\n    tag_344:\n        /* \"Ejercicio5/Lotery/contracts/Lottery.sol\":7653:7964  {... */\n      pop\n        /* \"Ejercicio5/Lotery/contracts/Lottery.sol\":7602:7964  function _closeLottery(uint256 lotteryId) internal {... */\n      pop\n      jump\t// out\n        /* \"Ejercicio5/Lotery/contracts/Lottery.sol\":8039:9410  function _selectWinnerAndDistribute(uint256 lotteryId) internal {... */\n    tag_345:\n        /* \"Ejercicio5/Lotery/contracts/Lottery.sol\":8113:8132  Lottery storage lot */\n      0x00\n        /* \"Ejercicio5/Lotery/contracts/Lottery.sol\":8135:8144  lotteries */\n      0x01\n        /* \"Ejercicio5/Lotery/contracts/Lottery.sol\":8135:8155  lotteries[lotteryId] */\n      0x00\n        /* \"Ejercicio5/Lotery/contracts/Lottery.sol\":8145:8154  lotteryId */\n      dup4\n        /* \"Ejercicio5/Lotery/contracts/Lottery.sol\":8135:8155  lotteries[lotteryId] */\n      dup2\n      mstore\n      0x20\n      add\n      swap1\n      dup2\n      mstore\n      0x20\n      add\n      0x00\n      keccak256\n        /* \"Ejercicio5/Lotery/contracts/Lottery.sol\":8113:8155  Lottery storage lot = lotteries[lotteryId] */\n      swap1\n      pop\n        /* \"Ejercicio5/Lotery/contracts/Lottery.sol\":8241:8268  uint256 winningTicketNumber */\n      0x00\n        /* \"Ejercicio5/Lotery/contracts/Lottery.sol\":8271:8297  getRandom(lot.ticketsSold) */\n      tag_347\n        /* \"Ejercicio5/Lotery/contracts/Lottery.sol\":8281:8284  lot */\n      dup3\n        /* \"Ejercicio5/Lotery/contracts/Lottery.sol\":8281:8296  lot.ticketsSold */\n      0x05\n      add\n      sload\n        /* \"Ejercicio5/Lotery/contracts/Lottery.sol\":8271:8280  getRandom */\n      tag_348\n        /* \"Ejercicio5/Lotery/contracts/Lottery.sol\":8271:8297  getRandom(lot.ticketsSold) */\n      jump\t// in\n    tag_347:\n        /* \"Ejercicio5/Lotery/contracts/Lottery.sol\":8241:8297  uint256 winningTicketNumber = getRandom(lot.ticketsSold) */\n      swap1\n      pop\n        /* \"Ejercicio5/Lotery/contracts/Lottery.sol\":8371:8385  address winner */\n      0x00\n        /* \"Ejercicio5/Lotery/contracts/Lottery.sol\":8388:8445  _findWinnerByTicketNumber(lotteryId, winningTicketNumber) */\n      tag_349\n        /* \"Ejercicio5/Lotery/contracts/Lottery.sol\":8414:8423  lotteryId */\n      dup5\n        /* \"Ejercicio5/Lotery/contracts/Lottery.sol\":8425:8444  winningTicketNumber */\n      dup4\n        /* \"Ejercicio5/Lotery/contracts/Lottery.sol\":8388:8413  _findWinnerByTicketNumber */\n      tag_350\n        /* \"Ejercicio5/Lotery/contracts/Lottery.sol\":8388:8445  _findWinnerByTicketNumber(lotteryId, winningTicketNumber) */\n      jump\t// in\n    tag_349:\n        /* \"Ejercicio5/Lotery/contracts/Lottery.sol\":8371:8445  address winner = _findWinnerByTicketNumber(lotteryId, winningTicketNumber) */\n      swap1\n      pop\n        /* \"Ejercicio5/Lotery/contracts/Lottery.sol\":8468:8474  winner */\n      dup1\n        /* \"Ejercicio5/Lotery/contracts/Lottery.sol\":8455:8458  lot */\n      dup4\n        /* \"Ejercicio5/Lotery/contracts/Lottery.sol\":8455:8465  lot.winner */\n      0x0b\n      add\n      0x01\n        /* \"Ejercicio5/Lotery/contracts/Lottery.sol\":8455:8474  lot.winner = winner */\n      0x0100\n      exp\n      dup2\n      sload\n      dup2\n      0xffffffffffffffffffffffffffffffffffffffff\n      mul\n      not\n      and\n      swap1\n      dup4\n      0xffffffffffffffffffffffffffffffffffffffff\n      and\n      mul\n      or\n      swap1\n      sstore\n      pop\n        /* \"Ejercicio5/Lotery/contracts/Lottery.sol\":8537:8553  uint256 totalPot */\n      0x00\n        /* \"Ejercicio5/Lotery/contracts/Lottery.sol\":8556:8559  lot */\n      dup4\n        /* \"Ejercicio5/Lotery/contracts/Lottery.sol\":8556:8563  lot.pot */\n      0x0c\n      add\n      sload\n        /* \"Ejercicio5/Lotery/contracts/Lottery.sol\":8537:8563  uint256 totalPot = lot.pot */\n      swap1\n      pop\n        /* \"Ejercicio5/Lotery/contracts/Lottery.sol\":8573:8596  uint256 totalCommission */\n      0x00\n        /* \"Ejercicio5/Lotery/contracts/Lottery.sol\":8636:8641  10000 */\n      0x2710\n        /* \"Ejercicio5/Lotery/contracts/Lottery.sol\":8611:8614  lot */\n      dup6\n        /* \"Ejercicio5/Lotery/contracts/Lottery.sol\":8611:8632  lot.commissionPercent */\n      0x0a\n      add\n      sload\n        /* \"Ejercicio5/Lotery/contracts/Lottery.sol\":8600:8608  totalPot */\n      dup4\n        /* \"Ejercicio5/Lotery/contracts/Lottery.sol\":8600:8632  totalPot * lot.commissionPercent */\n      tag_351\n      swap2\n      swap1\n      tag_229\n      jump\t// in\n    tag_351:\n        /* \"Ejercicio5/Lotery/contracts/Lottery.sol\":8599:8641  (totalPot * lot.commissionPercent) / 10000 */\n      tag_352\n      swap2\n      swap1\n      tag_353\n      jump\t// in\n    tag_352:\n        /* \"Ejercicio5/Lotery/contracts/Lottery.sol\":8573:8641  uint256 totalCommission = (totalPot * lot.commissionPercent) / 10000 */\n      swap1\n      pop\n        /* \"Ejercicio5/Lotery/contracts/Lottery.sol\":8651:8674  uint256 ownerCommission */\n      0x00\n        /* \"Ejercicio5/Lotery/contracts/Lottery.sol\":8695:8696  2 */\n      0x02\n        /* \"Ejercicio5/Lotery/contracts/Lottery.sol\":8677:8692  totalCommission */\n      dup3\n        /* \"Ejercicio5/Lotery/contracts/Lottery.sol\":8677:8696  totalCommission / 2 */\n      tag_354\n      swap2\n      swap1\n      tag_353\n      jump\t// in\n    tag_354:\n        /* \"Ejercicio5/Lotery/contracts/Lottery.sol\":8651:8696  uint256 ownerCommission = totalCommission / 2 */\n      swap1\n      pop\n        /* \"Ejercicio5/Lotery/contracts/Lottery.sol\":8706:8731  uint256 creatorCommission */\n      0x00\n        /* \"Ejercicio5/Lotery/contracts/Lottery.sol\":8752:8753  2 */\n      0x02\n        /* \"Ejercicio5/Lotery/contracts/Lottery.sol\":8734:8749  totalCommission */\n      dup4\n        /* \"Ejercicio5/Lotery/contracts/Lottery.sol\":8734:8753  totalCommission / 2 */\n      tag_355\n      swap2\n      swap1\n      tag_353\n      jump\t// in\n    tag_355:\n        /* \"Ejercicio5/Lotery/contracts/Lottery.sol\":8706:8753  uint256 creatorCommission = totalCommission / 2 */\n      swap1\n      pop\n        /* \"Ejercicio5/Lotery/contracts/Lottery.sol\":8763:8776  uint256 prize */\n      0x00\n        /* \"Ejercicio5/Lotery/contracts/Lottery.sol\":8790:8805  totalCommission */\n      dup4\n        /* \"Ejercicio5/Lotery/contracts/Lottery.sol\":8779:8787  totalPot */\n      dup6\n        /* \"Ejercicio5/Lotery/contracts/Lottery.sol\":8779:8805  totalPot - totalCommission */\n      tag_356\n      swap2\n      swap1\n      tag_357\n      jump\t// in\n    tag_356:\n        /* \"Ejercicio5/Lotery/contracts/Lottery.sol\":8763:8805  uint256 prize = totalPot - totalCommission */\n      swap1\n      pop\n        /* \"Ejercicio5/Lotery/contracts/Lottery.sol\":8834:8835  0 */\n      0x00\n        /* \"Ejercicio5/Lotery/contracts/Lottery.sol\":8824:8827  lot */\n      dup9\n        /* \"Ejercicio5/Lotery/contracts/Lottery.sol\":8824:8831  lot.pot */\n      0x0c\n      add\n        /* \"Ejercicio5/Lotery/contracts/Lottery.sol\":8824:8835  lot.pot = 0 */\n      dup2\n      swap1\n      sstore\n      pop\n        /* \"Ejercicio5/Lotery/contracts/Lottery.sol\":9018:9033  ownerCommission */\n      dup3\n        /* \"Ejercicio5/Lotery/contracts/Lottery.sol\":8989:9007  pendingWithdrawals */\n      0x05\n        /* \"Ejercicio5/Lotery/contracts/Lottery.sol\":8989:9014  pendingWithdrawals[owner] */\n      0x00\n        /* \"Ejercicio5/Lotery/contracts/Lottery.sol\":9008:9013  owner */\n      0x03\n      0x00\n      swap1\n      sload\n      swap1\n      0x0100\n      exp\n      swap1\n      div\n      0xffffffffffffffffffffffffffffffffffffffff\n      and\n        /* \"Ejercicio5/Lotery/contracts/Lottery.sol\":8989:9014  pendingWithdrawals[owner] */\n      0xffffffffffffffffffffffffffffffffffffffff\n      and\n      0xffffffffffffffffffffffffffffffffffffffff\n      and\n      dup2\n      mstore\n      0x20\n      add\n      swap1\n      dup2\n      mstore\n      0x20\n      add\n      0x00\n      keccak256\n      0x00\n        /* \"Ejercicio5/Lotery/contracts/Lottery.sol\":8989:9033  pendingWithdrawals[owner] += ownerCommission */\n      dup3\n      dup3\n      sload\n      tag_358\n      swap2\n      swap1\n      tag_202\n      jump\t// in\n    tag_358:\n      swap3\n      pop\n      pop\n      dup2\n      swap1\n      sstore\n      pop\n        /* \"Ejercicio5/Lotery/contracts/Lottery.sol\":9071:9076  owner */\n      0x03\n      0x00\n      swap1\n      sload\n      swap1\n      0x0100\n      exp\n      swap1\n      div\n      0xffffffffffffffffffffffffffffffffffffffff\n      and\n        /* \"Ejercicio5/Lotery/contracts/Lottery.sol\":9056:9076  lot.creator != owner */\n      0xffffffffffffffffffffffffffffffffffffffff\n      and\n        /* \"Ejercicio5/Lotery/contracts/Lottery.sol\":9056:9059  lot */\n      dup9\n        /* \"Ejercicio5/Lotery/contracts/Lottery.sol\":9056:9067  lot.creator */\n      0x01\n      add\n      0x00\n      swap1\n      sload\n      swap1\n      0x0100\n      exp\n      swap1\n      div\n      0xffffffffffffffffffffffffffffffffffffffff\n      and\n        /* \"Ejercicio5/Lotery/contracts/Lottery.sol\":9056:9076  lot.creator != owner */\n      0xffffffffffffffffffffffffffffffffffffffff\n      and\n      eq\n        /* \"Ejercicio5/Lotery/contracts/Lottery.sol\":9052:9286  if (lot.creator != owner) {... */\n      tag_359\n      jumpi\n        /* \"Ejercicio5/Lotery/contracts/Lottery.sol\":9127:9144  creatorCommission */\n      dup2\n        /* \"Ejercicio5/Lotery/contracts/Lottery.sol\":9092:9110  pendingWithdrawals */\n      0x05\n        /* \"Ejercicio5/Lotery/contracts/Lottery.sol\":9092:9123  pendingWithdrawals[lot.creator] */\n      0x00\n        /* \"Ejercicio5/Lotery/contracts/Lottery.sol\":9111:9114  lot */\n      dup11\n        /* \"Ejercicio5/Lotery/contracts/Lottery.sol\":9111:9122  lot.creator */\n      0x01\n      add\n      0x00\n      swap1\n      sload\n      swap1\n      0x0100\n      exp\n      swap1\n      div\n      0xffffffffffffffffffffffffffffffffffffffff\n      and\n        /* \"Ejercicio5/Lotery/contracts/Lottery.sol\":9092:9123  pendingWithdrawals[lot.creator] */\n      0xffffffffffffffffffffffffffffffffffffffff\n      and\n      0xffffffffffffffffffffffffffffffffffffffff\n      and\n      dup2\n      mstore\n      0x20\n      add\n      swap1\n      dup2\n      mstore\n      0x20\n      add\n      0x00\n      keccak256\n      0x00\n        /* \"Ejercicio5/Lotery/contracts/Lottery.sol\":9092:9144  pendingWithdrawals[lot.creator] += creatorCommission */\n      dup3\n      dup3\n      sload\n      tag_360\n      swap2\n      swap1\n      tag_202\n      jump\t// in\n    tag_360:\n      swap3\n      pop\n      pop\n      dup2\n      swap1\n      sstore\n      pop\n        /* \"Ejercicio5/Lotery/contracts/Lottery.sol\":9052:9286  if (lot.creator != owner) {... */\n      jump(tag_361)\n    tag_359:\n        /* \"Ejercicio5/Lotery/contracts/Lottery.sol\":9258:9275  creatorCommission */\n      dup2\n        /* \"Ejercicio5/Lotery/contracts/Lottery.sol\":9229:9247  pendingWithdrawals */\n      0x05\n        /* \"Ejercicio5/Lotery/contracts/Lottery.sol\":9229:9254  pendingWithdrawals[owner] */\n      0x00\n        /* \"Ejercicio5/Lotery/contracts/Lottery.sol\":9248:9253  owner */\n      0x03\n      0x00\n      swap1\n      sload\n      swap1\n      0x0100\n      exp\n      swap1\n      div\n      0xffffffffffffffffffffffffffffffffffffffff\n      and\n        /* \"Ejercicio5/Lotery/contracts/Lottery.sol\":9229:9254  pendingWithdrawals[owner] */\n      0xffffffffffffffffffffffffffffffffffffffff\n      and\n      0xffffffffffffffffffffffffffffffffffffffff\n      and\n      dup2\n      mstore\n      0x20\n      add\n      swap1\n      dup2\n      mstore\n      0x20\n      add\n      0x00\n      keccak256\n      0x00\n        /* \"Ejercicio5/Lotery/contracts/Lottery.sol\":9229:9275  pendingWithdrawals[owner] += creatorCommission */\n      dup3\n      dup3\n      sload\n      tag_362\n      swap2\n      swap1\n      tag_202\n      jump\t// in\n    tag_362:\n      swap3\n      pop\n      pop\n      dup2\n      swap1\n      sstore\n      pop\n        /* \"Ejercicio5/Lotery/contracts/Lottery.sol\":9052:9286  if (lot.creator != owner) {... */\n    tag_361:\n        /* \"Ejercicio5/Lotery/contracts/Lottery.sol\":9334:9339  prize */\n      dup1\n        /* \"Ejercicio5/Lotery/contracts/Lottery.sol\":9304:9322  pendingWithdrawals */\n      0x05\n        /* \"Ejercicio5/Lotery/contracts/Lottery.sol\":9304:9330  pendingWithdrawals[winner] */\n      0x00\n        /* \"Ejercicio5/Lotery/contracts/Lottery.sol\":9323:9329  winner */\n      dup9\n        /* \"Ejercicio5/Lotery/contracts/Lottery.sol\":9304:9330  pendingWithdrawals[winner] */\n      0xffffffffffffffffffffffffffffffffffffffff\n      and\n      0xffffffffffffffffffffffffffffffffffffffff\n      and\n      dup2\n      mstore\n      0x20\n      add\n      swap1\n      dup2\n      mstore\n      0x20\n      add\n      0x00\n      keccak256\n      0x00\n        /* \"Ejercicio5/Lotery/contracts/Lottery.sol\":9304:9339  pendingWithdrawals[winner] += prize */\n      dup3\n      dup3\n      sload\n      tag_363\n      swap2\n      swap1\n      tag_202\n      jump\t// in\n    tag_363:\n      swap3\n      pop\n      pop\n      dup2\n      swap1\n      sstore\n      pop\n        /* \"Ejercicio5/Lotery/contracts/Lottery.sol\":9389:9395  winner */\n      dup6\n        /* \"Ejercicio5/Lotery/contracts/Lottery.sol\":9363:9403  WinnerSelected(lotteryId, winner, prize) */\n      0xffffffffffffffffffffffffffffffffffffffff\n      and\n        /* \"Ejercicio5/Lotery/contracts/Lottery.sol\":9378:9387  lotteryId */\n      dup10\n        /* \"Ejercicio5/Lotery/contracts/Lottery.sol\":9363:9403  WinnerSelected(lotteryId, winner, prize) */\n      0xfee5b04775e1cd2311ed22cd00f5d2403aff38ff6f71d6d393f51854ed6bc986\n        /* \"Ejercicio5/Lotery/contracts/Lottery.sol\":9397:9402  prize */\n      dup4\n        /* \"Ejercicio5/Lotery/contracts/Lottery.sol\":9363:9403  WinnerSelected(lotteryId, winner, prize) */\n      mload(0x40)\n      tag_364\n      swap2\n      swap1\n      tag_69\n      jump\t// in\n    tag_364:\n      mload(0x40)\n      dup1\n      swap2\n      sub\n      swap1\n      log3\n        /* \"Ejercicio5/Lotery/contracts/Lottery.sol\":8103:9410  {... */\n      pop\n      pop\n      pop\n      pop\n      pop\n      pop\n      pop\n      pop\n        /* \"Ejercicio5/Lotery/contracts/Lottery.sol\":8039:9410  function _selectWinnerAndDistribute(uint256 lotteryId) internal {... */\n      pop\n      jump\t// out\n        /* \"Ejercicio5/Lotery/contracts/GetRandom.sol\":159:465  function getRandom(uint _totalTickets) internal view returns (uint) {... */\n    tag_348:\n        /* \"Ejercicio5/Lotery/contracts/GetRandom.sol\":221:225  uint */\n      0x00\n        /* \"Ejercicio5/Lotery/contracts/GetRandom.sol\":261:262  0 */\n      0x00\n        /* \"Ejercicio5/Lotery/contracts/GetRandom.sol\":245:258  _totalTickets */\n      dup3\n        /* \"Ejercicio5/Lotery/contracts/GetRandom.sol\":245:262  _totalTickets > 0 */\n      gt\n        /* \"Ejercicio5/Lotery/contracts/GetRandom.sol\":237:287  require(_totalTickets > 0, \"No tickets available\") */\n      tag_366\n      jumpi\n      mload(0x40)\n      0x08c379a000000000000000000000000000000000000000000000000000000000\n      dup2\n      mstore\n      0x04\n      add\n      tag_367\n      swap1\n      tag_368\n      jump\t// in\n    tag_367:\n      mload(0x40)\n      dup1\n      swap2\n      sub\n      swap1\n      revert\n    tag_366:\n        /* \"Ejercicio5/Lotery/contracts/GetRandom.sol\":445:458  _totalTickets */\n      dup2\n        /* \"Ejercicio5/Lotery/contracts/GetRandom.sol\":369:385  block.prevrandao */\n      prevrandao\n        /* \"Ejercicio5/Lotery/contracts/GetRandom.sol\":387:402  block.timestamp */\n      timestamp\n        /* \"Ejercicio5/Lotery/contracts/GetRandom.sol\":404:417  _totalTickets */\n      dup5\n        /* \"Ejercicio5/Lotery/contracts/GetRandom.sol\":352:418  abi.encodePacked(block.prevrandao, block.timestamp, _totalTickets) */\n      add(0x20, mload(0x40))\n      tag_369\n      swap4\n      swap3\n      swap2\n      swap1\n      tag_370\n      jump\t// in\n    tag_369:\n      mload(0x40)\n      0x20\n      dup2\n      dup4\n      sub\n      sub\n      dup2\n      mstore\n      swap1\n      0x40\n      mstore\n        /* \"Ejercicio5/Lotery/contracts/GetRandom.sol\":325:432  keccak256(... */\n      dup1\n      mload\n      swap1\n      0x20\n      add\n      keccak256\n        /* \"Ejercicio5/Lotery/contracts/GetRandom.sol\":304:442  uint256(... */\n      0x00\n      shr\n        /* \"Ejercicio5/Lotery/contracts/GetRandom.sol\":304:458  uint256(... */\n      tag_371\n      swap2\n      swap1\n      tag_372\n      jump\t// in\n    tag_371:\n        /* \"Ejercicio5/Lotery/contracts/GetRandom.sol\":297:458  return uint256(... */\n      swap1\n      pop\n        /* \"Ejercicio5/Lotery/contracts/GetRandom.sol\":159:465  function getRandom(uint _totalTickets) internal view returns (uint) {... */\n      swap2\n      swap1\n      pop\n      jump\t// out\n        /* \"Ejercicio5/Lotery/contracts/Lottery.sol\":9684:10120  function _findWinnerByTicketNumber(uint256 lotteryId, uint256 ticketNumber) ... */\n    tag_350:\n        /* \"Ejercicio5/Lotery/contracts/Lottery.sol\":9810:9817  address */\n      0x00\n        /* \"Ejercicio5/Lotery/contracts/Lottery.sol\":9834:9853  Lottery storage lot */\n      0x00\n        /* \"Ejercicio5/Lotery/contracts/Lottery.sol\":9856:9865  lotteries */\n      0x01\n        /* \"Ejercicio5/Lotery/contracts/Lottery.sol\":9856:9876  lotteries[lotteryId] */\n      0x00\n        /* \"Ejercicio5/Lotery/contracts/Lottery.sol\":9866:9875  lotteryId */\n      dup6\n        /* \"Ejercicio5/Lotery/contracts/Lottery.sol\":9856:9876  lotteries[lotteryId] */\n      dup2\n      mstore\n      0x20\n      add\n      swap1\n      dup2\n      mstore\n      0x20\n      add\n      0x00\n      keccak256\n        /* \"Ejercicio5/Lotery/contracts/Lottery.sol\":9834:9876  Lottery storage lot = lotteries[lotteryId] */\n      swap1\n      pop\n        /* \"Ejercicio5/Lotery/contracts/Lottery.sol\":9962:9976  address winner */\n      0x00\n        /* \"Ejercicio5/Lotery/contracts/Lottery.sol\":9979:9982  lot */\n      dup2\n        /* \"Ejercicio5/Lotery/contracts/Lottery.sol\":9979:9994  lot.ticketOwner */\n      0x0d\n      add\n        /* \"Ejercicio5/Lotery/contracts/Lottery.sol\":9979:10008  lot.ticketOwner[ticketNumber] */\n      0x00\n        /* \"Ejercicio5/Lotery/contracts/Lottery.sol\":9995:10007  ticketNumber */\n      dup6\n        /* \"Ejercicio5/Lotery/contracts/Lottery.sol\":9979:10008  lot.ticketOwner[ticketNumber] */\n      dup2\n      mstore\n      0x20\n      add\n      swap1\n      dup2\n      mstore\n      0x20\n      add\n      0x00\n      keccak256\n      0x00\n      swap1\n      sload\n      swap1\n      0x0100\n      exp\n      swap1\n      div\n      0xffffffffffffffffffffffffffffffffffffffff\n      and\n        /* \"Ejercicio5/Lotery/contracts/Lottery.sol\":9962:10008  address winner = lot.ticketOwner[ticketNumber] */\n      swap1\n      pop\n        /* \"Ejercicio5/Lotery/contracts/Lottery.sol\":10053:10054  0 */\n      0x00\n        /* \"Ejercicio5/Lotery/contracts/Lottery.sol\":10035:10055  winner != address(0) */\n      0xffffffffffffffffffffffffffffffffffffffff\n      and\n        /* \"Ejercicio5/Lotery/contracts/Lottery.sol\":10035:10041  winner */\n      dup2\n        /* \"Ejercicio5/Lotery/contracts/Lottery.sol\":10035:10055  winner != address(0) */\n      0xffffffffffffffffffffffffffffffffffffffff\n      and\n      sub\n        /* \"Ejercicio5/Lotery/contracts/Lottery.sol\":10027:10081  require(winner != address(0), \"Invalid ticket number\") */\n      tag_374\n      jumpi\n      mload(0x40)\n      0x08c379a000000000000000000000000000000000000000000000000000000000\n      dup2\n      mstore\n      0x04\n      add\n      tag_375\n      swap1\n      tag_376\n      jump\t// in\n    tag_375:\n      mload(0x40)\n      dup1\n      swap2\n      sub\n      swap1\n      revert\n    tag_374:\n        /* \"Ejercicio5/Lotery/contracts/Lottery.sol\":10107:10113  winner */\n      dup1\n        /* \"Ejercicio5/Lotery/contracts/Lottery.sol\":10100:10113  return winner */\n      swap3\n      pop\n      pop\n      pop\n        /* \"Ejercicio5/Lotery/contracts/Lottery.sol\":9684:10120  function _findWinnerByTicketNumber(uint256 lotteryId, uint256 ticketNumber) ... */\n      swap3\n      swap2\n      pop\n      pop\n      jump\t// out\n    tag_216:\n      mload(0x40)\n      dup1\n      0x01a0\n      add\n      0x40\n      mstore\n      dup1\n      0x00\n      dup2\n      mstore\n      0x20\n      add\n      and(0xffffffffffffffffffffffffffffffffffffffff, 0x00)\n      dup2\n      mstore\n      0x20\n      add\n      0x60\n      dup2\n      mstore\n      0x20\n      add\n      0x00\n      dup2\n      mstore\n      0x20\n      add\n      0x00\n      dup2\n      mstore\n      0x20\n      add\n      0x00\n      dup2\n      mstore\n      0x20\n      add\n      0x00\n      dup2\n      mstore\n      0x20\n      add\n      0x00\n      dup2\n      mstore\n      0x20\n      add\n      0x00\n      dup2\n      mstore\n      0x20\n      add\n      iszero(iszero(0x00))\n      dup2\n      mstore\n      0x20\n      add\n      and(0xffffffffffffffffffffffffffffffffffffffff, 0x00)\n      dup2\n      mstore\n      0x20\n      add\n      0x00\n      dup2\n      mstore\n      0x20\n      add\n      0x60\n      dup2\n      mstore\n      pop\n      swap1\n      jump\t// out\n        /* \"#utility.yul\":7:121   */\n    tag_377:\n        /* \"#utility.yul\":74:80   */\n      0x00\n        /* \"#utility.yul\":108:113   */\n      dup2\n        /* \"#utility.yul\":102:114   */\n      mload\n        /* \"#utility.yul\":92:114   */\n      swap1\n      pop\n        /* \"#utility.yul\":7:121   */\n      swap2\n      swap1\n      pop\n      jump\t// out\n        /* \"#utility.yul\":127:311   */\n    tag_378:\n        /* \"#utility.yul\":226:237   */\n      0x00\n        /* \"#utility.yul\":260:266   */\n      dup3\n        /* \"#utility.yul\":255:258   */\n      dup3\n        /* \"#utility.yul\":248:267   */\n      mstore\n        /* \"#utility.yul\":300:304   */\n      0x20\n        /* \"#utility.yul\":295:298   */\n      dup3\n        /* \"#utility.yul\":291:305   */\n      add\n        /* \"#utility.yul\":276:305   */\n      swap1\n      pop\n        /* \"#utility.yul\":127:311   */\n      swap3\n      swap2\n      pop\n      pop\n      jump\t// out\n        /* \"#utility.yul\":317:449   */\n    tag_379:\n        /* \"#utility.yul\":384:388   */\n      0x00\n        /* \"#utility.yul\":407:410   */\n      dup2\n        /* \"#utility.yul\":399:410   */\n      swap1\n      pop\n        /* \"#utility.yul\":437:441   */\n      0x20\n        /* \"#utility.yul\":432:435   */\n      dup3\n        /* \"#utility.yul\":428:442   */\n      add\n        /* \"#utility.yul\":420:442   */\n      swap1\n      pop\n        /* \"#utility.yul\":317:449   */\n      swap2\n      swap1\n      pop\n      jump\t// out\n        /* \"#utility.yul\":455:532   */\n    tag_380:\n        /* \"#utility.yul\":492:499   */\n      0x00\n        /* \"#utility.yul\":521:526   */\n      dup2\n        /* \"#utility.yul\":510:526   */\n      swap1\n      pop\n        /* \"#utility.yul\":455:532   */\n      swap2\n      swap1\n      pop\n      jump\t// out\n        /* \"#utility.yul\":538:646   */\n    tag_381:\n        /* \"#utility.yul\":615:639   */\n      tag_491\n        /* \"#utility.yul\":633:638   */\n      dup2\n        /* \"#utility.yul\":615:639   */\n      tag_380\n      jump\t// in\n    tag_491:\n        /* \"#utility.yul\":610:613   */\n      dup3\n        /* \"#utility.yul\":603:640   */\n      mstore\n        /* \"#utility.yul\":538:646   */\n      pop\n      pop\n      jump\t// out\n        /* \"#utility.yul\":652:831   */\n    tag_382:\n        /* \"#utility.yul\":721:731   */\n      0x00\n        /* \"#utility.yul\":742:788   */\n      tag_493\n        /* \"#utility.yul\":784:787   */\n      dup4\n        /* \"#utility.yul\":776:782   */\n      dup4\n        /* \"#utility.yul\":742:788   */\n      tag_381\n      jump\t// in\n    tag_493:\n        /* \"#utility.yul\":820:824   */\n      0x20\n        /* \"#utility.yul\":815:818   */\n      dup4\n        /* \"#utility.yul\":811:825   */\n      add\n        /* \"#utility.yul\":797:825   */\n      swap1\n      pop\n        /* \"#utility.yul\":652:831   */\n      swap3\n      swap2\n      pop\n      pop\n      jump\t// out\n        /* \"#utility.yul\":837:950   */\n    tag_383:\n        /* \"#utility.yul\":907:911   */\n      0x00\n        /* \"#utility.yul\":939:943   */\n      0x20\n        /* \"#utility.yul\":934:937   */\n      dup3\n        /* \"#utility.yul\":930:944   */\n      add\n        /* \"#utility.yul\":922:944   */\n      swap1\n      pop\n        /* \"#utility.yul\":837:950   */\n      swap2\n      swap1\n      pop\n      jump\t// out\n        /* \"#utility.yul\":986:1718   */\n    tag_384:\n        /* \"#utility.yul\":1105:1108   */\n      0x00\n        /* \"#utility.yul\":1134:1188   */\n      tag_496\n        /* \"#utility.yul\":1182:1187   */\n      dup3\n        /* \"#utility.yul\":1134:1188   */\n      tag_377\n      jump\t// in\n    tag_496:\n        /* \"#utility.yul\":1204:1290   */\n      tag_497\n        /* \"#utility.yul\":1283:1289   */\n      dup2\n        /* \"#utility.yul\":1278:1281   */\n      dup6\n        /* \"#utility.yul\":1204:1290   */\n      tag_378\n      jump\t// in\n    tag_497:\n        /* \"#utility.yul\":1197:1290   */\n      swap4\n      pop\n        /* \"#utility.yul\":1314:1370   */\n      tag_498\n        /* \"#utility.yul\":1364:1369   */\n      dup4\n        /* \"#utility.yul\":1314:1370   */\n      tag_379\n      jump\t// in\n    tag_498:\n        /* \"#utility.yul\":1393:1400   */\n      dup1\n        /* \"#utility.yul\":1424:1425   */\n      0x00\n        /* \"#utility.yul\":1409:1693   */\n    tag_499:\n        /* \"#utility.yul\":1434:1440   */\n      dup4\n        /* \"#utility.yul\":1431:1432   */\n      dup2\n        /* \"#utility.yul\":1428:1441   */\n      lt\n        /* \"#utility.yul\":1409:1693   */\n      iszero\n      tag_501\n      jumpi\n        /* \"#utility.yul\":1510:1516   */\n      dup2\n        /* \"#utility.yul\":1504:1517   */\n      mload\n        /* \"#utility.yul\":1537:1600   */\n      tag_502\n        /* \"#utility.yul\":1596:1599   */\n      dup9\n        /* \"#utility.yul\":1581:1594   */\n      dup3\n        /* \"#utility.yul\":1537:1600   */\n      tag_382\n      jump\t// in\n    tag_502:\n        /* \"#utility.yul\":1530:1600   */\n      swap8\n      pop\n        /* \"#utility.yul\":1623:1683   */\n      tag_503\n        /* \"#utility.yul\":1676:1682   */\n      dup4\n        /* \"#utility.yul\":1623:1683   */\n      tag_383\n      jump\t// in\n    tag_503:\n        /* \"#utility.yul\":1613:1683   */\n      swap3\n      pop\n        /* \"#utility.yul\":1469:1693   */\n      pop\n        /* \"#utility.yul\":1456:1457   */\n      0x01\n        /* \"#utility.yul\":1453:1454   */\n      dup2\n        /* \"#utility.yul\":1449:1458   */\n      add\n        /* \"#utility.yul\":1444:1458   */\n      swap1\n      pop\n        /* \"#utility.yul\":1409:1693   */\n      jump(tag_499)\n    tag_501:\n        /* \"#utility.yul\":1413:1427   */\n      pop\n        /* \"#utility.yul\":1709:1712   */\n      dup6\n        /* \"#utility.yul\":1702:1712   */\n      swap4\n      pop\n        /* \"#utility.yul\":1110:1718   */\n      pop\n      pop\n      pop\n        /* \"#utility.yul\":986:1718   */\n      swap3\n      swap2\n      pop\n      pop\n      jump\t// out\n        /* \"#utility.yul\":1724:2097   */\n    tag_35:\n        /* \"#utility.yul\":1867:1871   */\n      0x00\n        /* \"#utility.yul\":1905:1907   */\n      0x20\n        /* \"#utility.yul\":1894:1903   */\n      dup3\n        /* \"#utility.yul\":1890:1908   */\n      add\n        /* \"#utility.yul\":1882:1908   */\n      swap1\n      pop\n        /* \"#utility.yul\":1954:1963   */\n      dup2\n        /* \"#utility.yul\":1948:1952   */\n      dup2\n        /* \"#utility.yul\":1944:1964   */\n      sub\n        /* \"#utility.yul\":1940:1941   */\n      0x00\n        /* \"#utility.yul\":1929:1938   */\n      dup4\n        /* \"#utility.yul\":1925:1942   */\n      add\n        /* \"#utility.yul\":1918:1965   */\n      mstore\n        /* \"#utility.yul\":1982:2090   */\n      tag_505\n        /* \"#utility.yul\":2085:2089   */\n      dup2\n        /* \"#utility.yul\":2076:2082   */\n      dup5\n        /* \"#utility.yul\":1982:2090   */\n      tag_384\n      jump\t// in\n    tag_505:\n        /* \"#utility.yul\":1974:2090   */\n      swap1\n      pop\n        /* \"#utility.yul\":1724:2097   */\n      swap3\n      swap2\n      pop\n      pop\n      jump\t// out\n        /* \"#utility.yul\":2103:2178   */\n    tag_385:\n        /* \"#utility.yul\":2136:2142   */\n      0x00\n        /* \"#utility.yul\":2169:2171   */\n      0x40\n        /* \"#utility.yul\":2163:2172   */\n      mload\n        /* \"#utility.yul\":2153:2172   */\n      swap1\n      pop\n        /* \"#utility.yul\":2103:2178   */\n      swap1\n      jump\t// out\n        /* \"#utility.yul\":2184:2301   */\n    tag_386:\n        /* \"#utility.yul\":2293:2294   */\n      0x00\n        /* \"#utility.yul\":2290:2291   */\n      0x00\n        /* \"#utility.yul\":2283:2295   */\n      revert\n        /* \"#utility.yul\":2307:2424   */\n    tag_387:\n        /* \"#utility.yul\":2416:2417   */\n      0x00\n        /* \"#utility.yul\":2413:2414   */\n      0x00\n        /* \"#utility.yul\":2406:2418   */\n      revert\n        /* \"#utility.yul\":2430:2552   */\n    tag_388:\n        /* \"#utility.yul\":2503:2527   */\n      tag_510\n        /* \"#utility.yul\":2521:2526   */\n      dup2\n        /* \"#utility.yul\":2503:2527   */\n      tag_380\n      jump\t// in\n    tag_510:\n        /* \"#utility.yul\":2496:2501   */\n      dup2\n        /* \"#utility.yul\":2493:2528   */\n      eq\n        /* \"#utility.yul\":2483:2546   */\n      tag_511\n      jumpi\n        /* \"#utility.yul\":2542:2543   */\n      0x00\n        /* \"#utility.yul\":2539:2540   */\n      0x00\n        /* \"#utility.yul\":2532:2544   */\n      revert\n        /* \"#utility.yul\":2483:2546   */\n    tag_511:\n        /* \"#utility.yul\":2430:2552   */\n      pop\n      jump\t// out\n        /* \"#utility.yul\":2558:2697   */\n    tag_389:\n        /* \"#utility.yul\":2604:2609   */\n      0x00\n        /* \"#utility.yul\":2642:2648   */\n      dup2\n        /* \"#utility.yul\":2629:2649   */\n      calldataload\n        /* \"#utility.yul\":2620:2649   */\n      swap1\n      pop\n        /* \"#utility.yul\":2658:2691   */\n      tag_513\n        /* \"#utility.yul\":2685:2690   */\n      dup2\n        /* \"#utility.yul\":2658:2691   */\n      tag_388\n      jump\t// in\n    tag_513:\n        /* \"#utility.yul\":2558:2697   */\n      swap3\n      swap2\n      pop\n      pop\n      jump\t// out\n        /* \"#utility.yul\":2703:3032   */\n    tag_39:\n        /* \"#utility.yul\":2762:2768   */\n      0x00\n        /* \"#utility.yul\":2811:2813   */\n      0x20\n        /* \"#utility.yul\":2799:2808   */\n      dup3\n        /* \"#utility.yul\":2790:2797   */\n      dup5\n        /* \"#utility.yul\":2786:2809   */\n      sub\n        /* \"#utility.yul\":2782:2814   */\n      slt\n        /* \"#utility.yul\":2779:2898   */\n      iszero\n      tag_515\n      jumpi\n        /* \"#utility.yul\":2817:2896   */\n      tag_516\n      tag_386\n      jump\t// in\n    tag_516:\n        /* \"#utility.yul\":2779:2898   */\n    tag_515:\n        /* \"#utility.yul\":2937:2938   */\n      0x00\n        /* \"#utility.yul\":2962:3015   */\n      tag_517\n        /* \"#utility.yul\":3007:3014   */\n      dup5\n        /* \"#utility.yul\":2998:3004   */\n      dup3\n        /* \"#utility.yul\":2987:2996   */\n      dup6\n        /* \"#utility.yul\":2983:3005   */\n      add\n        /* \"#utility.yul\":2962:3015   */\n      tag_389\n      jump\t// in\n    tag_517:\n        /* \"#utility.yul\":2952:3015   */\n      swap2\n      pop\n        /* \"#utility.yul\":2908:3025   */\n      pop\n        /* \"#utility.yul\":2703:3032   */\n      swap3\n      swap2\n      pop\n      pop\n      jump\t// out\n        /* \"#utility.yul\":3038:3156   */\n    tag_390:\n        /* \"#utility.yul\":3125:3149   */\n      tag_519\n        /* \"#utility.yul\":3143:3148   */\n      dup2\n        /* \"#utility.yul\":3125:3149   */\n      tag_380\n      jump\t// in\n    tag_519:\n        /* \"#utility.yul\":3120:3123   */\n      dup3\n        /* \"#utility.yul\":3113:3150   */\n      mstore\n        /* \"#utility.yul\":3038:3156   */\n      pop\n      pop\n      jump\t// out\n        /* \"#utility.yul\":3162:3288   */\n    tag_391:\n        /* \"#utility.yul\":3199:3206   */\n      0x00\n        /* \"#utility.yul\":3239:3281   */\n      0xffffffffffffffffffffffffffffffffffffffff\n        /* \"#utility.yul\":3232:3237   */\n      dup3\n        /* \"#utility.yul\":3228:3282   */\n      and\n        /* \"#utility.yul\":3217:3282   */\n      swap1\n      pop\n        /* \"#utility.yul\":3162:3288   */\n      swap2\n      swap1\n      pop\n      jump\t// out\n        /* \"#utility.yul\":3294:3390   */\n    tag_392:\n        /* \"#utility.yul\":3331:3338   */\n      0x00\n        /* \"#utility.yul\":3360:3384   */\n      tag_522\n        /* \"#utility.yul\":3378:3383   */\n      dup3\n        /* \"#utility.yul\":3360:3384   */\n      tag_391\n      jump\t// in\n    tag_522:\n        /* \"#utility.yul\":3349:3384   */\n      swap1\n      pop\n        /* \"#utility.yul\":3294:3390   */\n      swap2\n      swap1\n      pop\n      jump\t// out\n        /* \"#utility.yul\":3396:3514   */\n    tag_393:\n        /* \"#utility.yul\":3483:3507   */\n      tag_524\n        /* \"#utility.yul\":3501:3506   */\n      dup2\n        /* \"#utility.yul\":3483:3507   */\n      tag_392\n      jump\t// in\n    tag_524:\n        /* \"#utility.yul\":3478:3481   */\n      dup3\n        /* \"#utility.yul\":3471:3508   */\n      mstore\n        /* \"#utility.yul\":3396:3514   */\n      pop\n      pop\n      jump\t// out\n        /* \"#utility.yul\":3520:3619   */\n    tag_394:\n        /* \"#utility.yul\":3572:3578   */\n      0x00\n        /* \"#utility.yul\":3606:3611   */\n      dup2\n        /* \"#utility.yul\":3600:3612   */\n      mload\n        /* \"#utility.yul\":3590:3612   */\n      swap1\n      pop\n        /* \"#utility.yul\":3520:3619   */\n      swap2\n      swap1\n      pop\n      jump\t// out\n        /* \"#utility.yul\":3625:3794   */\n    tag_395:\n        /* \"#utility.yul\":3709:3720   */\n      0x00\n        /* \"#utility.yul\":3743:3749   */\n      dup3\n        /* \"#utility.yul\":3738:3741   */\n      dup3\n        /* \"#utility.yul\":3731:3750   */\n      mstore\n        /* \"#utility.yul\":3783:3787   */\n      0x20\n        /* \"#utility.yul\":3778:3781   */\n      dup3\n        /* \"#utility.yul\":3774:3788   */\n      add\n        /* \"#utility.yul\":3759:3788   */\n      swap1\n      pop\n        /* \"#utility.yul\":3625:3794   */\n      swap3\n      swap2\n      pop\n      pop\n      jump\t// out\n        /* \"#utility.yul\":3800:3939   */\n    tag_396:\n        /* \"#utility.yul\":3889:3895   */\n      dup3\n        /* \"#utility.yul\":3884:3887   */\n      dup2\n        /* \"#utility.yul\":3879:3882   */\n      dup4\n        /* \"#utility.yul\":3873:3896   */\n      mcopy\n        /* \"#utility.yul\":3930:3931   */\n      0x00\n        /* \"#utility.yul\":3921:3927   */\n      dup4\n        /* \"#utility.yul\":3916:3919   */\n      dup4\n        /* \"#utility.yul\":3912:3928   */\n      add\n        /* \"#utility.yul\":3905:3932   */\n      mstore\n        /* \"#utility.yul\":3800:3939   */\n      pop\n      pop\n      pop\n      jump\t// out\n        /* \"#utility.yul\":3945:4047   */\n    tag_397:\n        /* \"#utility.yul\":3986:3992   */\n      0x00\n        /* \"#utility.yul\":4037:4039   */\n      0x1f\n        /* \"#utility.yul\":4033:4040   */\n      not\n        /* \"#utility.yul\":4028:4030   */\n      0x1f\n        /* \"#utility.yul\":4021:4026   */\n      dup4\n        /* \"#utility.yul\":4017:4031   */\n      add\n        /* \"#utility.yul\":4013:4041   */\n      and\n        /* \"#utility.yul\":4003:4041   */\n      swap1\n      pop\n        /* \"#utility.yul\":3945:4047   */\n      swap2\n      swap1\n      pop\n      jump\t// out\n        /* \"#utility.yul\":4053:4430   */\n    tag_398:\n        /* \"#utility.yul\":4141:4144   */\n      0x00\n        /* \"#utility.yul\":4169:4208   */\n      tag_530\n        /* \"#utility.yul\":4202:4207   */\n      dup3\n        /* \"#utility.yul\":4169:4208   */\n      tag_394\n      jump\t// in\n    tag_530:\n        /* \"#utility.yul\":4224:4295   */\n      tag_531\n        /* \"#utility.yul\":4288:4294   */\n      dup2\n        /* \"#utility.yul\":4283:4286   */\n      dup6\n        /* \"#utility.yul\":4224:4295   */\n      tag_395\n      jump\t// in\n    tag_531:\n        /* \"#utility.yul\":4217:4295   */\n      swap4\n      pop\n        /* \"#utility.yul\":4304:4369   */\n      tag_532\n        /* \"#utility.yul\":4362:4368   */\n      dup2\n        /* \"#utility.yul\":4357:4360   */\n      dup6\n        /* \"#utility.yul\":4350:4354   */\n      0x20\n        /* \"#utility.yul\":4343:4348   */\n      dup7\n        /* \"#utility.yul\":4339:4355   */\n      add\n        /* \"#utility.yul\":4304:4369   */\n      tag_396\n      jump\t// in\n    tag_532:\n        /* \"#utility.yul\":4394:4423   */\n      tag_533\n        /* \"#utility.yul\":4416:4422   */\n      dup2\n        /* \"#utility.yul\":4394:4423   */\n      tag_397\n      jump\t// in\n    tag_533:\n        /* \"#utility.yul\":4389:4392   */\n      dup5\n        /* \"#utility.yul\":4385:4424   */\n      add\n        /* \"#utility.yul\":4378:4424   */\n      swap2\n      pop\n        /* \"#utility.yul\":4145:4430   */\n      pop\n        /* \"#utility.yul\":4053:4430   */\n      swap3\n      swap2\n      pop\n      pop\n      jump\t// out\n        /* \"#utility.yul\":4436:4526   */\n    tag_399:\n        /* \"#utility.yul\":4470:4477   */\n      0x00\n        /* \"#utility.yul\":4513:4518   */\n      dup2\n        /* \"#utility.yul\":4506:4519   */\n      iszero\n        /* \"#utility.yul\":4499:4520   */\n      iszero\n        /* \"#utility.yul\":4488:4520   */\n      swap1\n      pop\n        /* \"#utility.yul\":4436:4526   */\n      swap2\n      swap1\n      pop\n      jump\t// out\n        /* \"#utility.yul\":4532:4641   */\n    tag_400:\n        /* \"#utility.yul\":4613:4634   */\n      tag_536\n        /* \"#utility.yul\":4628:4633   */\n      dup2\n        /* \"#utility.yul\":4613:4634   */\n      tag_399\n      jump\t// in\n    tag_536:\n        /* \"#utility.yul\":4608:4611   */\n      dup3\n        /* \"#utility.yul\":4601:4635   */\n      mstore\n        /* \"#utility.yul\":4532:4641   */\n      pop\n      pop\n      jump\t// out\n        /* \"#utility.yul\":4647:6171   */\n    tag_42:\n        /* \"#utility.yul\":5064:5068   */\n      0x00\n        /* \"#utility.yul\":5102:5105   */\n      0x0180\n        /* \"#utility.yul\":5091:5100   */\n      dup3\n        /* \"#utility.yul\":5087:5106   */\n      add\n        /* \"#utility.yul\":5079:5106   */\n      swap1\n      pop\n        /* \"#utility.yul\":5116:5187   */\n      tag_538\n        /* \"#utility.yul\":5184:5185   */\n      0x00\n        /* \"#utility.yul\":5173:5182   */\n      dup4\n        /* \"#utility.yul\":5169:5186   */\n      add\n        /* \"#utility.yul\":5160:5166   */\n      dup16\n        /* \"#utility.yul\":5116:5187   */\n      tag_390\n      jump\t// in\n    tag_538:\n        /* \"#utility.yul\":5197:5269   */\n      tag_539\n        /* \"#utility.yul\":5265:5267   */\n      0x20\n        /* \"#utility.yul\":5254:5263   */\n      dup4\n        /* \"#utility.yul\":5250:5268   */\n      add\n        /* \"#utility.yul\":5241:5247   */\n      dup15\n        /* \"#utility.yul\":5197:5269   */\n      tag_393\n      jump\t// in\n    tag_539:\n        /* \"#utility.yul\":5316:5325   */\n      dup2\n        /* \"#utility.yul\":5310:5314   */\n      dup2\n        /* \"#utility.yul\":5306:5326   */\n      sub\n        /* \"#utility.yul\":5301:5303   */\n      0x40\n        /* \"#utility.yul\":5290:5299   */\n      dup4\n        /* \"#utility.yul\":5286:5304   */\n      add\n        /* \"#utility.yul\":5279:5327   */\n      mstore\n        /* \"#utility.yul\":5344:5422   */\n      tag_540\n        /* \"#utility.yul\":5417:5421   */\n      dup2\n        /* \"#utility.yul\":5408:5414   */\n      dup14\n        /* \"#utility.yul\":5344:5422   */\n      tag_398\n      jump\t// in\n    tag_540:\n        /* \"#utility.yul\":5336:5422   */\n      swap1\n      pop\n        /* \"#utility.yul\":5432:5504   */\n      tag_541\n        /* \"#utility.yul\":5500:5502   */\n      0x60\n        /* \"#utility.yul\":5489:5498   */\n      dup4\n        /* \"#utility.yul\":5485:5503   */\n      add\n        /* \"#utility.yul\":5476:5482   */\n      dup13\n        /* \"#utility.yul\":5432:5504   */\n      tag_390\n      jump\t// in\n    tag_541:\n        /* \"#utility.yul\":5514:5587   */\n      tag_542\n        /* \"#utility.yul\":5582:5585   */\n      0x80\n        /* \"#utility.yul\":5571:5580   */\n      dup4\n        /* \"#utility.yul\":5567:5586   */\n      add\n        /* \"#utility.yul\":5558:5564   */\n      dup12\n        /* \"#utility.yul\":5514:5587   */\n      tag_390\n      jump\t// in\n    tag_542:\n        /* \"#utility.yul\":5597:5670   */\n      tag_543\n        /* \"#utility.yul\":5665:5668   */\n      0xa0\n        /* \"#utility.yul\":5654:5663   */\n      dup4\n        /* \"#utility.yul\":5650:5669   */\n      add\n        /* \"#utility.yul\":5641:5647   */\n      dup11\n        /* \"#utility.yul\":5597:5670   */\n      tag_390\n      jump\t// in\n    tag_543:\n        /* \"#utility.yul\":5680:5753   */\n      tag_544\n        /* \"#utility.yul\":5748:5751   */\n      0xc0\n        /* \"#utility.yul\":5737:5746   */\n      dup4\n        /* \"#utility.yul\":5733:5752   */\n      add\n        /* \"#utility.yul\":5724:5730   */\n      dup10\n        /* \"#utility.yul\":5680:5753   */\n      tag_390\n      jump\t// in\n    tag_544:\n        /* \"#utility.yul\":5763:5836   */\n      tag_545\n        /* \"#utility.yul\":5831:5834   */\n      0xe0\n        /* \"#utility.yul\":5820:5829   */\n      dup4\n        /* \"#utility.yul\":5816:5835   */\n      add\n        /* \"#utility.yul\":5807:5813   */\n      dup9\n        /* \"#utility.yul\":5763:5836   */\n      tag_390\n      jump\t// in\n    tag_545:\n        /* \"#utility.yul\":5846:5919   */\n      tag_546\n        /* \"#utility.yul\":5914:5917   */\n      0x0100\n        /* \"#utility.yul\":5903:5912   */\n      dup4\n        /* \"#utility.yul\":5899:5918   */\n      add\n        /* \"#utility.yul\":5890:5896   */\n      dup8\n        /* \"#utility.yul\":5846:5919   */\n      tag_390\n      jump\t// in\n    tag_546:\n        /* \"#utility.yul\":5929:5996   */\n      tag_547\n        /* \"#utility.yul\":5991:5994   */\n      0x0120\n        /* \"#utility.yul\":5980:5989   */\n      dup4\n        /* \"#utility.yul\":5976:5995   */\n      add\n        /* \"#utility.yul\":5967:5973   */\n      dup7\n        /* \"#utility.yul\":5929:5996   */\n      tag_400\n      jump\t// in\n    tag_547:\n        /* \"#utility.yul\":6006:6080   */\n      tag_548\n        /* \"#utility.yul\":6075:6078   */\n      0x0140\n        /* \"#utility.yul\":6064:6073   */\n      dup4\n        /* \"#utility.yul\":6060:6079   */\n      add\n        /* \"#utility.yul\":6050:6057   */\n      dup6\n        /* \"#utility.yul\":6006:6080   */\n      tag_393\n      jump\t// in\n    tag_548:\n        /* \"#utility.yul\":6090:6164   */\n      tag_549\n        /* \"#utility.yul\":6159:6162   */\n      0x0160\n        /* \"#utility.yul\":6148:6157   */\n      dup4\n        /* \"#utility.yul\":6144:6163   */\n      add\n        /* \"#utility.yul\":6134:6141   */\n      dup5\n        /* \"#utility.yul\":6090:6164   */\n      tag_390\n      jump\t// in\n    tag_549:\n        /* \"#utility.yul\":4647:6171   */\n      swap14\n      swap13\n      pop\n      pop\n      pop\n      pop\n      pop\n      pop\n      pop\n      pop\n      pop\n      pop\n      pop\n      pop\n      pop\n      jump\t// out\n        /* \"#utility.yul\":6177:6299   */\n    tag_401:\n        /* \"#utility.yul\":6250:6274   */\n      tag_551\n        /* \"#utility.yul\":6268:6273   */\n      dup2\n        /* \"#utility.yul\":6250:6274   */\n      tag_392\n      jump\t// in\n    tag_551:\n        /* \"#utility.yul\":6243:6248   */\n      dup2\n        /* \"#utility.yul\":6240:6275   */\n      eq\n        /* \"#utility.yul\":6230:6293   */\n      tag_552\n      jumpi\n        /* \"#utility.yul\":6289:6290   */\n      0x00\n        /* \"#utility.yul\":6286:6287   */\n      0x00\n        /* \"#utility.yul\":6279:6291   */\n      revert\n        /* \"#utility.yul\":6230:6293   */\n    tag_552:\n        /* \"#utility.yul\":6177:6299   */\n      pop\n      jump\t// out\n        /* \"#utility.yul\":6305:6444   */\n    tag_402:\n        /* \"#utility.yul\":6351:6356   */\n      0x00\n        /* \"#utility.yul\":6389:6395   */\n      dup2\n        /* \"#utility.yul\":6376:6396   */\n      calldataload\n        /* \"#utility.yul\":6367:6396   */\n      swap1\n      pop\n        /* \"#utility.yul\":6405:6438   */\n      tag_554\n        /* \"#utility.yul\":6432:6437   */\n      dup2\n        /* \"#utility.yul\":6405:6438   */\n      tag_401\n      jump\t// in\n    tag_554:\n        /* \"#utility.yul\":6305:6444   */\n      swap3\n      swap2\n      pop\n      pop\n      jump\t// out\n        /* \"#utility.yul\":6450:6779   */\n    tag_49:\n        /* \"#utility.yul\":6509:6515   */\n      0x00\n        /* \"#utility.yul\":6558:6560   */\n      0x20\n        /* \"#utility.yul\":6546:6555   */\n      dup3\n        /* \"#utility.yul\":6537:6544   */\n      dup5\n        /* \"#utility.yul\":6533:6556   */\n      sub\n        /* \"#utility.yul\":6529:6561   */\n      slt\n        /* \"#utility.yul\":6526:6645   */\n      iszero\n      tag_556\n      jumpi\n        /* \"#utility.yul\":6564:6643   */\n      tag_557\n      tag_386\n      jump\t// in\n    tag_557:\n        /* \"#utility.yul\":6526:6645   */\n    tag_556:\n        /* \"#utility.yul\":6684:6685   */\n      0x00\n        /* \"#utility.yul\":6709:6762   */\n      tag_558\n        /* \"#utility.yul\":6754:6761   */\n      dup5\n        /* \"#utility.yul\":6745:6751   */\n      dup3\n        /* \"#utility.yul\":6734:6743   */\n      dup6\n        /* \"#utility.yul\":6730:6752   */\n      add\n        /* \"#utility.yul\":6709:6762   */\n      tag_402\n      jump\t// in\n    tag_558:\n        /* \"#utility.yul\":6699:6762   */\n      swap2\n      pop\n        /* \"#utility.yul\":6655:6772   */\n      pop\n        /* \"#utility.yul\":6450:6779   */\n      swap3\n      swap2\n      pop\n      pop\n      jump\t// out\n        /* \"#utility.yul\":6785:7227   */\n    tag_52:\n        /* \"#utility.yul\":6934:6938   */\n      0x00\n        /* \"#utility.yul\":6972:6974   */\n      0x60\n        /* \"#utility.yul\":6961:6970   */\n      dup3\n        /* \"#utility.yul\":6957:6975   */\n      add\n        /* \"#utility.yul\":6949:6975   */\n      swap1\n      pop\n        /* \"#utility.yul\":6985:7056   */\n      tag_560\n        /* \"#utility.yul\":7053:7054   */\n      0x00\n        /* \"#utility.yul\":7042:7051   */\n      dup4\n        /* \"#utility.yul\":7038:7055   */\n      add\n        /* \"#utility.yul\":7029:7035   */\n      dup7\n        /* \"#utility.yul\":6985:7056   */\n      tag_390\n      jump\t// in\n    tag_560:\n        /* \"#utility.yul\":7066:7138   */\n      tag_561\n        /* \"#utility.yul\":7134:7136   */\n      0x20\n        /* \"#utility.yul\":7123:7132   */\n      dup4\n        /* \"#utility.yul\":7119:7137   */\n      add\n        /* \"#utility.yul\":7110:7116   */\n      dup6\n        /* \"#utility.yul\":7066:7138   */\n      tag_390\n      jump\t// in\n    tag_561:\n        /* \"#utility.yul\":7148:7220   */\n      tag_562\n        /* \"#utility.yul\":7216:7218   */\n      0x40\n        /* \"#utility.yul\":7205:7214   */\n      dup4\n        /* \"#utility.yul\":7201:7219   */\n      add\n        /* \"#utility.yul\":7192:7198   */\n      dup5\n        /* \"#utility.yul\":7148:7220   */\n      tag_390\n      jump\t// in\n    tag_562:\n        /* \"#utility.yul\":6785:7227   */\n      swap5\n      swap4\n      pop\n      pop\n      pop\n      pop\n      jump\t// out\n        /* \"#utility.yul\":7233:7443   */\n    tag_58:\n        /* \"#utility.yul\":7320:7324   */\n      0x00\n        /* \"#utility.yul\":7358:7360   */\n      0x20\n        /* \"#utility.yul\":7347:7356   */\n      dup3\n        /* \"#utility.yul\":7343:7361   */\n      add\n        /* \"#utility.yul\":7335:7361   */\n      swap1\n      pop\n        /* \"#utility.yul\":7371:7436   */\n      tag_564\n        /* \"#utility.yul\":7433:7434   */\n      0x00\n        /* \"#utility.yul\":7422:7431   */\n      dup4\n        /* \"#utility.yul\":7418:7435   */\n      add\n        /* \"#utility.yul\":7409:7415   */\n      dup5\n        /* \"#utility.yul\":7371:7436   */\n      tag_400\n      jump\t// in\n    tag_564:\n        /* \"#utility.yul\":7233:7443   */\n      swap3\n      swap2\n      pop\n      pop\n      jump\t// out\n        /* \"#utility.yul\":7449:7557   */\n    tag_403:\n        /* \"#utility.yul\":7526:7550   */\n      tag_566\n        /* \"#utility.yul\":7544:7549   */\n      dup2\n        /* \"#utility.yul\":7526:7550   */\n      tag_392\n      jump\t// in\n    tag_566:\n        /* \"#utility.yul\":7521:7524   */\n      dup3\n        /* \"#utility.yul\":7514:7551   */\n      mstore\n        /* \"#utility.yul\":7449:7557   */\n      pop\n      pop\n      jump\t// out\n        /* \"#utility.yul\":7563:7722   */\n    tag_404:\n        /* \"#utility.yul\":7637:7648   */\n      0x00\n        /* \"#utility.yul\":7671:7677   */\n      dup3\n        /* \"#utility.yul\":7666:7669   */\n      dup3\n        /* \"#utility.yul\":7659:7678   */\n      mstore\n        /* \"#utility.yul\":7711:7715   */\n      0x20\n        /* \"#utility.yul\":7706:7709   */\n      dup3\n        /* \"#utility.yul\":7702:7716   */\n      add\n        /* \"#utility.yul\":7687:7716   */\n      swap1\n      pop\n        /* \"#utility.yul\":7563:7722   */\n      swap3\n      swap2\n      pop\n      pop\n      jump\t// out\n        /* \"#utility.yul\":7728:8085   */\n    tag_405:\n        /* \"#utility.yul\":7806:7809   */\n      0x00\n        /* \"#utility.yul\":7834:7873   */\n      tag_569\n        /* \"#utility.yul\":7867:7872   */\n      dup3\n        /* \"#utility.yul\":7834:7873   */\n      tag_394\n      jump\t// in\n    tag_569:\n        /* \"#utility.yul\":7889:7950   */\n      tag_570\n        /* \"#utility.yul\":7943:7949   */\n      dup2\n        /* \"#utility.yul\":7938:7941   */\n      dup6\n        /* \"#utility.yul\":7889:7950   */\n      tag_404\n      jump\t// in\n    tag_570:\n        /* \"#utility.yul\":7882:7950   */\n      swap4\n      pop\n        /* \"#utility.yul\":7959:8024   */\n      tag_571\n        /* \"#utility.yul\":8017:8023   */\n      dup2\n        /* \"#utility.yul\":8012:8015   */\n      dup6\n        /* \"#utility.yul\":8005:8009   */\n      0x20\n        /* \"#utility.yul\":7998:8003   */\n      dup7\n        /* \"#utility.yul\":7994:8010   */\n      add\n        /* \"#utility.yul\":7959:8024   */\n      tag_396\n      jump\t// in\n    tag_571:\n        /* \"#utility.yul\":8049:8078   */\n      tag_572\n        /* \"#utility.yul\":8071:8077   */\n      dup2\n        /* \"#utility.yul\":8049:8078   */\n      tag_397\n      jump\t// in\n    tag_572:\n        /* \"#utility.yul\":8044:8047   */\n      dup5\n        /* \"#utility.yul\":8040:8079   */\n      add\n        /* \"#utility.yul\":8033:8079   */\n      swap2\n      pop\n        /* \"#utility.yul\":7810:8085   */\n      pop\n        /* \"#utility.yul\":7728:8085   */\n      swap3\n      swap2\n      pop\n      pop\n      jump\t// out\n        /* \"#utility.yul\":8091:8190   */\n    tag_406:\n        /* \"#utility.yul\":8162:8183   */\n      tag_574\n        /* \"#utility.yul\":8177:8182   */\n      dup2\n        /* \"#utility.yul\":8162:8183   */\n      tag_399\n      jump\t// in\n    tag_574:\n        /* \"#utility.yul\":8157:8160   */\n      dup3\n        /* \"#utility.yul\":8150:8184   */\n      mstore\n        /* \"#utility.yul\":8091:8190   */\n      pop\n      pop\n      jump\t// out\n        /* \"#utility.yul\":8196:8310   */\n    tag_407:\n        /* \"#utility.yul\":8263:8269   */\n      0x00\n        /* \"#utility.yul\":8297:8302   */\n      dup2\n        /* \"#utility.yul\":8291:8303   */\n      mload\n        /* \"#utility.yul\":8281:8303   */\n      swap1\n      pop\n        /* \"#utility.yul\":8196:8310   */\n      swap2\n      swap1\n      pop\n      jump\t// out\n        /* \"#utility.yul\":8316:8490   */\n    tag_408:\n        /* \"#utility.yul\":8405:8416   */\n      0x00\n        /* \"#utility.yul\":8439:8445   */\n      dup3\n        /* \"#utility.yul\":8434:8437   */\n      dup3\n        /* \"#utility.yul\":8427:8446   */\n      mstore\n        /* \"#utility.yul\":8479:8483   */\n      0x20\n        /* \"#utility.yul\":8474:8477   */\n      dup3\n        /* \"#utility.yul\":8470:8484   */\n      add\n        /* \"#utility.yul\":8455:8484   */\n      swap1\n      pop\n        /* \"#utility.yul\":8316:8490   */\n      swap3\n      swap2\n      pop\n      pop\n      jump\t// out\n        /* \"#utility.yul\":8496:8628   */\n    tag_409:\n        /* \"#utility.yul\":8563:8567   */\n      0x00\n        /* \"#utility.yul\":8586:8589   */\n      dup2\n        /* \"#utility.yul\":8578:8589   */\n      swap1\n      pop\n        /* \"#utility.yul\":8616:8620   */\n      0x20\n        /* \"#utility.yul\":8611:8614   */\n      dup3\n        /* \"#utility.yul\":8607:8621   */\n      add\n        /* \"#utility.yul\":8599:8621   */\n      swap1\n      pop\n        /* \"#utility.yul\":8496:8628   */\n      swap2\n      swap1\n      pop\n      jump\t// out\n        /* \"#utility.yul\":8634:8813   */\n    tag_410:\n        /* \"#utility.yul\":8703:8713   */\n      0x00\n        /* \"#utility.yul\":8724:8770   */\n      tag_579\n        /* \"#utility.yul\":8766:8769   */\n      dup4\n        /* \"#utility.yul\":8758:8764   */\n      dup4\n        /* \"#utility.yul\":8724:8770   */\n      tag_403\n      jump\t// in\n    tag_579:\n        /* \"#utility.yul\":8802:8806   */\n      0x20\n        /* \"#utility.yul\":8797:8800   */\n      dup4\n        /* \"#utility.yul\":8793:8807   */\n      add\n        /* \"#utility.yul\":8779:8807   */\n      swap1\n      pop\n        /* \"#utility.yul\":8634:8813   */\n      swap3\n      swap2\n      pop\n      pop\n      jump\t// out\n        /* \"#utility.yul\":8819:8932   */\n    tag_411:\n        /* \"#utility.yul\":8889:8893   */\n      0x00\n        /* \"#utility.yul\":8921:8925   */\n      0x20\n        /* \"#utility.yul\":8916:8919   */\n      dup3\n        /* \"#utility.yul\":8912:8926   */\n      add\n        /* \"#utility.yul\":8904:8926   */\n      swap1\n      pop\n        /* \"#utility.yul\":8819:8932   */\n      swap2\n      swap1\n      pop\n      jump\t// out\n        /* \"#utility.yul\":8968:9680   */\n    tag_412:\n        /* \"#utility.yul\":9077:9080   */\n      0x00\n        /* \"#utility.yul\":9106:9160   */\n      tag_582\n        /* \"#utility.yul\":9154:9159   */\n      dup3\n        /* \"#utility.yul\":9106:9160   */\n      tag_407\n      jump\t// in\n    tag_582:\n        /* \"#utility.yul\":9176:9252   */\n      tag_583\n        /* \"#utility.yul\":9245:9251   */\n      dup2\n        /* \"#utility.yul\":9240:9243   */\n      dup6\n        /* \"#utility.yul\":9176:9252   */\n      tag_408\n      jump\t// in\n    tag_583:\n        /* \"#utility.yul\":9169:9252   */\n      swap4\n      pop\n        /* \"#utility.yul\":9276:9332   */\n      tag_584\n        /* \"#utility.yul\":9326:9331   */\n      dup4\n        /* \"#utility.yul\":9276:9332   */\n      tag_409\n      jump\t// in\n    tag_584:\n        /* \"#utility.yul\":9355:9362   */\n      dup1\n        /* \"#utility.yul\":9386:9387   */\n      0x00\n        /* \"#utility.yul\":9371:9655   */\n    tag_585:\n        /* \"#utility.yul\":9396:9402   */\n      dup4\n        /* \"#utility.yul\":9393:9394   */\n      dup2\n        /* \"#utility.yul\":9390:9403   */\n      lt\n        /* \"#utility.yul\":9371:9655   */\n      iszero\n      tag_587\n      jumpi\n        /* \"#utility.yul\":9472:9478   */\n      dup2\n        /* \"#utility.yul\":9466:9479   */\n      mload\n        /* \"#utility.yul\":9499:9562   */\n      tag_588\n        /* \"#utility.yul\":9558:9561   */\n      dup9\n        /* \"#utility.yul\":9543:9556   */\n      dup3\n        /* \"#utility.yul\":9499:9562   */\n      tag_410\n      jump\t// in\n    tag_588:\n        /* \"#utility.yul\":9492:9562   */\n      swap8\n      pop\n        /* \"#utility.yul\":9585:9645   */\n      tag_589\n        /* \"#utility.yul\":9638:9644   */\n      dup4\n        /* \"#utility.yul\":9585:9645   */\n      tag_411\n      jump\t// in\n    tag_589:\n        /* \"#utility.yul\":9575:9645   */\n      swap3\n      pop\n        /* \"#utility.yul\":9431:9655   */\n      pop\n        /* \"#utility.yul\":9418:9419   */\n      0x01\n        /* \"#utility.yul\":9415:9416   */\n      dup2\n        /* \"#utility.yul\":9411:9420   */\n      add\n        /* \"#utility.yul\":9406:9420   */\n      swap1\n      pop\n        /* \"#utility.yul\":9371:9655   */\n      jump(tag_585)\n    tag_587:\n        /* \"#utility.yul\":9375:9389   */\n      pop\n        /* \"#utility.yul\":9671:9674   */\n      dup6\n        /* \"#utility.yul\":9664:9674   */\n      swap4\n      pop\n        /* \"#utility.yul\":9082:9680   */\n      pop\n      pop\n      pop\n        /* \"#utility.yul\":8968:9680   */\n      swap3\n      swap2\n      pop\n      pop\n      jump\t// out\n        /* \"#utility.yul\":9764:12462   */\n    tag_413:\n        /* \"#utility.yul\":9891:9894   */\n      0x00\n        /* \"#utility.yul\":9927:9933   */\n      0x01a0\n        /* \"#utility.yul\":9922:9925   */\n      dup4\n        /* \"#utility.yul\":9918:9934   */\n      add\n        /* \"#utility.yul\":10014:10018   */\n      0x00\n        /* \"#utility.yul\":10007:10012   */\n      dup4\n        /* \"#utility.yul\":10003:10019   */\n      add\n        /* \"#utility.yul\":9997:10020   */\n      mload\n        /* \"#utility.yul\":10033:10096   */\n      tag_591\n        /* \"#utility.yul\":10090:10094   */\n      0x00\n        /* \"#utility.yul\":10085:10088   */\n      dup7\n        /* \"#utility.yul\":10081:10095   */\n      add\n        /* \"#utility.yul\":10067:10079   */\n      dup3\n        /* \"#utility.yul\":10033:10096   */\n      tag_381\n      jump\t// in\n    tag_591:\n        /* \"#utility.yul\":9944:10106   */\n      pop\n        /* \"#utility.yul\":10191:10195   */\n      0x20\n        /* \"#utility.yul\":10184:10189   */\n      dup4\n        /* \"#utility.yul\":10180:10196   */\n      add\n        /* \"#utility.yul\":10174:10197   */\n      mload\n        /* \"#utility.yul\":10210:10273   */\n      tag_592\n        /* \"#utility.yul\":10267:10271   */\n      0x20\n        /* \"#utility.yul\":10262:10265   */\n      dup7\n        /* \"#utility.yul\":10258:10272   */\n      add\n        /* \"#utility.yul\":10244:10256   */\n      dup3\n        /* \"#utility.yul\":10210:10273   */\n      tag_403\n      jump\t// in\n    tag_592:\n        /* \"#utility.yul\":10116:10283   */\n      pop\n        /* \"#utility.yul\":10365:10369   */\n      0x40\n        /* \"#utility.yul\":10358:10363   */\n      dup4\n        /* \"#utility.yul\":10354:10370   */\n      add\n        /* \"#utility.yul\":10348:10371   */\n      mload\n        /* \"#utility.yul\":10418:10421   */\n      dup5\n        /* \"#utility.yul\":10412:10416   */\n      dup3\n        /* \"#utility.yul\":10408:10422   */\n      sub\n        /* \"#utility.yul\":10401:10405   */\n      0x40\n        /* \"#utility.yul\":10396:10399   */\n      dup7\n        /* \"#utility.yul\":10392:10406   */\n      add\n        /* \"#utility.yul\":10385:10423   */\n      mstore\n        /* \"#utility.yul\":10444:10517   */\n      tag_593\n        /* \"#utility.yul\":10512:10516   */\n      dup3\n        /* \"#utility.yul\":10498:10510   */\n      dup3\n        /* \"#utility.yul\":10444:10517   */\n      tag_405\n      jump\t// in\n    tag_593:\n        /* \"#utility.yul\":10436:10517   */\n      swap2\n      pop\n        /* \"#utility.yul\":10293:10528   */\n      pop\n        /* \"#utility.yul\":10617:10621   */\n      0x60\n        /* \"#utility.yul\":10610:10615   */\n      dup4\n        /* \"#utility.yul\":10606:10622   */\n      add\n        /* \"#utility.yul\":10600:10623   */\n      mload\n        /* \"#utility.yul\":10636:10699   */\n      tag_594\n        /* \"#utility.yul\":10693:10697   */\n      0x60\n        /* \"#utility.yul\":10688:10691   */\n      dup7\n        /* \"#utility.yul\":10684:10698   */\n      add\n        /* \"#utility.yul\":10670:10682   */\n      dup3\n        /* \"#utility.yul\":10636:10699   */\n      tag_381\n      jump\t// in\n    tag_594:\n        /* \"#utility.yul\":10538:10709   */\n      pop\n        /* \"#utility.yul\":10797:10801   */\n      0x80\n        /* \"#utility.yul\":10790:10795   */\n      dup4\n        /* \"#utility.yul\":10786:10802   */\n      add\n        /* \"#utility.yul\":10780:10803   */\n      mload\n        /* \"#utility.yul\":10816:10879   */\n      tag_595\n        /* \"#utility.yul\":10873:10877   */\n      0x80\n        /* \"#utility.yul\":10868:10871   */\n      dup7\n        /* \"#utility.yul\":10864:10878   */\n      add\n        /* \"#utility.yul\":10850:10862   */\n      dup3\n        /* \"#utility.yul\":10816:10879   */\n      tag_381\n      jump\t// in\n    tag_595:\n        /* \"#utility.yul\":10719:10889   */\n      pop\n        /* \"#utility.yul\":10978:10982   */\n      0xa0\n        /* \"#utility.yul\":10971:10976   */\n      dup4\n        /* \"#utility.yul\":10967:10983   */\n      add\n        /* \"#utility.yul\":10961:10984   */\n      mload\n        /* \"#utility.yul\":10997:11060   */\n      tag_596\n        /* \"#utility.yul\":11054:11058   */\n      0xa0\n        /* \"#utility.yul\":11049:11052   */\n      dup7\n        /* \"#utility.yul\":11045:11059   */\n      add\n        /* \"#utility.yul\":11031:11043   */\n      dup3\n        /* \"#utility.yul\":10997:11060   */\n      tag_381\n      jump\t// in\n    tag_596:\n        /* \"#utility.yul\":10899:11070   */\n      pop\n        /* \"#utility.yul\":11157:11161   */\n      0xc0\n        /* \"#utility.yul\":11150:11155   */\n      dup4\n        /* \"#utility.yul\":11146:11162   */\n      add\n        /* \"#utility.yul\":11140:11163   */\n      mload\n        /* \"#utility.yul\":11176:11239   */\n      tag_597\n        /* \"#utility.yul\":11233:11237   */\n      0xc0\n        /* \"#utility.yul\":11228:11231   */\n      dup7\n        /* \"#utility.yul\":11224:11238   */\n      add\n        /* \"#utility.yul\":11210:11222   */\n      dup3\n        /* \"#utility.yul\":11176:11239   */\n      tag_381\n      jump\t// in\n    tag_597:\n        /* \"#utility.yul\":11080:11249   */\n      pop\n        /* \"#utility.yul\":11334:11338   */\n      0xe0\n        /* \"#utility.yul\":11327:11332   */\n      dup4\n        /* \"#utility.yul\":11323:11339   */\n      add\n        /* \"#utility.yul\":11317:11340   */\n      mload\n        /* \"#utility.yul\":11353:11416   */\n      tag_598\n        /* \"#utility.yul\":11410:11414   */\n      0xe0\n        /* \"#utility.yul\":11405:11408   */\n      dup7\n        /* \"#utility.yul\":11401:11415   */\n      add\n        /* \"#utility.yul\":11387:11399   */\n      dup3\n        /* \"#utility.yul\":11353:11416   */\n      tag_381\n      jump\t// in\n    tag_598:\n        /* \"#utility.yul\":11259:11426   */\n      pop\n        /* \"#utility.yul\":11521:11527   */\n      0x0100\n        /* \"#utility.yul\":11514:11519   */\n      dup4\n        /* \"#utility.yul\":11510:11528   */\n      add\n        /* \"#utility.yul\":11504:11529   */\n      mload\n        /* \"#utility.yul\":11542:11607   */\n      tag_599\n        /* \"#utility.yul\":11599:11605   */\n      0x0100\n        /* \"#utility.yul\":11594:11597   */\n      dup7\n        /* \"#utility.yul\":11590:11606   */\n      add\n        /* \"#utility.yul\":11576:11588   */\n      dup3\n        /* \"#utility.yul\":11542:11607   */\n      tag_381\n      jump\t// in\n    tag_599:\n        /* \"#utility.yul\":11436:11617   */\n      pop\n        /* \"#utility.yul\":11701:11707   */\n      0x0120\n        /* \"#utility.yul\":11694:11699   */\n      dup4\n        /* \"#utility.yul\":11690:11708   */\n      add\n        /* \"#utility.yul\":11684:11709   */\n      mload\n        /* \"#utility.yul\":11722:11781   */\n      tag_600\n        /* \"#utility.yul\":11773:11779   */\n      0x0120\n        /* \"#utility.yul\":11768:11771   */\n      dup7\n        /* \"#utility.yul\":11764:11780   */\n      add\n        /* \"#utility.yul\":11750:11762   */\n      dup3\n        /* \"#utility.yul\":11722:11781   */\n      tag_406\n      jump\t// in\n    tag_600:\n        /* \"#utility.yul\":11627:11791   */\n      pop\n        /* \"#utility.yul\":11875:11881   */\n      0x0140\n        /* \"#utility.yul\":11868:11873   */\n      dup4\n        /* \"#utility.yul\":11864:11882   */\n      add\n        /* \"#utility.yul\":11858:11883   */\n      mload\n        /* \"#utility.yul\":11896:11961   */\n      tag_601\n        /* \"#utility.yul\":11953:11959   */\n      0x0140\n        /* \"#utility.yul\":11948:11951   */\n      dup7\n        /* \"#utility.yul\":11944:11960   */\n      add\n        /* \"#utility.yul\":11930:11942   */\n      dup3\n        /* \"#utility.yul\":11896:11961   */\n      tag_403\n      jump\t// in\n    tag_601:\n        /* \"#utility.yul\":11801:11971   */\n      pop\n        /* \"#utility.yul\":12052:12058   */\n      0x0160\n        /* \"#utility.yul\":12045:12050   */\n      dup4\n        /* \"#utility.yul\":12041:12059   */\n      add\n        /* \"#utility.yul\":12035:12060   */\n      mload\n        /* \"#utility.yul\":12073:12138   */\n      tag_602\n        /* \"#utility.yul\":12130:12136   */\n      0x0160\n        /* \"#utility.yul\":12125:12128   */\n      dup7\n        /* \"#utility.yul\":12121:12137   */\n      add\n        /* \"#utility.yul\":12107:12119   */\n      dup3\n        /* \"#utility.yul\":12073:12138   */\n      tag_381\n      jump\t// in\n    tag_602:\n        /* \"#utility.yul\":11981:12148   */\n      pop\n        /* \"#utility.yul\":12238:12244   */\n      0x0180\n        /* \"#utility.yul\":12231:12236   */\n      dup4\n        /* \"#utility.yul\":12227:12245   */\n      add\n        /* \"#utility.yul\":12221:12246   */\n      mload\n        /* \"#utility.yul\":12295:12298   */\n      dup5\n        /* \"#utility.yul\":12289:12293   */\n      dup3\n        /* \"#utility.yul\":12285:12299   */\n      sub\n        /* \"#utility.yul\":12276:12282   */\n      0x0180\n        /* \"#utility.yul\":12271:12274   */\n      dup7\n        /* \"#utility.yul\":12267:12283   */\n      add\n        /* \"#utility.yul\":12260:12300   */\n      mstore\n        /* \"#utility.yul\":12321:12424   */\n      tag_603\n        /* \"#utility.yul\":12419:12423   */\n      dup3\n        /* \"#utility.yul\":12405:12417   */\n      dup3\n        /* \"#utility.yul\":12321:12424   */\n      tag_412\n      jump\t// in\n    tag_603:\n        /* \"#utility.yul\":12313:12424   */\n      swap2\n      pop\n        /* \"#utility.yul\":12158:12435   */\n      pop\n        /* \"#utility.yul\":12452:12456   */\n      dup1\n        /* \"#utility.yul\":12445:12456   */\n      swap2\n      pop\n        /* \"#utility.yul\":9896:12462   */\n      pop\n        /* \"#utility.yul\":9764:12462   */\n      swap3\n      swap2\n      pop\n      pop\n      jump\t// out\n        /* \"#utility.yul\":12468:12857   */\n    tag_64:\n        /* \"#utility.yul\":12619:12623   */\n      0x00\n        /* \"#utility.yul\":12657:12659   */\n      0x20\n        /* \"#utility.yul\":12646:12655   */\n      dup3\n        /* \"#utility.yul\":12642:12660   */\n      add\n        /* \"#utility.yul\":12634:12660   */\n      swap1\n      pop\n        /* \"#utility.yul\":12706:12715   */\n      dup2\n        /* \"#utility.yul\":12700:12704   */\n      dup2\n        /* \"#utility.yul\":12696:12716   */\n      sub\n        /* \"#utility.yul\":12692:12693   */\n      0x00\n        /* \"#utility.yul\":12681:12690   */\n      dup4\n        /* \"#utility.yul\":12677:12694   */\n      add\n        /* \"#utility.yul\":12670:12717   */\n      mstore\n        /* \"#utility.yul\":12734:12850   */\n      tag_605\n        /* \"#utility.yul\":12845:12849   */\n      dup2\n        /* \"#utility.yul\":12836:12842   */\n      dup5\n        /* \"#utility.yul\":12734:12850   */\n      tag_413\n      jump\t// in\n    tag_605:\n        /* \"#utility.yul\":12726:12850   */\n      swap1\n      pop\n        /* \"#utility.yul\":12468:12857   */\n      swap3\n      swap2\n      pop\n      pop\n      jump\t// out\n        /* \"#utility.yul\":12863:13085   */\n    tag_69:\n        /* \"#utility.yul\":12956:12960   */\n      0x00\n        /* \"#utility.yul\":12994:12996   */\n      0x20\n        /* \"#utility.yul\":12983:12992   */\n      dup3\n        /* \"#utility.yul\":12979:12997   */\n      add\n        /* \"#utility.yul\":12971:12997   */\n      swap1\n      pop\n        /* \"#utility.yul\":13007:13078   */\n      tag_607\n        /* \"#utility.yul\":13075:13076   */\n      0x00\n        /* \"#utility.yul\":13064:13073   */\n      dup4\n        /* \"#utility.yul\":13060:13077   */\n      add\n        /* \"#utility.yul\":13051:13057   */\n      dup5\n        /* \"#utility.yul\":13007:13078   */\n      tag_390\n      jump\t// in\n    tag_607:\n        /* \"#utility.yul\":12863:13085   */\n      swap3\n      swap2\n      pop\n      pop\n      jump\t// out\n        /* \"#utility.yul\":13091:13565   */\n    tag_77:\n        /* \"#utility.yul\":13159:13165   */\n      0x00\n        /* \"#utility.yul\":13167:13173   */\n      0x00\n        /* \"#utility.yul\":13216:13218   */\n      0x40\n        /* \"#utility.yul\":13204:13213   */\n      dup4\n        /* \"#utility.yul\":13195:13202   */\n      dup6\n        /* \"#utility.yul\":13191:13214   */\n      sub\n        /* \"#utility.yul\":13187:13219   */\n      slt\n        /* \"#utility.yul\":13184:13303   */\n      iszero\n      tag_609\n      jumpi\n        /* \"#utility.yul\":13222:13301   */\n      tag_610\n      tag_386\n      jump\t// in\n    tag_610:\n        /* \"#utility.yul\":13184:13303   */\n    tag_609:\n        /* \"#utility.yul\":13342:13343   */\n      0x00\n        /* \"#utility.yul\":13367:13420   */\n      tag_611\n        /* \"#utility.yul\":13412:13419   */\n      dup6\n        /* \"#utility.yul\":13403:13409   */\n      dup3\n        /* \"#utility.yul\":13392:13401   */\n      dup7\n        /* \"#utility.yul\":13388:13410   */\n      add\n        /* \"#utility.yul\":13367:13420   */\n      tag_389\n      jump\t// in\n    tag_611:\n        /* \"#utility.yul\":13357:13420   */\n      swap3\n      pop\n        /* \"#utility.yul\":13313:13430   */\n      pop\n        /* \"#utility.yul\":13469:13471   */\n      0x20\n        /* \"#utility.yul\":13495:13548   */\n      tag_612\n        /* \"#utility.yul\":13540:13547   */\n      dup6\n        /* \"#utility.yul\":13531:13537   */\n      dup3\n        /* \"#utility.yul\":13520:13529   */\n      dup7\n        /* \"#utility.yul\":13516:13538   */\n      add\n        /* \"#utility.yul\":13495:13548   */\n      tag_402\n      jump\t// in\n    tag_612:\n        /* \"#utility.yul\":13485:13548   */\n      swap2\n      pop\n        /* \"#utility.yul\":13440:13558   */\n      pop\n        /* \"#utility.yul\":13091:13565   */\n      swap3\n      pop\n      swap3\n      swap1\n      pop\n      jump\t// out\n        /* \"#utility.yul\":13571:14045   */\n    tag_95:\n        /* \"#utility.yul\":13639:13645   */\n      0x00\n        /* \"#utility.yul\":13647:13653   */\n      0x00\n        /* \"#utility.yul\":13696:13698   */\n      0x40\n        /* \"#utility.yul\":13684:13693   */\n      dup4\n        /* \"#utility.yul\":13675:13682   */\n      dup6\n        /* \"#utility.yul\":13671:13694   */\n      sub\n        /* \"#utility.yul\":13667:13699   */\n      slt\n        /* \"#utility.yul\":13664:13783   */\n      iszero\n      tag_614\n      jumpi\n        /* \"#utility.yul\":13702:13781   */\n      tag_615\n      tag_386\n      jump\t// in\n    tag_615:\n        /* \"#utility.yul\":13664:13783   */\n    tag_614:\n        /* \"#utility.yul\":13822:13823   */\n      0x00\n        /* \"#utility.yul\":13847:13900   */\n      tag_616\n        /* \"#utility.yul\":13892:13899   */\n      dup6\n        /* \"#utility.yul\":13883:13889   */\n      dup3\n        /* \"#utility.yul\":13872:13881   */\n      dup7\n        /* \"#utility.yul\":13868:13890   */\n      add\n        /* \"#utility.yul\":13847:13900   */\n      tag_389\n      jump\t// in\n    tag_616:\n        /* \"#utility.yul\":13837:13900   */\n      swap3\n      pop\n        /* \"#utility.yul\":13793:13910   */\n      pop\n        /* \"#utility.yul\":13949:13951   */\n      0x20\n        /* \"#utility.yul\":13975:14028   */\n      tag_617\n        /* \"#utility.yul\":14020:14027   */\n      dup6\n        /* \"#utility.yul\":14011:14017   */\n      dup3\n        /* \"#utility.yul\":14000:14009   */\n      dup7\n        /* \"#utility.yul\":13996:14018   */\n      add\n        /* \"#utility.yul\":13975:14028   */\n      tag_389\n      jump\t// in\n    tag_617:\n        /* \"#utility.yul\":13965:14028   */\n      swap2\n      pop\n        /* \"#utility.yul\":13920:14038   */\n      pop\n        /* \"#utility.yul\":13571:14045   */\n      swap3\n      pop\n      swap3\n      swap1\n      pop\n      jump\t// out\n        /* \"#utility.yul\":14051:14273   */\n    tag_101:\n        /* \"#utility.yul\":14144:14148   */\n      0x00\n        /* \"#utility.yul\":14182:14184   */\n      0x20\n        /* \"#utility.yul\":14171:14180   */\n      dup3\n        /* \"#utility.yul\":14167:14185   */\n      add\n        /* \"#utility.yul\":14159:14185   */\n      swap1\n      pop\n        /* \"#utility.yul\":14195:14266   */\n      tag_619\n        /* \"#utility.yul\":14263:14264   */\n      0x00\n        /* \"#utility.yul\":14252:14261   */\n      dup4\n        /* \"#utility.yul\":14248:14265   */\n      add\n        /* \"#utility.yul\":14239:14245   */\n      dup5\n        /* \"#utility.yul\":14195:14266   */\n      tag_393\n      jump\t// in\n    tag_619:\n        /* \"#utility.yul\":14051:14273   */\n      swap3\n      swap2\n      pop\n      pop\n      jump\t// out\n        /* \"#utility.yul\":14279:14832   */\n    tag_106:\n        /* \"#utility.yul\":14456:14460   */\n      0x00\n        /* \"#utility.yul\":14494:14497   */\n      0x80\n        /* \"#utility.yul\":14483:14492   */\n      dup3\n        /* \"#utility.yul\":14479:14498   */\n      add\n        /* \"#utility.yul\":14471:14498   */\n      swap1\n      pop\n        /* \"#utility.yul\":14508:14579   */\n      tag_621\n        /* \"#utility.yul\":14576:14577   */\n      0x00\n        /* \"#utility.yul\":14565:14574   */\n      dup4\n        /* \"#utility.yul\":14561:14578   */\n      add\n        /* \"#utility.yul\":14552:14558   */\n      dup8\n        /* \"#utility.yul\":14508:14579   */\n      tag_390\n      jump\t// in\n    tag_621:\n        /* \"#utility.yul\":14589:14661   */\n      tag_622\n        /* \"#utility.yul\":14657:14659   */\n      0x20\n        /* \"#utility.yul\":14646:14655   */\n      dup4\n        /* \"#utility.yul\":14642:14660   */\n      add\n        /* \"#utility.yul\":14633:14639   */\n      dup7\n        /* \"#utility.yul\":14589:14661   */\n      tag_390\n      jump\t// in\n    tag_622:\n        /* \"#utility.yul\":14671:14743   */\n      tag_623\n        /* \"#utility.yul\":14739:14741   */\n      0x40\n        /* \"#utility.yul\":14728:14737   */\n      dup4\n        /* \"#utility.yul\":14724:14742   */\n      add\n        /* \"#utility.yul\":14715:14721   */\n      dup6\n        /* \"#utility.yul\":14671:14743   */\n      tag_393\n      jump\t// in\n    tag_623:\n        /* \"#utility.yul\":14753:14825   */\n      tag_624\n        /* \"#utility.yul\":14821:14823   */\n      0x60\n        /* \"#utility.yul\":14810:14819   */\n      dup4\n        /* \"#utility.yul\":14806:14824   */\n      add\n        /* \"#utility.yul\":14797:14803   */\n      dup5\n        /* \"#utility.yul\":14753:14825   */\n      tag_390\n      jump\t// in\n    tag_624:\n        /* \"#utility.yul\":14279:14832   */\n      swap6\n      swap5\n      pop\n      pop\n      pop\n      pop\n      pop\n      jump\t// out\n        /* \"#utility.yul\":14838:15022   */\n    tag_414:\n        /* \"#utility.yul\":14937:14948   */\n      0x00\n        /* \"#utility.yul\":14971:14977   */\n      dup3\n        /* \"#utility.yul\":14966:14969   */\n      dup3\n        /* \"#utility.yul\":14959:14978   */\n      mstore\n        /* \"#utility.yul\":15011:15015   */\n      0x20\n        /* \"#utility.yul\":15006:15009   */\n      dup3\n        /* \"#utility.yul\":15002:15016   */\n      add\n        /* \"#utility.yul\":14987:15016   */\n      swap1\n      pop\n        /* \"#utility.yul\":14838:15022   */\n      swap3\n      swap2\n      pop\n      pop\n      jump\t// out\n        /* \"#utility.yul\":15058:15790   */\n    tag_415:\n        /* \"#utility.yul\":15177:15180   */\n      0x00\n        /* \"#utility.yul\":15206:15260   */\n      tag_627\n        /* \"#utility.yul\":15254:15259   */\n      dup3\n        /* \"#utility.yul\":15206:15260   */\n      tag_407\n      jump\t// in\n    tag_627:\n        /* \"#utility.yul\":15276:15362   */\n      tag_628\n        /* \"#utility.yul\":15355:15361   */\n      dup2\n        /* \"#utility.yul\":15350:15353   */\n      dup6\n        /* \"#utility.yul\":15276:15362   */\n      tag_414\n      jump\t// in\n    tag_628:\n        /* \"#utility.yul\":15269:15362   */\n      swap4\n      pop\n        /* \"#utility.yul\":15386:15442   */\n      tag_629\n        /* \"#utility.yul\":15436:15441   */\n      dup4\n        /* \"#utility.yul\":15386:15442   */\n      tag_409\n      jump\t// in\n    tag_629:\n        /* \"#utility.yul\":15465:15472   */\n      dup1\n        /* \"#utility.yul\":15496:15497   */\n      0x00\n        /* \"#utility.yul\":15481:15765   */\n    tag_630:\n        /* \"#utility.yul\":15506:15512   */\n      dup4\n        /* \"#utility.yul\":15503:15504   */\n      dup2\n        /* \"#utility.yul\":15500:15513   */\n      lt\n        /* \"#utility.yul\":15481:15765   */\n      iszero\n      tag_632\n      jumpi\n        /* \"#utility.yul\":15582:15588   */\n      dup2\n        /* \"#utility.yul\":15576:15589   */\n      mload\n        /* \"#utility.yul\":15609:15672   */\n      tag_633\n        /* \"#utility.yul\":15668:15671   */\n      dup9\n        /* \"#utility.yul\":15653:15666   */\n      dup3\n        /* \"#utility.yul\":15609:15672   */\n      tag_410\n      jump\t// in\n    tag_633:\n        /* \"#utility.yul\":15602:15672   */\n      swap8\n      pop\n        /* \"#utility.yul\":15695:15755   */\n      tag_634\n        /* \"#utility.yul\":15748:15754   */\n      dup4\n        /* \"#utility.yul\":15695:15755   */\n      tag_411\n      jump\t// in\n    tag_634:\n        /* \"#utility.yul\":15685:15755   */\n      swap3\n      pop\n        /* \"#utility.yul\":15541:15765   */\n      pop\n        /* \"#utility.yul\":15528:15529   */\n      0x01\n        /* \"#utility.yul\":15525:15526   */\n      dup2\n        /* \"#utility.yul\":15521:15530   */\n      add\n        /* \"#utility.yul\":15516:15530   */\n      swap1\n      pop\n        /* \"#utility.yul\":15481:15765   */\n      jump(tag_630)\n    tag_632:\n        /* \"#utility.yul\":15485:15499   */\n      pop\n        /* \"#utility.yul\":15781:15784   */\n      dup6\n        /* \"#utility.yul\":15774:15784   */\n      swap4\n      pop\n        /* \"#utility.yul\":15182:15790   */\n      pop\n      pop\n      pop\n        /* \"#utility.yul\":15058:15790   */\n      swap3\n      swap2\n      pop\n      pop\n      jump\t// out\n        /* \"#utility.yul\":15796:16169   */\n    tag_130:\n        /* \"#utility.yul\":15939:15943   */\n      0x00\n        /* \"#utility.yul\":15977:15979   */\n      0x20\n        /* \"#utility.yul\":15966:15975   */\n      dup3\n        /* \"#utility.yul\":15962:15980   */\n      add\n        /* \"#utility.yul\":15954:15980   */\n      swap1\n      pop\n        /* \"#utility.yul\":16026:16035   */\n      dup2\n        /* \"#utility.yul\":16020:16024   */\n      dup2\n        /* \"#utility.yul\":16016:16036   */\n      sub\n        /* \"#utility.yul\":16012:16013   */\n      0x00\n        /* \"#utility.yul\":16001:16010   */\n      dup4\n        /* \"#utility.yul\":15997:16014   */\n      add\n        /* \"#utility.yul\":15990:16037   */\n      mstore\n        /* \"#utility.yul\":16054:16162   */\n      tag_636\n        /* \"#utility.yul\":16157:16161   */\n      dup2\n        /* \"#utility.yul\":16148:16154   */\n      dup5\n        /* \"#utility.yul\":16054:16162   */\n      tag_415\n      jump\t// in\n    tag_636:\n        /* \"#utility.yul\":16046:16162   */\n      swap1\n      pop\n        /* \"#utility.yul\":15796:16169   */\n      swap3\n      swap2\n      pop\n      pop\n      jump\t// out\n        /* \"#utility.yul\":16175:16292   */\n    tag_416:\n        /* \"#utility.yul\":16284:16285   */\n      0x00\n        /* \"#utility.yul\":16281:16282   */\n      0x00\n        /* \"#utility.yul\":16274:16286   */\n      revert\n        /* \"#utility.yul\":16298:16415   */\n    tag_417:\n        /* \"#utility.yul\":16407:16408   */\n      0x00\n        /* \"#utility.yul\":16404:16405   */\n      0x00\n        /* \"#utility.yul\":16397:16409   */\n      revert\n        /* \"#utility.yul\":16421:16601   */\n    tag_165:\n        /* \"#utility.yul\":16469:16546   */\n      0x4e487b7100000000000000000000000000000000000000000000000000000000\n        /* \"#utility.yul\":16466:16467   */\n      0x00\n        /* \"#utility.yul\":16459:16547   */\n      mstore\n        /* \"#utility.yul\":16566:16570   */\n      0x41\n        /* \"#utility.yul\":16563:16564   */\n      0x04\n        /* \"#utility.yul\":16556:16571   */\n      mstore\n        /* \"#utility.yul\":16590:16594   */\n      0x24\n        /* \"#utility.yul\":16587:16588   */\n      0x00\n        /* \"#utility.yul\":16580:16595   */\n      revert\n        /* \"#utility.yul\":16607:16888   */\n    tag_418:\n        /* \"#utility.yul\":16690:16717   */\n      tag_641\n        /* \"#utility.yul\":16712:16716   */\n      dup3\n        /* \"#utility.yul\":16690:16717   */\n      tag_397\n      jump\t// in\n    tag_641:\n        /* \"#utility.yul\":16682:16688   */\n      dup2\n        /* \"#utility.yul\":16678:16718   */\n      add\n        /* \"#utility.yul\":16820:16826   */\n      dup2\n        /* \"#utility.yul\":16808:16818   */\n      dup2\n        /* \"#utility.yul\":16805:16827   */\n      lt\n        /* \"#utility.yul\":16784:16802   */\n      0xffffffffffffffff\n        /* \"#utility.yul\":16772:16782   */\n      dup3\n        /* \"#utility.yul\":16769:16803   */\n      gt\n        /* \"#utility.yul\":16766:16828   */\n      or\n        /* \"#utility.yul\":16763:16851   */\n      iszero\n      tag_642\n      jumpi\n        /* \"#utility.yul\":16831:16849   */\n      tag_643\n      tag_165\n      jump\t// in\n    tag_643:\n        /* \"#utility.yul\":16763:16851   */\n    tag_642:\n        /* \"#utility.yul\":16871:16881   */\n      dup1\n        /* \"#utility.yul\":16867:16869   */\n      0x40\n        /* \"#utility.yul\":16860:16882   */\n      mstore\n        /* \"#utility.yul\":16650:16888   */\n      pop\n        /* \"#utility.yul\":16607:16888   */\n      pop\n      pop\n      jump\t// out\n        /* \"#utility.yul\":16894:17023   */\n    tag_419:\n        /* \"#utility.yul\":16928:16934   */\n      0x00\n        /* \"#utility.yul\":16955:16975   */\n      tag_645\n      tag_385\n      jump\t// in\n    tag_645:\n        /* \"#utility.yul\":16945:16975   */\n      swap1\n      pop\n        /* \"#utility.yul\":16984:17017   */\n      tag_646\n        /* \"#utility.yul\":17012:17016   */\n      dup3\n        /* \"#utility.yul\":17004:17010   */\n      dup3\n        /* \"#utility.yul\":16984:17017   */\n      tag_418\n      jump\t// in\n    tag_646:\n        /* \"#utility.yul\":16894:17023   */\n      swap2\n      swap1\n      pop\n      jump\t// out\n        /* \"#utility.yul\":17029:17337   */\n    tag_420:\n        /* \"#utility.yul\":17091:17095   */\n      0x00\n        /* \"#utility.yul\":17181:17199   */\n      0xffffffffffffffff\n        /* \"#utility.yul\":17173:17179   */\n      dup3\n        /* \"#utility.yul\":17170:17200   */\n      gt\n        /* \"#utility.yul\":17167:17223   */\n      iszero\n      tag_648\n      jumpi\n        /* \"#utility.yul\":17203:17221   */\n      tag_649\n      tag_165\n      jump\t// in\n    tag_649:\n        /* \"#utility.yul\":17167:17223   */\n    tag_648:\n        /* \"#utility.yul\":17241:17270   */\n      tag_650\n        /* \"#utility.yul\":17263:17269   */\n      dup3\n        /* \"#utility.yul\":17241:17270   */\n      tag_397\n      jump\t// in\n    tag_650:\n        /* \"#utility.yul\":17233:17270   */\n      swap1\n      pop\n        /* \"#utility.yul\":17325:17329   */\n      0x20\n        /* \"#utility.yul\":17319:17323   */\n      dup2\n        /* \"#utility.yul\":17315:17330   */\n      add\n        /* \"#utility.yul\":17307:17330   */\n      swap1\n      pop\n        /* \"#utility.yul\":17029:17337   */\n      swap2\n      swap1\n      pop\n      jump\t// out\n        /* \"#utility.yul\":17343:17491   */\n    tag_421:\n        /* \"#utility.yul\":17441:17447   */\n      dup3\n        /* \"#utility.yul\":17436:17439   */\n      dup2\n        /* \"#utility.yul\":17431:17434   */\n      dup4\n        /* \"#utility.yul\":17418:17448   */\n      calldatacopy\n        /* \"#utility.yul\":17482:17483   */\n      0x00\n        /* \"#utility.yul\":17473:17479   */\n      dup4\n        /* \"#utility.yul\":17468:17471   */\n      dup4\n        /* \"#utility.yul\":17464:17480   */\n      add\n        /* \"#utility.yul\":17457:17484   */\n      mstore\n        /* \"#utility.yul\":17343:17491   */\n      pop\n      pop\n      pop\n      jump\t// out\n        /* \"#utility.yul\":17497:17922   */\n    tag_422:\n        /* \"#utility.yul\":17575:17580   */\n      0x00\n        /* \"#utility.yul\":17600:17666   */\n      tag_653\n        /* \"#utility.yul\":17616:17665   */\n      tag_654\n        /* \"#utility.yul\":17658:17664   */\n      dup5\n        /* \"#utility.yul\":17616:17665   */\n      tag_420\n      jump\t// in\n    tag_654:\n        /* \"#utility.yul\":17600:17666   */\n      tag_419\n      jump\t// in\n    tag_653:\n        /* \"#utility.yul\":17591:17666   */\n      swap1\n      pop\n        /* \"#utility.yul\":17689:17695   */\n      dup3\n        /* \"#utility.yul\":17682:17687   */\n      dup2\n        /* \"#utility.yul\":17675:17696   */\n      mstore\n        /* \"#utility.yul\":17727:17731   */\n      0x20\n        /* \"#utility.yul\":17720:17725   */\n      dup2\n        /* \"#utility.yul\":17716:17732   */\n      add\n        /* \"#utility.yul\":17765:17768   */\n      dup5\n        /* \"#utility.yul\":17756:17762   */\n      dup5\n        /* \"#utility.yul\":17751:17754   */\n      dup5\n        /* \"#utility.yul\":17747:17763   */\n      add\n        /* \"#utility.yul\":17744:17769   */\n      gt\n        /* \"#utility.yul\":17741:17853   */\n      iszero\n      tag_655\n      jumpi\n        /* \"#utility.yul\":17772:17851   */\n      tag_656\n      tag_417\n      jump\t// in\n    tag_656:\n        /* \"#utility.yul\":17741:17853   */\n    tag_655:\n        /* \"#utility.yul\":17862:17916   */\n      tag_657\n        /* \"#utility.yul\":17909:17915   */\n      dup5\n        /* \"#utility.yul\":17904:17907   */\n      dup3\n        /* \"#utility.yul\":17899:17902   */\n      dup6\n        /* \"#utility.yul\":17862:17916   */\n      tag_421\n      jump\t// in\n    tag_657:\n        /* \"#utility.yul\":17581:17922   */\n      pop\n        /* \"#utility.yul\":17497:17922   */\n      swap4\n      swap3\n      pop\n      pop\n      pop\n      jump\t// out\n        /* \"#utility.yul\":17942:18282   */\n    tag_423:\n        /* \"#utility.yul\":17998:18003   */\n      0x00\n        /* \"#utility.yul\":18047:18050   */\n      dup3\n        /* \"#utility.yul\":18040:18044   */\n      0x1f\n        /* \"#utility.yul\":18032:18038   */\n      dup4\n        /* \"#utility.yul\":18028:18045   */\n      add\n        /* \"#utility.yul\":18024:18051   */\n      slt\n        /* \"#utility.yul\":18014:18136   */\n      tag_659\n      jumpi\n        /* \"#utility.yul\":18055:18134   */\n      tag_660\n      tag_416\n      jump\t// in\n    tag_660:\n        /* \"#utility.yul\":18014:18136   */\n    tag_659:\n        /* \"#utility.yul\":18172:18178   */\n      dup2\n        /* \"#utility.yul\":18159:18179   */\n      calldataload\n        /* \"#utility.yul\":18197:18276   */\n      tag_661\n        /* \"#utility.yul\":18272:18275   */\n      dup5\n        /* \"#utility.yul\":18264:18270   */\n      dup3\n        /* \"#utility.yul\":18257:18261   */\n      0x20\n        /* \"#utility.yul\":18249:18255   */\n      dup7\n        /* \"#utility.yul\":18245:18262   */\n      add\n        /* \"#utility.yul\":18197:18276   */\n      tag_422\n      jump\t// in\n    tag_661:\n        /* \"#utility.yul\":18188:18276   */\n      swap2\n      pop\n        /* \"#utility.yul\":18004:18282   */\n      pop\n        /* \"#utility.yul\":17942:18282   */\n      swap3\n      swap2\n      pop\n      pop\n      jump\t// out\n        /* \"#utility.yul\":18288:19379   */\n    tag_151:\n        /* \"#utility.yul\":18393:18399   */\n      0x00\n        /* \"#utility.yul\":18401:18407   */\n      0x00\n        /* \"#utility.yul\":18409:18415   */\n      0x00\n        /* \"#utility.yul\":18417:18423   */\n      0x00\n        /* \"#utility.yul\":18425:18431   */\n      0x00\n        /* \"#utility.yul\":18474:18477   */\n      0xa0\n        /* \"#utility.yul\":18462:18471   */\n      dup7\n        /* \"#utility.yul\":18453:18460   */\n      dup9\n        /* \"#utility.yul\":18449:18472   */\n      sub\n        /* \"#utility.yul\":18445:18478   */\n      slt\n        /* \"#utility.yul\":18442:18562   */\n      iszero\n      tag_663\n      jumpi\n        /* \"#utility.yul\":18481:18560   */\n      tag_664\n      tag_386\n      jump\t// in\n    tag_664:\n        /* \"#utility.yul\":18442:18562   */\n    tag_663:\n        /* \"#utility.yul\":18629:18630   */\n      0x00\n        /* \"#utility.yul\":18618:18627   */\n      dup7\n        /* \"#utility.yul\":18614:18631   */\n      add\n        /* \"#utility.yul\":18601:18632   */\n      calldataload\n        /* \"#utility.yul\":18659:18677   */\n      0xffffffffffffffff\n        /* \"#utility.yul\":18651:18657   */\n      dup2\n        /* \"#utility.yul\":18648:18678   */\n      gt\n        /* \"#utility.yul\":18645:18762   */\n      iszero\n      tag_665\n      jumpi\n        /* \"#utility.yul\":18681:18760   */\n      tag_666\n      tag_387\n      jump\t// in\n    tag_666:\n        /* \"#utility.yul\":18645:18762   */\n    tag_665:\n        /* \"#utility.yul\":18786:18849   */\n      tag_667\n        /* \"#utility.yul\":18841:18848   */\n      dup9\n        /* \"#utility.yul\":18832:18838   */\n      dup3\n        /* \"#utility.yul\":18821:18830   */\n      dup10\n        /* \"#utility.yul\":18817:18839   */\n      add\n        /* \"#utility.yul\":18786:18849   */\n      tag_423\n      jump\t// in\n    tag_667:\n        /* \"#utility.yul\":18776:18849   */\n      swap6\n      pop\n        /* \"#utility.yul\":18572:18859   */\n      pop\n        /* \"#utility.yul\":18898:18900   */\n      0x20\n        /* \"#utility.yul\":18924:18977   */\n      tag_668\n        /* \"#utility.yul\":18969:18976   */\n      dup9\n        /* \"#utility.yul\":18960:18966   */\n      dup3\n        /* \"#utility.yul\":18949:18958   */\n      dup10\n        /* \"#utility.yul\":18945:18967   */\n      add\n        /* \"#utility.yul\":18924:18977   */\n      tag_389\n      jump\t// in\n    tag_668:\n        /* \"#utility.yul\":18914:18977   */\n      swap5\n      pop\n        /* \"#utility.yul\":18869:18987   */\n      pop\n        /* \"#utility.yul\":19026:19028   */\n      0x40\n        /* \"#utility.yul\":19052:19105   */\n      tag_669\n        /* \"#utility.yul\":19097:19104   */\n      dup9\n        /* \"#utility.yul\":19088:19094   */\n      dup3\n        /* \"#utility.yul\":19077:19086   */\n      dup10\n        /* \"#utility.yul\":19073:19095   */\n      add\n        /* \"#utility.yul\":19052:19105   */\n      tag_389\n      jump\t// in\n    tag_669:\n        /* \"#utility.yul\":19042:19105   */\n      swap4\n      pop\n        /* \"#utility.yul\":18997:19115   */\n      pop\n        /* \"#utility.yul\":19154:19156   */\n      0x60\n        /* \"#utility.yul\":19180:19233   */\n      tag_670\n        /* \"#utility.yul\":19225:19232   */\n      dup9\n        /* \"#utility.yul\":19216:19222   */\n      dup3\n        /* \"#utility.yul\":19205:19214   */\n      dup10\n        /* \"#utility.yul\":19201:19223   */\n      add\n        /* \"#utility.yul\":19180:19233   */\n      tag_389\n      jump\t// in\n    tag_670:\n        /* \"#utility.yul\":19170:19233   */\n      swap3\n      pop\n        /* \"#utility.yul\":19125:19243   */\n      pop\n        /* \"#utility.yul\":19282:19285   */\n      0x80\n        /* \"#utility.yul\":19309:19362   */\n      tag_671\n        /* \"#utility.yul\":19354:19361   */\n      dup9\n        /* \"#utility.yul\":19345:19351   */\n      dup3\n        /* \"#utility.yul\":19334:19343   */\n      dup10\n        /* \"#utility.yul\":19330:19352   */\n      add\n        /* \"#utility.yul\":19309:19362   */\n      tag_389\n      jump\t// in\n    tag_671:\n        /* \"#utility.yul\":19299:19362   */\n      swap2\n      pop\n        /* \"#utility.yul\":19253:19372   */\n      pop\n        /* \"#utility.yul\":18288:19379   */\n      swap3\n      swap6\n      pop\n      swap3\n      swap6\n      swap1\n      swap4\n      pop\n      jump\t// out\n        /* \"#utility.yul\":19385:19565   */\n    tag_424:\n        /* \"#utility.yul\":19433:19510   */\n      0x4e487b7100000000000000000000000000000000000000000000000000000000\n        /* \"#utility.yul\":19430:19431   */\n      0x00\n        /* \"#utility.yul\":19423:19511   */\n      mstore\n        /* \"#utility.yul\":19530:19534   */\n      0x11\n        /* \"#utility.yul\":19527:19528   */\n      0x04\n        /* \"#utility.yul\":19520:19535   */\n      mstore\n        /* \"#utility.yul\":19554:19558   */\n      0x24\n        /* \"#utility.yul\":19551:19552   */\n      0x00\n        /* \"#utility.yul\":19544:19559   */\n      revert\n        /* \"#utility.yul\":19571:19804   */\n    tag_162:\n        /* \"#utility.yul\":19610:19613   */\n      0x00\n        /* \"#utility.yul\":19633:19657   */\n      tag_674\n        /* \"#utility.yul\":19651:19656   */\n      dup3\n        /* \"#utility.yul\":19633:19657   */\n      tag_380\n      jump\t// in\n    tag_674:\n        /* \"#utility.yul\":19624:19657   */\n      swap2\n      pop\n        /* \"#utility.yul\":19679:19745   */\n      0xffffffffffffffffffffffffffffffffffffffffffffffffffffffffffffffff\n        /* \"#utility.yul\":19672:19677   */\n      dup3\n        /* \"#utility.yul\":19669:19746   */\n      sub\n        /* \"#utility.yul\":19666:19769   */\n      tag_675\n      jumpi\n        /* \"#utility.yul\":19749:19767   */\n      tag_676\n      tag_424\n      jump\t// in\n    tag_676:\n        /* \"#utility.yul\":19666:19769   */\n    tag_675:\n        /* \"#utility.yul\":19796:19797   */\n      0x01\n        /* \"#utility.yul\":19789:19794   */\n      dup3\n        /* \"#utility.yul\":19785:19798   */\n      add\n        /* \"#utility.yul\":19778:19798   */\n      swap1\n      pop\n        /* \"#utility.yul\":19571:19804   */\n      swap2\n      swap1\n      pop\n      jump\t// out\n        /* \"#utility.yul\":19810:19990   */\n    tag_175:\n        /* \"#utility.yul\":19858:19935   */\n      0x4e487b7100000000000000000000000000000000000000000000000000000000\n        /* \"#utility.yul\":19855:19856   */\n      0x00\n        /* \"#utility.yul\":19848:19936   */\n      mstore\n        /* \"#utility.yul\":19955:19959   */\n      0x32\n        /* \"#utility.yul\":19952:19953   */\n      0x04\n        /* \"#utility.yul\":19945:19960   */\n      mstore\n        /* \"#utility.yul\":19979:19983   */\n      0x24\n        /* \"#utility.yul\":19976:19977   */\n      0x00\n        /* \"#utility.yul\":19969:19984   */\n      revert\n        /* \"#utility.yul\":19996:20176   */\n    tag_425:\n        /* \"#utility.yul\":20044:20121   */\n      0x4e487b7100000000000000000000000000000000000000000000000000000000\n        /* \"#utility.yul\":20041:20042   */\n      0x00\n        /* \"#utility.yul\":20034:20122   */\n      mstore\n        /* \"#utility.yul\":20141:20145   */\n      0x22\n        /* \"#utility.yul\":20138:20139   */\n      0x04\n        /* \"#utility.yul\":20131:20146   */\n      mstore\n        /* \"#utility.yul\":20165:20169   */\n      0x24\n        /* \"#utility.yul\":20162:20163   */\n      0x00\n        /* \"#utility.yul\":20155:20170   */\n      revert\n        /* \"#utility.yul\":20182:20502   */\n    tag_178:\n        /* \"#utility.yul\":20226:20232   */\n      0x00\n        /* \"#utility.yul\":20263:20264   */\n      0x02\n        /* \"#utility.yul\":20257:20261   */\n      dup3\n        /* \"#utility.yul\":20253:20265   */\n      div\n        /* \"#utility.yul\":20243:20265   */\n      swap1\n      pop\n        /* \"#utility.yul\":20310:20311   */\n      0x01\n        /* \"#utility.yul\":20304:20308   */\n      dup3\n        /* \"#utility.yul\":20300:20312   */\n      and\n        /* \"#utility.yul\":20331:20349   */\n      dup1\n        /* \"#utility.yul\":20321:20402   */\n      tag_680\n      jumpi\n        /* \"#utility.yul\":20387:20391   */\n      0x7f\n        /* \"#utility.yul\":20379:20385   */\n      dup3\n        /* \"#utility.yul\":20375:20392   */\n      and\n        /* \"#utility.yul\":20365:20392   */\n      swap2\n      pop\n        /* \"#utility.yul\":20321:20402   */\n    tag_680:\n        /* \"#utility.yul\":20449:20451   */\n      0x20\n        /* \"#utility.yul\":20441:20447   */\n      dup3\n        /* \"#utility.yul\":20438:20452   */\n      lt\n        /* \"#utility.yul\":20418:20436   */\n      dup2\n        /* \"#utility.yul\":20415:20453   */\n      sub\n        /* \"#utility.yul\":20412:20496   */\n      tag_681\n      jumpi\n        /* \"#utility.yul\":20468:20486   */\n      tag_682\n      tag_425\n      jump\t// in\n    tag_682:\n        /* \"#utility.yul\":20412:20496   */\n    tag_681:\n        /* \"#utility.yul\":20233:20502   */\n      pop\n        /* \"#utility.yul\":20182:20502   */\n      swap2\n      swap1\n      pop\n      jump\t// out\n        /* \"#utility.yul\":20508:20678   */\n    tag_426:\n        /* \"#utility.yul\":20648:20670   */\n      0x4e6f2066756e647320746f207769746864726177000000000000000000000000\n        /* \"#utility.yul\":20644:20645   */\n      0x00\n        /* \"#utility.yul\":20636:20642   */\n      dup3\n        /* \"#utility.yul\":20632:20646   */\n      add\n        /* \"#utility.yul\":20625:20671   */\n      mstore\n        /* \"#utility.yul\":20508:20678   */\n      pop\n      jump\t// out\n        /* \"#utility.yul\":20684:21050   */\n    tag_427:\n        /* \"#utility.yul\":20826:20829   */\n      0x00\n        /* \"#utility.yul\":20847:20914   */\n      tag_685\n        /* \"#utility.yul\":20911:20913   */\n      0x14\n        /* \"#utility.yul\":20906:20909   */\n      dup4\n        /* \"#utility.yul\":20847:20914   */\n      tag_395\n      jump\t// in\n    tag_685:\n        /* \"#utility.yul\":20840:20914   */\n      swap2\n      pop\n        /* \"#utility.yul\":20923:21016   */\n      tag_686\n        /* \"#utility.yul\":21012:21015   */\n      dup3\n        /* \"#utility.yul\":20923:21016   */\n      tag_426\n      jump\t// in\n    tag_686:\n        /* \"#utility.yul\":21041:21043   */\n      0x20\n        /* \"#utility.yul\":21036:21039   */\n      dup3\n        /* \"#utility.yul\":21032:21044   */\n      add\n        /* \"#utility.yul\":21025:21044   */\n      swap1\n      pop\n        /* \"#utility.yul\":20684:21050   */\n      swap2\n      swap1\n      pop\n      jump\t// out\n        /* \"#utility.yul\":21056:21475   */\n    tag_186:\n        /* \"#utility.yul\":21222:21226   */\n      0x00\n        /* \"#utility.yul\":21260:21262   */\n      0x20\n        /* \"#utility.yul\":21249:21258   */\n      dup3\n        /* \"#utility.yul\":21245:21263   */\n      add\n        /* \"#utility.yul\":21237:21263   */\n      swap1\n      pop\n        /* \"#utility.yul\":21309:21318   */\n      dup2\n        /* \"#utility.yul\":21303:21307   */\n      dup2\n        /* \"#utility.yul\":21299:21319   */\n      sub\n        /* \"#utility.yul\":21295:21296   */\n      0x00\n        /* \"#utility.yul\":21284:21293   */\n      dup4\n        /* \"#utility.yul\":21280:21297   */\n      add\n        /* \"#utility.yul\":21273:21320   */\n      mstore\n        /* \"#utility.yul\":21337:21468   */\n      tag_688\n        /* \"#utility.yul\":21463:21467   */\n      dup2\n        /* \"#utility.yul\":21337:21468   */\n      tag_427\n      jump\t// in\n    tag_688:\n        /* \"#utility.yul\":21329:21468   */\n      swap1\n      pop\n        /* \"#utility.yul\":21056:21475   */\n      swap2\n      swap1\n      pop\n      jump\t// out\n        /* \"#utility.yul\":21481:21628   */\n    tag_428:\n        /* \"#utility.yul\":21582:21593   */\n      0x00\n        /* \"#utility.yul\":21619:21622   */\n      dup2\n        /* \"#utility.yul\":21604:21622   */\n      swap1\n      pop\n        /* \"#utility.yul\":21481:21628   */\n      swap3\n      swap2\n      pop\n      pop\n      jump\t// out\n        /* \"#utility.yul\":21634:21748   */\n    tag_429:\n      pop\n      jump\t// out\n        /* \"#utility.yul\":21754:22152   */\n    tag_430:\n        /* \"#utility.yul\":21913:21916   */\n      0x00\n        /* \"#utility.yul\":21934:22017   */\n      tag_692\n        /* \"#utility.yul\":22015:22016   */\n      0x00\n        /* \"#utility.yul\":22010:22013   */\n      dup4\n        /* \"#utility.yul\":21934:22017   */\n      tag_428\n      jump\t// in\n    tag_692:\n        /* \"#utility.yul\":21927:22017   */\n      swap2\n      pop\n        /* \"#utility.yul\":22026:22119   */\n      tag_693\n        /* \"#utility.yul\":22115:22118   */\n      dup3\n        /* \"#utility.yul\":22026:22119   */\n      tag_429\n      jump\t// in\n    tag_693:\n        /* \"#utility.yul\":22144:22145   */\n      0x00\n        /* \"#utility.yul\":22139:22142   */\n      dup3\n        /* \"#utility.yul\":22135:22146   */\n      add\n        /* \"#utility.yul\":22128:22146   */\n      swap1\n      pop\n        /* \"#utility.yul\":21754:22152   */\n      swap2\n      swap1\n      pop\n      jump\t// out\n        /* \"#utility.yul\":22158:22537   */\n    tag_188:\n        /* \"#utility.yul\":22342:22345   */\n      0x00\n        /* \"#utility.yul\":22364:22511   */\n      tag_695\n        /* \"#utility.yul\":22507:22510   */\n      dup3\n        /* \"#utility.yul\":22364:22511   */\n      tag_430\n      jump\t// in\n    tag_695:\n        /* \"#utility.yul\":22357:22511   */\n      swap2\n      pop\n        /* \"#utility.yul\":22528:22531   */\n      dup2\n        /* \"#utility.yul\":22521:22531   */\n      swap1\n      pop\n        /* \"#utility.yul\":22158:22537   */\n      swap2\n      swap1\n      pop\n      jump\t// out\n        /* \"#utility.yul\":22543:22708   */\n    tag_431:\n        /* \"#utility.yul\":22683:22700   */\n      0x5472616e73666572206661696c65640000000000000000000000000000000000\n        /* \"#utility.yul\":22679:22680   */\n      0x00\n        /* \"#utility.yul\":22671:22677   */\n      dup3\n        /* \"#utility.yul\":22667:22681   */\n      add\n        /* \"#utility.yul\":22660:22701   */\n      mstore\n        /* \"#utility.yul\":22543:22708   */\n      pop\n      jump\t// out\n        /* \"#utility.yul\":22714:23080   */\n    tag_432:\n        /* \"#utility.yul\":22856:22859   */\n      0x00\n        /* \"#utility.yul\":22877:22944   */\n      tag_698\n        /* \"#utility.yul\":22941:22943   */\n      0x0f\n        /* \"#utility.yul\":22936:22939   */\n      dup4\n        /* \"#utility.yul\":22877:22944   */\n      tag_395\n      jump\t// in\n    tag_698:\n        /* \"#utility.yul\":22870:22944   */\n      swap2\n      pop\n        /* \"#utility.yul\":22953:23046   */\n      tag_699\n        /* \"#utility.yul\":23042:23045   */\n      dup3\n        /* \"#utility.yul\":22953:23046   */\n      tag_431\n      jump\t// in\n    tag_699:\n        /* \"#utility.yul\":23071:23073   */\n      0x20\n        /* \"#utility.yul\":23066:23069   */\n      dup3\n        /* \"#utility.yul\":23062:23074   */\n      add\n        /* \"#utility.yul\":23055:23074   */\n      swap1\n      pop\n        /* \"#utility.yul\":22714:23080   */\n      swap2\n      swap1\n      pop\n      jump\t// out\n        /* \"#utility.yul\":23086:23505   */\n    tag_194:\n        /* \"#utility.yul\":23252:23256   */\n      0x00\n        /* \"#utility.yul\":23290:23292   */\n      0x20\n        /* \"#utility.yul\":23279:23288   */\n      dup3\n        /* \"#utility.yul\":23275:23293   */\n      add\n        /* \"#utility.yul\":23267:23293   */\n      swap1\n      pop\n        /* \"#utility.yul\":23339:23348   */\n      dup2\n        /* \"#utility.yul\":23333:23337   */\n      dup2\n        /* \"#utility.yul\":23329:23349   */\n      sub\n        /* \"#utility.yul\":23325:23326   */\n      0x00\n        /* \"#utility.yul\":23314:23323   */\n      dup4\n        /* \"#utility.yul\":23310:23327   */\n      add\n        /* \"#utility.yul\":23303:23350   */\n      mstore\n        /* \"#utility.yul\":23367:23498   */\n      tag_701\n        /* \"#utility.yul\":23493:23497   */\n      dup2\n        /* \"#utility.yul\":23367:23498   */\n      tag_432\n      jump\t// in\n    tag_701:\n        /* \"#utility.yul\":23359:23498   */\n      swap1\n      pop\n        /* \"#utility.yul\":23086:23505   */\n      swap2\n      swap1\n      pop\n      jump\t// out\n        /* \"#utility.yul\":23511:23702   */\n    tag_202:\n        /* \"#utility.yul\":23551:23554   */\n      0x00\n        /* \"#utility.yul\":23570:23590   */\n      tag_703\n        /* \"#utility.yul\":23588:23589   */\n      dup3\n        /* \"#utility.yul\":23570:23590   */\n      tag_380\n      jump\t// in\n    tag_703:\n        /* \"#utility.yul\":23565:23590   */\n      swap2\n      pop\n        /* \"#utility.yul\":23604:23624   */\n      tag_704\n        /* \"#utility.yul\":23622:23623   */\n      dup4\n        /* \"#utility.yul\":23604:23624   */\n      tag_380\n      jump\t// in\n    tag_704:\n        /* \"#utility.yul\":23599:23624   */\n      swap3\n      pop\n        /* \"#utility.yul\":23647:23648   */\n      dup3\n        /* \"#utility.yul\":23644:23645   */\n      dup3\n        /* \"#utility.yul\":23640:23649   */\n      add\n        /* \"#utility.yul\":23633:23649   */\n      swap1\n      pop\n        /* \"#utility.yul\":23668:23671   */\n      dup1\n        /* \"#utility.yul\":23665:23666   */\n      dup3\n        /* \"#utility.yul\":23662:23672   */\n      gt\n        /* \"#utility.yul\":23659:23695   */\n      iszero\n      tag_705\n      jumpi\n        /* \"#utility.yul\":23675:23693   */\n      tag_706\n      tag_424\n      jump\t// in\n    tag_706:\n        /* \"#utility.yul\":23659:23695   */\n    tag_705:\n        /* \"#utility.yul\":23511:23702   */\n      swap3\n      swap2\n      pop\n      pop\n      jump\t// out\n        /* \"#utility.yul\":23708:23880   */\n    tag_433:\n        /* \"#utility.yul\":23848:23872   */\n      0x4c6f747465727920646f6573206e6f7420657869737400000000000000000000\n        /* \"#utility.yul\":23844:23845   */\n      0x00\n        /* \"#utility.yul\":23836:23842   */\n      dup3\n        /* \"#utility.yul\":23832:23846   */\n      add\n        /* \"#utility.yul\":23825:23873   */\n      mstore\n        /* \"#utility.yul\":23708:23880   */\n      pop\n      jump\t// out\n        /* \"#utility.yul\":23886:24252   */\n    tag_434:\n        /* \"#utility.yul\":24028:24031   */\n      0x00\n        /* \"#utility.yul\":24049:24116   */\n      tag_709\n        /* \"#utility.yul\":24113:24115   */\n      0x16\n        /* \"#utility.yul\":24108:24111   */\n      dup4\n        /* \"#utility.yul\":24049:24116   */\n      tag_395\n      jump\t// in\n    tag_709:\n        /* \"#utility.yul\":24042:24116   */\n      swap2\n      pop\n        /* \"#utility.yul\":24125:24218   */\n      tag_710\n        /* \"#utility.yul\":24214:24217   */\n      dup3\n        /* \"#utility.yul\":24125:24218   */\n      tag_433\n      jump\t// in\n    tag_710:\n        /* \"#utility.yul\":24243:24245   */\n      0x20\n        /* \"#utility.yul\":24238:24241   */\n      dup3\n        /* \"#utility.yul\":24234:24246   */\n      add\n        /* \"#utility.yul\":24227:24246   */\n      swap1\n      pop\n        /* \"#utility.yul\":23886:24252   */\n      swap2\n      swap1\n      pop\n      jump\t// out\n        /* \"#utility.yul\":24258:24677   */\n    tag_208:\n        /* \"#utility.yul\":24424:24428   */\n      0x00\n        /* \"#utility.yul\":24462:24464   */\n      0x20\n        /* \"#utility.yul\":24451:24460   */\n      dup3\n        /* \"#utility.yul\":24447:24465   */\n      add\n        /* \"#utility.yul\":24439:24465   */\n      swap1\n      pop\n        /* \"#utility.yul\":24511:24520   */\n      dup2\n        /* \"#utility.yul\":24505:24509   */\n      dup2\n        /* \"#utility.yul\":24501:24521   */\n      sub\n        /* \"#utility.yul\":24497:24498   */\n      0x00\n        /* \"#utility.yul\":24486:24495   */\n      dup4\n        /* \"#utility.yul\":24482:24499   */\n      add\n        /* \"#utility.yul\":24475:24522   */\n      mstore\n        /* \"#utility.yul\":24539:24670   */\n      tag_712\n        /* \"#utility.yul\":24665:24669   */\n      dup2\n        /* \"#utility.yul\":24539:24670   */\n      tag_434\n      jump\t// in\n    tag_712:\n        /* \"#utility.yul\":24531:24670   */\n      swap1\n      pop\n        /* \"#utility.yul\":24258:24677   */\n      swap2\n      swap1\n      pop\n      jump\t// out\n        /* \"#utility.yul\":24683:25093   */\n    tag_229:\n        /* \"#utility.yul\":24723:24730   */\n      0x00\n        /* \"#utility.yul\":24746:24766   */\n      tag_714\n        /* \"#utility.yul\":24764:24765   */\n      dup3\n        /* \"#utility.yul\":24746:24766   */\n      tag_380\n      jump\t// in\n    tag_714:\n        /* \"#utility.yul\":24741:24766   */\n      swap2\n      pop\n        /* \"#utility.yul\":24780:24800   */\n      tag_715\n        /* \"#utility.yul\":24798:24799   */\n      dup4\n        /* \"#utility.yul\":24780:24800   */\n      tag_380\n      jump\t// in\n    tag_715:\n        /* \"#utility.yul\":24775:24800   */\n      swap3\n      pop\n        /* \"#utility.yul\":24835:24836   */\n      dup3\n        /* \"#utility.yul\":24832:24833   */\n      dup3\n        /* \"#utility.yul\":24828:24837   */\n      mul\n        /* \"#utility.yul\":24857:24887   */\n      tag_716\n        /* \"#utility.yul\":24875:24886   */\n      dup2\n        /* \"#utility.yul\":24857:24887   */\n      tag_380\n      jump\t// in\n    tag_716:\n        /* \"#utility.yul\":24846:24887   */\n      swap2\n      pop\n        /* \"#utility.yul\":25036:25037   */\n      dup3\n        /* \"#utility.yul\":25027:25034   */\n      dup3\n        /* \"#utility.yul\":25023:25038   */\n      div\n        /* \"#utility.yul\":25020:25021   */\n      dup5\n        /* \"#utility.yul\":25017:25039   */\n      eq\n        /* \"#utility.yul\":24997:24998   */\n      dup4\n        /* \"#utility.yul\":24990:24999   */\n      iszero\n        /* \"#utility.yul\":24970:25053   */\n      or\n        /* \"#utility.yul\":24947:25086   */\n      tag_717\n      jumpi\n        /* \"#utility.yul\":25066:25084   */\n      tag_718\n      tag_424\n      jump\t// in\n    tag_718:\n        /* \"#utility.yul\":24947:25086   */\n    tag_717:\n        /* \"#utility.yul\":24731:25093   */\n      pop\n        /* \"#utility.yul\":24683:25093   */\n      swap3\n      swap2\n      pop\n      pop\n      jump\t// out\n        /* \"#utility.yul\":25099:25266   */\n    tag_435:\n        /* \"#utility.yul\":25239:25258   */\n      0x4c6f747465727920697320636c6f736564000000000000000000000000000000\n        /* \"#utility.yul\":25235:25236   */\n      0x00\n        /* \"#utility.yul\":25227:25233   */\n      dup3\n        /* \"#utility.yul\":25223:25237   */\n      add\n        /* \"#utility.yul\":25216:25259   */\n      mstore\n        /* \"#utility.yul\":25099:25266   */\n      pop\n      jump\t// out\n        /* \"#utility.yul\":25272:25638   */\n    tag_436:\n        /* \"#utility.yul\":25414:25417   */\n      0x00\n        /* \"#utility.yul\":25435:25502   */\n      tag_721\n        /* \"#utility.yul\":25499:25501   */\n      0x11\n        /* \"#utility.yul\":25494:25497   */\n      dup4\n        /* \"#utility.yul\":25435:25502   */\n      tag_395\n      jump\t// in\n    tag_721:\n        /* \"#utility.yul\":25428:25502   */\n      swap2\n      pop\n        /* \"#utility.yul\":25511:25604   */\n      tag_722\n        /* \"#utility.yul\":25600:25603   */\n      dup3\n        /* \"#utility.yul\":25511:25604   */\n      tag_435\n      jump\t// in\n    tag_722:\n        /* \"#utility.yul\":25629:25631   */\n      0x20\n        /* \"#utility.yul\":25624:25627   */\n      dup3\n        /* \"#utility.yul\":25620:25632   */\n      add\n        /* \"#utility.yul\":25613:25632   */\n      swap1\n      pop\n        /* \"#utility.yul\":25272:25638   */\n      swap2\n      swap1\n      pop\n      jump\t// out\n        /* \"#utility.yul\":25644:26063   */\n    tag_232:\n        /* \"#utility.yul\":25810:25814   */\n      0x00\n        /* \"#utility.yul\":25848:25850   */\n      0x20\n        /* \"#utility.yul\":25837:25846   */\n      dup3\n        /* \"#utility.yul\":25833:25851   */\n      add\n        /* \"#utility.yul\":25825:25851   */\n      swap1\n      pop\n        /* \"#utility.yul\":25897:25906   */\n      dup2\n        /* \"#utility.yul\":25891:25895   */\n      dup2\n        /* \"#utility.yul\":25887:25907   */\n      sub\n        /* \"#utility.yul\":25883:25884   */\n      0x00\n        /* \"#utility.yul\":25872:25881   */\n      dup4\n        /* \"#utility.yul\":25868:25885   */\n      add\n        /* \"#utility.yul\":25861:25908   */\n      mstore\n        /* \"#utility.yul\":25925:26056   */\n      tag_724\n        /* \"#utility.yul\":26051:26055   */\n      dup2\n        /* \"#utility.yul\":25925:26056   */\n      tag_436\n      jump\t// in\n    tag_724:\n        /* \"#utility.yul\":25917:26056   */\n      swap1\n      pop\n        /* \"#utility.yul\":25644:26063   */\n      swap2\n      swap1\n      pop\n      jump\t// out\n        /* \"#utility.yul\":26069:26250   */\n    tag_437:\n        /* \"#utility.yul\":26209:26242   */\n      0x5175616e74697479206d7573742062652067726561746572207468616e203000\n        /* \"#utility.yul\":26205:26206   */\n      0x00\n        /* \"#utility.yul\":26197:26203   */\n      dup3\n        /* \"#utility.yul\":26193:26207   */\n      add\n        /* \"#utility.yul\":26186:26243   */\n      mstore\n        /* \"#utility.yul\":26069:26250   */\n      pop\n      jump\t// out\n        /* \"#utility.yul\":26256:26622   */\n    tag_438:\n        /* \"#utility.yul\":26398:26401   */\n      0x00\n        /* \"#utility.yul\":26419:26486   */\n      tag_727\n        /* \"#utility.yul\":26483:26485   */\n      0x1f\n        /* \"#utility.yul\":26478:26481   */\n      dup4\n        /* \"#utility.yul\":26419:26486   */\n      tag_395\n      jump\t// in\n    tag_727:\n        /* \"#utility.yul\":26412:26486   */\n      swap2\n      pop\n        /* \"#utility.yul\":26495:26588   */\n      tag_728\n        /* \"#utility.yul\":26584:26587   */\n      dup3\n        /* \"#utility.yul\":26495:26588   */\n      tag_437\n      jump\t// in\n    tag_728:\n        /* \"#utility.yul\":26613:26615   */\n      0x20\n        /* \"#utility.yul\":26608:26611   */\n      dup3\n        /* \"#utility.yul\":26604:26616   */\n      add\n        /* \"#utility.yul\":26597:26616   */\n      swap1\n      pop\n        /* \"#utility.yul\":26256:26622   */\n      swap2\n      swap1\n      pop\n      jump\t// out\n        /* \"#utility.yul\":26628:27047   */\n    tag_235:\n        /* \"#utility.yul\":26794:26798   */\n      0x00\n        /* \"#utility.yul\":26832:26834   */\n      0x20\n        /* \"#utility.yul\":26821:26830   */\n      dup3\n        /* \"#utility.yul\":26817:26835   */\n      add\n        /* \"#utility.yul\":26809:26835   */\n      swap1\n      pop\n        /* \"#utility.yul\":26881:26890   */\n      dup2\n        /* \"#utility.yul\":26875:26879   */\n      dup2\n        /* \"#utility.yul\":26871:26891   */\n      sub\n        /* \"#utility.yul\":26867:26868   */\n      0x00\n        /* \"#utility.yul\":26856:26865   */\n      dup4\n        /* \"#utility.yul\":26852:26869   */\n      add\n        /* \"#utility.yul\":26845:26892   */\n      mstore\n        /* \"#utility.yul\":26909:27040   */\n      tag_730\n        /* \"#utility.yul\":27035:27039   */\n      dup2\n        /* \"#utility.yul\":26909:27040   */\n      tag_438\n      jump\t// in\n    tag_730:\n        /* \"#utility.yul\":26901:27040   */\n      swap1\n      pop\n        /* \"#utility.yul\":26628:27047   */\n      swap2\n      swap1\n      pop\n      jump\t// out\n        /* \"#utility.yul\":27053:27229   */\n    tag_439:\n        /* \"#utility.yul\":27193:27221   */\n      0x496e76616c696420616d6f756e74206f66204554482073656e74000000000000\n        /* \"#utility.yul\":27189:27190   */\n      0x00\n        /* \"#utility.yul\":27181:27187   */\n      dup3\n        /* \"#utility.yul\":27177:27191   */\n      add\n        /* \"#utility.yul\":27170:27222   */\n      mstore\n        /* \"#utility.yul\":27053:27229   */\n      pop\n      jump\t// out\n        /* \"#utility.yul\":27235:27601   */\n    tag_440:\n        /* \"#utility.yul\":27377:27380   */\n      0x00\n        /* \"#utility.yul\":27398:27465   */\n      tag_733\n        /* \"#utility.yul\":27462:27464   */\n      0x1a\n        /* \"#utility.yul\":27457:27460   */\n      dup4\n        /* \"#utility.yul\":27398:27465   */\n      tag_395\n      jump\t// in\n    tag_733:\n        /* \"#utility.yul\":27391:27465   */\n      swap2\n      pop\n        /* \"#utility.yul\":27474:27567   */\n      tag_734\n        /* \"#utility.yul\":27563:27566   */\n      dup3\n        /* \"#utility.yul\":27474:27567   */\n      tag_439\n      jump\t// in\n    tag_734:\n        /* \"#utility.yul\":27592:27594   */\n      0x20\n        /* \"#utility.yul\":27587:27590   */\n      dup3\n        /* \"#utility.yul\":27583:27595   */\n      add\n        /* \"#utility.yul\":27576:27595   */\n      swap1\n      pop\n        /* \"#utility.yul\":27235:27601   */\n      swap2\n      swap1\n      pop\n      jump\t// out\n        /* \"#utility.yul\":27607:28026   */\n    tag_238:\n        /* \"#utility.yul\":27773:27777   */\n      0x00\n        /* \"#utility.yul\":27811:27813   */\n      0x20\n        /* \"#utility.yul\":27800:27809   */\n      dup3\n        /* \"#utility.yul\":27796:27814   */\n      add\n        /* \"#utility.yul\":27788:27814   */\n      swap1\n      pop\n        /* \"#utility.yul\":27860:27869   */\n      dup2\n        /* \"#utility.yul\":27854:27858   */\n      dup2\n        /* \"#utility.yul\":27850:27870   */\n      sub\n        /* \"#utility.yul\":27846:27847   */\n      0x00\n        /* \"#utility.yul\":27835:27844   */\n      dup4\n        /* \"#utility.yul\":27831:27848   */\n      add\n        /* \"#utility.yul\":27824:27871   */\n      mstore\n        /* \"#utility.yul\":27888:28019   */\n      tag_736\n        /* \"#utility.yul\":28014:28018   */\n      dup2\n        /* \"#utility.yul\":27888:28019   */\n      tag_440\n      jump\t// in\n    tag_736:\n        /* \"#utility.yul\":27880:28019   */\n      swap1\n      pop\n        /* \"#utility.yul\":27607:28026   */\n      swap2\n      swap1\n      pop\n      jump\t// out\n        /* \"#utility.yul\":28032:28213   */\n    tag_441:\n        /* \"#utility.yul\":28172:28205   */\n      0x4f6e6c792063726561746f72206f72206f776e65722063616e20636c6f736500\n        /* \"#utility.yul\":28168:28169   */\n      0x00\n        /* \"#utility.yul\":28160:28166   */\n      dup3\n        /* \"#utility.yul\":28156:28170   */\n      add\n        /* \"#utility.yul\":28149:28206   */\n      mstore\n        /* \"#utility.yul\":28032:28213   */\n      pop\n      jump\t// out\n        /* \"#utility.yul\":28219:28585   */\n    tag_442:\n        /* \"#utility.yul\":28361:28364   */\n      0x00\n        /* \"#utility.yul\":28382:28449   */\n      tag_739\n        /* \"#utility.yul\":28446:28448   */\n      0x1f\n        /* \"#utility.yul\":28441:28444   */\n      dup4\n        /* \"#utility.yul\":28382:28449   */\n      tag_395\n      jump\t// in\n    tag_739:\n        /* \"#utility.yul\":28375:28449   */\n      swap2\n      pop\n        /* \"#utility.yul\":28458:28551   */\n      tag_740\n        /* \"#utility.yul\":28547:28550   */\n      dup3\n        /* \"#utility.yul\":28458:28551   */\n      tag_441\n      jump\t// in\n    tag_740:\n        /* \"#utility.yul\":28576:28578   */\n      0x20\n        /* \"#utility.yul\":28571:28574   */\n      dup3\n        /* \"#utility.yul\":28567:28579   */\n      add\n        /* \"#utility.yul\":28560:28579   */\n      swap1\n      pop\n        /* \"#utility.yul\":28219:28585   */\n      swap2\n      swap1\n      pop\n      jump\t// out\n        /* \"#utility.yul\":28591:29010   */\n    tag_254:\n        /* \"#utility.yul\":28757:28761   */\n      0x00\n        /* \"#utility.yul\":28795:28797   */\n      0x20\n        /* \"#utility.yul\":28784:28793   */\n      dup3\n        /* \"#utility.yul\":28780:28798   */\n      add\n        /* \"#utility.yul\":28772:28798   */\n      swap1\n      pop\n        /* \"#utility.yul\":28844:28853   */\n      dup2\n        /* \"#utility.yul\":28838:28842   */\n      dup2\n        /* \"#utility.yul\":28834:28854   */\n      sub\n        /* \"#utility.yul\":28830:28831   */\n      0x00\n        /* \"#utility.yul\":28819:28828   */\n      dup4\n        /* \"#utility.yul\":28815:28832   */\n      add\n        /* \"#utility.yul\":28808:28855   */\n      mstore\n        /* \"#utility.yul\":28872:29003   */\n      tag_742\n        /* \"#utility.yul\":28998:29002   */\n      dup2\n        /* \"#utility.yul\":28872:29003   */\n      tag_442\n      jump\t// in\n    tag_742:\n        /* \"#utility.yul\":28864:29003   */\n      swap1\n      pop\n        /* \"#utility.yul\":28591:29010   */\n      swap2\n      swap1\n      pop\n      jump\t// out\n        /* \"#utility.yul\":29016:29188   */\n    tag_443:\n        /* \"#utility.yul\":29156:29180   */\n      0x4c6f747465727920616c726561647920636c6f73656400000000000000000000\n        /* \"#utility.yul\":29152:29153   */\n      0x00\n        /* \"#utility.yul\":29144:29150   */\n      dup3\n        /* \"#utility.yul\":29140:29154   */\n      add\n        /* \"#utility.yul\":29133:29181   */\n      mstore\n        /* \"#utility.yul\":29016:29188   */\n      pop\n      jump\t// out\n        /* \"#utility.yul\":29194:29560   */\n    tag_444:\n        /* \"#utility.yul\":29336:29339   */\n      0x00\n        /* \"#utility.yul\":29357:29424   */\n      tag_745\n        /* \"#utility.yul\":29421:29423   */\n      0x16\n        /* \"#utility.yul\":29416:29419   */\n      dup4\n        /* \"#utility.yul\":29357:29424   */\n      tag_395\n      jump\t// in\n    tag_745:\n        /* \"#utility.yul\":29350:29424   */\n      swap2\n      pop\n        /* \"#utility.yul\":29433:29526   */\n      tag_746\n        /* \"#utility.yul\":29522:29525   */\n      dup3\n        /* \"#utility.yul\":29433:29526   */\n      tag_443\n      jump\t// in\n    tag_746:\n        /* \"#utility.yul\":29551:29553   */\n      0x20\n        /* \"#utility.yul\":29546:29549   */\n      dup3\n        /* \"#utility.yul\":29542:29554   */\n      add\n        /* \"#utility.yul\":29535:29554   */\n      swap1\n      pop\n        /* \"#utility.yul\":29194:29560   */\n      swap2\n      swap1\n      pop\n      jump\t// out\n        /* \"#utility.yul\":29566:29985   */\n    tag_259:\n        /* \"#utility.yul\":29732:29736   */\n      0x00\n        /* \"#utility.yul\":29770:29772   */\n      0x20\n        /* \"#utility.yul\":29759:29768   */\n      dup3\n        /* \"#utility.yul\":29755:29773   */\n      add\n        /* \"#utility.yul\":29747:29773   */\n      swap1\n      pop\n        /* \"#utility.yul\":29819:29828   */\n      dup2\n        /* \"#utility.yul\":29813:29817   */\n      dup2\n        /* \"#utility.yul\":29809:29829   */\n      sub\n        /* \"#utility.yul\":29805:29806   */\n      0x00\n        /* \"#utility.yul\":29794:29803   */\n      dup4\n        /* \"#utility.yul\":29790:29807   */\n      add\n        /* \"#utility.yul\":29783:29830   */\n      mstore\n        /* \"#utility.yul\":29847:29978   */\n      tag_748\n        /* \"#utility.yul\":29973:29977   */\n      dup2\n        /* \"#utility.yul\":29847:29978   */\n      tag_444\n      jump\t// in\n    tag_748:\n        /* \"#utility.yul\":29839:29978   */\n      swap1\n      pop\n        /* \"#utility.yul\":29566:29985   */\n      swap2\n      swap1\n      pop\n      jump\t// out\n        /* \"#utility.yul\":29991:30156   */\n    tag_445:\n        /* \"#utility.yul\":30131:30148   */\n      0x4e6f207469636b65747320736f6c640000000000000000000000000000000000\n        /* \"#utility.yul\":30127:30128   */\n      0x00\n        /* \"#utility.yul\":30119:30125   */\n      dup3\n        /* \"#utility.yul\":30115:30129   */\n      add\n        /* \"#utility.yul\":30108:30149   */\n      mstore\n        /* \"#utility.yul\":29991:30156   */\n      pop\n      jump\t// out\n        /* \"#utility.yul\":30162:30528   */\n    tag_446:\n        /* \"#utility.yul\":30304:30307   */\n      0x00\n        /* \"#utility.yul\":30325:30392   */\n      tag_751\n        /* \"#utility.yul\":30389:30391   */\n      0x0f\n        /* \"#utility.yul\":30384:30387   */\n      dup4\n        /* \"#utility.yul\":30325:30392   */\n      tag_395\n      jump\t// in\n    tag_751:\n        /* \"#utility.yul\":30318:30392   */\n      swap2\n      pop\n        /* \"#utility.yul\":30401:30494   */\n      tag_752\n        /* \"#utility.yul\":30490:30493   */\n      dup3\n        /* \"#utility.yul\":30401:30494   */\n      tag_445\n      jump\t// in\n    tag_752:\n        /* \"#utility.yul\":30519:30521   */\n      0x20\n        /* \"#utility.yul\":30514:30517   */\n      dup3\n        /* \"#utility.yul\":30510:30522   */\n      add\n        /* \"#utility.yul\":30503:30522   */\n      swap1\n      pop\n        /* \"#utility.yul\":30162:30528   */\n      swap2\n      swap1\n      pop\n      jump\t// out\n        /* \"#utility.yul\":30534:30953   */\n    tag_262:\n        /* \"#utility.yul\":30700:30704   */\n      0x00\n        /* \"#utility.yul\":30738:30740   */\n      0x20\n        /* \"#utility.yul\":30727:30736   */\n      dup3\n        /* \"#utility.yul\":30723:30741   */\n      add\n        /* \"#utility.yul\":30715:30741   */\n      swap1\n      pop\n        /* \"#utility.yul\":30787:30796   */\n      dup2\n        /* \"#utility.yul\":30781:30785   */\n      dup2\n        /* \"#utility.yul\":30777:30797   */\n      sub\n        /* \"#utility.yul\":30773:30774   */\n      0x00\n        /* \"#utility.yul\":30762:30771   */\n      dup4\n        /* \"#utility.yul\":30758:30775   */\n      add\n        /* \"#utility.yul\":30751:30798   */\n      mstore\n        /* \"#utility.yul\":30815:30946   */\n      tag_754\n        /* \"#utility.yul\":30941:30945   */\n      dup2\n        /* \"#utility.yul\":30815:30946   */\n      tag_446\n      jump\t// in\n    tag_754:\n        /* \"#utility.yul\":30807:30946   */\n      swap1\n      pop\n        /* \"#utility.yul\":30534:30953   */\n      swap2\n      swap1\n      pop\n      jump\t// out\n        /* \"#utility.yul\":30959:31130   */\n    tag_447:\n        /* \"#utility.yul\":31099:31122   */\n      0x4f6e6c792063726561746f72206f72206f776e65720000000000000000000000\n        /* \"#utility.yul\":31095:31096   */\n      0x00\n        /* \"#utility.yul\":31087:31093   */\n      dup3\n        /* \"#utility.yul\":31083:31097   */\n      add\n        /* \"#utility.yul\":31076:31123   */\n      mstore\n        /* \"#utility.yul\":30959:31130   */\n      pop\n      jump\t// out\n        /* \"#utility.yul\":31136:31502   */\n    tag_448:\n        /* \"#utility.yul\":31278:31281   */\n      0x00\n        /* \"#utility.yul\":31299:31366   */\n      tag_757\n        /* \"#utility.yul\":31363:31365   */\n      0x15\n        /* \"#utility.yul\":31358:31361   */\n      dup4\n        /* \"#utility.yul\":31299:31366   */\n      tag_395\n      jump\t// in\n    tag_757:\n        /* \"#utility.yul\":31292:31366   */\n      swap2\n      pop\n        /* \"#utility.yul\":31375:31468   */\n      tag_758\n        /* \"#utility.yul\":31464:31467   */\n      dup3\n        /* \"#utility.yul\":31375:31468   */\n      tag_447\n      jump\t// in\n    tag_758:\n        /* \"#utility.yul\":31493:31495   */\n      0x20\n        /* \"#utility.yul\":31488:31491   */\n      dup3\n        /* \"#utility.yul\":31484:31496   */\n      add\n        /* \"#utility.yul\":31477:31496   */\n      swap1\n      pop\n        /* \"#utility.yul\":31136:31502   */\n      swap2\n      swap1\n      pop\n      jump\t// out\n        /* \"#utility.yul\":31508:31927   */\n    tag_286:\n        /* \"#utility.yul\":31674:31678   */\n      0x00\n        /* \"#utility.yul\":31712:31714   */\n      0x20\n        /* \"#utility.yul\":31701:31710   */\n      dup3\n        /* \"#utility.yul\":31697:31715   */\n      add\n        /* \"#utility.yul\":31689:31715   */\n      swap1\n      pop\n        /* \"#utility.yul\":31761:31770   */\n      dup2\n        /* \"#utility.yul\":31755:31759   */\n      dup2\n        /* \"#utility.yul\":31751:31771   */\n      sub\n        /* \"#utility.yul\":31747:31748   */\n      0x00\n        /* \"#utility.yul\":31736:31745   */\n      dup4\n        /* \"#utility.yul\":31732:31749   */\n      add\n        /* \"#utility.yul\":31725:31772   */\n      mstore\n        /* \"#utility.yul\":31789:31920   */\n      tag_760\n        /* \"#utility.yul\":31915:31919   */\n      dup2\n        /* \"#utility.yul\":31789:31920   */\n      tag_448\n      jump\t// in\n    tag_760:\n        /* \"#utility.yul\":31781:31920   */\n      swap1\n      pop\n        /* \"#utility.yul\":31508:31927   */\n      swap2\n      swap1\n      pop\n      jump\t// out\n        /* \"#utility.yul\":31933:32102   */\n    tag_449:\n        /* \"#utility.yul\":32073:32094   */\n      0x436f6d6d697373696f6e20746f6f206869676800000000000000000000000000\n        /* \"#utility.yul\":32069:32070   */\n      0x00\n        /* \"#utility.yul\":32061:32067   */\n      dup3\n        /* \"#utility.yul\":32057:32071   */\n      add\n        /* \"#utility.yul\":32050:32095   */\n      mstore\n        /* \"#utility.yul\":31933:32102   */\n      pop\n      jump\t// out\n        /* \"#utility.yul\":32108:32474   */\n    tag_450:\n        /* \"#utility.yul\":32250:32253   */\n      0x00\n        /* \"#utility.yul\":32271:32338   */\n      tag_763\n        /* \"#utility.yul\":32335:32337   */\n      0x13\n        /* \"#utility.yul\":32330:32333   */\n      dup4\n        /* \"#utility.yul\":32271:32338   */\n      tag_395\n      jump\t// in\n    tag_763:\n        /* \"#utility.yul\":32264:32338   */\n      swap2\n      pop\n        /* \"#utility.yul\":32347:32440   */\n      tag_764\n        /* \"#utility.yul\":32436:32439   */\n      dup3\n        /* \"#utility.yul\":32347:32440   */\n      tag_449\n      jump\t// in\n    tag_764:\n        /* \"#utility.yul\":32465:32467   */\n      0x20\n        /* \"#utility.yul\":32460:32463   */\n      dup3\n        /* \"#utility.yul\":32456:32468   */\n      add\n        /* \"#utility.yul\":32449:32468   */\n      swap1\n      pop\n        /* \"#utility.yul\":32108:32474   */\n      swap2\n      swap1\n      pop\n      jump\t// out\n        /* \"#utility.yul\":32480:32899   */\n    tag_293:\n        /* \"#utility.yul\":32646:32650   */\n      0x00\n        /* \"#utility.yul\":32684:32686   */\n      0x20\n        /* \"#utility.yul\":32673:32682   */\n      dup3\n        /* \"#utility.yul\":32669:32687   */\n      add\n        /* \"#utility.yul\":32661:32687   */\n      swap1\n      pop\n        /* \"#utility.yul\":32733:32742   */\n      dup2\n        /* \"#utility.yul\":32727:32731   */\n      dup2\n        /* \"#utility.yul\":32723:32743   */\n      sub\n        /* \"#utility.yul\":32719:32720   */\n      0x00\n        /* \"#utility.yul\":32708:32717   */\n      dup4\n        /* \"#utility.yul\":32704:32721   */\n      add\n        /* \"#utility.yul\":32697:32744   */\n      mstore\n        /* \"#utility.yul\":32761:32892   */\n      tag_766\n        /* \"#utility.yul\":32887:32891   */\n      dup2\n        /* \"#utility.yul\":32761:32892   */\n      tag_450\n      jump\t// in\n    tag_766:\n        /* \"#utility.yul\":32753:32892   */\n      swap1\n      pop\n        /* \"#utility.yul\":32480:32899   */\n      swap2\n      swap1\n      pop\n      jump\t// out\n        /* \"#utility.yul\":32905:33237   */\n    tag_295:\n        /* \"#utility.yul\":33026:33030   */\n      0x00\n        /* \"#utility.yul\":33064:33066   */\n      0x40\n        /* \"#utility.yul\":33053:33062   */\n      dup3\n        /* \"#utility.yul\":33049:33067   */\n      add\n        /* \"#utility.yul\":33041:33067   */\n      swap1\n      pop\n        /* \"#utility.yul\":33077:33148   */\n      tag_768\n        /* \"#utility.yul\":33145:33146   */\n      0x00\n        /* \"#utility.yul\":33134:33143   */\n      dup4\n        /* \"#utility.yul\":33130:33147   */\n      add\n        /* \"#utility.yul\":33121:33127   */\n      dup6\n        /* \"#utility.yul\":33077:33148   */\n      tag_390\n      jump\t// in\n    tag_768:\n        /* \"#utility.yul\":33158:33230   */\n      tag_769\n        /* \"#utility.yul\":33226:33228   */\n      0x20\n        /* \"#utility.yul\":33215:33224   */\n      dup4\n        /* \"#utility.yul\":33211:33229   */\n      add\n        /* \"#utility.yul\":33202:33208   */\n      dup5\n        /* \"#utility.yul\":33158:33230   */\n      tag_390\n      jump\t// in\n    tag_769:\n        /* \"#utility.yul\":32905:33237   */\n      swap4\n      swap3\n      pop\n      pop\n      pop\n      jump\t// out\n        /* \"#utility.yul\":33243:33403   */\n    tag_451:\n        /* \"#utility.yul\":33383:33395   */\n      0x4f6e6c79206f776e657200000000000000000000000000000000000000000000\n        /* \"#utility.yul\":33379:33380   */\n      0x00\n        /* \"#utility.yul\":33371:33377   */\n      dup3\n        /* \"#utility.yul\":33367:33381   */\n      add\n        /* \"#utility.yul\":33360:33396   */\n      mstore\n        /* \"#utility.yul\":33243:33403   */\n      pop\n      jump\t// out\n        /* \"#utility.yul\":33409:33775   */\n    tag_452:\n        /* \"#utility.yul\":33551:33554   */\n      0x00\n        /* \"#utility.yul\":33572:33639   */\n      tag_772\n        /* \"#utility.yul\":33636:33638   */\n      0x0a\n        /* \"#utility.yul\":33631:33634   */\n      dup4\n        /* \"#utility.yul\":33572:33639   */\n      tag_395\n      jump\t// in\n    tag_772:\n        /* \"#utility.yul\":33565:33639   */\n      swap2\n      pop\n        /* \"#utility.yul\":33648:33741   */\n      tag_773\n        /* \"#utility.yul\":33737:33740   */\n      dup3\n        /* \"#utility.yul\":33648:33741   */\n      tag_451\n      jump\t// in\n    tag_773:\n        /* \"#utility.yul\":33766:33768   */\n      0x20\n        /* \"#utility.yul\":33761:33764   */\n      dup3\n        /* \"#utility.yul\":33757:33769   */\n      add\n        /* \"#utility.yul\":33750:33769   */\n      swap1\n      pop\n        /* \"#utility.yul\":33409:33775   */\n      swap2\n      swap1\n      pop\n      jump\t// out\n        /* \"#utility.yul\":33781:34200   */\n    tag_302:\n        /* \"#utility.yul\":33947:33951   */\n      0x00\n        /* \"#utility.yul\":33985:33987   */\n      0x20\n        /* \"#utility.yul\":33974:33983   */\n      dup3\n        /* \"#utility.yul\":33970:33988   */\n      add\n        /* \"#utility.yul\":33962:33988   */\n      swap1\n      pop\n        /* \"#utility.yul\":34034:34043   */\n      dup2\n        /* \"#utility.yul\":34028:34032   */\n      dup2\n        /* \"#utility.yul\":34024:34044   */\n      sub\n        /* \"#utility.yul\":34020:34021   */\n      0x00\n        /* \"#utility.yul\":34009:34018   */\n      dup4\n        /* \"#utility.yul\":34005:34022   */\n      add\n        /* \"#utility.yul\":33998:34045   */\n      mstore\n        /* \"#utility.yul\":34062:34193   */\n      tag_775\n        /* \"#utility.yul\":34188:34192   */\n      dup2\n        /* \"#utility.yul\":34062:34193   */\n      tag_452\n      jump\t// in\n    tag_775:\n        /* \"#utility.yul\":34054:34193   */\n      swap1\n      pop\n        /* \"#utility.yul\":33781:34200   */\n      swap2\n      swap1\n      pop\n      jump\t// out\n        /* \"#utility.yul\":34206:34378   */\n    tag_453:\n        /* \"#utility.yul\":34346:34370   */\n      0x4c6f7474657279206e6f7420636c6f7365642079657400000000000000000000\n        /* \"#utility.yul\":34342:34343   */\n      0x00\n        /* \"#utility.yul\":34334:34340   */\n      dup3\n        /* \"#utility.yul\":34330:34344   */\n      add\n        /* \"#utility.yul\":34323:34371   */\n      mstore\n        /* \"#utility.yul\":34206:34378   */\n      pop\n      jump\t// out\n        /* \"#utility.yul\":34384:34750   */\n    tag_454:\n        /* \"#utility.yul\":34526:34529   */\n      0x00\n        /* \"#utility.yul\":34547:34614   */\n      tag_778\n        /* \"#utility.yul\":34611:34613   */\n      0x16\n        /* \"#utility.yul\":34606:34609   */\n      dup4\n        /* \"#utility.yul\":34547:34614   */\n      tag_395\n      jump\t// in\n    tag_778:\n        /* \"#utility.yul\":34540:34614   */\n      swap2\n      pop\n        /* \"#utility.yul\":34623:34716   */\n      tag_779\n        /* \"#utility.yul\":34712:34715   */\n      dup3\n        /* \"#utility.yul\":34623:34716   */\n      tag_453\n      jump\t// in\n    tag_779:\n        /* \"#utility.yul\":34741:34743   */\n      0x20\n        /* \"#utility.yul\":34736:34739   */\n      dup3\n        /* \"#utility.yul\":34732:34744   */\n      add\n        /* \"#utility.yul\":34725:34744   */\n      swap1\n      pop\n        /* \"#utility.yul\":34384:34750   */\n      swap2\n      swap1\n      pop\n      jump\t// out\n        /* \"#utility.yul\":34756:35175   */\n    tag_310:\n        /* \"#utility.yul\":34922:34926   */\n      0x00\n        /* \"#utility.yul\":34960:34962   */\n      0x20\n        /* \"#utility.yul\":34949:34958   */\n      dup3\n        /* \"#utility.yul\":34945:34963   */\n      add\n        /* \"#utility.yul\":34937:34963   */\n      swap1\n      pop\n        /* \"#utility.yul\":35009:35018   */\n      dup2\n        /* \"#utility.yul\":35003:35007   */\n      dup2\n        /* \"#utility.yul\":34999:35019   */\n      sub\n        /* \"#utility.yul\":34995:34996   */\n      0x00\n        /* \"#utility.yul\":34984:34993   */\n      dup4\n        /* \"#utility.yul\":34980:34997   */\n      add\n        /* \"#utility.yul\":34973:35020   */\n      mstore\n        /* \"#utility.yul\":35037:35168   */\n      tag_781\n        /* \"#utility.yul\":35163:35167   */\n      dup2\n        /* \"#utility.yul\":35037:35168   */\n      tag_454\n      jump\t// in\n    tag_781:\n        /* \"#utility.yul\":35029:35168   */\n      swap1\n      pop\n        /* \"#utility.yul\":34756:35175   */\n      swap2\n      swap1\n      pop\n      jump\t// out\n        /* \"#utility.yul\":35181:35352   */\n    tag_455:\n        /* \"#utility.yul\":35321:35344   */\n      0x4f6e6c792077696e6e65722063616e20636c61696d0000000000000000000000\n        /* \"#utility.yul\":35317:35318   */\n      0x00\n        /* \"#utility.yul\":35309:35315   */\n      dup3\n        /* \"#utility.yul\":35305:35319   */\n      add\n        /* \"#utility.yul\":35298:35345   */\n      mstore\n        /* \"#utility.yul\":35181:35352   */\n      pop\n      jump\t// out\n        /* \"#utility.yul\":35358:35724   */\n    tag_456:\n        /* \"#utility.yul\":35500:35503   */\n      0x00\n        /* \"#utility.yul\":35521:35588   */\n      tag_784\n        /* \"#utility.yul\":35585:35587   */\n      0x15\n        /* \"#utility.yul\":35580:35583   */\n      dup4\n        /* \"#utility.yul\":35521:35588   */\n      tag_395\n      jump\t// in\n    tag_784:\n        /* \"#utility.yul\":35514:35588   */\n      swap2\n      pop\n        /* \"#utility.yul\":35597:35690   */\n      tag_785\n        /* \"#utility.yul\":35686:35689   */\n      dup3\n        /* \"#utility.yul\":35597:35690   */\n      tag_455\n      jump\t// in\n    tag_785:\n        /* \"#utility.yul\":35715:35717   */\n      0x20\n        /* \"#utility.yul\":35710:35713   */\n      dup3\n        /* \"#utility.yul\":35706:35718   */\n      add\n        /* \"#utility.yul\":35699:35718   */\n      swap1\n      pop\n        /* \"#utility.yul\":35358:35724   */\n      swap2\n      swap1\n      pop\n      jump\t// out\n        /* \"#utility.yul\":35730:36149   */\n    tag_313:\n        /* \"#utility.yul\":35896:35900   */\n      0x00\n        /* \"#utility.yul\":35934:35936   */\n      0x20\n        /* \"#utility.yul\":35923:35932   */\n      dup3\n        /* \"#utility.yul\":35919:35937   */\n      add\n        /* \"#utility.yul\":35911:35937   */\n      swap1\n      pop\n        /* \"#utility.yul\":35983:35992   */\n      dup2\n        /* \"#utility.yul\":35977:35981   */\n      dup2\n        /* \"#utility.yul\":35973:35993   */\n      sub\n        /* \"#utility.yul\":35969:35970   */\n      0x00\n        /* \"#utility.yul\":35958:35967   */\n      dup4\n        /* \"#utility.yul\":35954:35971   */\n      add\n        /* \"#utility.yul\":35947:35994   */\n      mstore\n        /* \"#utility.yul\":36011:36142   */\n      tag_787\n        /* \"#utility.yul\":36137:36141   */\n      dup2\n        /* \"#utility.yul\":36011:36142   */\n      tag_456\n      jump\t// in\n    tag_787:\n        /* \"#utility.yul\":36003:36142   */\n      swap1\n      pop\n        /* \"#utility.yul\":35730:36149   */\n      swap2\n      swap1\n      pop\n      jump\t// out\n        /* \"#utility.yul\":36155:36322   */\n    tag_457:\n        /* \"#utility.yul\":36295:36314   */\n      0x4e6f207072697a6520746f20636c61696d000000000000000000000000000000\n        /* \"#utility.yul\":36291:36292   */\n      0x00\n        /* \"#utility.yul\":36283:36289   */\n      dup3\n        /* \"#utility.yul\":36279:36293   */\n      add\n        /* \"#utility.yul\":36272:36315   */\n      mstore\n        /* \"#utility.yul\":36155:36322   */\n      pop\n      jump\t// out\n        /* \"#utility.yul\":36328:36694   */\n    tag_458:\n        /* \"#utility.yul\":36470:36473   */\n      0x00\n        /* \"#utility.yul\":36491:36558   */\n      tag_790\n        /* \"#utility.yul\":36555:36557   */\n      0x11\n        /* \"#utility.yul\":36550:36553   */\n      dup4\n        /* \"#utility.yul\":36491:36558   */\n      tag_395\n      jump\t// in\n    tag_790:\n        /* \"#utility.yul\":36484:36558   */\n      swap2\n      pop\n        /* \"#utility.yul\":36567:36660   */\n      tag_791\n        /* \"#utility.yul\":36656:36659   */\n      dup3\n        /* \"#utility.yul\":36567:36660   */\n      tag_457\n      jump\t// in\n    tag_791:\n        /* \"#utility.yul\":36685:36687   */\n      0x20\n        /* \"#utility.yul\":36680:36683   */\n      dup3\n        /* \"#utility.yul\":36676:36688   */\n      add\n        /* \"#utility.yul\":36669:36688   */\n      swap1\n      pop\n        /* \"#utility.yul\":36328:36694   */\n      swap2\n      swap1\n      pop\n      jump\t// out\n        /* \"#utility.yul\":36700:37119   */\n    tag_316:\n        /* \"#utility.yul\":36866:36870   */\n      0x00\n        /* \"#utility.yul\":36904:36906   */\n      0x20\n        /* \"#utility.yul\":36893:36902   */\n      dup3\n        /* \"#utility.yul\":36889:36907   */\n      add\n        /* \"#utility.yul\":36881:36907   */\n      swap1\n      pop\n        /* \"#utility.yul\":36953:36962   */\n      dup2\n        /* \"#utility.yul\":36947:36951   */\n      dup2\n        /* \"#utility.yul\":36943:36963   */\n      sub\n        /* \"#utility.yul\":36939:36940   */\n      0x00\n        /* \"#utility.yul\":36928:36937   */\n      dup4\n        /* \"#utility.yul\":36924:36941   */\n      add\n        /* \"#utility.yul\":36917:36964   */\n      mstore\n        /* \"#utility.yul\":36981:37112   */\n      tag_793\n        /* \"#utility.yul\":37107:37111   */\n      dup2\n        /* \"#utility.yul\":36981:37112   */\n      tag_458\n      jump\t// in\n    tag_793:\n        /* \"#utility.yul\":36973:37112   */\n      swap1\n      pop\n        /* \"#utility.yul\":36700:37119   */\n      swap2\n      swap1\n      pop\n      jump\t// out\n        /* \"#utility.yul\":37125:37299   */\n    tag_459:\n        /* \"#utility.yul\":37265:37291   */\n      0x5469636b6574207072696365206d757374206265203e20300000000000000000\n        /* \"#utility.yul\":37261:37262   */\n      0x00\n        /* \"#utility.yul\":37253:37259   */\n      dup3\n        /* \"#utility.yul\":37249:37263   */\n      add\n        /* \"#utility.yul\":37242:37292   */\n      mstore\n        /* \"#utility.yul\":37125:37299   */\n      pop\n      jump\t// out\n        /* \"#utility.yul\":37305:37671   */\n    tag_460:\n        /* \"#utility.yul\":37447:37450   */\n      0x00\n        /* \"#utility.yul\":37468:37535   */\n      tag_796\n        /* \"#utility.yul\":37532:37534   */\n      0x18\n        /* \"#utility.yul\":37527:37530   */\n      dup4\n        /* \"#utility.yul\":37468:37535   */\n      tag_395\n      jump\t// in\n    tag_796:\n        /* \"#utility.yul\":37461:37535   */\n      swap2\n      pop\n        /* \"#utility.yul\":37544:37637   */\n      tag_797\n        /* \"#utility.yul\":37633:37636   */\n      dup3\n        /* \"#utility.yul\":37544:37637   */\n      tag_459\n      jump\t// in\n    tag_797:\n        /* \"#utility.yul\":37662:37664   */\n      0x20\n        /* \"#utility.yul\":37657:37660   */\n      dup3\n        /* \"#utility.yul\":37653:37665   */\n      add\n        /* \"#utility.yul\":37646:37665   */\n      swap1\n      pop\n        /* \"#utility.yul\":37305:37671   */\n      swap2\n      swap1\n      pop\n      jump\t// out\n        /* \"#utility.yul\":37677:38096   */\n    tag_327:\n        /* \"#utility.yul\":37843:37847   */\n      0x00\n        /* \"#utility.yul\":37881:37883   */\n      0x20\n        /* \"#utility.yul\":37870:37879   */\n      dup3\n        /* \"#utility.yul\":37866:37884   */\n      add\n        /* \"#utility.yul\":37858:37884   */\n      swap1\n      pop\n        /* \"#utility.yul\":37930:37939   */\n      dup2\n        /* \"#utility.yul\":37924:37928   */\n      dup2\n        /* \"#utility.yul\":37920:37940   */\n      sub\n        /* \"#utility.yul\":37916:37917   */\n      0x00\n        /* \"#utility.yul\":37905:37914   */\n      dup4\n        /* \"#utility.yul\":37901:37918   */\n      add\n        /* \"#utility.yul\":37894:37941   */\n      mstore\n        /* \"#utility.yul\":37958:38089   */\n      tag_799\n        /* \"#utility.yul\":38084:38088   */\n      dup2\n        /* \"#utility.yul\":37958:38089   */\n      tag_460\n      jump\t// in\n    tag_799:\n        /* \"#utility.yul\":37950:38089   */\n      swap1\n      pop\n        /* \"#utility.yul\":37677:38096   */\n      swap2\n      swap1\n      pop\n      jump\t// out\n        /* \"#utility.yul\":38102:38268   */\n    tag_461:\n        /* \"#utility.yul\":38242:38260   */\n      0x496e76616c696420656e642074696d6500000000000000000000000000000000\n        /* \"#utility.yul\":38238:38239   */\n      0x00\n        /* \"#utility.yul\":38230:38236   */\n      dup3\n        /* \"#utility.yul\":38226:38240   */\n      add\n        /* \"#utility.yul\":38219:38261   */\n      mstore\n        /* \"#utility.yul\":38102:38268   */\n      pop\n      jump\t// out\n        /* \"#utility.yul\":38274:38640   */\n    tag_462:\n        /* \"#utility.yul\":38416:38419   */\n      0x00\n        /* \"#utility.yul\":38437:38504   */\n      tag_802\n        /* \"#utility.yul\":38501:38503   */\n      0x10\n        /* \"#utility.yul\":38496:38499   */\n      dup4\n        /* \"#utility.yul\":38437:38504   */\n      tag_395\n      jump\t// in\n    tag_802:\n        /* \"#utility.yul\":38430:38504   */\n      swap2\n      pop\n        /* \"#utility.yul\":38513:38606   */\n      tag_803\n        /* \"#utility.yul\":38602:38605   */\n      dup3\n        /* \"#utility.yul\":38513:38606   */\n      tag_461\n      jump\t// in\n    tag_803:\n        /* \"#utility.yul\":38631:38633   */\n      0x20\n        /* \"#utility.yul\":38626:38629   */\n      dup3\n        /* \"#utility.yul\":38622:38634   */\n      add\n        /* \"#utility.yul\":38615:38634   */\n      swap1\n      pop\n        /* \"#utility.yul\":38274:38640   */\n      swap2\n      swap1\n      pop\n      jump\t// out\n        /* \"#utility.yul\":38646:39065   */\n    tag_331:\n        /* \"#utility.yul\":38812:38816   */\n      0x00\n        /* \"#utility.yul\":38850:38852   */\n      0x20\n        /* \"#utility.yul\":38839:38848   */\n      dup3\n        /* \"#utility.yul\":38835:38853   */\n      add\n        /* \"#utility.yul\":38827:38853   */\n      swap1\n      pop\n        /* \"#utility.yul\":38899:38908   */\n      dup2\n        /* \"#utility.yul\":38893:38897   */\n      dup2\n        /* \"#utility.yul\":38889:38909   */\n      sub\n        /* \"#utility.yul\":38885:38886   */\n      0x00\n        /* \"#utility.yul\":38874:38883   */\n      dup4\n        /* \"#utility.yul\":38870:38887   */\n      add\n        /* \"#utility.yul\":38863:38910   */\n      mstore\n        /* \"#utility.yul\":38927:39058   */\n      tag_805\n        /* \"#utility.yul\":39053:39057   */\n      dup2\n        /* \"#utility.yul\":38927:39058   */\n      tag_462\n      jump\t// in\n    tag_805:\n        /* \"#utility.yul\":38919:39058   */\n      swap1\n      pop\n        /* \"#utility.yul\":38646:39065   */\n      swap2\n      swap1\n      pop\n      jump\t// out\n        /* \"#utility.yul\":39071:39212   */\n    tag_463:\n        /* \"#utility.yul\":39120:39124   */\n      0x00\n        /* \"#utility.yul\":39143:39146   */\n      dup2\n        /* \"#utility.yul\":39135:39146   */\n      swap1\n      pop\n        /* \"#utility.yul\":39166:39169   */\n      dup2\n        /* \"#utility.yul\":39163:39164   */\n      0x00\n        /* \"#utility.yul\":39156:39170   */\n      mstore\n        /* \"#utility.yul\":39200:39204   */\n      0x20\n        /* \"#utility.yul\":39197:39198   */\n      0x00\n        /* \"#utility.yul\":39187:39205   */\n      keccak256\n        /* \"#utility.yul\":39179:39205   */\n      swap1\n      pop\n        /* \"#utility.yul\":39071:39212   */\n      swap2\n      swap1\n      pop\n      jump\t// out\n        /* \"#utility.yul\":39218:39311   */\n    tag_464:\n        /* \"#utility.yul\":39255:39261   */\n      0x00\n        /* \"#utility.yul\":39302:39304   */\n      0x20\n        /* \"#utility.yul\":39297:39299   */\n      0x1f\n        /* \"#utility.yul\":39290:39295   */\n      dup4\n        /* \"#utility.yul\":39286:39300   */\n      add\n        /* \"#utility.yul\":39282:39305   */\n      div\n        /* \"#utility.yul\":39272:39305   */\n      swap1\n      pop\n        /* \"#utility.yul\":39218:39311   */\n      swap2\n      swap1\n      pop\n      jump\t// out\n        /* \"#utility.yul\":39317:39424   */\n    tag_465:\n        /* \"#utility.yul\":39361:39369   */\n      0x00\n        /* \"#utility.yul\":39411:39416   */\n      dup3\n        /* \"#utility.yul\":39405:39409   */\n      dup3\n        /* \"#utility.yul\":39401:39417   */\n      shl\n        /* \"#utility.yul\":39380:39417   */\n      swap1\n      pop\n        /* \"#utility.yul\":39317:39424   */\n      swap3\n      swap2\n      pop\n      pop\n      jump\t// out\n        /* \"#utility.yul\":39430:39823   */\n    tag_466:\n        /* \"#utility.yul\":39499:39505   */\n      0x00\n        /* \"#utility.yul\":39549:39550   */\n      0x08\n        /* \"#utility.yul\":39537:39547   */\n      dup4\n        /* \"#utility.yul\":39533:39551   */\n      mul\n        /* \"#utility.yul\":39572:39669   */\n      tag_810\n        /* \"#utility.yul\":39602:39668   */\n      0xffffffffffffffffffffffffffffffffffffffffffffffffffffffffffffffff\n        /* \"#utility.yul\":39591:39600   */\n      dup3\n        /* \"#utility.yul\":39572:39669   */\n      tag_465\n      jump\t// in\n    tag_810:\n        /* \"#utility.yul\":39690:39729   */\n      tag_811\n        /* \"#utility.yul\":39720:39728   */\n      dup7\n        /* \"#utility.yul\":39709:39718   */\n      dup4\n        /* \"#utility.yul\":39690:39729   */\n      tag_465\n      jump\t// in\n    tag_811:\n        /* \"#utility.yul\":39678:39729   */\n      swap6\n      pop\n        /* \"#utility.yul\":39762:39766   */\n      dup1\n        /* \"#utility.yul\":39758:39767   */\n      not\n        /* \"#utility.yul\":39751:39756   */\n      dup5\n        /* \"#utility.yul\":39747:39768   */\n      and\n        /* \"#utility.yul\":39738:39768   */\n      swap4\n      pop\n        /* \"#utility.yul\":39811:39815   */\n      dup1\n        /* \"#utility.yul\":39801:39809   */\n      dup7\n        /* \"#utility.yul\":39797:39816   */\n      and\n        /* \"#utility.yul\":39790:39795   */\n      dup5\n        /* \"#utility.yul\":39787:39817   */\n      or\n        /* \"#utility.yul\":39777:39817   */\n      swap3\n      pop\n        /* \"#utility.yul\":39506:39823   */\n      pop\n      pop\n        /* \"#utility.yul\":39430:39823   */\n      swap4\n      swap3\n      pop\n      pop\n      pop\n      jump\t// out\n        /* \"#utility.yul\":39829:39889   */\n    tag_467:\n        /* \"#utility.yul\":39857:39860   */\n      0x00\n        /* \"#utility.yul\":39878:39883   */\n      dup2\n        /* \"#utility.yul\":39871:39883   */\n      swap1\n      pop\n        /* \"#utility.yul\":39829:39889   */\n      swap2\n      swap1\n      pop\n      jump\t// out\n        /* \"#utility.yul\":39895:40037   */\n    tag_468:\n        /* \"#utility.yul\":39945:39954   */\n      0x00\n        /* \"#utility.yul\":39978:40031   */\n      tag_814\n        /* \"#utility.yul\":39996:40030   */\n      tag_815\n        /* \"#utility.yul\":40005:40029   */\n      tag_816\n        /* \"#utility.yul\":40023:40028   */\n      dup5\n        /* \"#utility.yul\":40005:40029   */\n      tag_380\n      jump\t// in\n    tag_816:\n        /* \"#utility.yul\":39996:40030   */\n      tag_467\n      jump\t// in\n    tag_815:\n        /* \"#utility.yul\":39978:40031   */\n      tag_380\n      jump\t// in\n    tag_814:\n        /* \"#utility.yul\":39965:40031   */\n      swap1\n      pop\n        /* \"#utility.yul\":39895:40037   */\n      swap2\n      swap1\n      pop\n      jump\t// out\n        /* \"#utility.yul\":40043:40118   */\n    tag_469:\n        /* \"#utility.yul\":40086:40089   */\n      0x00\n        /* \"#utility.yul\":40107:40112   */\n      dup2\n        /* \"#utility.yul\":40100:40112   */\n      swap1\n      pop\n        /* \"#utility.yul\":40043:40118   */\n      swap2\n      swap1\n      pop\n      jump\t// out\n        /* \"#utility.yul\":40124:40393   */\n    tag_470:\n        /* \"#utility.yul\":40234:40273   */\n      tag_819\n        /* \"#utility.yul\":40265:40272   */\n      dup4\n        /* \"#utility.yul\":40234:40273   */\n      tag_468\n      jump\t// in\n    tag_819:\n        /* \"#utility.yul\":40295:40386   */\n      tag_820\n        /* \"#utility.yul\":40344:40385   */\n      tag_821\n        /* \"#utility.yul\":40368:40384   */\n      dup3\n        /* \"#utility.yul\":40344:40385   */\n      tag_469\n      jump\t// in\n    tag_821:\n        /* \"#utility.yul\":40336:40342   */\n      dup5\n        /* \"#utility.yul\":40329:40333   */\n      dup5\n        /* \"#utility.yul\":40323:40334   */\n      sload\n        /* \"#utility.yul\":40295:40386   */\n      tag_466\n      jump\t// in\n    tag_820:\n        /* \"#utility.yul\":40289:40293   */\n      dup3\n        /* \"#utility.yul\":40282:40387   */\n      sstore\n        /* \"#utility.yul\":40200:40393   */\n      pop\n        /* \"#utility.yul\":40124:40393   */\n      pop\n      pop\n      pop\n      jump\t// out\n        /* \"#utility.yul\":40399:40472   */\n    tag_471:\n        /* \"#utility.yul\":40444:40447   */\n      0x00\n        /* \"#utility.yul\":40465:40466   */\n      0x00\n        /* \"#utility.yul\":40458:40466   */\n      swap1\n      pop\n        /* \"#utility.yul\":40399:40472   */\n      swap1\n      jump\t// out\n        /* \"#utility.yul\":40478:40667   */\n    tag_472:\n        /* \"#utility.yul\":40555:40587   */\n      tag_824\n      tag_471\n      jump\t// in\n    tag_824:\n        /* \"#utility.yul\":40596:40661   */\n      tag_825\n        /* \"#utility.yul\":40654:40660   */\n      dup2\n        /* \"#utility.yul\":40646:40652   */\n      dup5\n        /* \"#utility.yul\":40640:40644   */\n      dup5\n        /* \"#utility.yul\":40596:40661   */\n      tag_470\n      jump\t// in\n    tag_825:\n        /* \"#utility.yul\":40531:40667   */\n      pop\n        /* \"#utility.yul\":40478:40667   */\n      pop\n      pop\n      jump\t// out\n        /* \"#utility.yul\":40673:40859   */\n    tag_473:\n        /* \"#utility.yul\":40733:40853   */\n    tag_827:\n        /* \"#utility.yul\":40750:40753   */\n      dup2\n        /* \"#utility.yul\":40743:40748   */\n      dup2\n        /* \"#utility.yul\":40740:40754   */\n      lt\n        /* \"#utility.yul\":40733:40853   */\n      iszero\n      tag_829\n      jumpi\n        /* \"#utility.yul\":40804:40843   */\n      tag_830\n        /* \"#utility.yul\":40841:40842   */\n      0x00\n        /* \"#utility.yul\":40834:40839   */\n      dup3\n        /* \"#utility.yul\":40804:40843   */\n      tag_472\n      jump\t// in\n    tag_830:\n        /* \"#utility.yul\":40777:40778   */\n      0x01\n        /* \"#utility.yul\":40770:40775   */\n      dup2\n        /* \"#utility.yul\":40766:40779   */\n      add\n        /* \"#utility.yul\":40757:40779   */\n      swap1\n      pop\n        /* \"#utility.yul\":40733:40853   */\n      jump(tag_827)\n    tag_829:\n        /* \"#utility.yul\":40673:40859   */\n      pop\n      pop\n      jump\t// out\n        /* \"#utility.yul\":40865:41408   */\n    tag_474:\n        /* \"#utility.yul\":40966:40968   */\n      0x1f\n        /* \"#utility.yul\":40961:40964   */\n      dup3\n        /* \"#utility.yul\":40958:40969   */\n      gt\n        /* \"#utility.yul\":40955:41401   */\n      iszero\n      tag_832\n      jumpi\n        /* \"#utility.yul\":41000:41038   */\n      tag_833\n        /* \"#utility.yul\":41032:41037   */\n      dup2\n        /* \"#utility.yul\":41000:41038   */\n      tag_463\n      jump\t// in\n    tag_833:\n        /* \"#utility.yul\":41084:41113   */\n      tag_834\n        /* \"#utility.yul\":41102:41112   */\n      dup5\n        /* \"#utility.yul\":41084:41113   */\n      tag_464\n      jump\t// in\n    tag_834:\n        /* \"#utility.yul\":41074:41082   */\n      dup2\n        /* \"#utility.yul\":41070:41114   */\n      add\n        /* \"#utility.yul\":41267:41269   */\n      0x20\n        /* \"#utility.yul\":41255:41265   */\n      dup6\n        /* \"#utility.yul\":41252:41270   */\n      lt\n        /* \"#utility.yul\":41249:41298   */\n      iszero\n      tag_835\n      jumpi\n        /* \"#utility.yul\":41288:41296   */\n      dup2\n        /* \"#utility.yul\":41273:41296   */\n      swap1\n      pop\n        /* \"#utility.yul\":41249:41298   */\n    tag_835:\n        /* \"#utility.yul\":41311:41391   */\n      tag_836\n        /* \"#utility.yul\":41367:41389   */\n      tag_837\n        /* \"#utility.yul\":41385:41388   */\n      dup6\n        /* \"#utility.yul\":41367:41389   */\n      tag_464\n      jump\t// in\n    tag_837:\n        /* \"#utility.yul\":41357:41365   */\n      dup4\n        /* \"#utility.yul\":41353:41390   */\n      add\n        /* \"#utility.yul\":41340:41351   */\n      dup3\n        /* \"#utility.yul\":41311:41391   */\n      tag_473\n      jump\t// in\n    tag_836:\n        /* \"#utility.yul\":40970:41401   */\n      pop\n      pop\n        /* \"#utility.yul\":40955:41401   */\n    tag_832:\n        /* \"#utility.yul\":40865:41408   */\n      pop\n      pop\n      pop\n      jump\t// out\n        /* \"#utility.yul\":41414:41531   */\n    tag_475:\n        /* \"#utility.yul\":41468:41476   */\n      0x00\n        /* \"#utility.yul\":41518:41523   */\n      dup3\n        /* \"#utility.yul\":41512:41516   */\n      dup3\n        /* \"#utility.yul\":41508:41524   */\n      shr\n        /* \"#utility.yul\":41487:41524   */\n      swap1\n      pop\n        /* \"#utility.yul\":41414:41531   */\n      swap3\n      swap2\n      pop\n      pop\n      jump\t// out\n        /* \"#utility.yul\":41537:41706   */\n    tag_476:\n        /* \"#utility.yul\":41581:41587   */\n      0x00\n        /* \"#utility.yul\":41614:41665   */\n      tag_840\n        /* \"#utility.yul\":41662:41663   */\n      0x00\n        /* \"#utility.yul\":41658:41664   */\n      not\n        /* \"#utility.yul\":41650:41655   */\n      dup5\n        /* \"#utility.yul\":41647:41648   */\n      0x08\n        /* \"#utility.yul\":41643:41656   */\n      mul\n        /* \"#utility.yul\":41614:41665   */\n      tag_475\n      jump\t// in\n    tag_840:\n        /* \"#utility.yul\":41610:41666   */\n      not\n        /* \"#utility.yul\":41695:41699   */\n      dup1\n        /* \"#utility.yul\":41689:41693   */\n      dup4\n        /* \"#utility.yul\":41685:41700   */\n      and\n        /* \"#utility.yul\":41675:41700   */\n      swap2\n      pop\n        /* \"#utility.yul\":41588:41706   */\n      pop\n        /* \"#utility.yul\":41537:41706   */\n      swap3\n      swap2\n      pop\n      pop\n      jump\t// out\n        /* \"#utility.yul\":41711:42006   */\n    tag_477:\n        /* \"#utility.yul\":41787:41791   */\n      0x00\n        /* \"#utility.yul\":41933:41962   */\n      tag_842\n        /* \"#utility.yul\":41958:41961   */\n      dup4\n        /* \"#utility.yul\":41952:41956   */\n      dup4\n        /* \"#utility.yul\":41933:41962   */\n      tag_476\n      jump\t// in\n    tag_842:\n        /* \"#utility.yul\":41925:41962   */\n      swap2\n      pop\n        /* \"#utility.yul\":41995:41998   */\n      dup3\n        /* \"#utility.yul\":41992:41993   */\n      0x02\n        /* \"#utility.yul\":41988:41999   */\n      mul\n        /* \"#utility.yul\":41982:41986   */\n      dup3\n        /* \"#utility.yul\":41979:42000   */\n      or\n        /* \"#utility.yul\":41971:42000   */\n      swap1\n      pop\n        /* \"#utility.yul\":41711:42006   */\n      swap3\n      swap2\n      pop\n      pop\n      jump\t// out\n        /* \"#utility.yul\":42011:43406   */\n    tag_337:\n        /* \"#utility.yul\":42128:42165   */\n      tag_844\n        /* \"#utility.yul\":42161:42164   */\n      dup3\n        /* \"#utility.yul\":42128:42165   */\n      tag_394\n      jump\t// in\n    tag_844:\n        /* \"#utility.yul\":42230:42248   */\n      0xffffffffffffffff\n        /* \"#utility.yul\":42222:42228   */\n      dup2\n        /* \"#utility.yul\":42219:42249   */\n      gt\n        /* \"#utility.yul\":42216:42272   */\n      iszero\n      tag_845\n      jumpi\n        /* \"#utility.yul\":42252:42270   */\n      tag_846\n      tag_165\n      jump\t// in\n    tag_846:\n        /* \"#utility.yul\":42216:42272   */\n    tag_845:\n        /* \"#utility.yul\":42296:42334   */\n      tag_847\n        /* \"#utility.yul\":42328:42332   */\n      dup3\n        /* \"#utility.yul\":42322:42333   */\n      sload\n        /* \"#utility.yul\":42296:42334   */\n      tag_178\n      jump\t// in\n    tag_847:\n        /* \"#utility.yul\":42381:42448   */\n      tag_848\n        /* \"#utility.yul\":42441:42447   */\n      dup3\n        /* \"#utility.yul\":42433:42439   */\n      dup3\n        /* \"#utility.yul\":42427:42431   */\n      dup6\n        /* \"#utility.yul\":42381:42448   */\n      tag_474\n      jump\t// in\n    tag_848:\n        /* \"#utility.yul\":42475:42476   */\n      0x00\n        /* \"#utility.yul\":42499:42503   */\n      0x20\n        /* \"#utility.yul\":42486:42503   */\n      swap1\n      pop\n        /* \"#utility.yul\":42531:42533   */\n      0x1f\n        /* \"#utility.yul\":42523:42529   */\n      dup4\n        /* \"#utility.yul\":42520:42534   */\n      gt\n        /* \"#utility.yul\":42548:42549   */\n      0x01\n        /* \"#utility.yul\":42543:43161   */\n      dup2\n      eq\n      tag_850\n      jumpi\n        /* \"#utility.yul\":43205:43206   */\n      0x00\n        /* \"#utility.yul\":43222:43228   */\n      dup5\n        /* \"#utility.yul\":43219:43296   */\n      iszero\n      tag_851\n      jumpi\n        /* \"#utility.yul\":43271:43280   */\n      dup3\n        /* \"#utility.yul\":43266:43269   */\n      dup8\n        /* \"#utility.yul\":43262:43281   */\n      add\n        /* \"#utility.yul\":43256:43282   */\n      mload\n        /* \"#utility.yul\":43247:43282   */\n      swap1\n      pop\n        /* \"#utility.yul\":43219:43296   */\n    tag_851:\n        /* \"#utility.yul\":43322:43389   */\n      tag_852\n        /* \"#utility.yul\":43382:43388   */\n      dup6\n        /* \"#utility.yul\":43375:43380   */\n      dup3\n        /* \"#utility.yul\":43322:43389   */\n      tag_477\n      jump\t// in\n    tag_852:\n        /* \"#utility.yul\":43316:43320   */\n      dup7\n        /* \"#utility.yul\":43309:43390   */\n      sstore\n        /* \"#utility.yul\":43178:43400   */\n      pop\n        /* \"#utility.yul\":42513:43400   */\n      jump(tag_849)\n        /* \"#utility.yul\":42543:43161   */\n    tag_850:\n        /* \"#utility.yul\":42595:42599   */\n      0x1f\n        /* \"#utility.yul\":42591:42600   */\n      not\n        /* \"#utility.yul\":42583:42589   */\n      dup5\n        /* \"#utility.yul\":42579:42601   */\n      and\n        /* \"#utility.yul\":42629:42666   */\n      tag_853\n        /* \"#utility.yul\":42661:42665   */\n      dup7\n        /* \"#utility.yul\":42629:42666   */\n      tag_463\n      jump\t// in\n    tag_853:\n        /* \"#utility.yul\":42688:42689   */\n      0x00\n        /* \"#utility.yul\":42702:42910   */\n    tag_854:\n        /* \"#utility.yul\":42716:42723   */\n      dup3\n        /* \"#utility.yul\":42713:42714   */\n      dup2\n        /* \"#utility.yul\":42710:42724   */\n      lt\n        /* \"#utility.yul\":42702:42910   */\n      iszero\n      tag_856\n      jumpi\n        /* \"#utility.yul\":42795:42804   */\n      dup5\n        /* \"#utility.yul\":42790:42793   */\n      dup10\n        /* \"#utility.yul\":42786:42805   */\n      add\n        /* \"#utility.yul\":42780:42806   */\n      mload\n        /* \"#utility.yul\":42772:42778   */\n      dup3\n        /* \"#utility.yul\":42765:42807   */\n      sstore\n        /* \"#utility.yul\":42846:42847   */\n      0x01\n        /* \"#utility.yul\":42838:42844   */\n      dup3\n        /* \"#utility.yul\":42834:42848   */\n      add\n        /* \"#utility.yul\":42824:42848   */\n      swap2\n      pop\n        /* \"#utility.yul\":42893:42895   */\n      0x20\n        /* \"#utility.yul\":42882:42891   */\n      dup6\n        /* \"#utility.yul\":42878:42896   */\n      add\n        /* \"#utility.yul\":42865:42896   */\n      swap5\n      pop\n        /* \"#utility.yul\":42739:42743   */\n      0x20\n        /* \"#utility.yul\":42736:42737   */\n      dup2\n        /* \"#utility.yul\":42732:42744   */\n      add\n        /* \"#utility.yul\":42727:42744   */\n      swap1\n      pop\n        /* \"#utility.yul\":42702:42910   */\n      jump(tag_854)\n    tag_856:\n        /* \"#utility.yul\":42938:42944   */\n      dup7\n        /* \"#utility.yul\":42929:42936   */\n      dup4\n        /* \"#utility.yul\":42926:42945   */\n      lt\n        /* \"#utility.yul\":42923:43102   */\n      iszero\n      tag_857\n      jumpi\n        /* \"#utility.yul\":42996:43005   */\n      dup5\n        /* \"#utility.yul\":42991:42994   */\n      dup10\n        /* \"#utility.yul\":42987:43006   */\n      add\n        /* \"#utility.yul\":42981:43007   */\n      mload\n        /* \"#utility.yul\":43039:43087   */\n      tag_858\n        /* \"#utility.yul\":43081:43085   */\n      0x1f\n        /* \"#utility.yul\":43073:43079   */\n      dup10\n        /* \"#utility.yul\":43069:43086   */\n      and\n        /* \"#utility.yul\":43058:43067   */\n      dup3\n        /* \"#utility.yul\":43039:43087   */\n      tag_476\n      jump\t// in\n    tag_858:\n        /* \"#utility.yul\":43031:43037   */\n      dup4\n        /* \"#utility.yul\":43024:43088   */\n      sstore\n        /* \"#utility.yul\":42946:43102   */\n      pop\n        /* \"#utility.yul\":42923:43102   */\n    tag_857:\n        /* \"#utility.yul\":43148:43149   */\n      0x01\n        /* \"#utility.yul\":43144:43145   */\n      0x02\n        /* \"#utility.yul\":43136:43142   */\n      dup9\n        /* \"#utility.yul\":43132:43146   */\n      mul\n        /* \"#utility.yul\":43128:43150   */\n      add\n        /* \"#utility.yul\":43122:43126   */\n      dup9\n        /* \"#utility.yul\":43115:43151   */\n      sstore\n        /* \"#utility.yul\":42550:43161   */\n      pop\n      pop\n      pop\n        /* \"#utility.yul\":42513:43400   */\n    tag_849:\n      pop\n        /* \"#utility.yul\":42103:43406   */\n      pop\n      pop\n      pop\n        /* \"#utility.yul\":42011:43406   */\n      pop\n      pop\n      jump\t// out\n        /* \"#utility.yul\":43412:43583   */\n    tag_343:\n        /* \"#utility.yul\":43451:43454   */\n      0x00\n        /* \"#utility.yul\":43474:43498   */\n      tag_860\n        /* \"#utility.yul\":43492:43497   */\n      dup3\n        /* \"#utility.yul\":43474:43498   */\n      tag_380\n      jump\t// in\n    tag_860:\n        /* \"#utility.yul\":43465:43498   */\n      swap2\n      pop\n        /* \"#utility.yul\":43520:43524   */\n      0x00\n        /* \"#utility.yul\":43513:43518   */\n      dup3\n        /* \"#utility.yul\":43510:43525   */\n      sub\n        /* \"#utility.yul\":43507:43548   */\n      tag_861\n      jumpi\n        /* \"#utility.yul\":43528:43546   */\n      tag_862\n      tag_424\n      jump\t// in\n    tag_862:\n        /* \"#utility.yul\":43507:43548   */\n    tag_861:\n        /* \"#utility.yul\":43575:43576   */\n      0x01\n        /* \"#utility.yul\":43568:43573   */\n      dup3\n        /* \"#utility.yul\":43564:43577   */\n      sub\n        /* \"#utility.yul\":43557:43577   */\n      swap1\n      pop\n        /* \"#utility.yul\":43412:43583   */\n      swap2\n      swap1\n      pop\n      jump\t// out\n        /* \"#utility.yul\":43589:43769   */\n    tag_478:\n        /* \"#utility.yul\":43637:43714   */\n      0x4e487b7100000000000000000000000000000000000000000000000000000000\n        /* \"#utility.yul\":43634:43635   */\n      0x00\n        /* \"#utility.yul\":43627:43715   */\n      mstore\n        /* \"#utility.yul\":43734:43738   */\n      0x12\n        /* \"#utility.yul\":43731:43732   */\n      0x04\n        /* \"#utility.yul\":43724:43739   */\n      mstore\n        /* \"#utility.yul\":43758:43762   */\n      0x24\n        /* \"#utility.yul\":43755:43756   */\n      0x00\n        /* \"#utility.yul\":43748:43763   */\n      revert\n        /* \"#utility.yul\":43775:43960   */\n    tag_353:\n        /* \"#utility.yul\":43815:43816   */\n      0x00\n        /* \"#utility.yul\":43832:43852   */\n      tag_865\n        /* \"#utility.yul\":43850:43851   */\n      dup3\n        /* \"#utility.yul\":43832:43852   */\n      tag_380\n      jump\t// in\n    tag_865:\n        /* \"#utility.yul\":43827:43852   */\n      swap2\n      pop\n        /* \"#utility.yul\":43866:43886   */\n      tag_866\n        /* \"#utility.yul\":43884:43885   */\n      dup4\n        /* \"#utility.yul\":43866:43886   */\n      tag_380\n      jump\t// in\n    tag_866:\n        /* \"#utility.yul\":43861:43886   */\n      swap3\n      pop\n        /* \"#utility.yul\":43905:43906   */\n      dup3\n        /* \"#utility.yul\":43895:43930   */\n      tag_867\n      jumpi\n        /* \"#utility.yul\":43910:43928   */\n      tag_868\n      tag_478\n      jump\t// in\n    tag_868:\n        /* \"#utility.yul\":43895:43930   */\n    tag_867:\n        /* \"#utility.yul\":43952:43953   */\n      dup3\n        /* \"#utility.yul\":43949:43950   */\n      dup3\n        /* \"#utility.yul\":43945:43954   */\n      div\n        /* \"#utility.yul\":43940:43954   */\n      swap1\n      pop\n        /* \"#utility.yul\":43775:43960   */\n      swap3\n      swap2\n      pop\n      pop\n      jump\t// out\n        /* \"#utility.yul\":43966:44160   */\n    tag_357:\n        /* \"#utility.yul\":44006:44010   */\n      0x00\n        /* \"#utility.yul\":44026:44046   */\n      tag_870\n        /* \"#utility.yul\":44044:44045   */\n      dup3\n        /* \"#utility.yul\":44026:44046   */\n      tag_380\n      jump\t// in\n    tag_870:\n        /* \"#utility.yul\":44021:44046   */\n      swap2\n      pop\n        /* \"#utility.yul\":44060:44080   */\n      tag_871\n        /* \"#utility.yul\":44078:44079   */\n      dup4\n        /* \"#utility.yul\":44060:44080   */\n      tag_380\n      jump\t// in\n    tag_871:\n        /* \"#utility.yul\":44055:44080   */\n      swap3\n      pop\n        /* \"#utility.yul\":44104:44105   */\n      dup3\n        /* \"#utility.yul\":44101:44102   */\n      dup3\n        /* \"#utility.yul\":44097:44106   */\n      sub\n        /* \"#utility.yul\":44089:44106   */\n      swap1\n      pop\n        /* \"#utility.yul\":44128:44129   */\n      dup2\n        /* \"#utility.yul\":44122:44126   */\n      dup2\n        /* \"#utility.yul\":44119:44130   */\n      gt\n        /* \"#utility.yul\":44116:44153   */\n      iszero\n      tag_872\n      jumpi\n        /* \"#utility.yul\":44133:44151   */\n      tag_873\n      tag_424\n      jump\t// in\n    tag_873:\n        /* \"#utility.yul\":44116:44153   */\n    tag_872:\n        /* \"#utility.yul\":43966:44160   */\n      swap3\n      swap2\n      pop\n      pop\n      jump\t// out\n        /* \"#utility.yul\":44166:44336   */\n    tag_479:\n        /* \"#utility.yul\":44306:44328   */\n      0x4e6f207469636b65747320617661696c61626c65000000000000000000000000\n        /* \"#utility.yul\":44302:44303   */\n      0x00\n        /* \"#utility.yul\":44294:44300   */\n      dup3\n        /* \"#utility.yul\":44290:44304   */\n      add\n        /* \"#utility.yul\":44283:44329   */\n      mstore\n        /* \"#utility.yul\":44166:44336   */\n      pop\n      jump\t// out\n        /* \"#utility.yul\":44342:44708   */\n    tag_480:\n        /* \"#utility.yul\":44484:44487   */\n      0x00\n        /* \"#utility.yul\":44505:44572   */\n      tag_876\n        /* \"#utility.yul\":44569:44571   */\n      0x14\n        /* \"#utility.yul\":44564:44567   */\n      dup4\n        /* \"#utility.yul\":44505:44572   */\n      tag_395\n      jump\t// in\n    tag_876:\n        /* \"#utility.yul\":44498:44572   */\n      swap2\n      pop\n        /* \"#utility.yul\":44581:44674   */\n      tag_877\n        /* \"#utility.yul\":44670:44673   */\n      dup3\n        /* \"#utility.yul\":44581:44674   */\n      tag_479\n      jump\t// in\n    tag_877:\n        /* \"#utility.yul\":44699:44701   */\n      0x20\n        /* \"#utility.yul\":44694:44697   */\n      dup3\n        /* \"#utility.yul\":44690:44702   */\n      add\n        /* \"#utility.yul\":44683:44702   */\n      swap1\n      pop\n        /* \"#utility.yul\":44342:44708   */\n      swap2\n      swap1\n      pop\n      jump\t// out\n        /* \"#utility.yul\":44714:45133   */\n    tag_368:\n        /* \"#utility.yul\":44880:44884   */\n      0x00\n        /* \"#utility.yul\":44918:44920   */\n      0x20\n        /* \"#utility.yul\":44907:44916   */\n      dup3\n        /* \"#utility.yul\":44903:44921   */\n      add\n        /* \"#utility.yul\":44895:44921   */\n      swap1\n      pop\n        /* \"#utility.yul\":44967:44976   */\n      dup2\n        /* \"#utility.yul\":44961:44965   */\n      dup2\n        /* \"#utility.yul\":44957:44977   */\n      sub\n        /* \"#utility.yul\":44953:44954   */\n      0x00\n        /* \"#utility.yul\":44942:44951   */\n      dup4\n        /* \"#utility.yul\":44938:44955   */\n      add\n        /* \"#utility.yul\":44931:44978   */\n      mstore\n        /* \"#utility.yul\":44995:45126   */\n      tag_879\n        /* \"#utility.yul\":45121:45125   */\n      dup2\n        /* \"#utility.yul\":44995:45126   */\n      tag_480\n      jump\t// in\n    tag_879:\n        /* \"#utility.yul\":44987:45126   */\n      swap1\n      pop\n        /* \"#utility.yul\":44714:45133   */\n      swap2\n      swap1\n      pop\n      jump\t// out\n        /* \"#utility.yul\":45139:45218   */\n    tag_481:\n        /* \"#utility.yul\":45178:45185   */\n      0x00\n        /* \"#utility.yul\":45207:45212   */\n      dup2\n        /* \"#utility.yul\":45196:45212   */\n      swap1\n      pop\n        /* \"#utility.yul\":45139:45218   */\n      swap2\n      swap1\n      pop\n      jump\t// out\n        /* \"#utility.yul\":45224:45381   */\n    tag_482:\n        /* \"#utility.yul\":45329:45374   */\n      tag_882\n        /* \"#utility.yul\":45349:45373   */\n      tag_883\n        /* \"#utility.yul\":45367:45372   */\n      dup3\n        /* \"#utility.yul\":45349:45373   */\n      tag_380\n      jump\t// in\n    tag_883:\n        /* \"#utility.yul\":45329:45374   */\n      tag_481\n      jump\t// in\n    tag_882:\n        /* \"#utility.yul\":45324:45327   */\n      dup3\n        /* \"#utility.yul\":45317:45375   */\n      mstore\n        /* \"#utility.yul\":45224:45381   */\n      pop\n      pop\n      jump\t// out\n        /* \"#utility.yul\":45387:45925   */\n    tag_370:\n        /* \"#utility.yul\":45555:45558   */\n      0x00\n        /* \"#utility.yul\":45570:45645   */\n      tag_885\n        /* \"#utility.yul\":45641:45644   */\n      dup3\n        /* \"#utility.yul\":45632:45638   */\n      dup7\n        /* \"#utility.yul\":45570:45645   */\n      tag_482\n      jump\t// in\n    tag_885:\n        /* \"#utility.yul\":45670:45672   */\n      0x20\n        /* \"#utility.yul\":45665:45668   */\n      dup3\n        /* \"#utility.yul\":45661:45673   */\n      add\n        /* \"#utility.yul\":45654:45673   */\n      swap2\n      pop\n        /* \"#utility.yul\":45683:45758   */\n      tag_886\n        /* \"#utility.yul\":45754:45757   */\n      dup3\n        /* \"#utility.yul\":45745:45751   */\n      dup6\n        /* \"#utility.yul\":45683:45758   */\n      tag_482\n      jump\t// in\n    tag_886:\n        /* \"#utility.yul\":45783:45785   */\n      0x20\n        /* \"#utility.yul\":45778:45781   */\n      dup3\n        /* \"#utility.yul\":45774:45786   */\n      add\n        /* \"#utility.yul\":45767:45786   */\n      swap2\n      pop\n        /* \"#utility.yul\":45796:45871   */\n      tag_887\n        /* \"#utility.yul\":45867:45870   */\n      dup3\n        /* \"#utility.yul\":45858:45864   */\n      dup5\n        /* \"#utility.yul\":45796:45871   */\n      tag_482\n      jump\t// in\n    tag_887:\n        /* \"#utility.yul\":45896:45898   */\n      0x20\n        /* \"#utility.yul\":45891:45894   */\n      dup3\n        /* \"#utility.yul\":45887:45899   */\n      add\n        /* \"#utility.yul\":45880:45899   */\n      swap2\n      pop\n        /* \"#utility.yul\":45916:45919   */\n      dup2\n        /* \"#utility.yul\":45909:45919   */\n      swap1\n      pop\n        /* \"#utility.yul\":45387:45925   */\n      swap5\n      swap4\n      pop\n      pop\n      pop\n      pop\n      jump\t// out\n        /* \"#utility.yul\":45931:46107   */\n    tag_372:\n        /* \"#utility.yul\":45963:45964   */\n      0x00\n        /* \"#utility.yul\":45980:46000   */\n      tag_889\n        /* \"#utility.yul\":45998:45999   */\n      dup3\n        /* \"#utility.yul\":45980:46000   */\n      tag_380\n      jump\t// in\n    tag_889:\n        /* \"#utility.yul\":45975:46000   */\n      swap2\n      pop\n        /* \"#utility.yul\":46014:46034   */\n      tag_890\n        /* \"#utility.yul\":46032:46033   */\n      dup4\n        /* \"#utility.yul\":46014:46034   */\n      tag_380\n      jump\t// in\n    tag_890:\n        /* \"#utility.yul\":46009:46034   */\n      swap3\n      pop\n        /* \"#utility.yul\":46053:46054   */\n      dup3\n        /* \"#utility.yul\":46043:46078   */\n      tag_891\n      jumpi\n        /* \"#utility.yul\":46058:46076   */\n      tag_892\n      tag_478\n      jump\t// in\n    tag_892:\n        /* \"#utility.yul\":46043:46078   */\n    tag_891:\n        /* \"#utility.yul\":46099:46100   */\n      dup3\n        /* \"#utility.yul\":46096:46097   */\n      dup3\n        /* \"#utility.yul\":46092:46101   */\n      mod\n        /* \"#utility.yul\":46087:46101   */\n      swap1\n      pop\n        /* \"#utility.yul\":45931:46107   */\n      swap3\n      swap2\n      pop\n      pop\n      jump\t// out\n        /* \"#utility.yul\":46113:46284   */\n    tag_483:\n        /* \"#utility.yul\":46253:46276   */\n      0x496e76616c6964207469636b6574206e756d6265720000000000000000000000\n        /* \"#utility.yul\":46249:46250   */\n      0x00\n        /* \"#utility.yul\":46241:46247   */\n      dup3\n        /* \"#utility.yul\":46237:46251   */\n      add\n        /* \"#utility.yul\":46230:46277   */\n      mstore\n        /* \"#utility.yul\":46113:46284   */\n      pop\n      jump\t// out\n        /* \"#utility.yul\":46290:46656   */\n    tag_484:\n        /* \"#utility.yul\":46432:46435   */\n      0x00\n        /* \"#utility.yul\":46453:46520   */\n      tag_895\n        /* \"#utility.yul\":46517:46519   */\n      0x15\n        /* \"#utility.yul\":46512:46515   */\n      dup4\n        /* \"#utility.yul\":46453:46520   */\n      tag_395\n      jump\t// in\n    tag_895:\n        /* \"#utility.yul\":46446:46520   */\n      swap2\n      pop\n        /* \"#utility.yul\":46529:46622   */\n      tag_896\n        /* \"#utility.yul\":46618:46621   */\n      dup3\n        /* \"#utility.yul\":46529:46622   */\n      tag_483\n      jump\t// in\n    tag_896:\n        /* \"#utility.yul\":46647:46649   */\n      0x20\n        /* \"#utility.yul\":46642:46645   */\n      dup3\n        /* \"#utility.yul\":46638:46650   */\n      add\n        /* \"#utility.yul\":46631:46650   */\n      swap1\n      pop\n        /* \"#utility.yul\":46290:46656   */\n      swap2\n      swap1\n      pop\n      jump\t// out\n        /* \"#utility.yul\":46662:47081   */\n    tag_376:\n        /* \"#utility.yul\":46828:46832   */\n      0x00\n        /* \"#utility.yul\":46866:46868   */\n      0x20\n        /* \"#utility.yul\":46855:46864   */\n      dup3\n        /* \"#utility.yul\":46851:46869   */\n      add\n        /* \"#utility.yul\":46843:46869   */\n      swap1\n      pop\n        /* \"#utility.yul\":46915:46924   */\n      dup2\n        /* \"#utility.yul\":46909:46913   */\n      dup2\n        /* \"#utility.yul\":46905:46925   */\n      sub\n        /* \"#utility.yul\":46901:46902   */\n      0x00\n        /* \"#utility.yul\":46890:46899   */\n      dup4\n        /* \"#utility.yul\":46886:46903   */\n      add\n        /* \"#utility.yul\":46879:46926   */\n      mstore\n        /* \"#utility.yul\":46943:47074   */\n      tag_898\n        /* \"#utility.yul\":47069:47073   */\n      dup2\n        /* \"#utility.yul\":46943:47074   */\n      tag_484\n      jump\t// in\n    tag_898:\n        /* \"#utility.yul\":46935:47074   */\n      swap1\n      pop\n        /* \"#utility.yul\":46662:47081   */\n      swap2\n      swap1\n      pop\n      jump\t// out\n\n    auxdata: 0xa264697066735822122075c71e44c745214d6801ec1937ed381dd814e6f4a756b3c0014e92c38ed53dcf64736f6c634300081e0033\n}\n",
				"bytecode": {
					"linkReferences": {},
					"object": "608060405260c86002553480156013575f5ffd5b503360035f6101000a81548173ffffffffffffffffffffffffffffffffffffffff021916908373ffffffffffffffffffffffffffffffffffffffff1602179055505f5f819055505f600481905550613c308061006e5f395ff3fe608060405260043610610165575f3560e01c80638627df46116100d0578063ba2f93a711610089578063d709815411610063578063d709815414610565578063db0cdf181461058d578063f3f43703146105b7578063f627fd20146105f357610165565b8063ba2f93a7146104d9578063c1e3bd3e14610501578063d27339a51461053d57610165565b80638627df46146103c65780638da5cb5b146103e25780639c5320af1461040c5780639d8ca53114610439578063a4bb62f014610461578063b0deaf321461049d57610165565b806377f00a6b1161012257806377f00a6b146102a65780637cb15bca146102d05780637d23464b146102fa5780637ee8b2f8146103365780638009df6814610372578063841439581461039c57610165565b8063055b66cd146101695780631398e076146101935780633ccfd60b146101da5780635b669de4146101f05780636cbe7a8d1461022e57806376b3c8a81461026a575b5f5ffd5b348015610174575f5ffd5b5061017d61062f565b60405161018a919061266f565b60405180910390f35b34801561019e575f5ffd5b506101b960048036038101906101b491906126ca565b6107cc565b6040516101d19c9b9a999897969594939291906127cd565b60405180910390f35b3480156101e5575f5ffd5b506101ee6108f9565b005b3480156101fb575f5ffd5b50610216600480360381019061021191906128b6565b610a6a565b604051610225939291906128e1565b60405180910390f35b348015610239575f5ffd5b50610254600480360381019061024f91906126ca565b610b7f565b6040516102619190612916565b60405180910390f35b348015610275575f5ffd5b50610290600480360381019061028b91906126ca565b610c5f565b60405161029d9190612b5a565b60405180910390f35b3480156102b1575f5ffd5b506102ba610e8e565b6040516102c79190612b7a565b60405180910390f35b3480156102db575f5ffd5b506102e4610e94565b6040516102f19190612b7a565b60405180910390f35b348015610305575f5ffd5b50610320600480360381019061031b9190612b93565b610e9a565b60405161032d9190612b7a565b60405180910390f35b348015610341575f5ffd5b5061035c600480360381019061035791906128b6565b610ef3565b6040516103699190612b7a565b60405180910390f35b34801561037d575f5ffd5b50610386610f39565b6040516103939190612b7a565b60405180910390f35b3480156103a7575f5ffd5b506103b0610f3e565b6040516103bd9190612b7a565b60405180910390f35b6103e060048036038101906103db9190612bd1565b610f44565b005b3480156103ed575f5ffd5b506103f661127c565b6040516104039190612c0f565b60405180910390f35b348015610417575f5ffd5b506104206112a1565b6040516104309493929190612c28565b60405180910390f35b348015610444575f5ffd5b5061045f600480360381019061045a91906126ca565b6112dd565b005b34801561046c575f5ffd5b50610487600480360381019061048291906128b6565b6114c0565b604051610494919061266f565b60405180910390f35b3480156104a8575f5ffd5b506104c360048036038101906104be9190612b93565b611663565b6040516104d09190612b7a565b60405180910390f35b3480156104e4575f5ffd5b506104ff60048036038101906104fa9190612bd1565b6116bc565b005b34801561050c575f5ffd5b50610527600480360381019061052291906126ca565b6118e2565b6040516105349190612cd7565b60405180910390f35b348015610548575f5ffd5b50610563600480360381019061055e91906126ca565b611981565b005b348015610570575f5ffd5b5061058b600480360381019061058691906126ca565b611a5f565b005b348015610598575f5ffd5b506105a1611d48565b6040516105ae9190612b7a565b60405180910390f35b3480156105c2575f5ffd5b506105dd60048036038101906105d891906128b6565b611d50565b6040516105ea9190612b7a565b60405180910390f35b3480156105fe575f5ffd5b5061061960048036038101906106149190612e23565b611d65565b6040516106269190612b7a565b60405180910390f35b60605f5f90505f5f90505b5f548110156106c35760015f8281526020019081526020015f20600b015f9054906101000a900460ff161580156106a257505f60015f8381526020019081526020015f206007015414806106a1575060015f8281526020019081526020015f206007015442105b5b156106b65781806106b290612ee3565b9250505b808060010191505061063a565b505f8167ffffffffffffffff8111156106df576106de612cff565b5b60405190808252806020026020018201604052801561070d5781602001602082028036833780820191505090505b5090505f5f90505f5f90505b5f548110156107c25760015f8281526020019081526020015f20600b015f9054906101000a900460ff1615801561078157505f60015f8381526020019081526020015f20600701541480610780575060015f8281526020019081526020015f206007015442105b5b156107b5578083838151811061079a57610799612f2a565b5b60200260200101818152505081806107b190612ee3565b9250505b8080600101915050610719565b5081935050505090565b6001602052805f5260405f205f91509050805f015490806001015f9054906101000a900473ffffffffffffffffffffffffffffffffffffffff169080600201805461081690612f84565b80601f016020809104026020016040519081016040528092919081815260200182805461084290612f84565b801561088d5780601f106108645761010080835404028352916020019161088d565b820191905f5260205f20905b81548152906001019060200180831161087057829003601f168201915b50505050509080600301549080600401549080600501549080600601549080600701549080600a01549080600b015f9054906101000a900460ff169080600b0160019054906101000a900473ffffffffffffffffffffffffffffffffffffffff169080600c015490508c565b5f60055f3373ffffffffffffffffffffffffffffffffffffffff1673ffffffffffffffffffffffffffffffffffffffff1681526020019081526020015f205490505f811161097c576040517f08c379a000000000000000000000000000000000000000000000000000000000815260040161097390612ffe565b60405180910390fd5b5f60055f3373ffffffffffffffffffffffffffffffffffffffff1673ffffffffffffffffffffffffffffffffffffffff1681526020019081526020015f20819055505f3373ffffffffffffffffffffffffffffffffffffffff16826040516109e390613049565b5f6040518083038185875af1925050503d805f8114610a1d576040519150601f19603f3d011682016040523d82523d5f602084013e610a22565b606091505b5050905080610a66576040517f08c379a0000000000000000000000000000000000000000000000000000000008152600401610a5d906130a7565b60405180910390fd5b5050565b5f5f5f5f5f90505b5f54811015610b77575f60015f8381526020019081526020015f206008015f8773ffffffffffffffffffffffffffffffffffffffff1673ffffffffffffffffffffffffffffffffffffffff1681526020019081526020015f205490505f811115610af3578480610ae190612ee3565b9550508084610af091906130c5565b93505b8573ffffffffffffffffffffffffffffffffffffffff1660015f8481526020019081526020015f20600b0160019054906101000a900473ffffffffffffffffffffffffffffffffffffffff1673ffffffffffffffffffffffffffffffffffffffff1603610b69578280610b6590612ee3565b9350505b508080600101915050610a72565b509193909250565b5f5f548210610bc3576040517f08c379a0000000000000000000000000000000000000000000000000000000008152600401610bba90613142565b60405180910390fd5b5f60015f8481526020019081526020015f20905080600b015f9054906101000a900460ff1680610bf657505f8160050154145b15610c04575f915050610c5a565b5f8160040154118015610c1f57508060040154816005015410155b15610c2e576001915050610c5a565b5f8160070154118015610c45575080600701544210155b15610c54576001915050610c5a565b60019150505b919050565b610c67612524565b5f60015f8481526020019081526020015f209050604051806101a00160405280825f01548152602001826001015f9054906101000a900473ffffffffffffffffffffffffffffffffffffffff1673ffffffffffffffffffffffffffffffffffffffff168152602001826002018054610cde90612f84565b80601f0160208091040260200160405190810160405280929190818152602001828054610d0a90612f84565b8015610d555780601f10610d2c57610100808354040283529160200191610d55565b820191905f5260205f20905b815481529060010190602001808311610d3857829003601f168201915b50505050508152602001826003015481526020018260040154815260200182600501548152602001826006015481526020018260070154815260200182600a0154815260200182600b015f9054906101000a900460ff161515815260200182600b0160019054906101000a900473ffffffffffffffffffffffffffffffffffffffff1673ffffffffffffffffffffffffffffffffffffffff16815260200182600c0154815260200182600901805480602002602001604051908101604052809291908181526020018280548015610e7e57602002820191905f5260205f20905b815f9054906101000a900473ffffffffffffffffffffffffffffffffffffffff1673ffffffffffffffffffffffffffffffffffffffff1681526020019060010190808311610e35575b5050505050815250915050919050565b6103e881565b60045481565b5f60015f8481526020019081526020015f206008015f8373ffffffffffffffffffffffffffffffffffffffff1673ffffffffffffffffffffffffffffffffffffffff1681526020019081526020015f2054905092915050565b5f60055f8373ffffffffffffffffffffffffffffffffffffffff1673ffffffffffffffffffffffffffffffffffffffff1681526020019081526020015f20549050919050565b5f5481565b60025481565b5f60015f8481526020019081526020015f2090505f816003015483610f699190613160565b905081600b015f9054906101000a900460ff1615610fbc576040517f08c379a0000000000000000000000000000000000000000000000000000000008152600401610fb3906131eb565b60405180910390fd5b5f8311610ffe576040517f08c379a0000000000000000000000000000000000000000000000000000000008152600401610ff590613253565b60405180910390fd5b803414611040576040517f08c379a0000000000000000000000000000000000000000000000000000000008152600401611037906132bb565b60405180910390fd5b5f826005015490505f5f90505b848110156110be573384600d015f838561106791906130c5565b81526020019081526020015f205f6101000a81548173ffffffffffffffffffffffffffffffffffffffff021916908373ffffffffffffffffffffffffffffffffffffffff160217905550808060010191505061104d565b508383600501546110cf91906130c5565b836005018190555083836008015f3373ffffffffffffffffffffffffffffffffffffffff1673ffffffffffffffffffffffffffffffffffffffff1681526020019081526020015f205461112291906130c5565b836008015f3373ffffffffffffffffffffffffffffffffffffffff1673ffffffffffffffffffffffffffffffffffffffff1681526020019081526020015f208190555083836008015f3373ffffffffffffffffffffffffffffffffffffffff1673ffffffffffffffffffffffffffffffffffffffff1681526020019081526020015f20540361120e578260090133908060018154018082558091505060019003905f5260205f20015f9091909190916101000a81548173ffffffffffffffffffffffffffffffffffffffff021916908373ffffffffffffffffffffffffffffffffffffffff1602179055505b3483600c015461121e91906130c5565b83600c01819055503373ffffffffffffffffffffffffffffffffffffffff16857fdbaaf4c87ce30816c961a81d110622a3227ede77953d4383d514ff88ab2e0fd38660405161126d9190612b7a565b60405180910390a35050505050565b60035f9054906101000a900473ffffffffffffffffffffffffffffffffffffffff1681565b5f5f5f5f5f5460045460035f9054906101000a900473ffffffffffffffffffffffffffffffffffffffff16600254935093509350935090919293565b5f60015f8381526020019081526020015f209050806001015f9054906101000a900473ffffffffffffffffffffffffffffffffffffffff1673ffffffffffffffffffffffffffffffffffffffff163373ffffffffffffffffffffffffffffffffffffffff16148061139a575060035f9054906101000a900473ffffffffffffffffffffffffffffffffffffffff1673ffffffffffffffffffffffffffffffffffffffff163373ffffffffffffffffffffffffffffffffffffffff16145b6113d9576040517f08c379a00000000000000000000000000000000000000000000000000000000081526004016113d090613323565b60405180910390fd5b5f54821061141c576040517f08c379a000000000000000000000000000000000000000000000000000000000815260040161141390613142565b60405180910390fd5b80600b015f9054906101000a900460ff161561146d576040517f08c379a00000000000000000000000000000000000000000000000000000000081526004016114649061338b565b60405180910390fd5b5f8160050154116114b3576040517f08c379a00000000000000000000000000000000000000000000000000000000081526004016114aa906133f3565b60405180910390fd5b6114bc82611fdf565b5050565b60605f5f90505f5f90505b5f54811015611556578373ffffffffffffffffffffffffffffffffffffffff1660015f8381526020019081526020015f206001015f9054906101000a900473ffffffffffffffffffffffffffffffffffffffff1673ffffffffffffffffffffffffffffffffffffffff160361154957818061154590612ee3565b9250505b80806001019150506114cb565b505f8167ffffffffffffffff81111561157257611571612cff565b5b6040519080825280602002602001820160405280156115a05781602001602082028036833780820191505090505b5090505f5f90505f5f90505b5f54811015611657578573ffffffffffffffffffffffffffffffffffffffff1660015f8381526020019081526020015f206001015f9054906101000a900473ffffffffffffffffffffffffffffffffffffffff1673ffffffffffffffffffffffffffffffffffffffff160361164a578083838151811061162f5761162e612f2a565b5b602002602001018181525050818061164690612ee3565b9250505b80806001019150506115ac565b50819350505050919050565b5f60015f8481526020019081526020015f206008015f8373ffffffffffffffffffffffffffffffffffffffff1673ffffffffffffffffffffffffffffffffffffffff1681526020019081526020015f2054905092915050565b5f60015f8481526020019081526020015f209050806001015f9054906101000a900473ffffffffffffffffffffffffffffffffffffffff1673ffffffffffffffffffffffffffffffffffffffff163373ffffffffffffffffffffffffffffffffffffffff161480611779575060035f9054906101000a900473ffffffffffffffffffffffffffffffffffffffff1673ffffffffffffffffffffffffffffffffffffffff163373ffffffffffffffffffffffffffffffffffffffff16145b6117b8576040517f08c379a00000000000000000000000000000000000000000000000000000000081526004016117af9061345b565b60405180910390fd5b5f5483106117fb576040517f08c379a00000000000000000000000000000000000000000000000000000000081526004016117f290613142565b60405180910390fd5b80600b015f9054906101000a900460ff161561184c576040517f08c379a0000000000000000000000000000000000000000000000000000000008152600401611843906131eb565b60405180910390fd5b6103e8821115611891576040517f08c379a0000000000000000000000000000000000000000000000000000000008152600401611888906134c3565b60405180910390fd5b5f81600a015490508282600a0181905550837f4d5e33fff0b69cb78771d362961f6672859941e41aa7ee769fddffdc0e9696e882856040516118d49291906134e1565b60405180910390a250505050565b606060015f8381526020019081526020015f2060090180548060200260200160405190810160405280929190818152602001828054801561197557602002820191905f5260205f20905b815f9054906101000a900473ffffffffffffffffffffffffffffffffffffffff1673ffffffffffffffffffffffffffffffffffffffff168152602001906001019080831161192c575b50505050509050919050565b60035f9054906101000a900473ffffffffffffffffffffffffffffffffffffffff1673ffffffffffffffffffffffffffffffffffffffff163373ffffffffffffffffffffffffffffffffffffffff1614611a10576040517f08c379a0000000000000000000000000000000000000000000000000000000008152600401611a0790613552565b60405180910390fd5b6103e8811115611a55576040517f08c379a0000000000000000000000000000000000000000000000000000000008152600401611a4c906134c3565b60405180910390fd5b8060028190555050565b5f60015f8381526020019081526020015f2090505f548210611ab6576040517f08c379a0000000000000000000000000000000000000000000000000000000008152600401611aad90613142565b60405180910390fd5b80600b015f9054906101000a900460ff16611b06576040517f08c379a0000000000000000000000000000000000000000000000000000000008152600401611afd906135ba565b60405180910390fd5b80600b0160019054906101000a900473ffffffffffffffffffffffffffffffffffffffff1673ffffffffffffffffffffffffffffffffffffffff163373ffffffffffffffffffffffffffffffffffffffff1614611b98576040517f08c379a0000000000000000000000000000000000000000000000000000000008152600401611b8f90613622565b60405180910390fd5b5f60055f3373ffffffffffffffffffffffffffffffffffffffff1673ffffffffffffffffffffffffffffffffffffffff1681526020019081526020015f205411611c17576040517f08c379a0000000000000000000000000000000000000000000000000000000008152600401611c0e9061368a565b60405180910390fd5b5f60055f3373ffffffffffffffffffffffffffffffffffffffff1673ffffffffffffffffffffffffffffffffffffffff1681526020019081526020015f205490505f60055f3373ffffffffffffffffffffffffffffffffffffffff1673ffffffffffffffffffffffffffffffffffffffff1681526020019081526020015f20819055505f3373ffffffffffffffffffffffffffffffffffffffff1682604051611cbf90613049565b5f6040518083038185875af1925050503d805f8114611cf9576040519150601f19603f3d011682016040523d82523d5f602084013e611cfe565b606091505b5050905080611d42576040517f08c379a0000000000000000000000000000000000000000000000000000000008152600401611d39906130a7565b60405180910390fd5b50505050565b5f5f54905090565b6005602052805f5260405f205f915090505481565b5f5f8511611da8576040517f08c379a0000000000000000000000000000000000000000000000000000000008152600401611d9f906136f2565b60405180910390fd5b5f831480611db557504283115b611df4576040517f08c379a0000000000000000000000000000000000000000000000000000000008152600401611deb9061375a565b60405180910390fd5b5f5f8314611e025782611e06565b6002545b90506103e8811115611e4d576040517f08c379a0000000000000000000000000000000000000000000000000000000008152600401611e44906134c3565b60405180910390fd5b5f5f5490505f60015f8381526020019081526020015f20905081815f018190555033816001015f6101000a81548173ffffffffffffffffffffffffffffffffffffffff021916908373ffffffffffffffffffffffffffffffffffffffff16021790555088816002019081611ec19190613918565b508781600301819055508681600401819055505f81600501819055504281600601819055508581600701819055508281600a01819055505f81600b015f6101000a81548160ff0219169083151502179055505f81600b0160016101000a81548173ffffffffffffffffffffffffffffffffffffffff021916908373ffffffffffffffffffffffffffffffffffffffff1602179055505f81600c01819055505f5f815480929190611f7090612ee3565b919050555060045f815480929190611f8790612ee3565b91905055503373ffffffffffffffffffffffffffffffffffffffff16827f73ac9939c0fae9d35f1ff5450b52cb43bf0601ae6cc29f9d7eb5967b91e7505960405160405180910390a381935050505095945050505050565b5f60015f8381526020019081526020015f209050600181600b015f6101000a81548160ff0219169083151502179055505f60045411156120315760045f81548092919061202b906139e7565b91905055505b3373ffffffffffffffffffffffffffffffffffffffff16827fe983b889c5b0419f1fb6aded8b9552b95691be88059a486820b5c342ebf974f460405160405180910390a361207e82612082565b5050565b5f60015f8381526020019081526020015f2090505f6120a482600501546123de565b90505f6120b18483612460565b90508083600b0160016101000a81548173ffffffffffffffffffffffffffffffffffffffff021916908373ffffffffffffffffffffffffffffffffffffffff1602179055505f83600c015490505f61271085600a0154836121129190613160565b61211c9190613a3b565b90505f60028261212c9190613a3b565b90505f60028361213c9190613a3b565b90505f838561214b9190613a6b565b90505f88600c01819055508260055f60035f9054906101000a900473ffffffffffffffffffffffffffffffffffffffff1673ffffffffffffffffffffffffffffffffffffffff1673ffffffffffffffffffffffffffffffffffffffff1681526020019081526020015f205f8282546121c391906130c5565b9250508190555060035f9054906101000a900473ffffffffffffffffffffffffffffffffffffffff1673ffffffffffffffffffffffffffffffffffffffff16886001015f9054906101000a900473ffffffffffffffffffffffffffffffffffffffff1673ffffffffffffffffffffffffffffffffffffffff16146122bc578160055f8a6001015f9054906101000a900473ffffffffffffffffffffffffffffffffffffffff1673ffffffffffffffffffffffffffffffffffffffff1673ffffffffffffffffffffffffffffffffffffffff1681526020019081526020015f205f8282546122b091906130c5565b92505081905550612331565b8160055f60035f9054906101000a900473ffffffffffffffffffffffffffffffffffffffff1673ffffffffffffffffffffffffffffffffffffffff1673ffffffffffffffffffffffffffffffffffffffff1681526020019081526020015f205f82825461232991906130c5565b925050819055505b8060055f8873ffffffffffffffffffffffffffffffffffffffff1673ffffffffffffffffffffffffffffffffffffffff1681526020019081526020015f205f82825461237d91906130c5565b925050819055508573ffffffffffffffffffffffffffffffffffffffff16897ffee5b04775e1cd2311ed22cd00f5d2403aff38ff6f71d6d393f51854ed6bc986836040516123cb9190612b7a565b60405180910390a3505050505050505050565b5f5f8211612421576040517f08c379a000000000000000000000000000000000000000000000000000000000815260040161241890613ae8565b60405180910390fd5b8144428460405160200161243793929190613b26565b604051602081830303815290604052805190602001205f1c6124599190613b62565b9050919050565b5f5f60015f8581526020019081526020015f2090505f81600d015f8581526020019081526020015f205f9054906101000a900473ffffffffffffffffffffffffffffffffffffffff1690505f73ffffffffffffffffffffffffffffffffffffffff168173ffffffffffffffffffffffffffffffffffffffff1603612519576040517f08c379a000000000000000000000000000000000000000000000000000000000815260040161251090613bdc565b60405180910390fd5b809250505092915050565b604051806101a001604052805f81526020015f73ffffffffffffffffffffffffffffffffffffffff168152602001606081526020015f81526020015f81526020015f81526020015f81526020015f81526020015f81526020015f151581526020015f73ffffffffffffffffffffffffffffffffffffffff1681526020015f8152602001606081525090565b5f81519050919050565b5f82825260208201905092915050565b5f819050602082019050919050565b5f819050919050565b6125ea816125d8565b82525050565b5f6125fb83836125e1565b60208301905092915050565b5f602082019050919050565b5f61261d826125af565b61262781856125b9565b9350612632836125c9565b805f5b8381101561266257815161264988826125f0565b975061265483612607565b925050600181019050612635565b5085935050505092915050565b5f6020820190508181035f8301526126878184612613565b905092915050565b5f604051905090565b5f5ffd5b5f5ffd5b6126a9816125d8565b81146126b3575f5ffd5b50565b5f813590506126c4816126a0565b92915050565b5f602082840312156126df576126de612698565b5b5f6126ec848285016126b6565b91505092915050565b6126fe816125d8565b82525050565b5f73ffffffffffffffffffffffffffffffffffffffff82169050919050565b5f61272d82612704565b9050919050565b61273d81612723565b82525050565b5f81519050919050565b5f82825260208201905092915050565b8281835e5f83830152505050565b5f601f19601f8301169050919050565b5f61278582612743565b61278f818561274d565b935061279f81856020860161275d565b6127a88161276b565b840191505092915050565b5f8115159050919050565b6127c7816127b3565b82525050565b5f610180820190506127e15f83018f6126f5565b6127ee602083018e612734565b8181036040830152612800818d61277b565b905061280f606083018c6126f5565b61281c608083018b6126f5565b61282960a083018a6126f5565b61283660c08301896126f5565b61284360e08301886126f5565b6128516101008301876126f5565b61285f6101208301866127be565b61286d610140830185612734565b61287b6101608301846126f5565b9d9c50505050505050505050505050565b61289581612723565b811461289f575f5ffd5b50565b5f813590506128b08161288c565b92915050565b5f602082840312156128cb576128ca612698565b5b5f6128d8848285016128a2565b91505092915050565b5f6060820190506128f45f8301866126f5565b61290160208301856126f5565b61290e60408301846126f5565b949350505050565b5f6020820190506129295f8301846127be565b92915050565b61293881612723565b82525050565b5f82825260208201905092915050565b5f61295882612743565b612962818561293e565b935061297281856020860161275d565b61297b8161276b565b840191505092915050565b61298f816127b3565b82525050565b5f81519050919050565b5f82825260208201905092915050565b5f819050602082019050919050565b5f6129c9838361292f565b60208301905092915050565b5f602082019050919050565b5f6129eb82612995565b6129f5818561299f565b9350612a00836129af565b805f5b83811015612a30578151612a1788826129be565b9750612a22836129d5565b925050600181019050612a03565b5085935050505092915050565b5f6101a083015f830151612a535f8601826125e1565b506020830151612a66602086018261292f565b5060408301518482036040860152612a7e828261294e565b9150506060830151612a9360608601826125e1565b506080830151612aa660808601826125e1565b5060a0830151612ab960a08601826125e1565b5060c0830151612acc60c08601826125e1565b5060e0830151612adf60e08601826125e1565b50610100830151612af46101008601826125e1565b50610120830151612b09610120860182612986565b50610140830151612b1e61014086018261292f565b50610160830151612b336101608601826125e1565b50610180830151848203610180860152612b4d82826129e1565b9150508091505092915050565b5f6020820190508181035f830152612b728184612a3d565b905092915050565b5f602082019050612b8d5f8301846126f5565b92915050565b5f5f60408385031215612ba957612ba8612698565b5b5f612bb6858286016126b6565b9250506020612bc7858286016128a2565b9150509250929050565b5f5f60408385031215612be757612be6612698565b5b5f612bf4858286016126b6565b9250506020612c05858286016126b6565b9150509250929050565b5f602082019050612c225f830184612734565b92915050565b5f608082019050612c3b5f8301876126f5565b612c4860208301866126f5565b612c556040830185612734565b612c6260608301846126f5565b95945050505050565b5f82825260208201905092915050565b5f612c8582612995565b612c8f8185612c6b565b9350612c9a836129af565b805f5b83811015612cca578151612cb188826129be565b9750612cbc836129d5565b925050600181019050612c9d565b5085935050505092915050565b5f6020820190508181035f830152612cef8184612c7b565b905092915050565b5f5ffd5b5f5ffd5b7f4e487b71000000000000000000000000000000000000000000000000000000005f52604160045260245ffd5b612d358261276b565b810181811067ffffffffffffffff82111715612d5457612d53612cff565b5b80604052505050565b5f612d6661268f565b9050612d728282612d2c565b919050565b5f67ffffffffffffffff821115612d9157612d90612cff565b5b612d9a8261276b565b9050602081019050919050565b828183375f83830152505050565b5f612dc7612dc284612d77565b612d5d565b905082815260208101848484011115612de357612de2612cfb565b5b612dee848285612da7565b509392505050565b5f82601f830112612e0a57612e09612cf7565b5b8135612e1a848260208601612db5565b91505092915050565b5f5f5f5f5f60a08688031215612e3c57612e3b612698565b5b5f86013567ffffffffffffffff811115612e5957612e5861269c565b5b612e6588828901612df6565b9550506020612e76888289016126b6565b9450506040612e87888289016126b6565b9350506060612e98888289016126b6565b9250506080612ea9888289016126b6565b9150509295509295909350565b7f4e487b71000000000000000000000000000000000000000000000000000000005f52601160045260245ffd5b5f612eed826125d8565b91507fffffffffffffffffffffffffffffffffffffffffffffffffffffffffffffffff8203612f1f57612f1e612eb6565b5b600182019050919050565b7f4e487b71000000000000000000000000000000000000000000000000000000005f52603260045260245ffd5b7f4e487b71000000000000000000000000000000000000000000000000000000005f52602260045260245ffd5b5f6002820490506001821680612f9b57607f821691505b602082108103612fae57612fad612f57565b5b50919050565b7f4e6f2066756e647320746f2077697468647261770000000000000000000000005f82015250565b5f612fe860148361274d565b9150612ff382612fb4565b602082019050919050565b5f6020820190508181035f83015261301581612fdc565b9050919050565b5f81905092915050565b50565b5f6130345f8361301c565b915061303f82613026565b5f82019050919050565b5f61305382613029565b9150819050919050565b7f5472616e73666572206661696c656400000000000000000000000000000000005f82015250565b5f613091600f8361274d565b915061309c8261305d565b602082019050919050565b5f6020820190508181035f8301526130be81613085565b9050919050565b5f6130cf826125d8565b91506130da836125d8565b92508282019050808211156130f2576130f1612eb6565b5b92915050565b7f4c6f747465727920646f6573206e6f74206578697374000000000000000000005f82015250565b5f61312c60168361274d565b9150613137826130f8565b602082019050919050565b5f6020820190508181035f83015261315981613120565b9050919050565b5f61316a826125d8565b9150613175836125d8565b9250828202613183816125d8565b9150828204841483151761319a57613199612eb6565b5b5092915050565b7f4c6f747465727920697320636c6f7365640000000000000000000000000000005f82015250565b5f6131d560118361274d565b91506131e0826131a1565b602082019050919050565b5f6020820190508181035f830152613202816131c9565b9050919050565b7f5175616e74697479206d7573742062652067726561746572207468616e2030005f82015250565b5f61323d601f8361274d565b915061324882613209565b602082019050919050565b5f6020820190508181035f83015261326a81613231565b9050919050565b7f496e76616c696420616d6f756e74206f66204554482073656e740000000000005f82015250565b5f6132a5601a8361274d565b91506132b082613271565b602082019050919050565b5f6020820190508181035f8301526132d281613299565b9050919050565b7f4f6e6c792063726561746f72206f72206f776e65722063616e20636c6f7365005f82015250565b5f61330d601f8361274d565b9150613318826132d9565b602082019050919050565b5f6020820190508181035f83015261333a81613301565b9050919050565b7f4c6f747465727920616c726561647920636c6f736564000000000000000000005f82015250565b5f61337560168361274d565b915061338082613341565b602082019050919050565b5f6020820190508181035f8301526133a281613369565b9050919050565b7f4e6f207469636b65747320736f6c6400000000000000000000000000000000005f82015250565b5f6133dd600f8361274d565b91506133e8826133a9565b602082019050919050565b5f6020820190508181035f83015261340a816133d1565b9050919050565b7f4f6e6c792063726561746f72206f72206f776e657200000000000000000000005f82015250565b5f61344560158361274d565b915061345082613411565b602082019050919050565b5f6020820190508181035f83015261347281613439565b9050919050565b7f436f6d6d697373696f6e20746f6f2068696768000000000000000000000000005f82015250565b5f6134ad60138361274d565b91506134b882613479565b602082019050919050565b5f6020820190508181035f8301526134da816134a1565b9050919050565b5f6040820190506134f45f8301856126f5565b61350160208301846126f5565b9392505050565b7f4f6e6c79206f776e6572000000000000000000000000000000000000000000005f82015250565b5f61353c600a8361274d565b915061354782613508565b602082019050919050565b5f6020820190508181035f83015261356981613530565b9050919050565b7f4c6f7474657279206e6f7420636c6f73656420796574000000000000000000005f82015250565b5f6135a460168361274d565b91506135af82613570565b602082019050919050565b5f6020820190508181035f8301526135d181613598565b9050919050565b7f4f6e6c792077696e6e65722063616e20636c61696d00000000000000000000005f82015250565b5f61360c60158361274d565b9150613617826135d8565b602082019050919050565b5f6020820190508181035f83015261363981613600565b9050919050565b7f4e6f207072697a6520746f20636c61696d0000000000000000000000000000005f82015250565b5f61367460118361274d565b915061367f82613640565b602082019050919050565b5f6020820190508181035f8301526136a181613668565b9050919050565b7f5469636b6574207072696365206d757374206265203e203000000000000000005f82015250565b5f6136dc60188361274d565b91506136e7826136a8565b602082019050919050565b5f6020820190508181035f830152613709816136d0565b9050919050565b7f496e76616c696420656e642074696d65000000000000000000000000000000005f82015250565b5f61374460108361274d565b915061374f82613710565b602082019050919050565b5f6020820190508181035f83015261377181613738565b9050919050565b5f819050815f5260205f209050919050565b5f6020601f8301049050919050565b5f82821b905092915050565b5f600883026137d47fffffffffffffffffffffffffffffffffffffffffffffffffffffffffffffffff82613799565b6137de8683613799565b95508019841693508086168417925050509392505050565b5f819050919050565b5f61381961381461380f846125d8565b6137f6565b6125d8565b9050919050565b5f819050919050565b613832836137ff565b61384661383e82613820565b8484546137a5565b825550505050565b5f5f905090565b61385d61384e565b613868818484613829565b505050565b5b8181101561388b576138805f82613855565b60018101905061386e565b5050565b601f8211156138d0576138a181613778565b6138aa8461378a565b810160208510156138b9578190505b6138cd6138c58561378a565b83018261386d565b50505b505050565b5f82821c905092915050565b5f6138f05f19846008026138d5565b1980831691505092915050565b5f61390883836138e1565b9150826002028217905092915050565b61392182612743565b67ffffffffffffffff81111561393a57613939612cff565b5b6139448254612f84565b61394f82828561388f565b5f60209050601f831160018114613980575f841561396e578287015190505b61397885826138fd565b8655506139df565b601f19841661398e86613778565b5f5b828110156139b557848901518255600182019150602085019450602081019050613990565b868310156139d257848901516139ce601f8916826138e1565b8355505b6001600288020188555050505b505050505050565b5f6139f1826125d8565b91505f8203613a0357613a02612eb6565b5b600182039050919050565b7f4e487b71000000000000000000000000000000000000000000000000000000005f52601260045260245ffd5b5f613a45826125d8565b9150613a50836125d8565b925082613a6057613a5f613a0e565b5b828204905092915050565b5f613a75826125d8565b9150613a80836125d8565b9250828203905081811115613a9857613a97612eb6565b5b92915050565b7f4e6f207469636b65747320617661696c61626c650000000000000000000000005f82015250565b5f613ad260148361274d565b9150613add82613a9e565b602082019050919050565b5f6020820190508181035f830152613aff81613ac6565b9050919050565b5f819050919050565b613b20613b1b826125d8565b613b06565b82525050565b5f613b318286613b0f565b602082019150613b418285613b0f565b602082019150613b518284613b0f565b602082019150819050949350505050565b5f613b6c826125d8565b9150613b77836125d8565b925082613b8757613b86613a0e565b5b828206905092915050565b7f496e76616c6964207469636b6574206e756d62657200000000000000000000005f82015250565b5f613bc660158361274d565b9150613bd182613b92565b602082019050919050565b5f6020820190508181035f830152613bf381613bba565b905091905056fea264697066735822122075c71e44c745214d6801ec1937ed381dd814e6f4a756b3c0014e92c38ed53dcf64736f6c634300081e0033",
					"opcodes": "PUSH1 0x80 PUSH1 0x40 MSTORE PUSH1 0xC8 PUSH1 0x2 SSTORE CALLVALUE DUP1 ISZERO PUSH1 0x13 JUMPI PUSH0 PUSH0 REVERT JUMPDEST POP CALLER PUSH1 0x3 PUSH0 PUSH2 0x100 EXP DUP2 SLOAD DUP2 PUSH20 0xFFFFFFFFFFFFFFFFFFFFFFFFFFFFFFFFFFFFFFFF MUL NOT AND SWAP1 DUP4 PUSH20 0xFFFFFFFFFFFFFFFFFFFFFFFFFFFFFFFFFFFFFFFF AND MUL OR SWAP1 SSTORE POP PUSH0 PUSH0 DUP2 SWAP1 SSTORE POP PUSH0 PUSH1 0x4 DUP2 SWAP1 SSTORE POP PUSH2 0x3C30 DUP1 PUSH2 0x6E PUSH0 CODECOPY PUSH0 RETURN INVALID PUSH1 0x80 PUSH1 0x40 MSTORE PUSH1 0x4 CALLDATASIZE LT PUSH2 0x165 JUMPI PUSH0 CALLDATALOAD PUSH1 0xE0 SHR DUP1 PUSH4 0x8627DF46 GT PUSH2 0xD0 JUMPI DUP1 PUSH4 0xBA2F93A7 GT PUSH2 0x89 JUMPI DUP1 PUSH4 0xD7098154 GT PUSH2 0x63 JUMPI DUP1 PUSH4 0xD7098154 EQ PUSH2 0x565 JUMPI DUP1 PUSH4 0xDB0CDF18 EQ PUSH2 0x58D JUMPI DUP1 PUSH4 0xF3F43703 EQ PUSH2 0x5B7 JUMPI DUP1 PUSH4 0xF627FD20 EQ PUSH2 0x5F3 JUMPI PUSH2 0x165 JUMP JUMPDEST DUP1 PUSH4 0xBA2F93A7 EQ PUSH2 0x4D9 JUMPI DUP1 PUSH4 0xC1E3BD3E EQ PUSH2 0x501 JUMPI DUP1 PUSH4 0xD27339A5 EQ PUSH2 0x53D JUMPI PUSH2 0x165 JUMP JUMPDEST DUP1 PUSH4 0x8627DF46 EQ PUSH2 0x3C6 JUMPI DUP1 PUSH4 0x8DA5CB5B EQ PUSH2 0x3E2 JUMPI DUP1 PUSH4 0x9C5320AF EQ PUSH2 0x40C JUMPI DUP1 PUSH4 0x9D8CA531 EQ PUSH2 0x439 JUMPI DUP1 PUSH4 0xA4BB62F0 EQ PUSH2 0x461 JUMPI DUP1 PUSH4 0xB0DEAF32 EQ PUSH2 0x49D JUMPI PUSH2 0x165 JUMP JUMPDEST DUP1 PUSH4 0x77F00A6B GT PUSH2 0x122 JUMPI DUP1 PUSH4 0x77F00A6B EQ PUSH2 0x2A6 JUMPI DUP1 PUSH4 0x7CB15BCA EQ PUSH2 0x2D0 JUMPI DUP1 PUSH4 0x7D23464B EQ PUSH2 0x2FA JUMPI DUP1 PUSH4 0x7EE8B2F8 EQ PUSH2 0x336 JUMPI DUP1 PUSH4 0x8009DF68 EQ PUSH2 0x372 JUMPI DUP1 PUSH4 0x84143958 EQ PUSH2 0x39C JUMPI PUSH2 0x165 JUMP JUMPDEST DUP1 PUSH4 0x55B66CD EQ PUSH2 0x169 JUMPI DUP1 PUSH4 0x1398E076 EQ PUSH2 0x193 JUMPI DUP1 PUSH4 0x3CCFD60B EQ PUSH2 0x1DA JUMPI DUP1 PUSH4 0x5B669DE4 EQ PUSH2 0x1F0 JUMPI DUP1 PUSH4 0x6CBE7A8D EQ PUSH2 0x22E JUMPI DUP1 PUSH4 0x76B3C8A8 EQ PUSH2 0x26A JUMPI JUMPDEST PUSH0 PUSH0 REVERT JUMPDEST CALLVALUE DUP1 ISZERO PUSH2 0x174 JUMPI PUSH0 PUSH0 REVERT JUMPDEST POP PUSH2 0x17D PUSH2 0x62F JUMP JUMPDEST PUSH1 0x40 MLOAD PUSH2 0x18A SWAP2 SWAP1 PUSH2 0x266F JUMP JUMPDEST PUSH1 0x40 MLOAD DUP1 SWAP2 SUB SWAP1 RETURN JUMPDEST CALLVALUE DUP1 ISZERO PUSH2 0x19E JUMPI PUSH0 PUSH0 REVERT JUMPDEST POP PUSH2 0x1B9 PUSH1 0x4 DUP1 CALLDATASIZE SUB DUP2 ADD SWAP1 PUSH2 0x1B4 SWAP2 SWAP1 PUSH2 0x26CA JUMP JUMPDEST PUSH2 0x7CC JUMP JUMPDEST PUSH1 0x40 MLOAD PUSH2 0x1D1 SWAP13 SWAP12 SWAP11 SWAP10 SWAP9 SWAP8 SWAP7 SWAP6 SWAP5 SWAP4 SWAP3 SWAP2 SWAP1 PUSH2 0x27CD JUMP JUMPDEST PUSH1 0x40 MLOAD DUP1 SWAP2 SUB SWAP1 RETURN JUMPDEST CALLVALUE DUP1 ISZERO PUSH2 0x1E5 JUMPI PUSH0 PUSH0 REVERT JUMPDEST POP PUSH2 0x1EE PUSH2 0x8F9 JUMP JUMPDEST STOP JUMPDEST CALLVALUE DUP1 ISZERO PUSH2 0x1FB JUMPI PUSH0 PUSH0 REVERT JUMPDEST POP PUSH2 0x216 PUSH1 0x4 DUP1 CALLDATASIZE SUB DUP2 ADD SWAP1 PUSH2 0x211 SWAP2 SWAP1 PUSH2 0x28B6 JUMP JUMPDEST PUSH2 0xA6A JUMP JUMPDEST PUSH1 0x40 MLOAD PUSH2 0x225 SWAP4 SWAP3 SWAP2 SWAP1 PUSH2 0x28E1 JUMP JUMPDEST PUSH1 0x40 MLOAD DUP1 SWAP2 SUB SWAP1 RETURN JUMPDEST CALLVALUE DUP1 ISZERO PUSH2 0x239 JUMPI PUSH0 PUSH0 REVERT JUMPDEST POP PUSH2 0x254 PUSH1 0x4 DUP1 CALLDATASIZE SUB DUP2 ADD SWAP1 PUSH2 0x24F SWAP2 SWAP1 PUSH2 0x26CA JUMP JUMPDEST PUSH2 0xB7F JUMP JUMPDEST PUSH1 0x40 MLOAD PUSH2 0x261 SWAP2 SWAP1 PUSH2 0x2916 JUMP JUMPDEST PUSH1 0x40 MLOAD DUP1 SWAP2 SUB SWAP1 RETURN JUMPDEST CALLVALUE DUP1 ISZERO PUSH2 0x275 JUMPI PUSH0 PUSH0 REVERT JUMPDEST POP PUSH2 0x290 PUSH1 0x4 DUP1 CALLDATASIZE SUB DUP2 ADD SWAP1 PUSH2 0x28B SWAP2 SWAP1 PUSH2 0x26CA JUMP JUMPDEST PUSH2 0xC5F JUMP JUMPDEST PUSH1 0x40 MLOAD PUSH2 0x29D SWAP2 SWAP1 PUSH2 0x2B5A JUMP JUMPDEST PUSH1 0x40 MLOAD DUP1 SWAP2 SUB SWAP1 RETURN JUMPDEST CALLVALUE DUP1 ISZERO PUSH2 0x2B1 JUMPI PUSH0 PUSH0 REVERT JUMPDEST POP PUSH2 0x2BA PUSH2 0xE8E JUMP JUMPDEST PUSH1 0x40 MLOAD PUSH2 0x2C7 SWAP2 SWAP1 PUSH2 0x2B7A JUMP JUMPDEST PUSH1 0x40 MLOAD DUP1 SWAP2 SUB SWAP1 RETURN JUMPDEST CALLVALUE DUP1 ISZERO PUSH2 0x2DB JUMPI PUSH0 PUSH0 REVERT JUMPDEST POP PUSH2 0x2E4 PUSH2 0xE94 JUMP JUMPDEST PUSH1 0x40 MLOAD PUSH2 0x2F1 SWAP2 SWAP1 PUSH2 0x2B7A JUMP JUMPDEST PUSH1 0x40 MLOAD DUP1 SWAP2 SUB SWAP1 RETURN JUMPDEST CALLVALUE DUP1 ISZERO PUSH2 0x305 JUMPI PUSH0 PUSH0 REVERT JUMPDEST POP PUSH2 0x320 PUSH1 0x4 DUP1 CALLDATASIZE SUB DUP2 ADD SWAP1 PUSH2 0x31B SWAP2 SWAP1 PUSH2 0x2B93 JUMP JUMPDEST PUSH2 0xE9A JUMP JUMPDEST PUSH1 0x40 MLOAD PUSH2 0x32D SWAP2 SWAP1 PUSH2 0x2B7A JUMP JUMPDEST PUSH1 0x40 MLOAD DUP1 SWAP2 SUB SWAP1 RETURN JUMPDEST CALLVALUE DUP1 ISZERO PUSH2 0x341 JUMPI PUSH0 PUSH0 REVERT JUMPDEST POP PUSH2 0x35C PUSH1 0x4 DUP1 CALLDATASIZE SUB DUP2 ADD SWAP1 PUSH2 0x357 SWAP2 SWAP1 PUSH2 0x28B6 JUMP JUMPDEST PUSH2 0xEF3 JUMP JUMPDEST PUSH1 0x40 MLOAD PUSH2 0x369 SWAP2 SWAP1 PUSH2 0x2B7A JUMP JUMPDEST PUSH1 0x40 MLOAD DUP1 SWAP2 SUB SWAP1 RETURN JUMPDEST CALLVALUE DUP1 ISZERO PUSH2 0x37D JUMPI PUSH0 PUSH0 REVERT JUMPDEST POP PUSH2 0x386 PUSH2 0xF39 JUMP JUMPDEST PUSH1 0x40 MLOAD PUSH2 0x393 SWAP2 SWAP1 PUSH2 0x2B7A JUMP JUMPDEST PUSH1 0x40 MLOAD DUP1 SWAP2 SUB SWAP1 RETURN JUMPDEST CALLVALUE DUP1 ISZERO PUSH2 0x3A7 JUMPI PUSH0 PUSH0 REVERT JUMPDEST POP PUSH2 0x3B0 PUSH2 0xF3E JUMP JUMPDEST PUSH1 0x40 MLOAD PUSH2 0x3BD SWAP2 SWAP1 PUSH2 0x2B7A JUMP JUMPDEST PUSH1 0x40 MLOAD DUP1 SWAP2 SUB SWAP1 RETURN JUMPDEST PUSH2 0x3E0 PUSH1 0x4 DUP1 CALLDATASIZE SUB DUP2 ADD SWAP1 PUSH2 0x3DB SWAP2 SWAP1 PUSH2 0x2BD1 JUMP JUMPDEST PUSH2 0xF44 JUMP JUMPDEST STOP JUMPDEST CALLVALUE DUP1 ISZERO PUSH2 0x3ED JUMPI PUSH0 PUSH0 REVERT JUMPDEST POP PUSH2 0x3F6 PUSH2 0x127C JUMP JUMPDEST PUSH1 0x40 MLOAD PUSH2 0x403 SWAP2 SWAP1 PUSH2 0x2C0F JUMP JUMPDEST PUSH1 0x40 MLOAD DUP1 SWAP2 SUB SWAP1 RETURN JUMPDEST CALLVALUE DUP1 ISZERO PUSH2 0x417 JUMPI PUSH0 PUSH0 REVERT JUMPDEST POP PUSH2 0x420 PUSH2 0x12A1 JUMP JUMPDEST PUSH1 0x40 MLOAD PUSH2 0x430 SWAP5 SWAP4 SWAP3 SWAP2 SWAP1 PUSH2 0x2C28 JUMP JUMPDEST PUSH1 0x40 MLOAD DUP1 SWAP2 SUB SWAP1 RETURN JUMPDEST CALLVALUE DUP1 ISZERO PUSH2 0x444 JUMPI PUSH0 PUSH0 REVERT JUMPDEST POP PUSH2 0x45F PUSH1 0x4 DUP1 CALLDATASIZE SUB DUP2 ADD SWAP1 PUSH2 0x45A SWAP2 SWAP1 PUSH2 0x26CA JUMP JUMPDEST PUSH2 0x12DD JUMP JUMPDEST STOP JUMPDEST CALLVALUE DUP1 ISZERO PUSH2 0x46C JUMPI PUSH0 PUSH0 REVERT JUMPDEST POP PUSH2 0x487 PUSH1 0x4 DUP1 CALLDATASIZE SUB DUP2 ADD SWAP1 PUSH2 0x482 SWAP2 SWAP1 PUSH2 0x28B6 JUMP JUMPDEST PUSH2 0x14C0 JUMP JUMPDEST PUSH1 0x40 MLOAD PUSH2 0x494 SWAP2 SWAP1 PUSH2 0x266F JUMP JUMPDEST PUSH1 0x40 MLOAD DUP1 SWAP2 SUB SWAP1 RETURN JUMPDEST CALLVALUE DUP1 ISZERO PUSH2 0x4A8 JUMPI PUSH0 PUSH0 REVERT JUMPDEST POP PUSH2 0x4C3 PUSH1 0x4 DUP1 CALLDATASIZE SUB DUP2 ADD SWAP1 PUSH2 0x4BE SWAP2 SWAP1 PUSH2 0x2B93 JUMP JUMPDEST PUSH2 0x1663 JUMP JUMPDEST PUSH1 0x40 MLOAD PUSH2 0x4D0 SWAP2 SWAP1 PUSH2 0x2B7A JUMP JUMPDEST PUSH1 0x40 MLOAD DUP1 SWAP2 SUB SWAP1 RETURN JUMPDEST CALLVALUE DUP1 ISZERO PUSH2 0x4E4 JUMPI PUSH0 PUSH0 REVERT JUMPDEST POP PUSH2 0x4FF PUSH1 0x4 DUP1 CALLDATASIZE SUB DUP2 ADD SWAP1 PUSH2 0x4FA SWAP2 SWAP1 PUSH2 0x2BD1 JUMP JUMPDEST PUSH2 0x16BC JUMP JUMPDEST STOP JUMPDEST CALLVALUE DUP1 ISZERO PUSH2 0x50C JUMPI PUSH0 PUSH0 REVERT JUMPDEST POP PUSH2 0x527 PUSH1 0x4 DUP1 CALLDATASIZE SUB DUP2 ADD SWAP1 PUSH2 0x522 SWAP2 SWAP1 PUSH2 0x26CA JUMP JUMPDEST PUSH2 0x18E2 JUMP JUMPDEST PUSH1 0x40 MLOAD PUSH2 0x534 SWAP2 SWAP1 PUSH2 0x2CD7 JUMP JUMPDEST PUSH1 0x40 MLOAD DUP1 SWAP2 SUB SWAP1 RETURN JUMPDEST CALLVALUE DUP1 ISZERO PUSH2 0x548 JUMPI PUSH0 PUSH0 REVERT JUMPDEST POP PUSH2 0x563 PUSH1 0x4 DUP1 CALLDATASIZE SUB DUP2 ADD SWAP1 PUSH2 0x55E SWAP2 SWAP1 PUSH2 0x26CA JUMP JUMPDEST PUSH2 0x1981 JUMP JUMPDEST STOP JUMPDEST CALLVALUE DUP1 ISZERO PUSH2 0x570 JUMPI PUSH0 PUSH0 REVERT JUMPDEST POP PUSH2 0x58B PUSH1 0x4 DUP1 CALLDATASIZE SUB DUP2 ADD SWAP1 PUSH2 0x586 SWAP2 SWAP1 PUSH2 0x26CA JUMP JUMPDEST PUSH2 0x1A5F JUMP JUMPDEST STOP JUMPDEST CALLVALUE DUP1 ISZERO PUSH2 0x598 JUMPI PUSH0 PUSH0 REVERT JUMPDEST POP PUSH2 0x5A1 PUSH2 0x1D48 JUMP JUMPDEST PUSH1 0x40 MLOAD PUSH2 0x5AE SWAP2 SWAP1 PUSH2 0x2B7A JUMP JUMPDEST PUSH1 0x40 MLOAD DUP1 SWAP2 SUB SWAP1 RETURN JUMPDEST CALLVALUE DUP1 ISZERO PUSH2 0x5C2 JUMPI PUSH0 PUSH0 REVERT JUMPDEST POP PUSH2 0x5DD PUSH1 0x4 DUP1 CALLDATASIZE SUB DUP2 ADD SWAP1 PUSH2 0x5D8 SWAP2 SWAP1 PUSH2 0x28B6 JUMP JUMPDEST PUSH2 0x1D50 JUMP JUMPDEST PUSH1 0x40 MLOAD PUSH2 0x5EA SWAP2 SWAP1 PUSH2 0x2B7A JUMP JUMPDEST PUSH1 0x40 MLOAD DUP1 SWAP2 SUB SWAP1 RETURN JUMPDEST CALLVALUE DUP1 ISZERO PUSH2 0x5FE JUMPI PUSH0 PUSH0 REVERT JUMPDEST POP PUSH2 0x619 PUSH1 0x4 DUP1 CALLDATASIZE SUB DUP2 ADD SWAP1 PUSH2 0x614 SWAP2 SWAP1 PUSH2 0x2E23 JUMP JUMPDEST PUSH2 0x1D65 JUMP JUMPDEST PUSH1 0x40 MLOAD PUSH2 0x626 SWAP2 SWAP1 PUSH2 0x2B7A JUMP JUMPDEST PUSH1 0x40 MLOAD DUP1 SWAP2 SUB SWAP1 RETURN JUMPDEST PUSH1 0x60 PUSH0 PUSH0 SWAP1 POP PUSH0 PUSH0 SWAP1 POP JUMPDEST PUSH0 SLOAD DUP2 LT ISZERO PUSH2 0x6C3 JUMPI PUSH1 0x1 PUSH0 DUP3 DUP2 MSTORE PUSH1 0x20 ADD SWAP1 DUP2 MSTORE PUSH1 0x20 ADD PUSH0 KECCAK256 PUSH1 0xB ADD PUSH0 SWAP1 SLOAD SWAP1 PUSH2 0x100 EXP SWAP1 DIV PUSH1 0xFF AND ISZERO DUP1 ISZERO PUSH2 0x6A2 JUMPI POP PUSH0 PUSH1 0x1 PUSH0 DUP4 DUP2 MSTORE PUSH1 0x20 ADD SWAP1 DUP2 MSTORE PUSH1 0x20 ADD PUSH0 KECCAK256 PUSH1 0x7 ADD SLOAD EQ DUP1 PUSH2 0x6A1 JUMPI POP PUSH1 0x1 PUSH0 DUP3 DUP2 MSTORE PUSH1 0x20 ADD SWAP1 DUP2 MSTORE PUSH1 0x20 ADD PUSH0 KECCAK256 PUSH1 0x7 ADD SLOAD TIMESTAMP LT JUMPDEST JUMPDEST ISZERO PUSH2 0x6B6 JUMPI DUP2 DUP1 PUSH2 0x6B2 SWAP1 PUSH2 0x2EE3 JUMP JUMPDEST SWAP3 POP POP JUMPDEST DUP1 DUP1 PUSH1 0x1 ADD SWAP2 POP POP PUSH2 0x63A JUMP JUMPDEST POP PUSH0 DUP2 PUSH8 0xFFFFFFFFFFFFFFFF DUP2 GT ISZERO PUSH2 0x6DF JUMPI PUSH2 0x6DE PUSH2 0x2CFF JUMP JUMPDEST JUMPDEST PUSH1 0x40 MLOAD SWAP1 DUP1 DUP3 MSTORE DUP1 PUSH1 0x20 MUL PUSH1 0x20 ADD DUP3 ADD PUSH1 0x40 MSTORE DUP1 ISZERO PUSH2 0x70D JUMPI DUP2 PUSH1 0x20 ADD PUSH1 0x20 DUP3 MUL DUP1 CALLDATASIZE DUP4 CALLDATACOPY DUP1 DUP3 ADD SWAP2 POP POP SWAP1 POP JUMPDEST POP SWAP1 POP PUSH0 PUSH0 SWAP1 POP PUSH0 PUSH0 SWAP1 POP JUMPDEST PUSH0 SLOAD DUP2 LT ISZERO PUSH2 0x7C2 JUMPI PUSH1 0x1 PUSH0 DUP3 DUP2 MSTORE PUSH1 0x20 ADD SWAP1 DUP2 MSTORE PUSH1 0x20 ADD PUSH0 KECCAK256 PUSH1 0xB ADD PUSH0 SWAP1 SLOAD SWAP1 PUSH2 0x100 EXP SWAP1 DIV PUSH1 0xFF AND ISZERO DUP1 ISZERO PUSH2 0x781 JUMPI POP PUSH0 PUSH1 0x1 PUSH0 DUP4 DUP2 MSTORE PUSH1 0x20 ADD SWAP1 DUP2 MSTORE PUSH1 0x20 ADD PUSH0 KECCAK256 PUSH1 0x7 ADD SLOAD EQ DUP1 PUSH2 0x780 JUMPI POP PUSH1 0x1 PUSH0 DUP3 DUP2 MSTORE PUSH1 0x20 ADD SWAP1 DUP2 MSTORE PUSH1 0x20 ADD PUSH0 KECCAK256 PUSH1 0x7 ADD SLOAD TIMESTAMP LT JUMPDEST JUMPDEST ISZERO PUSH2 0x7B5 JUMPI DUP1 DUP4 DUP4 DUP2 MLOAD DUP2 LT PUSH2 0x79A JUMPI PUSH2 0x799 PUSH2 0x2F2A JUMP JUMPDEST JUMPDEST PUSH1 0x20 MUL PUSH1 0x20 ADD ADD DUP2 DUP2 MSTORE POP POP DUP2 DUP1 PUSH2 0x7B1 SWAP1 PUSH2 0x2EE3 JUMP JUMPDEST SWAP3 POP POP JUMPDEST DUP1 DUP1 PUSH1 0x1 ADD SWAP2 POP POP PUSH2 0x719 JUMP JUMPDEST POP DUP2 SWAP4 POP POP POP POP SWAP1 JUMP JUMPDEST PUSH1 0x1 PUSH1 0x20 MSTORE DUP1 PUSH0 MSTORE PUSH1 0x40 PUSH0 KECCAK256 PUSH0 SWAP2 POP SWAP1 POP DUP1 PUSH0 ADD SLOAD SWAP1 DUP1 PUSH1 0x1 ADD PUSH0 SWAP1 SLOAD SWAP1 PUSH2 0x100 EXP SWAP1 DIV PUSH20 0xFFFFFFFFFFFFFFFFFFFFFFFFFFFFFFFFFFFFFFFF AND SWAP1 DUP1 PUSH1 0x2 ADD DUP1 SLOAD PUSH2 0x816 SWAP1 PUSH2 0x2F84 JUMP JUMPDEST DUP1 PUSH1 0x1F ADD PUSH1 0x20 DUP1 SWAP2 DIV MUL PUSH1 0x20 ADD PUSH1 0x40 MLOAD SWAP1 DUP2 ADD PUSH1 0x40 MSTORE DUP1 SWAP3 SWAP2 SWAP1 DUP2 DUP2 MSTORE PUSH1 0x20 ADD DUP3 DUP1 SLOAD PUSH2 0x842 SWAP1 PUSH2 0x2F84 JUMP JUMPDEST DUP1 ISZERO PUSH2 0x88D JUMPI DUP1 PUSH1 0x1F LT PUSH2 0x864 JUMPI PUSH2 0x100 DUP1 DUP4 SLOAD DIV MUL DUP4 MSTORE SWAP2 PUSH1 0x20 ADD SWAP2 PUSH2 0x88D JUMP JUMPDEST DUP3 ADD SWAP2 SWAP1 PUSH0 MSTORE PUSH1 0x20 PUSH0 KECCAK256 SWAP1 JUMPDEST DUP2 SLOAD DUP2 MSTORE SWAP1 PUSH1 0x1 ADD SWAP1 PUSH1 0x20 ADD DUP1 DUP4 GT PUSH2 0x870 JUMPI DUP3 SWAP1 SUB PUSH1 0x1F AND DUP3 ADD SWAP2 JUMPDEST POP POP POP POP POP SWAP1 DUP1 PUSH1 0x3 ADD SLOAD SWAP1 DUP1 PUSH1 0x4 ADD SLOAD SWAP1 DUP1 PUSH1 0x5 ADD SLOAD SWAP1 DUP1 PUSH1 0x6 ADD SLOAD SWAP1 DUP1 PUSH1 0x7 ADD SLOAD SWAP1 DUP1 PUSH1 0xA ADD SLOAD SWAP1 DUP1 PUSH1 0xB ADD PUSH0 SWAP1 SLOAD SWAP1 PUSH2 0x100 EXP SWAP1 DIV PUSH1 0xFF AND SWAP1 DUP1 PUSH1 0xB ADD PUSH1 0x1 SWAP1 SLOAD SWAP1 PUSH2 0x100 EXP SWAP1 DIV PUSH20 0xFFFFFFFFFFFFFFFFFFFFFFFFFFFFFFFFFFFFFFFF AND SWAP1 DUP1 PUSH1 0xC ADD SLOAD SWAP1 POP DUP13 JUMP JUMPDEST PUSH0 PUSH1 0x5 PUSH0 CALLER PUSH20 0xFFFFFFFFFFFFFFFFFFFFFFFFFFFFFFFFFFFFFFFF AND PUSH20 0xFFFFFFFFFFFFFFFFFFFFFFFFFFFFFFFFFFFFFFFF AND DUP2 MSTORE PUSH1 0x20 ADD SWAP1 DUP2 MSTORE PUSH1 0x20 ADD PUSH0 KECCAK256 SLOAD SWAP1 POP PUSH0 DUP2 GT PUSH2 0x97C JUMPI PUSH1 0x40 MLOAD PUSH32 0x8C379A000000000000000000000000000000000000000000000000000000000 DUP2 MSTORE PUSH1 0x4 ADD PUSH2 0x973 SWAP1 PUSH2 0x2FFE JUMP JUMPDEST PUSH1 0x40 MLOAD DUP1 SWAP2 SUB SWAP1 REVERT JUMPDEST PUSH0 PUSH1 0x5 PUSH0 CALLER PUSH20 0xFFFFFFFFFFFFFFFFFFFFFFFFFFFFFFFFFFFFFFFF AND PUSH20 0xFFFFFFFFFFFFFFFFFFFFFFFFFFFFFFFFFFFFFFFF AND DUP2 MSTORE PUSH1 0x20 ADD SWAP1 DUP2 MSTORE PUSH1 0x20 ADD PUSH0 KECCAK256 DUP2 SWAP1 SSTORE POP PUSH0 CALLER PUSH20 0xFFFFFFFFFFFFFFFFFFFFFFFFFFFFFFFFFFFFFFFF AND DUP3 PUSH1 0x40 MLOAD PUSH2 0x9E3 SWAP1 PUSH2 0x3049 JUMP JUMPDEST PUSH0 PUSH1 0x40 MLOAD DUP1 DUP4 SUB DUP2 DUP6 DUP8 GAS CALL SWAP3 POP POP POP RETURNDATASIZE DUP1 PUSH0 DUP2 EQ PUSH2 0xA1D JUMPI PUSH1 0x40 MLOAD SWAP2 POP PUSH1 0x1F NOT PUSH1 0x3F RETURNDATASIZE ADD AND DUP3 ADD PUSH1 0x40 MSTORE RETURNDATASIZE DUP3 MSTORE RETURNDATASIZE PUSH0 PUSH1 0x20 DUP5 ADD RETURNDATACOPY PUSH2 0xA22 JUMP JUMPDEST PUSH1 0x60 SWAP2 POP JUMPDEST POP POP SWAP1 POP DUP1 PUSH2 0xA66 JUMPI PUSH1 0x40 MLOAD PUSH32 0x8C379A000000000000000000000000000000000000000000000000000000000 DUP2 MSTORE PUSH1 0x4 ADD PUSH2 0xA5D SWAP1 PUSH2 0x30A7 JUMP JUMPDEST PUSH1 0x40 MLOAD DUP1 SWAP2 SUB SWAP1 REVERT JUMPDEST POP POP JUMP JUMPDEST PUSH0 PUSH0 PUSH0 PUSH0 PUSH0 SWAP1 POP JUMPDEST PUSH0 SLOAD DUP2 LT ISZERO PUSH2 0xB77 JUMPI PUSH0 PUSH1 0x1 PUSH0 DUP4 DUP2 MSTORE PUSH1 0x20 ADD SWAP1 DUP2 MSTORE PUSH1 0x20 ADD PUSH0 KECCAK256 PUSH1 0x8 ADD PUSH0 DUP8 PUSH20 0xFFFFFFFFFFFFFFFFFFFFFFFFFFFFFFFFFFFFFFFF AND PUSH20 0xFFFFFFFFFFFFFFFFFFFFFFFFFFFFFFFFFFFFFFFF AND DUP2 MSTORE PUSH1 0x20 ADD SWAP1 DUP2 MSTORE PUSH1 0x20 ADD PUSH0 KECCAK256 SLOAD SWAP1 POP PUSH0 DUP2 GT ISZERO PUSH2 0xAF3 JUMPI DUP5 DUP1 PUSH2 0xAE1 SWAP1 PUSH2 0x2EE3 JUMP JUMPDEST SWAP6 POP POP DUP1 DUP5 PUSH2 0xAF0 SWAP2 SWAP1 PUSH2 0x30C5 JUMP JUMPDEST SWAP4 POP JUMPDEST DUP6 PUSH20 0xFFFFFFFFFFFFFFFFFFFFFFFFFFFFFFFFFFFFFFFF AND PUSH1 0x1 PUSH0 DUP5 DUP2 MSTORE PUSH1 0x20 ADD SWAP1 DUP2 MSTORE PUSH1 0x20 ADD PUSH0 KECCAK256 PUSH1 0xB ADD PUSH1 0x1 SWAP1 SLOAD SWAP1 PUSH2 0x100 EXP SWAP1 DIV PUSH20 0xFFFFFFFFFFFFFFFFFFFFFFFFFFFFFFFFFFFFFFFF AND PUSH20 0xFFFFFFFFFFFFFFFFFFFFFFFFFFFFFFFFFFFFFFFF AND SUB PUSH2 0xB69 JUMPI DUP3 DUP1 PUSH2 0xB65 SWAP1 PUSH2 0x2EE3 JUMP JUMPDEST SWAP4 POP POP JUMPDEST POP DUP1 DUP1 PUSH1 0x1 ADD SWAP2 POP POP PUSH2 0xA72 JUMP JUMPDEST POP SWAP2 SWAP4 SWAP1 SWAP3 POP JUMP JUMPDEST PUSH0 PUSH0 SLOAD DUP3 LT PUSH2 0xBC3 JUMPI PUSH1 0x40 MLOAD PUSH32 0x8C379A000000000000000000000000000000000000000000000000000000000 DUP2 MSTORE PUSH1 0x4 ADD PUSH2 0xBBA SWAP1 PUSH2 0x3142 JUMP JUMPDEST PUSH1 0x40 MLOAD DUP1 SWAP2 SUB SWAP1 REVERT JUMPDEST PUSH0 PUSH1 0x1 PUSH0 DUP5 DUP2 MSTORE PUSH1 0x20 ADD SWAP1 DUP2 MSTORE PUSH1 0x20 ADD PUSH0 KECCAK256 SWAP1 POP DUP1 PUSH1 0xB ADD PUSH0 SWAP1 SLOAD SWAP1 PUSH2 0x100 EXP SWAP1 DIV PUSH1 0xFF AND DUP1 PUSH2 0xBF6 JUMPI POP PUSH0 DUP2 PUSH1 0x5 ADD SLOAD EQ JUMPDEST ISZERO PUSH2 0xC04 JUMPI PUSH0 SWAP2 POP POP PUSH2 0xC5A JUMP JUMPDEST PUSH0 DUP2 PUSH1 0x4 ADD SLOAD GT DUP1 ISZERO PUSH2 0xC1F JUMPI POP DUP1 PUSH1 0x4 ADD SLOAD DUP2 PUSH1 0x5 ADD SLOAD LT ISZERO JUMPDEST ISZERO PUSH2 0xC2E JUMPI PUSH1 0x1 SWAP2 POP POP PUSH2 0xC5A JUMP JUMPDEST PUSH0 DUP2 PUSH1 0x7 ADD SLOAD GT DUP1 ISZERO PUSH2 0xC45 JUMPI POP DUP1 PUSH1 0x7 ADD SLOAD TIMESTAMP LT ISZERO JUMPDEST ISZERO PUSH2 0xC54 JUMPI PUSH1 0x1 SWAP2 POP POP PUSH2 0xC5A JUMP JUMPDEST PUSH1 0x1 SWAP2 POP POP JUMPDEST SWAP2 SWAP1 POP JUMP JUMPDEST PUSH2 0xC67 PUSH2 0x2524 JUMP JUMPDEST PUSH0 PUSH1 0x1 PUSH0 DUP5 DUP2 MSTORE PUSH1 0x20 ADD SWAP1 DUP2 MSTORE PUSH1 0x20 ADD PUSH0 KECCAK256 SWAP1 POP PUSH1 0x40 MLOAD DUP1 PUSH2 0x1A0 ADD PUSH1 0x40 MSTORE DUP1 DUP3 PUSH0 ADD SLOAD DUP2 MSTORE PUSH1 0x20 ADD DUP3 PUSH1 0x1 ADD PUSH0 SWAP1 SLOAD SWAP1 PUSH2 0x100 EXP SWAP1 DIV PUSH20 0xFFFFFFFFFFFFFFFFFFFFFFFFFFFFFFFFFFFFFFFF AND PUSH20 0xFFFFFFFFFFFFFFFFFFFFFFFFFFFFFFFFFFFFFFFF AND DUP2 MSTORE PUSH1 0x20 ADD DUP3 PUSH1 0x2 ADD DUP1 SLOAD PUSH2 0xCDE SWAP1 PUSH2 0x2F84 JUMP JUMPDEST DUP1 PUSH1 0x1F ADD PUSH1 0x20 DUP1 SWAP2 DIV MUL PUSH1 0x20 ADD PUSH1 0x40 MLOAD SWAP1 DUP2 ADD PUSH1 0x40 MSTORE DUP1 SWAP3 SWAP2 SWAP1 DUP2 DUP2 MSTORE PUSH1 0x20 ADD DUP3 DUP1 SLOAD PUSH2 0xD0A SWAP1 PUSH2 0x2F84 JUMP JUMPDEST DUP1 ISZERO PUSH2 0xD55 JUMPI DUP1 PUSH1 0x1F LT PUSH2 0xD2C JUMPI PUSH2 0x100 DUP1 DUP4 SLOAD DIV MUL DUP4 MSTORE SWAP2 PUSH1 0x20 ADD SWAP2 PUSH2 0xD55 JUMP JUMPDEST DUP3 ADD SWAP2 SWAP1 PUSH0 MSTORE PUSH1 0x20 PUSH0 KECCAK256 SWAP1 JUMPDEST DUP2 SLOAD DUP2 MSTORE SWAP1 PUSH1 0x1 ADD SWAP1 PUSH1 0x20 ADD DUP1 DUP4 GT PUSH2 0xD38 JUMPI DUP3 SWAP1 SUB PUSH1 0x1F AND DUP3 ADD SWAP2 JUMPDEST POP POP POP POP POP DUP2 MSTORE PUSH1 0x20 ADD DUP3 PUSH1 0x3 ADD SLOAD DUP2 MSTORE PUSH1 0x20 ADD DUP3 PUSH1 0x4 ADD SLOAD DUP2 MSTORE PUSH1 0x20 ADD DUP3 PUSH1 0x5 ADD SLOAD DUP2 MSTORE PUSH1 0x20 ADD DUP3 PUSH1 0x6 ADD SLOAD DUP2 MSTORE PUSH1 0x20 ADD DUP3 PUSH1 0x7 ADD SLOAD DUP2 MSTORE PUSH1 0x20 ADD DUP3 PUSH1 0xA ADD SLOAD DUP2 MSTORE PUSH1 0x20 ADD DUP3 PUSH1 0xB ADD PUSH0 SWAP1 SLOAD SWAP1 PUSH2 0x100 EXP SWAP1 DIV PUSH1 0xFF AND ISZERO ISZERO DUP2 MSTORE PUSH1 0x20 ADD DUP3 PUSH1 0xB ADD PUSH1 0x1 SWAP1 SLOAD SWAP1 PUSH2 0x100 EXP SWAP1 DIV PUSH20 0xFFFFFFFFFFFFFFFFFFFFFFFFFFFFFFFFFFFFFFFF AND PUSH20 0xFFFFFFFFFFFFFFFFFFFFFFFFFFFFFFFFFFFFFFFF AND DUP2 MSTORE PUSH1 0x20 ADD DUP3 PUSH1 0xC ADD SLOAD DUP2 MSTORE PUSH1 0x20 ADD DUP3 PUSH1 0x9 ADD DUP1 SLOAD DUP1 PUSH1 0x20 MUL PUSH1 0x20 ADD PUSH1 0x40 MLOAD SWAP1 DUP2 ADD PUSH1 0x40 MSTORE DUP1 SWAP3 SWAP2 SWAP1 DUP2 DUP2 MSTORE PUSH1 0x20 ADD DUP3 DUP1 SLOAD DUP1 ISZERO PUSH2 0xE7E JUMPI PUSH1 0x20 MUL DUP3 ADD SWAP2 SWAP1 PUSH0 MSTORE PUSH1 0x20 PUSH0 KECCAK256 SWAP1 JUMPDEST DUP2 PUSH0 SWAP1 SLOAD SWAP1 PUSH2 0x100 EXP SWAP1 DIV PUSH20 0xFFFFFFFFFFFFFFFFFFFFFFFFFFFFFFFFFFFFFFFF AND PUSH20 0xFFFFFFFFFFFFFFFFFFFFFFFFFFFFFFFFFFFFFFFF AND DUP2 MSTORE PUSH1 0x20 ADD SWAP1 PUSH1 0x1 ADD SWAP1 DUP1 DUP4 GT PUSH2 0xE35 JUMPI JUMPDEST POP POP POP POP POP DUP2 MSTORE POP SWAP2 POP POP SWAP2 SWAP1 POP JUMP JUMPDEST PUSH2 0x3E8 DUP2 JUMP JUMPDEST PUSH1 0x4 SLOAD DUP2 JUMP JUMPDEST PUSH0 PUSH1 0x1 PUSH0 DUP5 DUP2 MSTORE PUSH1 0x20 ADD SWAP1 DUP2 MSTORE PUSH1 0x20 ADD PUSH0 KECCAK256 PUSH1 0x8 ADD PUSH0 DUP4 PUSH20 0xFFFFFFFFFFFFFFFFFFFFFFFFFFFFFFFFFFFFFFFF AND PUSH20 0xFFFFFFFFFFFFFFFFFFFFFFFFFFFFFFFFFFFFFFFF AND DUP2 MSTORE PUSH1 0x20 ADD SWAP1 DUP2 MSTORE PUSH1 0x20 ADD PUSH0 KECCAK256 SLOAD SWAP1 POP SWAP3 SWAP2 POP POP JUMP JUMPDEST PUSH0 PUSH1 0x5 PUSH0 DUP4 PUSH20 0xFFFFFFFFFFFFFFFFFFFFFFFFFFFFFFFFFFFFFFFF AND PUSH20 0xFFFFFFFFFFFFFFFFFFFFFFFFFFFFFFFFFFFFFFFF AND DUP2 MSTORE PUSH1 0x20 ADD SWAP1 DUP2 MSTORE PUSH1 0x20 ADD PUSH0 KECCAK256 SLOAD SWAP1 POP SWAP2 SWAP1 POP JUMP JUMPDEST PUSH0 SLOAD DUP2 JUMP JUMPDEST PUSH1 0x2 SLOAD DUP2 JUMP JUMPDEST PUSH0 PUSH1 0x1 PUSH0 DUP5 DUP2 MSTORE PUSH1 0x20 ADD SWAP1 DUP2 MSTORE PUSH1 0x20 ADD PUSH0 KECCAK256 SWAP1 POP PUSH0 DUP2 PUSH1 0x3 ADD SLOAD DUP4 PUSH2 0xF69 SWAP2 SWAP1 PUSH2 0x3160 JUMP JUMPDEST SWAP1 POP DUP2 PUSH1 0xB ADD PUSH0 SWAP1 SLOAD SWAP1 PUSH2 0x100 EXP SWAP1 DIV PUSH1 0xFF AND ISZERO PUSH2 0xFBC JUMPI PUSH1 0x40 MLOAD PUSH32 0x8C379A000000000000000000000000000000000000000000000000000000000 DUP2 MSTORE PUSH1 0x4 ADD PUSH2 0xFB3 SWAP1 PUSH2 0x31EB JUMP JUMPDEST PUSH1 0x40 MLOAD DUP1 SWAP2 SUB SWAP1 REVERT JUMPDEST PUSH0 DUP4 GT PUSH2 0xFFE JUMPI PUSH1 0x40 MLOAD PUSH32 0x8C379A000000000000000000000000000000000000000000000000000000000 DUP2 MSTORE PUSH1 0x4 ADD PUSH2 0xFF5 SWAP1 PUSH2 0x3253 JUMP JUMPDEST PUSH1 0x40 MLOAD DUP1 SWAP2 SUB SWAP1 REVERT JUMPDEST DUP1 CALLVALUE EQ PUSH2 0x1040 JUMPI PUSH1 0x40 MLOAD PUSH32 0x8C379A000000000000000000000000000000000000000000000000000000000 DUP2 MSTORE PUSH1 0x4 ADD PUSH2 0x1037 SWAP1 PUSH2 0x32BB JUMP JUMPDEST PUSH1 0x40 MLOAD DUP1 SWAP2 SUB SWAP1 REVERT JUMPDEST PUSH0 DUP3 PUSH1 0x5 ADD SLOAD SWAP1 POP PUSH0 PUSH0 SWAP1 POP JUMPDEST DUP5 DUP2 LT ISZERO PUSH2 0x10BE JUMPI CALLER DUP5 PUSH1 0xD ADD PUSH0 DUP4 DUP6 PUSH2 0x1067 SWAP2 SWAP1 PUSH2 0x30C5 JUMP JUMPDEST DUP2 MSTORE PUSH1 0x20 ADD SWAP1 DUP2 MSTORE PUSH1 0x20 ADD PUSH0 KECCAK256 PUSH0 PUSH2 0x100 EXP DUP2 SLOAD DUP2 PUSH20 0xFFFFFFFFFFFFFFFFFFFFFFFFFFFFFFFFFFFFFFFF MUL NOT AND SWAP1 DUP4 PUSH20 0xFFFFFFFFFFFFFFFFFFFFFFFFFFFFFFFFFFFFFFFF AND MUL OR SWAP1 SSTORE POP DUP1 DUP1 PUSH1 0x1 ADD SWAP2 POP POP PUSH2 0x104D JUMP JUMPDEST POP DUP4 DUP4 PUSH1 0x5 ADD SLOAD PUSH2 0x10CF SWAP2 SWAP1 PUSH2 0x30C5 JUMP JUMPDEST DUP4 PUSH1 0x5 ADD DUP2 SWAP1 SSTORE POP DUP4 DUP4 PUSH1 0x8 ADD PUSH0 CALLER PUSH20 0xFFFFFFFFFFFFFFFFFFFFFFFFFFFFFFFFFFFFFFFF AND PUSH20 0xFFFFFFFFFFFFFFFFFFFFFFFFFFFFFFFFFFFFFFFF AND DUP2 MSTORE PUSH1 0x20 ADD SWAP1 DUP2 MSTORE PUSH1 0x20 ADD PUSH0 KECCAK256 SLOAD PUSH2 0x1122 SWAP2 SWAP1 PUSH2 0x30C5 JUMP JUMPDEST DUP4 PUSH1 0x8 ADD PUSH0 CALLER PUSH20 0xFFFFFFFFFFFFFFFFFFFFFFFFFFFFFFFFFFFFFFFF AND PUSH20 0xFFFFFFFFFFFFFFFFFFFFFFFFFFFFFFFFFFFFFFFF AND DUP2 MSTORE PUSH1 0x20 ADD SWAP1 DUP2 MSTORE PUSH1 0x20 ADD PUSH0 KECCAK256 DUP2 SWAP1 SSTORE POP DUP4 DUP4 PUSH1 0x8 ADD PUSH0 CALLER PUSH20 0xFFFFFFFFFFFFFFFFFFFFFFFFFFFFFFFFFFFFFFFF AND PUSH20 0xFFFFFFFFFFFFFFFFFFFFFFFFFFFFFFFFFFFFFFFF AND DUP2 MSTORE PUSH1 0x20 ADD SWAP1 DUP2 MSTORE PUSH1 0x20 ADD PUSH0 KECCAK256 SLOAD SUB PUSH2 0x120E JUMPI DUP3 PUSH1 0x9 ADD CALLER SWAP1 DUP1 PUSH1 0x1 DUP2 SLOAD ADD DUP1 DUP3 SSTORE DUP1 SWAP2 POP POP PUSH1 0x1 SWAP1 SUB SWAP1 PUSH0 MSTORE PUSH1 0x20 PUSH0 KECCAK256 ADD PUSH0 SWAP1 SWAP2 SWAP1 SWAP2 SWAP1 SWAP2 PUSH2 0x100 EXP DUP2 SLOAD DUP2 PUSH20 0xFFFFFFFFFFFFFFFFFFFFFFFFFFFFFFFFFFFFFFFF MUL NOT AND SWAP1 DUP4 PUSH20 0xFFFFFFFFFFFFFFFFFFFFFFFFFFFFFFFFFFFFFFFF AND MUL OR SWAP1 SSTORE POP JUMPDEST CALLVALUE DUP4 PUSH1 0xC ADD SLOAD PUSH2 0x121E SWAP2 SWAP1 PUSH2 0x30C5 JUMP JUMPDEST DUP4 PUSH1 0xC ADD DUP2 SWAP1 SSTORE POP CALLER PUSH20 0xFFFFFFFFFFFFFFFFFFFFFFFFFFFFFFFFFFFFFFFF AND DUP6 PUSH32 0xDBAAF4C87CE30816C961A81D110622A3227EDE77953D4383D514FF88AB2E0FD3 DUP7 PUSH1 0x40 MLOAD PUSH2 0x126D SWAP2 SWAP1 PUSH2 0x2B7A JUMP JUMPDEST PUSH1 0x40 MLOAD DUP1 SWAP2 SUB SWAP1 LOG3 POP POP POP POP POP JUMP JUMPDEST PUSH1 0x3 PUSH0 SWAP1 SLOAD SWAP1 PUSH2 0x100 EXP SWAP1 DIV PUSH20 0xFFFFFFFFFFFFFFFFFFFFFFFFFFFFFFFFFFFFFFFF AND DUP2 JUMP JUMPDEST PUSH0 PUSH0 PUSH0 PUSH0 PUSH0 SLOAD PUSH1 0x4 SLOAD PUSH1 0x3 PUSH0 SWAP1 SLOAD SWAP1 PUSH2 0x100 EXP SWAP1 DIV PUSH20 0xFFFFFFFFFFFFFFFFFFFFFFFFFFFFFFFFFFFFFFFF AND PUSH1 0x2 SLOAD SWAP4 POP SWAP4 POP SWAP4 POP SWAP4 POP SWAP1 SWAP2 SWAP3 SWAP4 JUMP JUMPDEST PUSH0 PUSH1 0x1 PUSH0 DUP4 DUP2 MSTORE PUSH1 0x20 ADD SWAP1 DUP2 MSTORE PUSH1 0x20 ADD PUSH0 KECCAK256 SWAP1 POP DUP1 PUSH1 0x1 ADD PUSH0 SWAP1 SLOAD SWAP1 PUSH2 0x100 EXP SWAP1 DIV PUSH20 0xFFFFFFFFFFFFFFFFFFFFFFFFFFFFFFFFFFFFFFFF AND PUSH20 0xFFFFFFFFFFFFFFFFFFFFFFFFFFFFFFFFFFFFFFFF AND CALLER PUSH20 0xFFFFFFFFFFFFFFFFFFFFFFFFFFFFFFFFFFFFFFFF AND EQ DUP1 PUSH2 0x139A JUMPI POP PUSH1 0x3 PUSH0 SWAP1 SLOAD SWAP1 PUSH2 0x100 EXP SWAP1 DIV PUSH20 0xFFFFFFFFFFFFFFFFFFFFFFFFFFFFFFFFFFFFFFFF AND PUSH20 0xFFFFFFFFFFFFFFFFFFFFFFFFFFFFFFFFFFFFFFFF AND CALLER PUSH20 0xFFFFFFFFFFFFFFFFFFFFFFFFFFFFFFFFFFFFFFFF AND EQ JUMPDEST PUSH2 0x13D9 JUMPI PUSH1 0x40 MLOAD PUSH32 0x8C379A000000000000000000000000000000000000000000000000000000000 DUP2 MSTORE PUSH1 0x4 ADD PUSH2 0x13D0 SWAP1 PUSH2 0x3323 JUMP JUMPDEST PUSH1 0x40 MLOAD DUP1 SWAP2 SUB SWAP1 REVERT JUMPDEST PUSH0 SLOAD DUP3 LT PUSH2 0x141C JUMPI PUSH1 0x40 MLOAD PUSH32 0x8C379A000000000000000000000000000000000000000000000000000000000 DUP2 MSTORE PUSH1 0x4 ADD PUSH2 0x1413 SWAP1 PUSH2 0x3142 JUMP JUMPDEST PUSH1 0x40 MLOAD DUP1 SWAP2 SUB SWAP1 REVERT JUMPDEST DUP1 PUSH1 0xB ADD PUSH0 SWAP1 SLOAD SWAP1 PUSH2 0x100 EXP SWAP1 DIV PUSH1 0xFF AND ISZERO PUSH2 0x146D JUMPI PUSH1 0x40 MLOAD PUSH32 0x8C379A000000000000000000000000000000000000000000000000000000000 DUP2 MSTORE PUSH1 0x4 ADD PUSH2 0x1464 SWAP1 PUSH2 0x338B JUMP JUMPDEST PUSH1 0x40 MLOAD DUP1 SWAP2 SUB SWAP1 REVERT JUMPDEST PUSH0 DUP2 PUSH1 0x5 ADD SLOAD GT PUSH2 0x14B3 JUMPI PUSH1 0x40 MLOAD PUSH32 0x8C379A000000000000000000000000000000000000000000000000000000000 DUP2 MSTORE PUSH1 0x4 ADD PUSH2 0x14AA SWAP1 PUSH2 0x33F3 JUMP JUMPDEST PUSH1 0x40 MLOAD DUP1 SWAP2 SUB SWAP1 REVERT JUMPDEST PUSH2 0x14BC DUP3 PUSH2 0x1FDF JUMP JUMPDEST POP POP JUMP JUMPDEST PUSH1 0x60 PUSH0 PUSH0 SWAP1 POP PUSH0 PUSH0 SWAP1 POP JUMPDEST PUSH0 SLOAD DUP2 LT ISZERO PUSH2 0x1556 JUMPI DUP4 PUSH20 0xFFFFFFFFFFFFFFFFFFFFFFFFFFFFFFFFFFFFFFFF AND PUSH1 0x1 PUSH0 DUP4 DUP2 MSTORE PUSH1 0x20 ADD SWAP1 DUP2 MSTORE PUSH1 0x20 ADD PUSH0 KECCAK256 PUSH1 0x1 ADD PUSH0 SWAP1 SLOAD SWAP1 PUSH2 0x100 EXP SWAP1 DIV PUSH20 0xFFFFFFFFFFFFFFFFFFFFFFFFFFFFFFFFFFFFFFFF AND PUSH20 0xFFFFFFFFFFFFFFFFFFFFFFFFFFFFFFFFFFFFFFFF AND SUB PUSH2 0x1549 JUMPI DUP2 DUP1 PUSH2 0x1545 SWAP1 PUSH2 0x2EE3 JUMP JUMPDEST SWAP3 POP POP JUMPDEST DUP1 DUP1 PUSH1 0x1 ADD SWAP2 POP POP PUSH2 0x14CB JUMP JUMPDEST POP PUSH0 DUP2 PUSH8 0xFFFFFFFFFFFFFFFF DUP2 GT ISZERO PUSH2 0x1572 JUMPI PUSH2 0x1571 PUSH2 0x2CFF JUMP JUMPDEST JUMPDEST PUSH1 0x40 MLOAD SWAP1 DUP1 DUP3 MSTORE DUP1 PUSH1 0x20 MUL PUSH1 0x20 ADD DUP3 ADD PUSH1 0x40 MSTORE DUP1 ISZERO PUSH2 0x15A0 JUMPI DUP2 PUSH1 0x20 ADD PUSH1 0x20 DUP3 MUL DUP1 CALLDATASIZE DUP4 CALLDATACOPY DUP1 DUP3 ADD SWAP2 POP POP SWAP1 POP JUMPDEST POP SWAP1 POP PUSH0 PUSH0 SWAP1 POP PUSH0 PUSH0 SWAP1 POP JUMPDEST PUSH0 SLOAD DUP2 LT ISZERO PUSH2 0x1657 JUMPI DUP6 PUSH20 0xFFFFFFFFFFFFFFFFFFFFFFFFFFFFFFFFFFFFFFFF AND PUSH1 0x1 PUSH0 DUP4 DUP2 MSTORE PUSH1 0x20 ADD SWAP1 DUP2 MSTORE PUSH1 0x20 ADD PUSH0 KECCAK256 PUSH1 0x1 ADD PUSH0 SWAP1 SLOAD SWAP1 PUSH2 0x100 EXP SWAP1 DIV PUSH20 0xFFFFFFFFFFFFFFFFFFFFFFFFFFFFFFFFFFFFFFFF AND PUSH20 0xFFFFFFFFFFFFFFFFFFFFFFFFFFFFFFFFFFFFFFFF AND SUB PUSH2 0x164A JUMPI DUP1 DUP4 DUP4 DUP2 MLOAD DUP2 LT PUSH2 0x162F JUMPI PUSH2 0x162E PUSH2 0x2F2A JUMP JUMPDEST JUMPDEST PUSH1 0x20 MUL PUSH1 0x20 ADD ADD DUP2 DUP2 MSTORE POP POP DUP2 DUP1 PUSH2 0x1646 SWAP1 PUSH2 0x2EE3 JUMP JUMPDEST SWAP3 POP POP JUMPDEST DUP1 DUP1 PUSH1 0x1 ADD SWAP2 POP POP PUSH2 0x15AC JUMP JUMPDEST POP DUP2 SWAP4 POP POP POP POP SWAP2 SWAP1 POP JUMP JUMPDEST PUSH0 PUSH1 0x1 PUSH0 DUP5 DUP2 MSTORE PUSH1 0x20 ADD SWAP1 DUP2 MSTORE PUSH1 0x20 ADD PUSH0 KECCAK256 PUSH1 0x8 ADD PUSH0 DUP4 PUSH20 0xFFFFFFFFFFFFFFFFFFFFFFFFFFFFFFFFFFFFFFFF AND PUSH20 0xFFFFFFFFFFFFFFFFFFFFFFFFFFFFFFFFFFFFFFFF AND DUP2 MSTORE PUSH1 0x20 ADD SWAP1 DUP2 MSTORE PUSH1 0x20 ADD PUSH0 KECCAK256 SLOAD SWAP1 POP SWAP3 SWAP2 POP POP JUMP JUMPDEST PUSH0 PUSH1 0x1 PUSH0 DUP5 DUP2 MSTORE PUSH1 0x20 ADD SWAP1 DUP2 MSTORE PUSH1 0x20 ADD PUSH0 KECCAK256 SWAP1 POP DUP1 PUSH1 0x1 ADD PUSH0 SWAP1 SLOAD SWAP1 PUSH2 0x100 EXP SWAP1 DIV PUSH20 0xFFFFFFFFFFFFFFFFFFFFFFFFFFFFFFFFFFFFFFFF AND PUSH20 0xFFFFFFFFFFFFFFFFFFFFFFFFFFFFFFFFFFFFFFFF AND CALLER PUSH20 0xFFFFFFFFFFFFFFFFFFFFFFFFFFFFFFFFFFFFFFFF AND EQ DUP1 PUSH2 0x1779 JUMPI POP PUSH1 0x3 PUSH0 SWAP1 SLOAD SWAP1 PUSH2 0x100 EXP SWAP1 DIV PUSH20 0xFFFFFFFFFFFFFFFFFFFFFFFFFFFFFFFFFFFFFFFF AND PUSH20 0xFFFFFFFFFFFFFFFFFFFFFFFFFFFFFFFFFFFFFFFF AND CALLER PUSH20 0xFFFFFFFFFFFFFFFFFFFFFFFFFFFFFFFFFFFFFFFF AND EQ JUMPDEST PUSH2 0x17B8 JUMPI PUSH1 0x40 MLOAD PUSH32 0x8C379A000000000000000000000000000000000000000000000000000000000 DUP2 MSTORE PUSH1 0x4 ADD PUSH2 0x17AF SWAP1 PUSH2 0x345B JUMP JUMPDEST PUSH1 0x40 MLOAD DUP1 SWAP2 SUB SWAP1 REVERT JUMPDEST PUSH0 SLOAD DUP4 LT PUSH2 0x17FB JUMPI PUSH1 0x40 MLOAD PUSH32 0x8C379A000000000000000000000000000000000000000000000000000000000 DUP2 MSTORE PUSH1 0x4 ADD PUSH2 0x17F2 SWAP1 PUSH2 0x3142 JUMP JUMPDEST PUSH1 0x40 MLOAD DUP1 SWAP2 SUB SWAP1 REVERT JUMPDEST DUP1 PUSH1 0xB ADD PUSH0 SWAP1 SLOAD SWAP1 PUSH2 0x100 EXP SWAP1 DIV PUSH1 0xFF AND ISZERO PUSH2 0x184C JUMPI PUSH1 0x40 MLOAD PUSH32 0x8C379A000000000000000000000000000000000000000000000000000000000 DUP2 MSTORE PUSH1 0x4 ADD PUSH2 0x1843 SWAP1 PUSH2 0x31EB JUMP JUMPDEST PUSH1 0x40 MLOAD DUP1 SWAP2 SUB SWAP1 REVERT JUMPDEST PUSH2 0x3E8 DUP3 GT ISZERO PUSH2 0x1891 JUMPI PUSH1 0x40 MLOAD PUSH32 0x8C379A000000000000000000000000000000000000000000000000000000000 DUP2 MSTORE PUSH1 0x4 ADD PUSH2 0x1888 SWAP1 PUSH2 0x34C3 JUMP JUMPDEST PUSH1 0x40 MLOAD DUP1 SWAP2 SUB SWAP1 REVERT JUMPDEST PUSH0 DUP2 PUSH1 0xA ADD SLOAD SWAP1 POP DUP3 DUP3 PUSH1 0xA ADD DUP2 SWAP1 SSTORE POP DUP4 PUSH32 0x4D5E33FFF0B69CB78771D362961F6672859941E41AA7EE769FDDFFDC0E9696E8 DUP3 DUP6 PUSH1 0x40 MLOAD PUSH2 0x18D4 SWAP3 SWAP2 SWAP1 PUSH2 0x34E1 JUMP JUMPDEST PUSH1 0x40 MLOAD DUP1 SWAP2 SUB SWAP1 LOG2 POP POP POP POP JUMP JUMPDEST PUSH1 0x60 PUSH1 0x1 PUSH0 DUP4 DUP2 MSTORE PUSH1 0x20 ADD SWAP1 DUP2 MSTORE PUSH1 0x20 ADD PUSH0 KECCAK256 PUSH1 0x9 ADD DUP1 SLOAD DUP1 PUSH1 0x20 MUL PUSH1 0x20 ADD PUSH1 0x40 MLOAD SWAP1 DUP2 ADD PUSH1 0x40 MSTORE DUP1 SWAP3 SWAP2 SWAP1 DUP2 DUP2 MSTORE PUSH1 0x20 ADD DUP3 DUP1 SLOAD DUP1 ISZERO PUSH2 0x1975 JUMPI PUSH1 0x20 MUL DUP3 ADD SWAP2 SWAP1 PUSH0 MSTORE PUSH1 0x20 PUSH0 KECCAK256 SWAP1 JUMPDEST DUP2 PUSH0 SWAP1 SLOAD SWAP1 PUSH2 0x100 EXP SWAP1 DIV PUSH20 0xFFFFFFFFFFFFFFFFFFFFFFFFFFFFFFFFFFFFFFFF AND PUSH20 0xFFFFFFFFFFFFFFFFFFFFFFFFFFFFFFFFFFFFFFFF AND DUP2 MSTORE PUSH1 0x20 ADD SWAP1 PUSH1 0x1 ADD SWAP1 DUP1 DUP4 GT PUSH2 0x192C JUMPI JUMPDEST POP POP POP POP POP SWAP1 POP SWAP2 SWAP1 POP JUMP JUMPDEST PUSH1 0x3 PUSH0 SWAP1 SLOAD SWAP1 PUSH2 0x100 EXP SWAP1 DIV PUSH20 0xFFFFFFFFFFFFFFFFFFFFFFFFFFFFFFFFFFFFFFFF AND PUSH20 0xFFFFFFFFFFFFFFFFFFFFFFFFFFFFFFFFFFFFFFFF AND CALLER PUSH20 0xFFFFFFFFFFFFFFFFFFFFFFFFFFFFFFFFFFFFFFFF AND EQ PUSH2 0x1A10 JUMPI PUSH1 0x40 MLOAD PUSH32 0x8C379A000000000000000000000000000000000000000000000000000000000 DUP2 MSTORE PUSH1 0x4 ADD PUSH2 0x1A07 SWAP1 PUSH2 0x3552 JUMP JUMPDEST PUSH1 0x40 MLOAD DUP1 SWAP2 SUB SWAP1 REVERT JUMPDEST PUSH2 0x3E8 DUP2 GT ISZERO PUSH2 0x1A55 JUMPI PUSH1 0x40 MLOAD PUSH32 0x8C379A000000000000000000000000000000000000000000000000000000000 DUP2 MSTORE PUSH1 0x4 ADD PUSH2 0x1A4C SWAP1 PUSH2 0x34C3 JUMP JUMPDEST PUSH1 0x40 MLOAD DUP1 SWAP2 SUB SWAP1 REVERT JUMPDEST DUP1 PUSH1 0x2 DUP2 SWAP1 SSTORE POP POP JUMP JUMPDEST PUSH0 PUSH1 0x1 PUSH0 DUP4 DUP2 MSTORE PUSH1 0x20 ADD SWAP1 DUP2 MSTORE PUSH1 0x20 ADD PUSH0 KECCAK256 SWAP1 POP PUSH0 SLOAD DUP3 LT PUSH2 0x1AB6 JUMPI PUSH1 0x40 MLOAD PUSH32 0x8C379A000000000000000000000000000000000000000000000000000000000 DUP2 MSTORE PUSH1 0x4 ADD PUSH2 0x1AAD SWAP1 PUSH2 0x3142 JUMP JUMPDEST PUSH1 0x40 MLOAD DUP1 SWAP2 SUB SWAP1 REVERT JUMPDEST DUP1 PUSH1 0xB ADD PUSH0 SWAP1 SLOAD SWAP1 PUSH2 0x100 EXP SWAP1 DIV PUSH1 0xFF AND PUSH2 0x1B06 JUMPI PUSH1 0x40 MLOAD PUSH32 0x8C379A000000000000000000000000000000000000000000000000000000000 DUP2 MSTORE PUSH1 0x4 ADD PUSH2 0x1AFD SWAP1 PUSH2 0x35BA JUMP JUMPDEST PUSH1 0x40 MLOAD DUP1 SWAP2 SUB SWAP1 REVERT JUMPDEST DUP1 PUSH1 0xB ADD PUSH1 0x1 SWAP1 SLOAD SWAP1 PUSH2 0x100 EXP SWAP1 DIV PUSH20 0xFFFFFFFFFFFFFFFFFFFFFFFFFFFFFFFFFFFFFFFF AND PUSH20 0xFFFFFFFFFFFFFFFFFFFFFFFFFFFFFFFFFFFFFFFF AND CALLER PUSH20 0xFFFFFFFFFFFFFFFFFFFFFFFFFFFFFFFFFFFFFFFF AND EQ PUSH2 0x1B98 JUMPI PUSH1 0x40 MLOAD PUSH32 0x8C379A000000000000000000000000000000000000000000000000000000000 DUP2 MSTORE PUSH1 0x4 ADD PUSH2 0x1B8F SWAP1 PUSH2 0x3622 JUMP JUMPDEST PUSH1 0x40 MLOAD DUP1 SWAP2 SUB SWAP1 REVERT JUMPDEST PUSH0 PUSH1 0x5 PUSH0 CALLER PUSH20 0xFFFFFFFFFFFFFFFFFFFFFFFFFFFFFFFFFFFFFFFF AND PUSH20 0xFFFFFFFFFFFFFFFFFFFFFFFFFFFFFFFFFFFFFFFF AND DUP2 MSTORE PUSH1 0x20 ADD SWAP1 DUP2 MSTORE PUSH1 0x20 ADD PUSH0 KECCAK256 SLOAD GT PUSH2 0x1C17 JUMPI PUSH1 0x40 MLOAD PUSH32 0x8C379A000000000000000000000000000000000000000000000000000000000 DUP2 MSTORE PUSH1 0x4 ADD PUSH2 0x1C0E SWAP1 PUSH2 0x368A JUMP JUMPDEST PUSH1 0x40 MLOAD DUP1 SWAP2 SUB SWAP1 REVERT JUMPDEST PUSH0 PUSH1 0x5 PUSH0 CALLER PUSH20 0xFFFFFFFFFFFFFFFFFFFFFFFFFFFFFFFFFFFFFFFF AND PUSH20 0xFFFFFFFFFFFFFFFFFFFFFFFFFFFFFFFFFFFFFFFF AND DUP2 MSTORE PUSH1 0x20 ADD SWAP1 DUP2 MSTORE PUSH1 0x20 ADD PUSH0 KECCAK256 SLOAD SWAP1 POP PUSH0 PUSH1 0x5 PUSH0 CALLER PUSH20 0xFFFFFFFFFFFFFFFFFFFFFFFFFFFFFFFFFFFFFFFF AND PUSH20 0xFFFFFFFFFFFFFFFFFFFFFFFFFFFFFFFFFFFFFFFF AND DUP2 MSTORE PUSH1 0x20 ADD SWAP1 DUP2 MSTORE PUSH1 0x20 ADD PUSH0 KECCAK256 DUP2 SWAP1 SSTORE POP PUSH0 CALLER PUSH20 0xFFFFFFFFFFFFFFFFFFFFFFFFFFFFFFFFFFFFFFFF AND DUP3 PUSH1 0x40 MLOAD PUSH2 0x1CBF SWAP1 PUSH2 0x3049 JUMP JUMPDEST PUSH0 PUSH1 0x40 MLOAD DUP1 DUP4 SUB DUP2 DUP6 DUP8 GAS CALL SWAP3 POP POP POP RETURNDATASIZE DUP1 PUSH0 DUP2 EQ PUSH2 0x1CF9 JUMPI PUSH1 0x40 MLOAD SWAP2 POP PUSH1 0x1F NOT PUSH1 0x3F RETURNDATASIZE ADD AND DUP3 ADD PUSH1 0x40 MSTORE RETURNDATASIZE DUP3 MSTORE RETURNDATASIZE PUSH0 PUSH1 0x20 DUP5 ADD RETURNDATACOPY PUSH2 0x1CFE JUMP JUMPDEST PUSH1 0x60 SWAP2 POP JUMPDEST POP POP SWAP1 POP DUP1 PUSH2 0x1D42 JUMPI PUSH1 0x40 MLOAD PUSH32 0x8C379A000000000000000000000000000000000000000000000000000000000 DUP2 MSTORE PUSH1 0x4 ADD PUSH2 0x1D39 SWAP1 PUSH2 0x30A7 JUMP JUMPDEST PUSH1 0x40 MLOAD DUP1 SWAP2 SUB SWAP1 REVERT JUMPDEST POP POP POP POP JUMP JUMPDEST PUSH0 PUSH0 SLOAD SWAP1 POP SWAP1 JUMP JUMPDEST PUSH1 0x5 PUSH1 0x20 MSTORE DUP1 PUSH0 MSTORE PUSH1 0x40 PUSH0 KECCAK256 PUSH0 SWAP2 POP SWAP1 POP SLOAD DUP2 JUMP JUMPDEST PUSH0 PUSH0 DUP6 GT PUSH2 0x1DA8 JUMPI PUSH1 0x40 MLOAD PUSH32 0x8C379A000000000000000000000000000000000000000000000000000000000 DUP2 MSTORE PUSH1 0x4 ADD PUSH2 0x1D9F SWAP1 PUSH2 0x36F2 JUMP JUMPDEST PUSH1 0x40 MLOAD DUP1 SWAP2 SUB SWAP1 REVERT JUMPDEST PUSH0 DUP4 EQ DUP1 PUSH2 0x1DB5 JUMPI POP TIMESTAMP DUP4 GT JUMPDEST PUSH2 0x1DF4 JUMPI PUSH1 0x40 MLOAD PUSH32 0x8C379A000000000000000000000000000000000000000000000000000000000 DUP2 MSTORE PUSH1 0x4 ADD PUSH2 0x1DEB SWAP1 PUSH2 0x375A JUMP JUMPDEST PUSH1 0x40 MLOAD DUP1 SWAP2 SUB SWAP1 REVERT JUMPDEST PUSH0 PUSH0 DUP4 EQ PUSH2 0x1E02 JUMPI DUP3 PUSH2 0x1E06 JUMP JUMPDEST PUSH1 0x2 SLOAD JUMPDEST SWAP1 POP PUSH2 0x3E8 DUP2 GT ISZERO PUSH2 0x1E4D JUMPI PUSH1 0x40 MLOAD PUSH32 0x8C379A000000000000000000000000000000000000000000000000000000000 DUP2 MSTORE PUSH1 0x4 ADD PUSH2 0x1E44 SWAP1 PUSH2 0x34C3 JUMP JUMPDEST PUSH1 0x40 MLOAD DUP1 SWAP2 SUB SWAP1 REVERT JUMPDEST PUSH0 PUSH0 SLOAD SWAP1 POP PUSH0 PUSH1 0x1 PUSH0 DUP4 DUP2 MSTORE PUSH1 0x20 ADD SWAP1 DUP2 MSTORE PUSH1 0x20 ADD PUSH0 KECCAK256 SWAP1 POP DUP2 DUP2 PUSH0 ADD DUP2 SWAP1 SSTORE POP CALLER DUP2 PUSH1 0x1 ADD PUSH0 PUSH2 0x100 EXP DUP2 SLOAD DUP2 PUSH20 0xFFFFFFFFFFFFFFFFFFFFFFFFFFFFFFFFFFFFFFFF MUL NOT AND SWAP1 DUP4 PUSH20 0xFFFFFFFFFFFFFFFFFFFFFFFFFFFFFFFFFFFFFFFF AND MUL OR SWAP1 SSTORE POP DUP9 DUP2 PUSH1 0x2 ADD SWAP1 DUP2 PUSH2 0x1EC1 SWAP2 SWAP1 PUSH2 0x3918 JUMP JUMPDEST POP DUP8 DUP2 PUSH1 0x3 ADD DUP2 SWAP1 SSTORE POP DUP7 DUP2 PUSH1 0x4 ADD DUP2 SWAP1 SSTORE POP PUSH0 DUP2 PUSH1 0x5 ADD DUP2 SWAP1 SSTORE POP TIMESTAMP DUP2 PUSH1 0x6 ADD DUP2 SWAP1 SSTORE POP DUP6 DUP2 PUSH1 0x7 ADD DUP2 SWAP1 SSTORE POP DUP3 DUP2 PUSH1 0xA ADD DUP2 SWAP1 SSTORE POP PUSH0 DUP2 PUSH1 0xB ADD PUSH0 PUSH2 0x100 EXP DUP2 SLOAD DUP2 PUSH1 0xFF MUL NOT AND SWAP1 DUP4 ISZERO ISZERO MUL OR SWAP1 SSTORE POP PUSH0 DUP2 PUSH1 0xB ADD PUSH1 0x1 PUSH2 0x100 EXP DUP2 SLOAD DUP2 PUSH20 0xFFFFFFFFFFFFFFFFFFFFFFFFFFFFFFFFFFFFFFFF MUL NOT AND SWAP1 DUP4 PUSH20 0xFFFFFFFFFFFFFFFFFFFFFFFFFFFFFFFFFFFFFFFF AND MUL OR SWAP1 SSTORE POP PUSH0 DUP2 PUSH1 0xC ADD DUP2 SWAP1 SSTORE POP PUSH0 PUSH0 DUP2 SLOAD DUP1 SWAP3 SWAP2 SWAP1 PUSH2 0x1F70 SWAP1 PUSH2 0x2EE3 JUMP JUMPDEST SWAP2 SWAP1 POP SSTORE POP PUSH1 0x4 PUSH0 DUP2 SLOAD DUP1 SWAP3 SWAP2 SWAP1 PUSH2 0x1F87 SWAP1 PUSH2 0x2EE3 JUMP JUMPDEST SWAP2 SWAP1 POP SSTORE POP CALLER PUSH20 0xFFFFFFFFFFFFFFFFFFFFFFFFFFFFFFFFFFFFFFFF AND DUP3 PUSH32 0x73AC9939C0FAE9D35F1FF5450B52CB43BF0601AE6CC29F9D7EB5967B91E75059 PUSH1 0x40 MLOAD PUSH1 0x40 MLOAD DUP1 SWAP2 SUB SWAP1 LOG3 DUP2 SWAP4 POP POP POP POP SWAP6 SWAP5 POP POP POP POP POP JUMP JUMPDEST PUSH0 PUSH1 0x1 PUSH0 DUP4 DUP2 MSTORE PUSH1 0x20 ADD SWAP1 DUP2 MSTORE PUSH1 0x20 ADD PUSH0 KECCAK256 SWAP1 POP PUSH1 0x1 DUP2 PUSH1 0xB ADD PUSH0 PUSH2 0x100 EXP DUP2 SLOAD DUP2 PUSH1 0xFF MUL NOT AND SWAP1 DUP4 ISZERO ISZERO MUL OR SWAP1 SSTORE POP PUSH0 PUSH1 0x4 SLOAD GT ISZERO PUSH2 0x2031 JUMPI PUSH1 0x4 PUSH0 DUP2 SLOAD DUP1 SWAP3 SWAP2 SWAP1 PUSH2 0x202B SWAP1 PUSH2 0x39E7 JUMP JUMPDEST SWAP2 SWAP1 POP SSTORE POP JUMPDEST CALLER PUSH20 0xFFFFFFFFFFFFFFFFFFFFFFFFFFFFFFFFFFFFFFFF AND DUP3 PUSH32 0xE983B889C5B0419F1FB6ADED8B9552B95691BE88059A486820B5C342EBF974F4 PUSH1 0x40 MLOAD PUSH1 0x40 MLOAD DUP1 SWAP2 SUB SWAP1 LOG3 PUSH2 0x207E DUP3 PUSH2 0x2082 JUMP JUMPDEST POP POP JUMP JUMPDEST PUSH0 PUSH1 0x1 PUSH0 DUP4 DUP2 MSTORE PUSH1 0x20 ADD SWAP1 DUP2 MSTORE PUSH1 0x20 ADD PUSH0 KECCAK256 SWAP1 POP PUSH0 PUSH2 0x20A4 DUP3 PUSH1 0x5 ADD SLOAD PUSH2 0x23DE JUMP JUMPDEST SWAP1 POP PUSH0 PUSH2 0x20B1 DUP5 DUP4 PUSH2 0x2460 JUMP JUMPDEST SWAP1 POP DUP1 DUP4 PUSH1 0xB ADD PUSH1 0x1 PUSH2 0x100 EXP DUP2 SLOAD DUP2 PUSH20 0xFFFFFFFFFFFFFFFFFFFFFFFFFFFFFFFFFFFFFFFF MUL NOT AND SWAP1 DUP4 PUSH20 0xFFFFFFFFFFFFFFFFFFFFFFFFFFFFFFFFFFFFFFFF AND MUL OR SWAP1 SSTORE POP PUSH0 DUP4 PUSH1 0xC ADD SLOAD SWAP1 POP PUSH0 PUSH2 0x2710 DUP6 PUSH1 0xA ADD SLOAD DUP4 PUSH2 0x2112 SWAP2 SWAP1 PUSH2 0x3160 JUMP JUMPDEST PUSH2 0x211C SWAP2 SWAP1 PUSH2 0x3A3B JUMP JUMPDEST SWAP1 POP PUSH0 PUSH1 0x2 DUP3 PUSH2 0x212C SWAP2 SWAP1 PUSH2 0x3A3B JUMP JUMPDEST SWAP1 POP PUSH0 PUSH1 0x2 DUP4 PUSH2 0x213C SWAP2 SWAP1 PUSH2 0x3A3B JUMP JUMPDEST SWAP1 POP PUSH0 DUP4 DUP6 PUSH2 0x214B SWAP2 SWAP1 PUSH2 0x3A6B JUMP JUMPDEST SWAP1 POP PUSH0 DUP9 PUSH1 0xC ADD DUP2 SWAP1 SSTORE POP DUP3 PUSH1 0x5 PUSH0 PUSH1 0x3 PUSH0 SWAP1 SLOAD SWAP1 PUSH2 0x100 EXP SWAP1 DIV PUSH20 0xFFFFFFFFFFFFFFFFFFFFFFFFFFFFFFFFFFFFFFFF AND PUSH20 0xFFFFFFFFFFFFFFFFFFFFFFFFFFFFFFFFFFFFFFFF AND PUSH20 0xFFFFFFFFFFFFFFFFFFFFFFFFFFFFFFFFFFFFFFFF AND DUP2 MSTORE PUSH1 0x20 ADD SWAP1 DUP2 MSTORE PUSH1 0x20 ADD PUSH0 KECCAK256 PUSH0 DUP3 DUP3 SLOAD PUSH2 0x21C3 SWAP2 SWAP1 PUSH2 0x30C5 JUMP JUMPDEST SWAP3 POP POP DUP2 SWAP1 SSTORE POP PUSH1 0x3 PUSH0 SWAP1 SLOAD SWAP1 PUSH2 0x100 EXP SWAP1 DIV PUSH20 0xFFFFFFFFFFFFFFFFFFFFFFFFFFFFFFFFFFFFFFFF AND PUSH20 0xFFFFFFFFFFFFFFFFFFFFFFFFFFFFFFFFFFFFFFFF AND DUP9 PUSH1 0x1 ADD PUSH0 SWAP1 SLOAD SWAP1 PUSH2 0x100 EXP SWAP1 DIV PUSH20 0xFFFFFFFFFFFFFFFFFFFFFFFFFFFFFFFFFFFFFFFF AND PUSH20 0xFFFFFFFFFFFFFFFFFFFFFFFFFFFFFFFFFFFFFFFF AND EQ PUSH2 0x22BC JUMPI DUP2 PUSH1 0x5 PUSH0 DUP11 PUSH1 0x1 ADD PUSH0 SWAP1 SLOAD SWAP1 PUSH2 0x100 EXP SWAP1 DIV PUSH20 0xFFFFFFFFFFFFFFFFFFFFFFFFFFFFFFFFFFFFFFFF AND PUSH20 0xFFFFFFFFFFFFFFFFFFFFFFFFFFFFFFFFFFFFFFFF AND PUSH20 0xFFFFFFFFFFFFFFFFFFFFFFFFFFFFFFFFFFFFFFFF AND DUP2 MSTORE PUSH1 0x20 ADD SWAP1 DUP2 MSTORE PUSH1 0x20 ADD PUSH0 KECCAK256 PUSH0 DUP3 DUP3 SLOAD PUSH2 0x22B0 SWAP2 SWAP1 PUSH2 0x30C5 JUMP JUMPDEST SWAP3 POP POP DUP2 SWAP1 SSTORE POP PUSH2 0x2331 JUMP JUMPDEST DUP2 PUSH1 0x5 PUSH0 PUSH1 0x3 PUSH0 SWAP1 SLOAD SWAP1 PUSH2 0x100 EXP SWAP1 DIV PUSH20 0xFFFFFFFFFFFFFFFFFFFFFFFFFFFFFFFFFFFFFFFF AND PUSH20 0xFFFFFFFFFFFFFFFFFFFFFFFFFFFFFFFFFFFFFFFF AND PUSH20 0xFFFFFFFFFFFFFFFFFFFFFFFFFFFFFFFFFFFFFFFF AND DUP2 MSTORE PUSH1 0x20 ADD SWAP1 DUP2 MSTORE PUSH1 0x20 ADD PUSH0 KECCAK256 PUSH0 DUP3 DUP3 SLOAD PUSH2 0x2329 SWAP2 SWAP1 PUSH2 0x30C5 JUMP JUMPDEST SWAP3 POP POP DUP2 SWAP1 SSTORE POP JUMPDEST DUP1 PUSH1 0x5 PUSH0 DUP9 PUSH20 0xFFFFFFFFFFFFFFFFFFFFFFFFFFFFFFFFFFFFFFFF AND PUSH20 0xFFFFFFFFFFFFFFFFFFFFFFFFFFFFFFFFFFFFFFFF AND DUP2 MSTORE PUSH1 0x20 ADD SWAP1 DUP2 MSTORE PUSH1 0x20 ADD PUSH0 KECCAK256 PUSH0 DUP3 DUP3 SLOAD PUSH2 0x237D SWAP2 SWAP1 PUSH2 0x30C5 JUMP JUMPDEST SWAP3 POP POP DUP2 SWAP1 SSTORE POP DUP6 PUSH20 0xFFFFFFFFFFFFFFFFFFFFFFFFFFFFFFFFFFFFFFFF AND DUP10 PUSH32 0xFEE5B04775E1CD2311ED22CD00F5D2403AFF38FF6F71D6D393F51854ED6BC986 DUP4 PUSH1 0x40 MLOAD PUSH2 0x23CB SWAP2 SWAP1 PUSH2 0x2B7A JUMP JUMPDEST PUSH1 0x40 MLOAD DUP1 SWAP2 SUB SWAP1 LOG3 POP POP POP POP POP POP POP POP POP JUMP JUMPDEST PUSH0 PUSH0 DUP3 GT PUSH2 0x2421 JUMPI PUSH1 0x40 MLOAD PUSH32 0x8C379A000000000000000000000000000000000000000000000000000000000 DUP2 MSTORE PUSH1 0x4 ADD PUSH2 0x2418 SWAP1 PUSH2 0x3AE8 JUMP JUMPDEST PUSH1 0x40 MLOAD DUP1 SWAP2 SUB SWAP1 REVERT JUMPDEST DUP2 PREVRANDAO TIMESTAMP DUP5 PUSH1 0x40 MLOAD PUSH1 0x20 ADD PUSH2 0x2437 SWAP4 SWAP3 SWAP2 SWAP1 PUSH2 0x3B26 JUMP JUMPDEST PUSH1 0x40 MLOAD PUSH1 0x20 DUP2 DUP4 SUB SUB DUP2 MSTORE SWAP1 PUSH1 0x40 MSTORE DUP1 MLOAD SWAP1 PUSH1 0x20 ADD KECCAK256 PUSH0 SHR PUSH2 0x2459 SWAP2 SWAP1 PUSH2 0x3B62 JUMP JUMPDEST SWAP1 POP SWAP2 SWAP1 POP JUMP JUMPDEST PUSH0 PUSH0 PUSH1 0x1 PUSH0 DUP6 DUP2 MSTORE PUSH1 0x20 ADD SWAP1 DUP2 MSTORE PUSH1 0x20 ADD PUSH0 KECCAK256 SWAP1 POP PUSH0 DUP2 PUSH1 0xD ADD PUSH0 DUP6 DUP2 MSTORE PUSH1 0x20 ADD SWAP1 DUP2 MSTORE PUSH1 0x20 ADD PUSH0 KECCAK256 PUSH0 SWAP1 SLOAD SWAP1 PUSH2 0x100 EXP SWAP1 DIV PUSH20 0xFFFFFFFFFFFFFFFFFFFFFFFFFFFFFFFFFFFFFFFF AND SWAP1 POP PUSH0 PUSH20 0xFFFFFFFFFFFFFFFFFFFFFFFFFFFFFFFFFFFFFFFF AND DUP2 PUSH20 0xFFFFFFFFFFFFFFFFFFFFFFFFFFFFFFFFFFFFFFFF AND SUB PUSH2 0x2519 JUMPI PUSH1 0x40 MLOAD PUSH32 0x8C379A000000000000000000000000000000000000000000000000000000000 DUP2 MSTORE PUSH1 0x4 ADD PUSH2 0x2510 SWAP1 PUSH2 0x3BDC JUMP JUMPDEST PUSH1 0x40 MLOAD DUP1 SWAP2 SUB SWAP1 REVERT JUMPDEST DUP1 SWAP3 POP POP POP SWAP3 SWAP2 POP POP JUMP JUMPDEST PUSH1 0x40 MLOAD DUP1 PUSH2 0x1A0 ADD PUSH1 0x40 MSTORE DUP1 PUSH0 DUP2 MSTORE PUSH1 0x20 ADD PUSH0 PUSH20 0xFFFFFFFFFFFFFFFFFFFFFFFFFFFFFFFFFFFFFFFF AND DUP2 MSTORE PUSH1 0x20 ADD PUSH1 0x60 DUP2 MSTORE PUSH1 0x20 ADD PUSH0 DUP2 MSTORE PUSH1 0x20 ADD PUSH0 DUP2 MSTORE PUSH1 0x20 ADD PUSH0 DUP2 MSTORE PUSH1 0x20 ADD PUSH0 DUP2 MSTORE PUSH1 0x20 ADD PUSH0 DUP2 MSTORE PUSH1 0x20 ADD PUSH0 DUP2 MSTORE PUSH1 0x20 ADD PUSH0 ISZERO ISZERO DUP2 MSTORE PUSH1 0x20 ADD PUSH0 PUSH20 0xFFFFFFFFFFFFFFFFFFFFFFFFFFFFFFFFFFFFFFFF AND DUP2 MSTORE PUSH1 0x20 ADD PUSH0 DUP2 MSTORE PUSH1 0x20 ADD PUSH1 0x60 DUP2 MSTORE POP SWAP1 JUMP JUMPDEST PUSH0 DUP2 MLOAD SWAP1 POP SWAP2 SWAP1 POP JUMP JUMPDEST PUSH0 DUP3 DUP3 MSTORE PUSH1 0x20 DUP3 ADD SWAP1 POP SWAP3 SWAP2 POP POP JUMP JUMPDEST PUSH0 DUP2 SWAP1 POP PUSH1 0x20 DUP3 ADD SWAP1 POP SWAP2 SWAP1 POP JUMP JUMPDEST PUSH0 DUP2 SWAP1 POP SWAP2 SWAP1 POP JUMP JUMPDEST PUSH2 0x25EA DUP2 PUSH2 0x25D8 JUMP JUMPDEST DUP3 MSTORE POP POP JUMP JUMPDEST PUSH0 PUSH2 0x25FB DUP4 DUP4 PUSH2 0x25E1 JUMP JUMPDEST PUSH1 0x20 DUP4 ADD SWAP1 POP SWAP3 SWAP2 POP POP JUMP JUMPDEST PUSH0 PUSH1 0x20 DUP3 ADD SWAP1 POP SWAP2 SWAP1 POP JUMP JUMPDEST PUSH0 PUSH2 0x261D DUP3 PUSH2 0x25AF JUMP JUMPDEST PUSH2 0x2627 DUP2 DUP6 PUSH2 0x25B9 JUMP JUMPDEST SWAP4 POP PUSH2 0x2632 DUP4 PUSH2 0x25C9 JUMP JUMPDEST DUP1 PUSH0 JUMPDEST DUP4 DUP2 LT ISZERO PUSH2 0x2662 JUMPI DUP2 MLOAD PUSH2 0x2649 DUP9 DUP3 PUSH2 0x25F0 JUMP JUMPDEST SWAP8 POP PUSH2 0x2654 DUP4 PUSH2 0x2607 JUMP JUMPDEST SWAP3 POP POP PUSH1 0x1 DUP2 ADD SWAP1 POP PUSH2 0x2635 JUMP JUMPDEST POP DUP6 SWAP4 POP POP POP POP SWAP3 SWAP2 POP POP JUMP JUMPDEST PUSH0 PUSH1 0x20 DUP3 ADD SWAP1 POP DUP2 DUP2 SUB PUSH0 DUP4 ADD MSTORE PUSH2 0x2687 DUP2 DUP5 PUSH2 0x2613 JUMP JUMPDEST SWAP1 POP SWAP3 SWAP2 POP POP JUMP JUMPDEST PUSH0 PUSH1 0x40 MLOAD SWAP1 POP SWAP1 JUMP JUMPDEST PUSH0 PUSH0 REVERT JUMPDEST PUSH0 PUSH0 REVERT JUMPDEST PUSH2 0x26A9 DUP2 PUSH2 0x25D8 JUMP JUMPDEST DUP2 EQ PUSH2 0x26B3 JUMPI PUSH0 PUSH0 REVERT JUMPDEST POP JUMP JUMPDEST PUSH0 DUP2 CALLDATALOAD SWAP1 POP PUSH2 0x26C4 DUP2 PUSH2 0x26A0 JUMP JUMPDEST SWAP3 SWAP2 POP POP JUMP JUMPDEST PUSH0 PUSH1 0x20 DUP3 DUP5 SUB SLT ISZERO PUSH2 0x26DF JUMPI PUSH2 0x26DE PUSH2 0x2698 JUMP JUMPDEST JUMPDEST PUSH0 PUSH2 0x26EC DUP5 DUP3 DUP6 ADD PUSH2 0x26B6 JUMP JUMPDEST SWAP2 POP POP SWAP3 SWAP2 POP POP JUMP JUMPDEST PUSH2 0x26FE DUP2 PUSH2 0x25D8 JUMP JUMPDEST DUP3 MSTORE POP POP JUMP JUMPDEST PUSH0 PUSH20 0xFFFFFFFFFFFFFFFFFFFFFFFFFFFFFFFFFFFFFFFF DUP3 AND SWAP1 POP SWAP2 SWAP1 POP JUMP JUMPDEST PUSH0 PUSH2 0x272D DUP3 PUSH2 0x2704 JUMP JUMPDEST SWAP1 POP SWAP2 SWAP1 POP JUMP JUMPDEST PUSH2 0x273D DUP2 PUSH2 0x2723 JUMP JUMPDEST DUP3 MSTORE POP POP JUMP JUMPDEST PUSH0 DUP2 MLOAD SWAP1 POP SWAP2 SWAP1 POP JUMP JUMPDEST PUSH0 DUP3 DUP3 MSTORE PUSH1 0x20 DUP3 ADD SWAP1 POP SWAP3 SWAP2 POP POP JUMP JUMPDEST DUP3 DUP2 DUP4 MCOPY PUSH0 DUP4 DUP4 ADD MSTORE POP POP POP JUMP JUMPDEST PUSH0 PUSH1 0x1F NOT PUSH1 0x1F DUP4 ADD AND SWAP1 POP SWAP2 SWAP1 POP JUMP JUMPDEST PUSH0 PUSH2 0x2785 DUP3 PUSH2 0x2743 JUMP JUMPDEST PUSH2 0x278F DUP2 DUP6 PUSH2 0x274D JUMP JUMPDEST SWAP4 POP PUSH2 0x279F DUP2 DUP6 PUSH1 0x20 DUP7 ADD PUSH2 0x275D JUMP JUMPDEST PUSH2 0x27A8 DUP2 PUSH2 0x276B JUMP JUMPDEST DUP5 ADD SWAP2 POP POP SWAP3 SWAP2 POP POP JUMP JUMPDEST PUSH0 DUP2 ISZERO ISZERO SWAP1 POP SWAP2 SWAP1 POP JUMP JUMPDEST PUSH2 0x27C7 DUP2 PUSH2 0x27B3 JUMP JUMPDEST DUP3 MSTORE POP POP JUMP JUMPDEST PUSH0 PUSH2 0x180 DUP3 ADD SWAP1 POP PUSH2 0x27E1 PUSH0 DUP4 ADD DUP16 PUSH2 0x26F5 JUMP JUMPDEST PUSH2 0x27EE PUSH1 0x20 DUP4 ADD DUP15 PUSH2 0x2734 JUMP JUMPDEST DUP2 DUP2 SUB PUSH1 0x40 DUP4 ADD MSTORE PUSH2 0x2800 DUP2 DUP14 PUSH2 0x277B JUMP JUMPDEST SWAP1 POP PUSH2 0x280F PUSH1 0x60 DUP4 ADD DUP13 PUSH2 0x26F5 JUMP JUMPDEST PUSH2 0x281C PUSH1 0x80 DUP4 ADD DUP12 PUSH2 0x26F5 JUMP JUMPDEST PUSH2 0x2829 PUSH1 0xA0 DUP4 ADD DUP11 PUSH2 0x26F5 JUMP JUMPDEST PUSH2 0x2836 PUSH1 0xC0 DUP4 ADD DUP10 PUSH2 0x26F5 JUMP JUMPDEST PUSH2 0x2843 PUSH1 0xE0 DUP4 ADD DUP9 PUSH2 0x26F5 JUMP JUMPDEST PUSH2 0x2851 PUSH2 0x100 DUP4 ADD DUP8 PUSH2 0x26F5 JUMP JUMPDEST PUSH2 0x285F PUSH2 0x120 DUP4 ADD DUP7 PUSH2 0x27BE JUMP JUMPDEST PUSH2 0x286D PUSH2 0x140 DUP4 ADD DUP6 PUSH2 0x2734 JUMP JUMPDEST PUSH2 0x287B PUSH2 0x160 DUP4 ADD DUP5 PUSH2 0x26F5 JUMP JUMPDEST SWAP14 SWAP13 POP POP POP POP POP POP POP POP POP POP POP POP POP JUMP JUMPDEST PUSH2 0x2895 DUP2 PUSH2 0x2723 JUMP JUMPDEST DUP2 EQ PUSH2 0x289F JUMPI PUSH0 PUSH0 REVERT JUMPDEST POP JUMP JUMPDEST PUSH0 DUP2 CALLDATALOAD SWAP1 POP PUSH2 0x28B0 DUP2 PUSH2 0x288C JUMP JUMPDEST SWAP3 SWAP2 POP POP JUMP JUMPDEST PUSH0 PUSH1 0x20 DUP3 DUP5 SUB SLT ISZERO PUSH2 0x28CB JUMPI PUSH2 0x28CA PUSH2 0x2698 JUMP JUMPDEST JUMPDEST PUSH0 PUSH2 0x28D8 DUP5 DUP3 DUP6 ADD PUSH2 0x28A2 JUMP JUMPDEST SWAP2 POP POP SWAP3 SWAP2 POP POP JUMP JUMPDEST PUSH0 PUSH1 0x60 DUP3 ADD SWAP1 POP PUSH2 0x28F4 PUSH0 DUP4 ADD DUP7 PUSH2 0x26F5 JUMP JUMPDEST PUSH2 0x2901 PUSH1 0x20 DUP4 ADD DUP6 PUSH2 0x26F5 JUMP JUMPDEST PUSH2 0x290E PUSH1 0x40 DUP4 ADD DUP5 PUSH2 0x26F5 JUMP JUMPDEST SWAP5 SWAP4 POP POP POP POP JUMP JUMPDEST PUSH0 PUSH1 0x20 DUP3 ADD SWAP1 POP PUSH2 0x2929 PUSH0 DUP4 ADD DUP5 PUSH2 0x27BE JUMP JUMPDEST SWAP3 SWAP2 POP POP JUMP JUMPDEST PUSH2 0x2938 DUP2 PUSH2 0x2723 JUMP JUMPDEST DUP3 MSTORE POP POP JUMP JUMPDEST PUSH0 DUP3 DUP3 MSTORE PUSH1 0x20 DUP3 ADD SWAP1 POP SWAP3 SWAP2 POP POP JUMP JUMPDEST PUSH0 PUSH2 0x2958 DUP3 PUSH2 0x2743 JUMP JUMPDEST PUSH2 0x2962 DUP2 DUP6 PUSH2 0x293E JUMP JUMPDEST SWAP4 POP PUSH2 0x2972 DUP2 DUP6 PUSH1 0x20 DUP7 ADD PUSH2 0x275D JUMP JUMPDEST PUSH2 0x297B DUP2 PUSH2 0x276B JUMP JUMPDEST DUP5 ADD SWAP2 POP POP SWAP3 SWAP2 POP POP JUMP JUMPDEST PUSH2 0x298F DUP2 PUSH2 0x27B3 JUMP JUMPDEST DUP3 MSTORE POP POP JUMP JUMPDEST PUSH0 DUP2 MLOAD SWAP1 POP SWAP2 SWAP1 POP JUMP JUMPDEST PUSH0 DUP3 DUP3 MSTORE PUSH1 0x20 DUP3 ADD SWAP1 POP SWAP3 SWAP2 POP POP JUMP JUMPDEST PUSH0 DUP2 SWAP1 POP PUSH1 0x20 DUP3 ADD SWAP1 POP SWAP2 SWAP1 POP JUMP JUMPDEST PUSH0 PUSH2 0x29C9 DUP4 DUP4 PUSH2 0x292F JUMP JUMPDEST PUSH1 0x20 DUP4 ADD SWAP1 POP SWAP3 SWAP2 POP POP JUMP JUMPDEST PUSH0 PUSH1 0x20 DUP3 ADD SWAP1 POP SWAP2 SWAP1 POP JUMP JUMPDEST PUSH0 PUSH2 0x29EB DUP3 PUSH2 0x2995 JUMP JUMPDEST PUSH2 0x29F5 DUP2 DUP6 PUSH2 0x299F JUMP JUMPDEST SWAP4 POP PUSH2 0x2A00 DUP4 PUSH2 0x29AF JUMP JUMPDEST DUP1 PUSH0 JUMPDEST DUP4 DUP2 LT ISZERO PUSH2 0x2A30 JUMPI DUP2 MLOAD PUSH2 0x2A17 DUP9 DUP3 PUSH2 0x29BE JUMP JUMPDEST SWAP8 POP PUSH2 0x2A22 DUP4 PUSH2 0x29D5 JUMP JUMPDEST SWAP3 POP POP PUSH1 0x1 DUP2 ADD SWAP1 POP PUSH2 0x2A03 JUMP JUMPDEST POP DUP6 SWAP4 POP POP POP POP SWAP3 SWAP2 POP POP JUMP JUMPDEST PUSH0 PUSH2 0x1A0 DUP4 ADD PUSH0 DUP4 ADD MLOAD PUSH2 0x2A53 PUSH0 DUP7 ADD DUP3 PUSH2 0x25E1 JUMP JUMPDEST POP PUSH1 0x20 DUP4 ADD MLOAD PUSH2 0x2A66 PUSH1 0x20 DUP7 ADD DUP3 PUSH2 0x292F JUMP JUMPDEST POP PUSH1 0x40 DUP4 ADD MLOAD DUP5 DUP3 SUB PUSH1 0x40 DUP7 ADD MSTORE PUSH2 0x2A7E DUP3 DUP3 PUSH2 0x294E JUMP JUMPDEST SWAP2 POP POP PUSH1 0x60 DUP4 ADD MLOAD PUSH2 0x2A93 PUSH1 0x60 DUP7 ADD DUP3 PUSH2 0x25E1 JUMP JUMPDEST POP PUSH1 0x80 DUP4 ADD MLOAD PUSH2 0x2AA6 PUSH1 0x80 DUP7 ADD DUP3 PUSH2 0x25E1 JUMP JUMPDEST POP PUSH1 0xA0 DUP4 ADD MLOAD PUSH2 0x2AB9 PUSH1 0xA0 DUP7 ADD DUP3 PUSH2 0x25E1 JUMP JUMPDEST POP PUSH1 0xC0 DUP4 ADD MLOAD PUSH2 0x2ACC PUSH1 0xC0 DUP7 ADD DUP3 PUSH2 0x25E1 JUMP JUMPDEST POP PUSH1 0xE0 DUP4 ADD MLOAD PUSH2 0x2ADF PUSH1 0xE0 DUP7 ADD DUP3 PUSH2 0x25E1 JUMP JUMPDEST POP PUSH2 0x100 DUP4 ADD MLOAD PUSH2 0x2AF4 PUSH2 0x100 DUP7 ADD DUP3 PUSH2 0x25E1 JUMP JUMPDEST POP PUSH2 0x120 DUP4 ADD MLOAD PUSH2 0x2B09 PUSH2 0x120 DUP7 ADD DUP3 PUSH2 0x2986 JUMP JUMPDEST POP PUSH2 0x140 DUP4 ADD MLOAD PUSH2 0x2B1E PUSH2 0x140 DUP7 ADD DUP3 PUSH2 0x292F JUMP JUMPDEST POP PUSH2 0x160 DUP4 ADD MLOAD PUSH2 0x2B33 PUSH2 0x160 DUP7 ADD DUP3 PUSH2 0x25E1 JUMP JUMPDEST POP PUSH2 0x180 DUP4 ADD MLOAD DUP5 DUP3 SUB PUSH2 0x180 DUP7 ADD MSTORE PUSH2 0x2B4D DUP3 DUP3 PUSH2 0x29E1 JUMP JUMPDEST SWAP2 POP POP DUP1 SWAP2 POP POP SWAP3 SWAP2 POP POP JUMP JUMPDEST PUSH0 PUSH1 0x20 DUP3 ADD SWAP1 POP DUP2 DUP2 SUB PUSH0 DUP4 ADD MSTORE PUSH2 0x2B72 DUP2 DUP5 PUSH2 0x2A3D JUMP JUMPDEST SWAP1 POP SWAP3 SWAP2 POP POP JUMP JUMPDEST PUSH0 PUSH1 0x20 DUP3 ADD SWAP1 POP PUSH2 0x2B8D PUSH0 DUP4 ADD DUP5 PUSH2 0x26F5 JUMP JUMPDEST SWAP3 SWAP2 POP POP JUMP JUMPDEST PUSH0 PUSH0 PUSH1 0x40 DUP4 DUP6 SUB SLT ISZERO PUSH2 0x2BA9 JUMPI PUSH2 0x2BA8 PUSH2 0x2698 JUMP JUMPDEST JUMPDEST PUSH0 PUSH2 0x2BB6 DUP6 DUP3 DUP7 ADD PUSH2 0x26B6 JUMP JUMPDEST SWAP3 POP POP PUSH1 0x20 PUSH2 0x2BC7 DUP6 DUP3 DUP7 ADD PUSH2 0x28A2 JUMP JUMPDEST SWAP2 POP POP SWAP3 POP SWAP3 SWAP1 POP JUMP JUMPDEST PUSH0 PUSH0 PUSH1 0x40 DUP4 DUP6 SUB SLT ISZERO PUSH2 0x2BE7 JUMPI PUSH2 0x2BE6 PUSH2 0x2698 JUMP JUMPDEST JUMPDEST PUSH0 PUSH2 0x2BF4 DUP6 DUP3 DUP7 ADD PUSH2 0x26B6 JUMP JUMPDEST SWAP3 POP POP PUSH1 0x20 PUSH2 0x2C05 DUP6 DUP3 DUP7 ADD PUSH2 0x26B6 JUMP JUMPDEST SWAP2 POP POP SWAP3 POP SWAP3 SWAP1 POP JUMP JUMPDEST PUSH0 PUSH1 0x20 DUP3 ADD SWAP1 POP PUSH2 0x2C22 PUSH0 DUP4 ADD DUP5 PUSH2 0x2734 JUMP JUMPDEST SWAP3 SWAP2 POP POP JUMP JUMPDEST PUSH0 PUSH1 0x80 DUP3 ADD SWAP1 POP PUSH2 0x2C3B PUSH0 DUP4 ADD DUP8 PUSH2 0x26F5 JUMP JUMPDEST PUSH2 0x2C48 PUSH1 0x20 DUP4 ADD DUP7 PUSH2 0x26F5 JUMP JUMPDEST PUSH2 0x2C55 PUSH1 0x40 DUP4 ADD DUP6 PUSH2 0x2734 JUMP JUMPDEST PUSH2 0x2C62 PUSH1 0x60 DUP4 ADD DUP5 PUSH2 0x26F5 JUMP JUMPDEST SWAP6 SWAP5 POP POP POP POP POP JUMP JUMPDEST PUSH0 DUP3 DUP3 MSTORE PUSH1 0x20 DUP3 ADD SWAP1 POP SWAP3 SWAP2 POP POP JUMP JUMPDEST PUSH0 PUSH2 0x2C85 DUP3 PUSH2 0x2995 JUMP JUMPDEST PUSH2 0x2C8F DUP2 DUP6 PUSH2 0x2C6B JUMP JUMPDEST SWAP4 POP PUSH2 0x2C9A DUP4 PUSH2 0x29AF JUMP JUMPDEST DUP1 PUSH0 JUMPDEST DUP4 DUP2 LT ISZERO PUSH2 0x2CCA JUMPI DUP2 MLOAD PUSH2 0x2CB1 DUP9 DUP3 PUSH2 0x29BE JUMP JUMPDEST SWAP8 POP PUSH2 0x2CBC DUP4 PUSH2 0x29D5 JUMP JUMPDEST SWAP3 POP POP PUSH1 0x1 DUP2 ADD SWAP1 POP PUSH2 0x2C9D JUMP JUMPDEST POP DUP6 SWAP4 POP POP POP POP SWAP3 SWAP2 POP POP JUMP JUMPDEST PUSH0 PUSH1 0x20 DUP3 ADD SWAP1 POP DUP2 DUP2 SUB PUSH0 DUP4 ADD MSTORE PUSH2 0x2CEF DUP2 DUP5 PUSH2 0x2C7B JUMP JUMPDEST SWAP1 POP SWAP3 SWAP2 POP POP JUMP JUMPDEST PUSH0 PUSH0 REVERT JUMPDEST PUSH0 PUSH0 REVERT JUMPDEST PUSH32 0x4E487B7100000000000000000000000000000000000000000000000000000000 PUSH0 MSTORE PUSH1 0x41 PUSH1 0x4 MSTORE PUSH1 0x24 PUSH0 REVERT JUMPDEST PUSH2 0x2D35 DUP3 PUSH2 0x276B JUMP JUMPDEST DUP2 ADD DUP2 DUP2 LT PUSH8 0xFFFFFFFFFFFFFFFF DUP3 GT OR ISZERO PUSH2 0x2D54 JUMPI PUSH2 0x2D53 PUSH2 0x2CFF JUMP JUMPDEST JUMPDEST DUP1 PUSH1 0x40 MSTORE POP POP POP JUMP JUMPDEST PUSH0 PUSH2 0x2D66 PUSH2 0x268F JUMP JUMPDEST SWAP1 POP PUSH2 0x2D72 DUP3 DUP3 PUSH2 0x2D2C JUMP JUMPDEST SWAP2 SWAP1 POP JUMP JUMPDEST PUSH0 PUSH8 0xFFFFFFFFFFFFFFFF DUP3 GT ISZERO PUSH2 0x2D91 JUMPI PUSH2 0x2D90 PUSH2 0x2CFF JUMP JUMPDEST JUMPDEST PUSH2 0x2D9A DUP3 PUSH2 0x276B JUMP JUMPDEST SWAP1 POP PUSH1 0x20 DUP2 ADD SWAP1 POP SWAP2 SWAP1 POP JUMP JUMPDEST DUP3 DUP2 DUP4 CALLDATACOPY PUSH0 DUP4 DUP4 ADD MSTORE POP POP POP JUMP JUMPDEST PUSH0 PUSH2 0x2DC7 PUSH2 0x2DC2 DUP5 PUSH2 0x2D77 JUMP JUMPDEST PUSH2 0x2D5D JUMP JUMPDEST SWAP1 POP DUP3 DUP2 MSTORE PUSH1 0x20 DUP2 ADD DUP5 DUP5 DUP5 ADD GT ISZERO PUSH2 0x2DE3 JUMPI PUSH2 0x2DE2 PUSH2 0x2CFB JUMP JUMPDEST JUMPDEST PUSH2 0x2DEE DUP5 DUP3 DUP6 PUSH2 0x2DA7 JUMP JUMPDEST POP SWAP4 SWAP3 POP POP POP JUMP JUMPDEST PUSH0 DUP3 PUSH1 0x1F DUP4 ADD SLT PUSH2 0x2E0A JUMPI PUSH2 0x2E09 PUSH2 0x2CF7 JUMP JUMPDEST JUMPDEST DUP2 CALLDATALOAD PUSH2 0x2E1A DUP5 DUP3 PUSH1 0x20 DUP7 ADD PUSH2 0x2DB5 JUMP JUMPDEST SWAP2 POP POP SWAP3 SWAP2 POP POP JUMP JUMPDEST PUSH0 PUSH0 PUSH0 PUSH0 PUSH0 PUSH1 0xA0 DUP7 DUP9 SUB SLT ISZERO PUSH2 0x2E3C JUMPI PUSH2 0x2E3B PUSH2 0x2698 JUMP JUMPDEST JUMPDEST PUSH0 DUP7 ADD CALLDATALOAD PUSH8 0xFFFFFFFFFFFFFFFF DUP2 GT ISZERO PUSH2 0x2E59 JUMPI PUSH2 0x2E58 PUSH2 0x269C JUMP JUMPDEST JUMPDEST PUSH2 0x2E65 DUP9 DUP3 DUP10 ADD PUSH2 0x2DF6 JUMP JUMPDEST SWAP6 POP POP PUSH1 0x20 PUSH2 0x2E76 DUP9 DUP3 DUP10 ADD PUSH2 0x26B6 JUMP JUMPDEST SWAP5 POP POP PUSH1 0x40 PUSH2 0x2E87 DUP9 DUP3 DUP10 ADD PUSH2 0x26B6 JUMP JUMPDEST SWAP4 POP POP PUSH1 0x60 PUSH2 0x2E98 DUP9 DUP3 DUP10 ADD PUSH2 0x26B6 JUMP JUMPDEST SWAP3 POP POP PUSH1 0x80 PUSH2 0x2EA9 DUP9 DUP3 DUP10 ADD PUSH2 0x26B6 JUMP JUMPDEST SWAP2 POP POP SWAP3 SWAP6 POP SWAP3 SWAP6 SWAP1 SWAP4 POP JUMP JUMPDEST PUSH32 0x4E487B7100000000000000000000000000000000000000000000000000000000 PUSH0 MSTORE PUSH1 0x11 PUSH1 0x4 MSTORE PUSH1 0x24 PUSH0 REVERT JUMPDEST PUSH0 PUSH2 0x2EED DUP3 PUSH2 0x25D8 JUMP JUMPDEST SWAP2 POP PUSH32 0xFFFFFFFFFFFFFFFFFFFFFFFFFFFFFFFFFFFFFFFFFFFFFFFFFFFFFFFFFFFFFFFF DUP3 SUB PUSH2 0x2F1F JUMPI PUSH2 0x2F1E PUSH2 0x2EB6 JUMP JUMPDEST JUMPDEST PUSH1 0x1 DUP3 ADD SWAP1 POP SWAP2 SWAP1 POP JUMP JUMPDEST PUSH32 0x4E487B7100000000000000000000000000000000000000000000000000000000 PUSH0 MSTORE PUSH1 0x32 PUSH1 0x4 MSTORE PUSH1 0x24 PUSH0 REVERT JUMPDEST PUSH32 0x4E487B7100000000000000000000000000000000000000000000000000000000 PUSH0 MSTORE PUSH1 0x22 PUSH1 0x4 MSTORE PUSH1 0x24 PUSH0 REVERT JUMPDEST PUSH0 PUSH1 0x2 DUP3 DIV SWAP1 POP PUSH1 0x1 DUP3 AND DUP1 PUSH2 0x2F9B JUMPI PUSH1 0x7F DUP3 AND SWAP2 POP JUMPDEST PUSH1 0x20 DUP3 LT DUP2 SUB PUSH2 0x2FAE JUMPI PUSH2 0x2FAD PUSH2 0x2F57 JUMP JUMPDEST JUMPDEST POP SWAP2 SWAP1 POP JUMP JUMPDEST PUSH32 0x4E6F2066756E647320746F207769746864726177000000000000000000000000 PUSH0 DUP3 ADD MSTORE POP JUMP JUMPDEST PUSH0 PUSH2 0x2FE8 PUSH1 0x14 DUP4 PUSH2 0x274D JUMP JUMPDEST SWAP2 POP PUSH2 0x2FF3 DUP3 PUSH2 0x2FB4 JUMP JUMPDEST PUSH1 0x20 DUP3 ADD SWAP1 POP SWAP2 SWAP1 POP JUMP JUMPDEST PUSH0 PUSH1 0x20 DUP3 ADD SWAP1 POP DUP2 DUP2 SUB PUSH0 DUP4 ADD MSTORE PUSH2 0x3015 DUP2 PUSH2 0x2FDC JUMP JUMPDEST SWAP1 POP SWAP2 SWAP1 POP JUMP JUMPDEST PUSH0 DUP2 SWAP1 POP SWAP3 SWAP2 POP POP JUMP JUMPDEST POP JUMP JUMPDEST PUSH0 PUSH2 0x3034 PUSH0 DUP4 PUSH2 0x301C JUMP JUMPDEST SWAP2 POP PUSH2 0x303F DUP3 PUSH2 0x3026 JUMP JUMPDEST PUSH0 DUP3 ADD SWAP1 POP SWAP2 SWAP1 POP JUMP JUMPDEST PUSH0 PUSH2 0x3053 DUP3 PUSH2 0x3029 JUMP JUMPDEST SWAP2 POP DUP2 SWAP1 POP SWAP2 SWAP1 POP JUMP JUMPDEST PUSH32 0x5472616E73666572206661696C65640000000000000000000000000000000000 PUSH0 DUP3 ADD MSTORE POP JUMP JUMPDEST PUSH0 PUSH2 0x3091 PUSH1 0xF DUP4 PUSH2 0x274D JUMP JUMPDEST SWAP2 POP PUSH2 0x309C DUP3 PUSH2 0x305D JUMP JUMPDEST PUSH1 0x20 DUP3 ADD SWAP1 POP SWAP2 SWAP1 POP JUMP JUMPDEST PUSH0 PUSH1 0x20 DUP3 ADD SWAP1 POP DUP2 DUP2 SUB PUSH0 DUP4 ADD MSTORE PUSH2 0x30BE DUP2 PUSH2 0x3085 JUMP JUMPDEST SWAP1 POP SWAP2 SWAP1 POP JUMP JUMPDEST PUSH0 PUSH2 0x30CF DUP3 PUSH2 0x25D8 JUMP JUMPDEST SWAP2 POP PUSH2 0x30DA DUP4 PUSH2 0x25D8 JUMP JUMPDEST SWAP3 POP DUP3 DUP3 ADD SWAP1 POP DUP1 DUP3 GT ISZERO PUSH2 0x30F2 JUMPI PUSH2 0x30F1 PUSH2 0x2EB6 JUMP JUMPDEST JUMPDEST SWAP3 SWAP2 POP POP JUMP JUMPDEST PUSH32 0x4C6F747465727920646F6573206E6F7420657869737400000000000000000000 PUSH0 DUP3 ADD MSTORE POP JUMP JUMPDEST PUSH0 PUSH2 0x312C PUSH1 0x16 DUP4 PUSH2 0x274D JUMP JUMPDEST SWAP2 POP PUSH2 0x3137 DUP3 PUSH2 0x30F8 JUMP JUMPDEST PUSH1 0x20 DUP3 ADD SWAP1 POP SWAP2 SWAP1 POP JUMP JUMPDEST PUSH0 PUSH1 0x20 DUP3 ADD SWAP1 POP DUP2 DUP2 SUB PUSH0 DUP4 ADD MSTORE PUSH2 0x3159 DUP2 PUSH2 0x3120 JUMP JUMPDEST SWAP1 POP SWAP2 SWAP1 POP JUMP JUMPDEST PUSH0 PUSH2 0x316A DUP3 PUSH2 0x25D8 JUMP JUMPDEST SWAP2 POP PUSH2 0x3175 DUP4 PUSH2 0x25D8 JUMP JUMPDEST SWAP3 POP DUP3 DUP3 MUL PUSH2 0x3183 DUP2 PUSH2 0x25D8 JUMP JUMPDEST SWAP2 POP DUP3 DUP3 DIV DUP5 EQ DUP4 ISZERO OR PUSH2 0x319A JUMPI PUSH2 0x3199 PUSH2 0x2EB6 JUMP JUMPDEST JUMPDEST POP SWAP3 SWAP2 POP POP JUMP JUMPDEST PUSH32 0x4C6F747465727920697320636C6F736564000000000000000000000000000000 PUSH0 DUP3 ADD MSTORE POP JUMP JUMPDEST PUSH0 PUSH2 0x31D5 PUSH1 0x11 DUP4 PUSH2 0x274D JUMP JUMPDEST SWAP2 POP PUSH2 0x31E0 DUP3 PUSH2 0x31A1 JUMP JUMPDEST PUSH1 0x20 DUP3 ADD SWAP1 POP SWAP2 SWAP1 POP JUMP JUMPDEST PUSH0 PUSH1 0x20 DUP3 ADD SWAP1 POP DUP2 DUP2 SUB PUSH0 DUP4 ADD MSTORE PUSH2 0x3202 DUP2 PUSH2 0x31C9 JUMP JUMPDEST SWAP1 POP SWAP2 SWAP1 POP JUMP JUMPDEST PUSH32 0x5175616E74697479206D7573742062652067726561746572207468616E203000 PUSH0 DUP3 ADD MSTORE POP JUMP JUMPDEST PUSH0 PUSH2 0x323D PUSH1 0x1F DUP4 PUSH2 0x274D JUMP JUMPDEST SWAP2 POP PUSH2 0x3248 DUP3 PUSH2 0x3209 JUMP JUMPDEST PUSH1 0x20 DUP3 ADD SWAP1 POP SWAP2 SWAP1 POP JUMP JUMPDEST PUSH0 PUSH1 0x20 DUP3 ADD SWAP1 POP DUP2 DUP2 SUB PUSH0 DUP4 ADD MSTORE PUSH2 0x326A DUP2 PUSH2 0x3231 JUMP JUMPDEST SWAP1 POP SWAP2 SWAP1 POP JUMP JUMPDEST PUSH32 0x496E76616C696420616D6F756E74206F66204554482073656E74000000000000 PUSH0 DUP3 ADD MSTORE POP JUMP JUMPDEST PUSH0 PUSH2 0x32A5 PUSH1 0x1A DUP4 PUSH2 0x274D JUMP JUMPDEST SWAP2 POP PUSH2 0x32B0 DUP3 PUSH2 0x3271 JUMP JUMPDEST PUSH1 0x20 DUP3 ADD SWAP1 POP SWAP2 SWAP1 POP JUMP JUMPDEST PUSH0 PUSH1 0x20 DUP3 ADD SWAP1 POP DUP2 DUP2 SUB PUSH0 DUP4 ADD MSTORE PUSH2 0x32D2 DUP2 PUSH2 0x3299 JUMP JUMPDEST SWAP1 POP SWAP2 SWAP1 POP JUMP JUMPDEST PUSH32 0x4F6E6C792063726561746F72206F72206F776E65722063616E20636C6F736500 PUSH0 DUP3 ADD MSTORE POP JUMP JUMPDEST PUSH0 PUSH2 0x330D PUSH1 0x1F DUP4 PUSH2 0x274D JUMP JUMPDEST SWAP2 POP PUSH2 0x3318 DUP3 PUSH2 0x32D9 JUMP JUMPDEST PUSH1 0x20 DUP3 ADD SWAP1 POP SWAP2 SWAP1 POP JUMP JUMPDEST PUSH0 PUSH1 0x20 DUP3 ADD SWAP1 POP DUP2 DUP2 SUB PUSH0 DUP4 ADD MSTORE PUSH2 0x333A DUP2 PUSH2 0x3301 JUMP JUMPDEST SWAP1 POP SWAP2 SWAP1 POP JUMP JUMPDEST PUSH32 0x4C6F747465727920616C726561647920636C6F73656400000000000000000000 PUSH0 DUP3 ADD MSTORE POP JUMP JUMPDEST PUSH0 PUSH2 0x3375 PUSH1 0x16 DUP4 PUSH2 0x274D JUMP JUMPDEST SWAP2 POP PUSH2 0x3380 DUP3 PUSH2 0x3341 JUMP JUMPDEST PUSH1 0x20 DUP3 ADD SWAP1 POP SWAP2 SWAP1 POP JUMP JUMPDEST PUSH0 PUSH1 0x20 DUP3 ADD SWAP1 POP DUP2 DUP2 SUB PUSH0 DUP4 ADD MSTORE PUSH2 0x33A2 DUP2 PUSH2 0x3369 JUMP JUMPDEST SWAP1 POP SWAP2 SWAP1 POP JUMP JUMPDEST PUSH32 0x4E6F207469636B65747320736F6C640000000000000000000000000000000000 PUSH0 DUP3 ADD MSTORE POP JUMP JUMPDEST PUSH0 PUSH2 0x33DD PUSH1 0xF DUP4 PUSH2 0x274D JUMP JUMPDEST SWAP2 POP PUSH2 0x33E8 DUP3 PUSH2 0x33A9 JUMP JUMPDEST PUSH1 0x20 DUP3 ADD SWAP1 POP SWAP2 SWAP1 POP JUMP JUMPDEST PUSH0 PUSH1 0x20 DUP3 ADD SWAP1 POP DUP2 DUP2 SUB PUSH0 DUP4 ADD MSTORE PUSH2 0x340A DUP2 PUSH2 0x33D1 JUMP JUMPDEST SWAP1 POP SWAP2 SWAP1 POP JUMP JUMPDEST PUSH32 0x4F6E6C792063726561746F72206F72206F776E65720000000000000000000000 PUSH0 DUP3 ADD MSTORE POP JUMP JUMPDEST PUSH0 PUSH2 0x3445 PUSH1 0x15 DUP4 PUSH2 0x274D JUMP JUMPDEST SWAP2 POP PUSH2 0x3450 DUP3 PUSH2 0x3411 JUMP JUMPDEST PUSH1 0x20 DUP3 ADD SWAP1 POP SWAP2 SWAP1 POP JUMP JUMPDEST PUSH0 PUSH1 0x20 DUP3 ADD SWAP1 POP DUP2 DUP2 SUB PUSH0 DUP4 ADD MSTORE PUSH2 0x3472 DUP2 PUSH2 0x3439 JUMP JUMPDEST SWAP1 POP SWAP2 SWAP1 POP JUMP JUMPDEST PUSH32 0x436F6D6D697373696F6E20746F6F206869676800000000000000000000000000 PUSH0 DUP3 ADD MSTORE POP JUMP JUMPDEST PUSH0 PUSH2 0x34AD PUSH1 0x13 DUP4 PUSH2 0x274D JUMP JUMPDEST SWAP2 POP PUSH2 0x34B8 DUP3 PUSH2 0x3479 JUMP JUMPDEST PUSH1 0x20 DUP3 ADD SWAP1 POP SWAP2 SWAP1 POP JUMP JUMPDEST PUSH0 PUSH1 0x20 DUP3 ADD SWAP1 POP DUP2 DUP2 SUB PUSH0 DUP4 ADD MSTORE PUSH2 0x34DA DUP2 PUSH2 0x34A1 JUMP JUMPDEST SWAP1 POP SWAP2 SWAP1 POP JUMP JUMPDEST PUSH0 PUSH1 0x40 DUP3 ADD SWAP1 POP PUSH2 0x34F4 PUSH0 DUP4 ADD DUP6 PUSH2 0x26F5 JUMP JUMPDEST PUSH2 0x3501 PUSH1 0x20 DUP4 ADD DUP5 PUSH2 0x26F5 JUMP JUMPDEST SWAP4 SWAP3 POP POP POP JUMP JUMPDEST PUSH32 0x4F6E6C79206F776E657200000000000000000000000000000000000000000000 PUSH0 DUP3 ADD MSTORE POP JUMP JUMPDEST PUSH0 PUSH2 0x353C PUSH1 0xA DUP4 PUSH2 0x274D JUMP JUMPDEST SWAP2 POP PUSH2 0x3547 DUP3 PUSH2 0x3508 JUMP JUMPDEST PUSH1 0x20 DUP3 ADD SWAP1 POP SWAP2 SWAP1 POP JUMP JUMPDEST PUSH0 PUSH1 0x20 DUP3 ADD SWAP1 POP DUP2 DUP2 SUB PUSH0 DUP4 ADD MSTORE PUSH2 0x3569 DUP2 PUSH2 0x3530 JUMP JUMPDEST SWAP1 POP SWAP2 SWAP1 POP JUMP JUMPDEST PUSH32 0x4C6F7474657279206E6F7420636C6F7365642079657400000000000000000000 PUSH0 DUP3 ADD MSTORE POP JUMP JUMPDEST PUSH0 PUSH2 0x35A4 PUSH1 0x16 DUP4 PUSH2 0x274D JUMP JUMPDEST SWAP2 POP PUSH2 0x35AF DUP3 PUSH2 0x3570 JUMP JUMPDEST PUSH1 0x20 DUP3 ADD SWAP1 POP SWAP2 SWAP1 POP JUMP JUMPDEST PUSH0 PUSH1 0x20 DUP3 ADD SWAP1 POP DUP2 DUP2 SUB PUSH0 DUP4 ADD MSTORE PUSH2 0x35D1 DUP2 PUSH2 0x3598 JUMP JUMPDEST SWAP1 POP SWAP2 SWAP1 POP JUMP JUMPDEST PUSH32 0x4F6E6C792077696E6E65722063616E20636C61696D0000000000000000000000 PUSH0 DUP3 ADD MSTORE POP JUMP JUMPDEST PUSH0 PUSH2 0x360C PUSH1 0x15 DUP4 PUSH2 0x274D JUMP JUMPDEST SWAP2 POP PUSH2 0x3617 DUP3 PUSH2 0x35D8 JUMP JUMPDEST PUSH1 0x20 DUP3 ADD SWAP1 POP SWAP2 SWAP1 POP JUMP JUMPDEST PUSH0 PUSH1 0x20 DUP3 ADD SWAP1 POP DUP2 DUP2 SUB PUSH0 DUP4 ADD MSTORE PUSH2 0x3639 DUP2 PUSH2 0x3600 JUMP JUMPDEST SWAP1 POP SWAP2 SWAP1 POP JUMP JUMPDEST PUSH32 0x4E6F207072697A6520746F20636C61696D000000000000000000000000000000 PUSH0 DUP3 ADD MSTORE POP JUMP JUMPDEST PUSH0 PUSH2 0x3674 PUSH1 0x11 DUP4 PUSH2 0x274D JUMP JUMPDEST SWAP2 POP PUSH2 0x367F DUP3 PUSH2 0x3640 JUMP JUMPDEST PUSH1 0x20 DUP3 ADD SWAP1 POP SWAP2 SWAP1 POP JUMP JUMPDEST PUSH0 PUSH1 0x20 DUP3 ADD SWAP1 POP DUP2 DUP2 SUB PUSH0 DUP4 ADD MSTORE PUSH2 0x36A1 DUP2 PUSH2 0x3668 JUMP JUMPDEST SWAP1 POP SWAP2 SWAP1 POP JUMP JUMPDEST PUSH32 0x5469636B6574207072696365206D757374206265203E20300000000000000000 PUSH0 DUP3 ADD MSTORE POP JUMP JUMPDEST PUSH0 PUSH2 0x36DC PUSH1 0x18 DUP4 PUSH2 0x274D JUMP JUMPDEST SWAP2 POP PUSH2 0x36E7 DUP3 PUSH2 0x36A8 JUMP JUMPDEST PUSH1 0x20 DUP3 ADD SWAP1 POP SWAP2 SWAP1 POP JUMP JUMPDEST PUSH0 PUSH1 0x20 DUP3 ADD SWAP1 POP DUP2 DUP2 SUB PUSH0 DUP4 ADD MSTORE PUSH2 0x3709 DUP2 PUSH2 0x36D0 JUMP JUMPDEST SWAP1 POP SWAP2 SWAP1 POP JUMP JUMPDEST PUSH32 0x496E76616C696420656E642074696D6500000000000000000000000000000000 PUSH0 DUP3 ADD MSTORE POP JUMP JUMPDEST PUSH0 PUSH2 0x3744 PUSH1 0x10 DUP4 PUSH2 0x274D JUMP JUMPDEST SWAP2 POP PUSH2 0x374F DUP3 PUSH2 0x3710 JUMP JUMPDEST PUSH1 0x20 DUP3 ADD SWAP1 POP SWAP2 SWAP1 POP JUMP JUMPDEST PUSH0 PUSH1 0x20 DUP3 ADD SWAP1 POP DUP2 DUP2 SUB PUSH0 DUP4 ADD MSTORE PUSH2 0x3771 DUP2 PUSH2 0x3738 JUMP JUMPDEST SWAP1 POP SWAP2 SWAP1 POP JUMP JUMPDEST PUSH0 DUP2 SWAP1 POP DUP2 PUSH0 MSTORE PUSH1 0x20 PUSH0 KECCAK256 SWAP1 POP SWAP2 SWAP1 POP JUMP JUMPDEST PUSH0 PUSH1 0x20 PUSH1 0x1F DUP4 ADD DIV SWAP1 POP SWAP2 SWAP1 POP JUMP JUMPDEST PUSH0 DUP3 DUP3 SHL SWAP1 POP SWAP3 SWAP2 POP POP JUMP JUMPDEST PUSH0 PUSH1 0x8 DUP4 MUL PUSH2 0x37D4 PUSH32 0xFFFFFFFFFFFFFFFFFFFFFFFFFFFFFFFFFFFFFFFFFFFFFFFFFFFFFFFFFFFFFFFF DUP3 PUSH2 0x3799 JUMP JUMPDEST PUSH2 0x37DE DUP7 DUP4 PUSH2 0x3799 JUMP JUMPDEST SWAP6 POP DUP1 NOT DUP5 AND SWAP4 POP DUP1 DUP7 AND DUP5 OR SWAP3 POP POP POP SWAP4 SWAP3 POP POP POP JUMP JUMPDEST PUSH0 DUP2 SWAP1 POP SWAP2 SWAP1 POP JUMP JUMPDEST PUSH0 PUSH2 0x3819 PUSH2 0x3814 PUSH2 0x380F DUP5 PUSH2 0x25D8 JUMP JUMPDEST PUSH2 0x37F6 JUMP JUMPDEST PUSH2 0x25D8 JUMP JUMPDEST SWAP1 POP SWAP2 SWAP1 POP JUMP JUMPDEST PUSH0 DUP2 SWAP1 POP SWAP2 SWAP1 POP JUMP JUMPDEST PUSH2 0x3832 DUP4 PUSH2 0x37FF JUMP JUMPDEST PUSH2 0x3846 PUSH2 0x383E DUP3 PUSH2 0x3820 JUMP JUMPDEST DUP5 DUP5 SLOAD PUSH2 0x37A5 JUMP JUMPDEST DUP3 SSTORE POP POP POP POP JUMP JUMPDEST PUSH0 PUSH0 SWAP1 POP SWAP1 JUMP JUMPDEST PUSH2 0x385D PUSH2 0x384E JUMP JUMPDEST PUSH2 0x3868 DUP2 DUP5 DUP5 PUSH2 0x3829 JUMP JUMPDEST POP POP POP JUMP JUMPDEST JUMPDEST DUP2 DUP2 LT ISZERO PUSH2 0x388B JUMPI PUSH2 0x3880 PUSH0 DUP3 PUSH2 0x3855 JUMP JUMPDEST PUSH1 0x1 DUP2 ADD SWAP1 POP PUSH2 0x386E JUMP JUMPDEST POP POP JUMP JUMPDEST PUSH1 0x1F DUP3 GT ISZERO PUSH2 0x38D0 JUMPI PUSH2 0x38A1 DUP2 PUSH2 0x3778 JUMP JUMPDEST PUSH2 0x38AA DUP5 PUSH2 0x378A JUMP JUMPDEST DUP2 ADD PUSH1 0x20 DUP6 LT ISZERO PUSH2 0x38B9 JUMPI DUP2 SWAP1 POP JUMPDEST PUSH2 0x38CD PUSH2 0x38C5 DUP6 PUSH2 0x378A JUMP JUMPDEST DUP4 ADD DUP3 PUSH2 0x386D JUMP JUMPDEST POP POP JUMPDEST POP POP POP JUMP JUMPDEST PUSH0 DUP3 DUP3 SHR SWAP1 POP SWAP3 SWAP2 POP POP JUMP JUMPDEST PUSH0 PUSH2 0x38F0 PUSH0 NOT DUP5 PUSH1 0x8 MUL PUSH2 0x38D5 JUMP JUMPDEST NOT DUP1 DUP4 AND SWAP2 POP POP SWAP3 SWAP2 POP POP JUMP JUMPDEST PUSH0 PUSH2 0x3908 DUP4 DUP4 PUSH2 0x38E1 JUMP JUMPDEST SWAP2 POP DUP3 PUSH1 0x2 MUL DUP3 OR SWAP1 POP SWAP3 SWAP2 POP POP JUMP JUMPDEST PUSH2 0x3921 DUP3 PUSH2 0x2743 JUMP JUMPDEST PUSH8 0xFFFFFFFFFFFFFFFF DUP2 GT ISZERO PUSH2 0x393A JUMPI PUSH2 0x3939 PUSH2 0x2CFF JUMP JUMPDEST JUMPDEST PUSH2 0x3944 DUP3 SLOAD PUSH2 0x2F84 JUMP JUMPDEST PUSH2 0x394F DUP3 DUP3 DUP6 PUSH2 0x388F JUMP JUMPDEST PUSH0 PUSH1 0x20 SWAP1 POP PUSH1 0x1F DUP4 GT PUSH1 0x1 DUP2 EQ PUSH2 0x3980 JUMPI PUSH0 DUP5 ISZERO PUSH2 0x396E JUMPI DUP3 DUP8 ADD MLOAD SWAP1 POP JUMPDEST PUSH2 0x3978 DUP6 DUP3 PUSH2 0x38FD JUMP JUMPDEST DUP7 SSTORE POP PUSH2 0x39DF JUMP JUMPDEST PUSH1 0x1F NOT DUP5 AND PUSH2 0x398E DUP7 PUSH2 0x3778 JUMP JUMPDEST PUSH0 JUMPDEST DUP3 DUP2 LT ISZERO PUSH2 0x39B5 JUMPI DUP5 DUP10 ADD MLOAD DUP3 SSTORE PUSH1 0x1 DUP3 ADD SWAP2 POP PUSH1 0x20 DUP6 ADD SWAP5 POP PUSH1 0x20 DUP2 ADD SWAP1 POP PUSH2 0x3990 JUMP JUMPDEST DUP7 DUP4 LT ISZERO PUSH2 0x39D2 JUMPI DUP5 DUP10 ADD MLOAD PUSH2 0x39CE PUSH1 0x1F DUP10 AND DUP3 PUSH2 0x38E1 JUMP JUMPDEST DUP4 SSTORE POP JUMPDEST PUSH1 0x1 PUSH1 0x2 DUP9 MUL ADD DUP9 SSTORE POP POP POP JUMPDEST POP POP POP POP POP POP JUMP JUMPDEST PUSH0 PUSH2 0x39F1 DUP3 PUSH2 0x25D8 JUMP JUMPDEST SWAP2 POP PUSH0 DUP3 SUB PUSH2 0x3A03 JUMPI PUSH2 0x3A02 PUSH2 0x2EB6 JUMP JUMPDEST JUMPDEST PUSH1 0x1 DUP3 SUB SWAP1 POP SWAP2 SWAP1 POP JUMP JUMPDEST PUSH32 0x4E487B7100000000000000000000000000000000000000000000000000000000 PUSH0 MSTORE PUSH1 0x12 PUSH1 0x4 MSTORE PUSH1 0x24 PUSH0 REVERT JUMPDEST PUSH0 PUSH2 0x3A45 DUP3 PUSH2 0x25D8 JUMP JUMPDEST SWAP2 POP PUSH2 0x3A50 DUP4 PUSH2 0x25D8 JUMP JUMPDEST SWAP3 POP DUP3 PUSH2 0x3A60 JUMPI PUSH2 0x3A5F PUSH2 0x3A0E JUMP JUMPDEST JUMPDEST DUP3 DUP3 DIV SWAP1 POP SWAP3 SWAP2 POP POP JUMP JUMPDEST PUSH0 PUSH2 0x3A75 DUP3 PUSH2 0x25D8 JUMP JUMPDEST SWAP2 POP PUSH2 0x3A80 DUP4 PUSH2 0x25D8 JUMP JUMPDEST SWAP3 POP DUP3 DUP3 SUB SWAP1 POP DUP2 DUP2 GT ISZERO PUSH2 0x3A98 JUMPI PUSH2 0x3A97 PUSH2 0x2EB6 JUMP JUMPDEST JUMPDEST SWAP3 SWAP2 POP POP JUMP JUMPDEST PUSH32 0x4E6F207469636B65747320617661696C61626C65000000000000000000000000 PUSH0 DUP3 ADD MSTORE POP JUMP JUMPDEST PUSH0 PUSH2 0x3AD2 PUSH1 0x14 DUP4 PUSH2 0x274D JUMP JUMPDEST SWAP2 POP PUSH2 0x3ADD DUP3 PUSH2 0x3A9E JUMP JUMPDEST PUSH1 0x20 DUP3 ADD SWAP1 POP SWAP2 SWAP1 POP JUMP JUMPDEST PUSH0 PUSH1 0x20 DUP3 ADD SWAP1 POP DUP2 DUP2 SUB PUSH0 DUP4 ADD MSTORE PUSH2 0x3AFF DUP2 PUSH2 0x3AC6 JUMP JUMPDEST SWAP1 POP SWAP2 SWAP1 POP JUMP JUMPDEST PUSH0 DUP2 SWAP1 POP SWAP2 SWAP1 POP JUMP JUMPDEST PUSH2 0x3B20 PUSH2 0x3B1B DUP3 PUSH2 0x25D8 JUMP JUMPDEST PUSH2 0x3B06 JUMP JUMPDEST DUP3 MSTORE POP POP JUMP JUMPDEST PUSH0 PUSH2 0x3B31 DUP3 DUP7 PUSH2 0x3B0F JUMP JUMPDEST PUSH1 0x20 DUP3 ADD SWAP2 POP PUSH2 0x3B41 DUP3 DUP6 PUSH2 0x3B0F JUMP JUMPDEST PUSH1 0x20 DUP3 ADD SWAP2 POP PUSH2 0x3B51 DUP3 DUP5 PUSH2 0x3B0F JUMP JUMPDEST PUSH1 0x20 DUP3 ADD SWAP2 POP DUP2 SWAP1 POP SWAP5 SWAP4 POP POP POP POP JUMP JUMPDEST PUSH0 PUSH2 0x3B6C DUP3 PUSH2 0x25D8 JUMP JUMPDEST SWAP2 POP PUSH2 0x3B77 DUP4 PUSH2 0x25D8 JUMP JUMPDEST SWAP3 POP DUP3 PUSH2 0x3B87 JUMPI PUSH2 0x3B86 PUSH2 0x3A0E JUMP JUMPDEST JUMPDEST DUP3 DUP3 MOD SWAP1 POP SWAP3 SWAP2 POP POP JUMP JUMPDEST PUSH32 0x496E76616C6964207469636B6574206E756D6265720000000000000000000000 PUSH0 DUP3 ADD MSTORE POP JUMP JUMPDEST PUSH0 PUSH2 0x3BC6 PUSH1 0x15 DUP4 PUSH2 0x274D JUMP JUMPDEST SWAP2 POP PUSH2 0x3BD1 DUP3 PUSH2 0x3B92 JUMP JUMPDEST PUSH1 0x20 DUP3 ADD SWAP1 POP SWAP2 SWAP1 POP JUMP JUMPDEST PUSH0 PUSH1 0x20 DUP3 ADD SWAP1 POP DUP2 DUP2 SUB PUSH0 DUP4 ADD MSTORE PUSH2 0x3BF3 DUP2 PUSH2 0x3BBA JUMP JUMPDEST SWAP1 POP SWAP2 SWAP1 POP JUMP INVALID LOG2 PUSH5 0x6970667358 0x22 SLT KECCAK256 PUSH22 0xC71E44C745214D6801EC1937ED381DD814E6F4A756B3 0xC0 ADD 0x4E SWAP3 0xC3 DUP15 0xD5 RETURNDATASIZE 0xCF PUSH5 0x736F6C6343 STOP ADDMOD 0x1E STOP CALLER "
				},
				"gasEstimates": {
					"creation": {
						"codeDepositCost": "3081600",
						"executionCost": "59790",
						"totalCost": "3141390"
					},
					"external": {
						"MAX_COMMISSION_PERCENT()": "348",
						"activeLotteriesCount()": "2470",
						"buyTickets(uint256,uint256)": "infinite",
						"canCloseLottery(uint256)": "17873",
						"claimPrize(uint256)": "infinite",
						"closeLottery(uint256)": "infinite",
						"createLottery(string,uint256,uint256,uint256,uint256)": "infinite",
						"defaultCommissionPercent()": "2558",
						"getActiveLotteries()": "infinite",
						"getContractSummary()": "infinite",
						"getLotteriesByCreator(address)": "infinite",
						"getLotteryInfo(uint256)": "infinite",
						"getMyTickets(uint256,address)": "infinite",
						"getParticipantStats(address)": "infinite",
						"getParticipants(uint256)": "infinite",
						"getPendingWithdrawal(address)": "2918",
						"getTicketsOf(uint256,address)": "infinite",
						"getTotalLotteries()": "2497",
						"lotteries(uint256)": "infinite",
						"nextLotteryId()": "2535",
						"owner()": "2553",
						"pendingWithdrawals(address)": "2890",
						"setDefaultCommissionPercent(uint256)": "24799",
						"setLotteryCommission(uint256,uint256)": "infinite",
						"withdraw()": "infinite"
					},
					"internal": {
						"_closeLottery(uint256)": "infinite",
						"_findWinnerByTicketNumber(uint256,uint256)": "infinite",
						"_selectWinnerAndDistribute(uint256)": "infinite"
					}
				},
				"methodIdentifiers": {
					"MAX_COMMISSION_PERCENT()": "77f00a6b",
					"activeLotteriesCount()": "7cb15bca",
					"buyTickets(uint256,uint256)": "8627df46",
					"canCloseLottery(uint256)": "6cbe7a8d",
					"claimPrize(uint256)": "d7098154",
					"closeLottery(uint256)": "9d8ca531",
					"createLottery(string,uint256,uint256,uint256,uint256)": "f627fd20",
					"defaultCommissionPercent()": "84143958",
					"getActiveLotteries()": "055b66cd",
					"getContractSummary()": "9c5320af",
					"getLotteriesByCreator(address)": "a4bb62f0",
					"getLotteryInfo(uint256)": "76b3c8a8",
					"getMyTickets(uint256,address)": "7d23464b",
					"getParticipantStats(address)": "5b669de4",
					"getParticipants(uint256)": "c1e3bd3e",
					"getPendingWithdrawal(address)": "7ee8b2f8",
					"getTicketsOf(uint256,address)": "b0deaf32",
					"getTotalLotteries()": "db0cdf18",
					"lotteries(uint256)": "1398e076",
					"nextLotteryId()": "8009df68",
					"owner()": "8da5cb5b",
					"pendingWithdrawals(address)": "f3f43703",
					"setDefaultCommissionPercent(uint256)": "d27339a5",
					"setLotteryCommission(uint256,uint256)": "ba2f93a7",
					"withdraw()": "3ccfd60b"
				}
			},
			"storageLayout": {
				"storage": [
					{
						"astId": 1363,
						"contract": "Ejercicio5/Lotery/contracts/Lottery.sol:Lottery",
						"label": "nextLotteryId",
						"offset": 0,
						"slot": "0",
						"type": "t_uint256"
					},
					{
						"astId": 1368,
						"contract": "Ejercicio5/Lotery/contracts/Lottery.sol:Lottery",
						"label": "lotteries",
						"offset": 0,
						"slot": "1",
						"type": "t_mapping(t_uint256,t_struct(Lottery)1333_storage)"
					},
					{
						"astId": 1371,
						"contract": "Ejercicio5/Lotery/contracts/Lottery.sol:Lottery",
						"label": "defaultCommissionPercent",
						"offset": 0,
						"slot": "2",
						"type": "t_uint256"
					},
					{
						"astId": 1373,
						"contract": "Ejercicio5/Lotery/contracts/Lottery.sol:Lottery",
						"label": "owner",
						"offset": 0,
						"slot": "3",
						"type": "t_address"
					},
					{
						"astId": 1375,
						"contract": "Ejercicio5/Lotery/contracts/Lottery.sol:Lottery",
						"label": "activeLotteriesCount",
						"offset": 0,
						"slot": "4",
						"type": "t_uint256"
					},
					{
						"astId": 1382,
						"contract": "Ejercicio5/Lotery/contracts/Lottery.sol:Lottery",
						"label": "pendingWithdrawals",
						"offset": 0,
						"slot": "5",
						"type": "t_mapping(t_address,t_uint256)"
					}
				],
				"types": {
					"t_address": {
						"encoding": "inplace",
						"label": "address",
						"numberOfBytes": "20"
					},
					"t_array(t_address)dyn_storage": {
						"base": "t_address",
						"encoding": "dynamic_array",
						"label": "address[]",
						"numberOfBytes": "32"
					},
					"t_bool": {
						"encoding": "inplace",
						"label": "bool",
						"numberOfBytes": "1"
					},
					"t_mapping(t_address,t_uint256)": {
						"encoding": "mapping",
						"key": "t_address",
						"label": "mapping(address => uint256)",
						"numberOfBytes": "32",
						"value": "t_uint256"
					},
					"t_mapping(t_uint256,t_address)": {
						"encoding": "mapping",
						"key": "t_uint256",
						"label": "mapping(uint256 => address)",
						"numberOfBytes": "32",
						"value": "t_address"
					},
					"t_mapping(t_uint256,t_struct(Lottery)1333_storage)": {
						"encoding": "mapping",
						"key": "t_uint256",
						"label": "mapping(uint256 => struct LotteryStorage.Lottery)",
						"numberOfBytes": "32",
						"value": "t_struct(Lottery)1333_storage"
					},
					"t_string_storage": {
						"encoding": "bytes",
						"label": "string",
						"numberOfBytes": "32"
					},
					"t_struct(Lottery)1333_storage": {
						"encoding": "inplace",
						"label": "struct LotteryStorage.Lottery",
						"members": [
							{
								"astId": 1299,
								"contract": "Ejercicio5/Lotery/contracts/Lottery.sol:Lottery",
								"label": "id",
								"offset": 0,
								"slot": "0",
								"type": "t_uint256"
							},
							{
								"astId": 1301,
								"contract": "Ejercicio5/Lotery/contracts/Lottery.sol:Lottery",
								"label": "creator",
								"offset": 0,
								"slot": "1",
								"type": "t_address"
							},
							{
								"astId": 1303,
								"contract": "Ejercicio5/Lotery/contracts/Lottery.sol:Lottery",
								"label": "name",
								"offset": 0,
								"slot": "2",
								"type": "t_string_storage"
							},
							{
								"astId": 1305,
								"contract": "Ejercicio5/Lotery/contracts/Lottery.sol:Lottery",
								"label": "ticketPrice",
								"offset": 0,
								"slot": "3",
								"type": "t_uint256"
							},
							{
								"astId": 1307,
								"contract": "Ejercicio5/Lotery/contracts/Lottery.sol:Lottery",
								"label": "maxTickets",
								"offset": 0,
								"slot": "4",
								"type": "t_uint256"
							},
							{
								"astId": 1309,
								"contract": "Ejercicio5/Lotery/contracts/Lottery.sol:Lottery",
								"label": "ticketsSold",
								"offset": 0,
								"slot": "5",
								"type": "t_uint256"
							},
							{
								"astId": 1311,
								"contract": "Ejercicio5/Lotery/contracts/Lottery.sol:Lottery",
								"label": "startTime",
								"offset": 0,
								"slot": "6",
								"type": "t_uint256"
							},
							{
								"astId": 1313,
								"contract": "Ejercicio5/Lotery/contracts/Lottery.sol:Lottery",
								"label": "endTime",
								"offset": 0,
								"slot": "7",
								"type": "t_uint256"
							},
							{
								"astId": 1317,
								"contract": "Ejercicio5/Lotery/contracts/Lottery.sol:Lottery",
								"label": "ticketsByAddress",
								"offset": 0,
								"slot": "8",
								"type": "t_mapping(t_address,t_uint256)"
							},
							{
								"astId": 1320,
								"contract": "Ejercicio5/Lotery/contracts/Lottery.sol:Lottery",
								"label": "participants",
								"offset": 0,
								"slot": "9",
								"type": "t_array(t_address)dyn_storage"
							},
							{
								"astId": 1322,
								"contract": "Ejercicio5/Lotery/contracts/Lottery.sol:Lottery",
								"label": "commissionPercent",
								"offset": 0,
								"slot": "10",
								"type": "t_uint256"
							},
							{
								"astId": 1324,
								"contract": "Ejercicio5/Lotery/contracts/Lottery.sol:Lottery",
								"label": "closed",
								"offset": 0,
								"slot": "11",
								"type": "t_bool"
							},
							{
								"astId": 1326,
								"contract": "Ejercicio5/Lotery/contracts/Lottery.sol:Lottery",
								"label": "winner",
								"offset": 1,
								"slot": "11",
								"type": "t_address"
							},
							{
								"astId": 1328,
								"contract": "Ejercicio5/Lotery/contracts/Lottery.sol:Lottery",
								"label": "pot",
								"offset": 0,
								"slot": "12",
								"type": "t_uint256"
							},
							{
								"astId": 1332,
								"contract": "Ejercicio5/Lotery/contracts/Lottery.sol:Lottery",
								"label": "ticketOwner",
								"offset": 0,
								"slot": "13",
								"type": "t_mapping(t_uint256,t_address)"
							}
						],
						"numberOfBytes": "448"
					},
					"t_uint256": {
						"encoding": "inplace",
						"label": "uint256",
						"numberOfBytes": "32"
					}
				}
			},
			"userdoc": {
				"events": {
					"CommissionChanged(uint256,uint256,uint256)": {
						"notice": "Se emite cuando se modifica la comisión de una lotería"
					},
					"LotteryClosed(uint256,address)": {
						"notice": "Se emite cuando se cierra una lotería"
					},
					"LotteryCreated(uint256,address)": {
						"notice": "Se emite cuando se crea una nueva lotería"
					},
					"TicketPurchased(uint256,address,uint256)": {
						"notice": "Se emite cuando un usuario compra boletos"
					},
					"WinnerSelected(uint256,address,uint256)": {
						"notice": "Se emite cuando se selecciona un ganador"
					}
				},
				"kind": "user",
				"methods": {
					"canCloseLottery(uint256)": {
						"notice": "Verifica si una lotería puede cerrarse"
					},
					"claimPrize(uint256)": {
						"notice": "Permite al ganador reclamar su premio"
					},
					"closeLottery(uint256)": {
						"notice": "Cierra una lotería y selecciona un ganador"
					},
					"createLottery(string,uint256,uint256,uint256,uint256)": {
						"notice": "Crea una nueva lotería"
					},
					"getActiveLotteries()": {
						"notice": "Obtiene loterías activas (abiertas)"
					},
					"getContractSummary()": {
						"notice": "Obtiene resumen del estado del contrato"
					},
					"getLotteriesByCreator(address)": {
						"notice": "Obtiene loterías creadas por un usuario"
					},
					"getParticipantStats(address)": {
						"notice": "Obtiene estadísticas de un participante"
					},
					"getPendingWithdrawal(address)": {
						"notice": "Consulta el saldo pendiente de retiro de una dirección"
					},
					"getTotalLotteries()": {
						"notice": "Obtiene el número total de loterías creadas"
					},
					"setDefaultCommissionPercent(uint256)": {
						"notice": "Modifica la comisión por defecto del contrato"
					},
					"setLotteryCommission(uint256,uint256)": {
						"notice": "Modifica la comisión de una lotería específica"
					},
					"withdraw()": {
						"notice": "Permite a cualquier usuario retirar sus fondos pendientes"
					}
				},
				"notice": "Este es el contrato que debe desplegarse",
				"version": 1
			}
		}
	}
}