{
	"contracts/TokenContract.sol": {
		"TokenContract": {
			"abi": [
				{
					"inputs": [],
					"stateMutability": "nonpayable",
					"type": "constructor"
				},
				{
					"inputs": [
						{
							"internalType": "uint128",
							"name": "_tokens",
							"type": "uint128"
						}
					],
					"name": "buyToken",
					"outputs": [],
					"stateMutability": "payable",
					"type": "function"
				},
				{
					"inputs": [
						{
							"internalType": "uint256",
							"name": "_value",
							"type": "uint256"
						}
					],
					"name": "double",
					"outputs": [
						{
							"internalType": "uint256",
							"name": "",
							"type": "uint256"
						}
					],
					"stateMutability": "pure",
					"type": "function"
				},
				{
					"inputs": [
						{
							"internalType": "address",
							"name": "_receiver",
							"type": "address"
						},
						{
							"internalType": "uint256",
							"name": "_amount",
							"type": "uint256"
						}
					],
					"name": "giveToken",
					"outputs": [],
					"stateMutability": "nonpayable",
					"type": "function"
				},
				{
					"inputs": [],
					"name": "owner",
					"outputs": [
						{
							"internalType": "address",
							"name": "",
							"type": "address"
						}
					],
					"stateMutability": "view",
					"type": "function"
				},
				{
					"inputs": [
						{
							"internalType": "string",
							"name": "_name",
							"type": "string"
						}
					],
					"name": "register",
					"outputs": [],
					"stateMutability": "nonpayable",
					"type": "function"
				},
				{
					"inputs": [],
					"name": "tokenValue",
					"outputs": [
						{
							"internalType": "uint8",
							"name": "",
							"type": "uint8"
						}
					],
					"stateMutability": "view",
					"type": "function"
				},
				{
					"inputs": [
						{
							"internalType": "uint8",
							"name": "_ammount",
							"type": "uint8"
						}
					],
					"name": "updateTokenPrice",
					"outputs": [],
					"stateMutability": "nonpayable",
					"type": "function"
				},
				{
					"inputs": [
						{
							"internalType": "address",
							"name": "",
							"type": "address"
						}
					],
					"name": "users",
					"outputs": [
						{
							"internalType": "string",
							"name": "name",
							"type": "string"
						},
						{
							"internalType": "uint256",
							"name": "tokens",
							"type": "uint256"
						}
					],
					"stateMutability": "view",
					"type": "function"
				}
			],
			"devdoc": {
				"kind": "dev",
				"methods": {},
				"version": 1
			},
			"evm": {
				"assembly": "    /* \"contracts/TokenContract.sol\":63:1339  contract TokenContract {... */\n  mstore(0x40, 0x80)\n    /* \"contracts/TokenContract.sol\":145:146  5 */\n  0x05\n    /* \"contracts/TokenContract.sol\":119:146  uint8 public tokenValue = 5 */\n  0x00\n  exp(0x0100, 0x14)\n  dup2\n  sload\n  dup2\n  0xff\n  mul\n  not\n  and\n  swap1\n  dup4\n  0xff\n  and\n  mul\n  or\n  swap1\n  sstore\n  pop\n    /* \"contracts/TokenContract.sol\":357:440  constructor(){... */\n  callvalue\n  dup1\n  iszero\n  tag_1\n  jumpi\n  revert(0x00, 0x00)\ntag_1:\n  pop\n    /* \"contracts/TokenContract.sol\":388:398  msg.sender */\n  caller\n    /* \"contracts/TokenContract.sol\":380:385  owner */\n  0x00\n  0x00\n    /* \"contracts/TokenContract.sol\":380:398  owner = msg.sender */\n  0x0100\n  exp\n  dup2\n  sload\n  dup2\n  0xffffffffffffffffffffffffffffffffffffffff\n  mul\n  not\n  and\n  swap1\n  dup4\n  0xffffffffffffffffffffffffffffffffffffffff\n  and\n  mul\n  or\n  swap1\n  sstore\n  pop\n    /* \"contracts/TokenContract.sol\":430:433  100 */\n  0x64\n    /* \"contracts/TokenContract.sol\":408:413  users */\n  0x01\n    /* \"contracts/TokenContract.sol\":408:420  users[owner] */\n  0x00\n    /* \"contracts/TokenContract.sol\":414:419  owner */\n  0x00\n  0x00\n  swap1\n  sload\n  swap1\n  0x0100\n  exp\n  swap1\n  div\n  0xffffffffffffffffffffffffffffffffffffffff\n  and\n    /* \"contracts/TokenContract.sol\":408:420  users[owner] */\n  0xffffffffffffffffffffffffffffffffffffffff\n  and\n  0xffffffffffffffffffffffffffffffffffffffff\n  and\n  dup2\n  mstore\n  0x20\n  add\n  swap1\n  dup2\n  mstore\n  0x20\n  add\n  0x00\n  keccak256\n    /* \"contracts/TokenContract.sol\":408:427  users[owner].tokens */\n  0x01\n  add\n    /* \"contracts/TokenContract.sol\":408:433  users[owner].tokens = 100 */\n  dup2\n  swap1\n  sstore\n  pop\n    /* \"contracts/TokenContract.sol\":63:1339  contract TokenContract {... */\n  dataSize(sub_0)\n  dup1\n  dataOffset(sub_0)\n  0x00\n  codecopy\n  0x00\n  return\nstop\n\nsub_0: assembly {\n        /* \"contracts/TokenContract.sol\":63:1339  contract TokenContract {... */\n      mstore(0x40, 0x80)\n      jumpi(tag_1, lt(calldatasize, 0x04))\n      shr(0xe0, calldataload(0x00))\n      dup1\n      0x8da5cb5b\n      gt\n      tag_10\n      jumpi\n      dup1\n      0x8da5cb5b\n      eq\n      tag_6\n      jumpi\n      dup1\n      0xa87430ba\n      eq\n      tag_7\n      jumpi\n      dup1\n      0xeee97206\n      eq\n      tag_8\n      jumpi\n      dup1\n      0xf2c298be\n      eq\n      tag_9\n      jumpi\n      jump(tag_1)\n    tag_10:\n      dup1\n      0x193f974c\n      eq\n      tag_2\n      jumpi\n      dup1\n      0x1ec7e345\n      eq\n      tag_3\n      jumpi\n      dup1\n      0x1f64f1e3\n      eq\n      tag_4\n      jumpi\n      dup1\n      0x739e6dd0\n      eq\n      tag_5\n      jumpi\n    tag_1:\n      revert(0x00, 0x00)\n        /* \"contracts/TokenContract.sol\":637:848  function giveToken(address _receiver, uint256 _amount) onlyOwner public{... */\n    tag_2:\n      callvalue\n      dup1\n      iszero\n      tag_11\n      jumpi\n      revert(0x00, 0x00)\n    tag_11:\n      pop\n      tag_12\n      0x04\n      dup1\n      calldatasize\n      sub\n      dup2\n      add\n      swap1\n      tag_13\n      swap2\n      swap1\n      tag_14\n      jump\t// in\n    tag_13:\n      tag_15\n      jump\t// in\n    tag_12:\n      stop\n        /* \"contracts/TokenContract.sol\":119:146  uint8 public tokenValue = 5 */\n    tag_3:\n      callvalue\n      dup1\n      iszero\n      tag_16\n      jumpi\n      revert(0x00, 0x00)\n    tag_16:\n      pop\n      tag_17\n      tag_18\n      jump\t// in\n    tag_17:\n      mload(0x40)\n      tag_19\n      swap2\n      swap1\n      tag_20\n      jump\t// in\n    tag_19:\n      mload(0x40)\n      dup1\n      swap2\n      sub\n      swap1\n      return\n        /* \"contracts/TokenContract.sol\":854:951  function updateTokenPrice(uint8 _ammount) onlyOwner public {... */\n    tag_4:\n      callvalue\n      dup1\n      iszero\n      tag_21\n      jumpi\n      revert(0x00, 0x00)\n    tag_21:\n      pop\n      tag_22\n      0x04\n      dup1\n      calldatasize\n      sub\n      dup2\n      add\n      swap1\n      tag_23\n      swap2\n      swap1\n      tag_24\n      jump\t// in\n    tag_23:\n      tag_25\n      jump\t// in\n    tag_22:\n      stop\n        /* \"contracts/TokenContract.sol\":957:1337  function buyToken(uint128 _tokens) public payable {... */\n    tag_5:\n      tag_26\n      0x04\n      dup1\n      calldatasize\n      sub\n      dup2\n      add\n      swap1\n      tag_27\n      swap2\n      swap1\n      tag_28\n      jump\t// in\n    tag_27:\n      tag_29\n      jump\t// in\n    tag_26:\n      stop\n        /* \"contracts/TokenContract.sol\":93:113  address public owner */\n    tag_6:\n      callvalue\n      dup1\n      iszero\n      tag_30\n      jumpi\n      revert(0x00, 0x00)\n    tag_30:\n      pop\n      tag_31\n      tag_32\n      jump\t// in\n    tag_31:\n      mload(0x40)\n      tag_33\n      swap2\n      swap1\n      tag_34\n      jump\t// in\n    tag_33:\n      mload(0x40)\n      dup1\n      swap2\n      sub\n      swap1\n      return\n        /* \"contracts/TokenContract.sol\":226:268  mapping(address => Receivers) public users */\n    tag_7:\n      callvalue\n      dup1\n      iszero\n      tag_35\n      jumpi\n      revert(0x00, 0x00)\n    tag_35:\n      pop\n      tag_36\n      0x04\n      dup1\n      calldatasize\n      sub\n      dup2\n      add\n      swap1\n      tag_37\n      swap2\n      swap1\n      tag_38\n      jump\t// in\n    tag_37:\n      tag_39\n      jump\t// in\n    tag_36:\n      mload(0x40)\n      tag_40\n      swap3\n      swap2\n      swap1\n      tag_41\n      jump\t// in\n    tag_40:\n      mload(0x40)\n      dup1\n      swap2\n      sub\n      swap1\n      return\n        /* \"contracts/TokenContract.sol\":446:533  function double(uint _value) public pure returns (uint){... */\n    tag_8:\n      callvalue\n      dup1\n      iszero\n      tag_42\n      jumpi\n      revert(0x00, 0x00)\n    tag_42:\n      pop\n      tag_43\n      0x04\n      dup1\n      calldatasize\n      sub\n      dup2\n      add\n      swap1\n      tag_44\n      swap2\n      swap1\n      tag_45\n      jump\t// in\n    tag_44:\n      tag_46\n      jump\t// in\n    tag_43:\n      mload(0x40)\n      tag_47\n      swap2\n      swap1\n      tag_48\n      jump\t// in\n    tag_47:\n      mload(0x40)\n      dup1\n      swap2\n      sub\n      swap1\n      return\n        /* \"contracts/TokenContract.sol\":539:631  function register(string memory _name) public{... */\n    tag_9:\n      callvalue\n      dup1\n      iszero\n      tag_49\n      jumpi\n      revert(0x00, 0x00)\n    tag_49:\n      pop\n      tag_50\n      0x04\n      dup1\n      calldatasize\n      sub\n      dup2\n      add\n      swap1\n      tag_51\n      swap2\n      swap1\n      tag_52\n      jump\t// in\n    tag_51:\n      tag_53\n      jump\t// in\n    tag_50:\n      stop\n        /* \"contracts/TokenContract.sol\":637:848  function giveToken(address _receiver, uint256 _amount) onlyOwner public{... */\n    tag_15:\n        /* \"contracts/TokenContract.sol\":327:332  owner */\n      0x00\n      0x00\n      swap1\n      sload\n      swap1\n      0x0100\n      exp\n      swap1\n      div\n      0xffffffffffffffffffffffffffffffffffffffff\n      and\n        /* \"contracts/TokenContract.sol\":313:332  msg.sender == owner */\n      0xffffffffffffffffffffffffffffffffffffffff\n      and\n        /* \"contracts/TokenContract.sol\":313:323  msg.sender */\n      caller\n        /* \"contracts/TokenContract.sol\":313:332  msg.sender == owner */\n      0xffffffffffffffffffffffffffffffffffffffff\n      and\n      eq\n        /* \"contracts/TokenContract.sol\":305:333  require(msg.sender == owner) */\n      tag_55\n      jumpi\n      revert(0x00, 0x00)\n    tag_55:\n        /* \"contracts/TokenContract.sol\":749:756  _amount */\n      dup1\n        /* \"contracts/TokenContract.sol\":726:731  users */\n      0x01\n        /* \"contracts/TokenContract.sol\":726:738  users[owner] */\n      0x00\n        /* \"contracts/TokenContract.sol\":732:737  owner */\n      0x00\n      0x00\n      swap1\n      sload\n      swap1\n      0x0100\n      exp\n      swap1\n      div\n      0xffffffffffffffffffffffffffffffffffffffff\n      and\n        /* \"contracts/TokenContract.sol\":726:738  users[owner] */\n      0xffffffffffffffffffffffffffffffffffffffff\n      and\n      0xffffffffffffffffffffffffffffffffffffffff\n      and\n      dup2\n      mstore\n      0x20\n      add\n      swap1\n      dup2\n      mstore\n      0x20\n      add\n      0x00\n      keccak256\n        /* \"contracts/TokenContract.sol\":726:745  users[owner].tokens */\n      0x01\n      add\n      sload\n        /* \"contracts/TokenContract.sol\":726:756  users[owner].tokens >= _amount */\n      lt\n      iszero\n        /* \"contracts/TokenContract.sol\":718:757  require(users[owner].tokens >= _amount) */\n      tag_57\n      jumpi\n      revert(0x00, 0x00)\n    tag_57:\n        /* \"contracts/TokenContract.sol\":790:797  _amount */\n      dup1\n        /* \"contracts/TokenContract.sol\":767:772  users */\n      0x01\n        /* \"contracts/TokenContract.sol\":767:779  users[owner] */\n      0x00\n        /* \"contracts/TokenContract.sol\":773:778  owner */\n      0x00\n      0x00\n      swap1\n      sload\n      swap1\n      0x0100\n      exp\n      swap1\n      div\n      0xffffffffffffffffffffffffffffffffffffffff\n      and\n        /* \"contracts/TokenContract.sol\":767:779  users[owner] */\n      0xffffffffffffffffffffffffffffffffffffffff\n      and\n      0xffffffffffffffffffffffffffffffffffffffff\n      and\n      dup2\n      mstore\n      0x20\n      add\n      swap1\n      dup2\n      mstore\n      0x20\n      add\n      0x00\n      keccak256\n        /* \"contracts/TokenContract.sol\":767:786  users[owner].tokens */\n      0x01\n      add\n      0x00\n        /* \"contracts/TokenContract.sol\":767:797  users[owner].tokens -= _amount */\n      dup3\n      dup3\n      sload\n      tag_58\n      swap2\n      swap1\n      tag_59\n      jump\t// in\n    tag_58:\n      swap3\n      pop\n      pop\n      dup2\n      swap1\n      sstore\n      pop\n        /* \"contracts/TokenContract.sol\":834:841  _amount */\n      dup1\n        /* \"contracts/TokenContract.sol\":807:812  users */\n      0x01\n        /* \"contracts/TokenContract.sol\":807:823  users[_receiver] */\n      0x00\n        /* \"contracts/TokenContract.sol\":813:822  _receiver */\n      dup5\n        /* \"contracts/TokenContract.sol\":807:823  users[_receiver] */\n      0xffffffffffffffffffffffffffffffffffffffff\n      and\n      0xffffffffffffffffffffffffffffffffffffffff\n      and\n      dup2\n      mstore\n      0x20\n      add\n      swap1\n      dup2\n      mstore\n      0x20\n      add\n      0x00\n      keccak256\n        /* \"contracts/TokenContract.sol\":807:830  users[_receiver].tokens */\n      0x01\n      add\n      0x00\n        /* \"contracts/TokenContract.sol\":807:841  users[_receiver].tokens += _amount */\n      dup3\n      dup3\n      sload\n      tag_60\n      swap2\n      swap1\n      tag_61\n      jump\t// in\n    tag_60:\n      swap3\n      pop\n      pop\n      dup2\n      swap1\n      sstore\n      pop\n        /* \"contracts/TokenContract.sol\":637:848  function giveToken(address _receiver, uint256 _amount) onlyOwner public{... */\n      pop\n      pop\n      jump\t// out\n        /* \"contracts/TokenContract.sol\":119:146  uint8 public tokenValue = 5 */\n    tag_18:\n      0x00\n      0x14\n      swap1\n      sload\n      swap1\n      0x0100\n      exp\n      swap1\n      div\n      0xff\n      and\n      dup2\n      jump\t// out\n        /* \"contracts/TokenContract.sol\":854:951  function updateTokenPrice(uint8 _ammount) onlyOwner public {... */\n    tag_25:\n        /* \"contracts/TokenContract.sol\":327:332  owner */\n      0x00\n      0x00\n      swap1\n      sload\n      swap1\n      0x0100\n      exp\n      swap1\n      div\n      0xffffffffffffffffffffffffffffffffffffffff\n      and\n        /* \"contracts/TokenContract.sol\":313:332  msg.sender == owner */\n      0xffffffffffffffffffffffffffffffffffffffff\n      and\n        /* \"contracts/TokenContract.sol\":313:323  msg.sender */\n      caller\n        /* \"contracts/TokenContract.sol\":313:332  msg.sender == owner */\n      0xffffffffffffffffffffffffffffffffffffffff\n      and\n      eq\n        /* \"contracts/TokenContract.sol\":305:333  require(msg.sender == owner) */\n      tag_63\n      jumpi\n      revert(0x00, 0x00)\n    tag_63:\n        /* \"contracts/TokenContract.sol\":936:944  _ammount */\n      dup1\n        /* \"contracts/TokenContract.sol\":923:933  tokenValue */\n      0x00\n      0x14\n        /* \"contracts/TokenContract.sol\":923:944  tokenValue = _ammount */\n      0x0100\n      exp\n      dup2\n      sload\n      dup2\n      0xff\n      mul\n      not\n      and\n      swap1\n      dup4\n      0xff\n      and\n      mul\n      or\n      swap1\n      sstore\n      pop\n        /* \"contracts/TokenContract.sol\":854:951  function updateTokenPrice(uint8 _ammount) onlyOwner public {... */\n      pop\n      jump\t// out\n        /* \"contracts/TokenContract.sol\":957:1337  function buyToken(uint128 _tokens) public payable {... */\n    tag_29:\n        /* \"contracts/TokenContract.sol\":1017:1029  uint256 cost */\n      0x00\n        /* \"contracts/TokenContract.sol\":1042:1052  tokenValue */\n      0x00\n      0x14\n      swap1\n      sload\n      swap1\n      0x0100\n      exp\n      swap1\n      div\n      0xff\n      and\n        /* \"contracts/TokenContract.sol\":1032:1052  _tokens * tokenValue */\n      0xff\n      and\n        /* \"contracts/TokenContract.sol\":1032:1039  _tokens */\n      dup3\n        /* \"contracts/TokenContract.sol\":1032:1052  _tokens * tokenValue */\n      tag_66\n      swap2\n      swap1\n      tag_67\n      jump\t// in\n    tag_66:\n        /* \"contracts/TokenContract.sol\":1017:1052  uint256 cost = _tokens * tokenValue */\n      0xffffffffffffffffffffffffffffffff\n      and\n      swap1\n      pop\n        /* \"contracts/TokenContract.sol\":1084:1088  cost */\n      dup1\n        /* \"contracts/TokenContract.sol\":1071:1080  msg.value */\n      callvalue\n        /* \"contracts/TokenContract.sol\":1071:1088  msg.value >= cost */\n      lt\n      iszero\n        /* \"contracts/TokenContract.sol\":1063:1113  require(msg.value >= cost, \"Fondos insuficientes\") */\n      tag_68\n      jumpi\n      mload(0x40)\n      0x08c379a000000000000000000000000000000000000000000000000000000000\n      dup2\n      mstore\n      0x04\n      add\n      tag_69\n      swap1\n      tag_70\n      jump\t// in\n    tag_69:\n      mload(0x40)\n      dup1\n      swap2\n      sub\n      swap1\n      revert\n    tag_68:\n        /* \"contracts/TokenContract.sol\":1151:1158  _tokens */\n      dup2\n        /* \"contracts/TokenContract.sol\":1123:1158  users[msg.sender].tokens += _tokens */\n      0xffffffffffffffffffffffffffffffff\n      and\n        /* \"contracts/TokenContract.sol\":1123:1128  users */\n      0x01\n        /* \"contracts/TokenContract.sol\":1123:1140  users[msg.sender] */\n      0x00\n        /* \"contracts/TokenContract.sol\":1129:1139  msg.sender */\n      caller\n        /* \"contracts/TokenContract.sol\":1123:1140  users[msg.sender] */\n      0xffffffffffffffffffffffffffffffffffffffff\n      and\n      0xffffffffffffffffffffffffffffffffffffffff\n      and\n      dup2\n      mstore\n      0x20\n      add\n      swap1\n      dup2\n      mstore\n      0x20\n      add\n      0x00\n      keccak256\n        /* \"contracts/TokenContract.sol\":1123:1147  users[msg.sender].tokens */\n      0x01\n      add\n      0x00\n        /* \"contracts/TokenContract.sol\":1123:1158  users[msg.sender].tokens += _tokens */\n      dup3\n      dup3\n      sload\n      tag_71\n      swap2\n      swap1\n      tag_61\n      jump\t// in\n    tag_71:\n      swap3\n      pop\n      pop\n      dup2\n      swap1\n      sstore\n      pop\n        /* \"contracts/TokenContract.sol\":1185:1189  cost */\n      dup1\n        /* \"contracts/TokenContract.sol\":1173:1182  msg.value */\n      callvalue\n        /* \"contracts/TokenContract.sol\":1173:1189  msg.value > cost */\n      gt\n        /* \"contracts/TokenContract.sol\":1169:1321  if (msg.value > cost) {... */\n      iszero\n      tag_72\n      jumpi\n        /* \"contracts/TokenContract.sol\":1213:1223  msg.sender */\n      caller\n        /* \"contracts/TokenContract.sol\":1205:1233  payable(msg.sender).transfer */\n      0xffffffffffffffffffffffffffffffffffffffff\n      and\n        /* \"contracts/TokenContract.sol\":1205:1251  payable(msg.sender).transfer(msg.value - cost) */\n      0x08fc\n        /* \"contracts/TokenContract.sol\":1246:1250  cost */\n      dup3\n        /* \"contracts/TokenContract.sol\":1234:1243  msg.value */\n      callvalue\n        /* \"contracts/TokenContract.sol\":1234:1250  msg.value - cost */\n      tag_73\n      swap2\n      swap1\n      tag_59\n      jump\t// in\n    tag_73:\n        /* \"contracts/TokenContract.sol\":1205:1251  payable(msg.sender).transfer(msg.value - cost) */\n      swap1\n      dup2\n      iszero\n      mul\n      swap1\n      mload(0x40)\n      0x00\n      mload(0x40)\n      dup1\n      dup4\n      sub\n      dup2\n      dup6\n      dup9\n      dup9\n      call\n      swap4\n      pop\n      pop\n      pop\n      pop\n      iszero\n      dup1\n      iszero\n      tag_75\n      jumpi\n      returndatacopy(0x00, 0x00, returndatasize)\n      revert(0x00, returndatasize)\n    tag_75:\n      pop\n        /* \"contracts/TokenContract.sol\":1169:1321  if (msg.value > cost) {... */\n      jump(tag_76)\n    tag_72:\n        /* \"contracts/TokenContract.sol\":1289:1294  owner */\n      0x00\n      0x00\n      swap1\n      sload\n      swap1\n      0x0100\n      exp\n      swap1\n      div\n      0xffffffffffffffffffffffffffffffffffffffff\n      and\n        /* \"contracts/TokenContract.sol\":1281:1304  payable(owner).transfer */\n      0xffffffffffffffffffffffffffffffffffffffff\n      and\n        /* \"contracts/TokenContract.sol\":1281:1310  payable(owner).transfer(cost) */\n      0x08fc\n        /* \"contracts/TokenContract.sol\":1305:1309  cost */\n      dup3\n        /* \"contracts/TokenContract.sol\":1281:1310  payable(owner).transfer(cost) */\n      swap1\n      dup2\n      iszero\n      mul\n      swap1\n      mload(0x40)\n      0x00\n      mload(0x40)\n      dup1\n      dup4\n      sub\n      dup2\n      dup6\n      dup9\n      dup9\n      call\n      swap4\n      pop\n      pop\n      pop\n      pop\n      iszero\n      dup1\n      iszero\n      tag_78\n      jumpi\n      returndatacopy(0x00, 0x00, returndatasize)\n      revert(0x00, returndatasize)\n    tag_78:\n      pop\n        /* \"contracts/TokenContract.sol\":1169:1321  if (msg.value > cost) {... */\n    tag_76:\n        /* \"contracts/TokenContract.sol\":1007:1337  {... */\n      pop\n        /* \"contracts/TokenContract.sol\":957:1337  function buyToken(uint128 _tokens) public payable {... */\n      pop\n      jump\t// out\n        /* \"contracts/TokenContract.sol\":93:113  address public owner */\n    tag_32:\n      0x00\n      0x00\n      swap1\n      sload\n      swap1\n      0x0100\n      exp\n      swap1\n      div\n      0xffffffffffffffffffffffffffffffffffffffff\n      and\n      dup2\n      jump\t// out\n        /* \"contracts/TokenContract.sol\":226:268  mapping(address => Receivers) public users */\n    tag_39:\n      mstore(0x20, 0x01)\n      dup1\n      0x00\n      mstore\n      keccak256(0x00, 0x40)\n      0x00\n      swap2\n      pop\n      swap1\n      pop\n      dup1\n      0x00\n      add\n      dup1\n      sload\n      tag_79\n      swap1\n      tag_80\n      jump\t// in\n    tag_79:\n      dup1\n      0x1f\n      add\n      0x20\n      dup1\n      swap2\n      div\n      mul\n      0x20\n      add\n      mload(0x40)\n      swap1\n      dup2\n      add\n      0x40\n      mstore\n      dup1\n      swap3\n      swap2\n      swap1\n      dup2\n      dup2\n      mstore\n      0x20\n      add\n      dup3\n      dup1\n      sload\n      tag_81\n      swap1\n      tag_80\n      jump\t// in\n    tag_81:\n      dup1\n      iszero\n      tag_82\n      jumpi\n      dup1\n      0x1f\n      lt\n      tag_83\n      jumpi\n      0x0100\n      dup1\n      dup4\n      sload\n      div\n      mul\n      dup4\n      mstore\n      swap2\n      0x20\n      add\n      swap2\n      jump(tag_82)\n    tag_83:\n      dup3\n      add\n      swap2\n      swap1\n      0x00\n      mstore\n      keccak256(0x00, 0x20)\n      swap1\n    tag_84:\n      dup2\n      sload\n      dup2\n      mstore\n      swap1\n      0x01\n      add\n      swap1\n      0x20\n      add\n      dup1\n      dup4\n      gt\n      tag_84\n      jumpi\n      dup3\n      swap1\n      sub\n      0x1f\n      and\n      dup3\n      add\n      swap2\n    tag_82:\n      pop\n      pop\n      pop\n      pop\n      pop\n      swap1\n      dup1\n      0x01\n      add\n      sload\n      swap1\n      pop\n      dup3\n      jump\t// out\n        /* \"contracts/TokenContract.sol\":446:533  function double(uint _value) public pure returns (uint){... */\n    tag_46:\n        /* \"contracts/TokenContract.sol\":496:500  uint */\n      0x00\n        /* \"contracts/TokenContract.sol\":525:526  2 */\n      0x02\n        /* \"contracts/TokenContract.sol\":518:524  _value */\n      dup3\n        /* \"contracts/TokenContract.sol\":518:526  _value*2 */\n      tag_86\n      swap2\n      swap1\n      tag_87\n      jump\t// in\n    tag_86:\n        /* \"contracts/TokenContract.sol\":511:526  return _value*2 */\n      swap1\n      pop\n        /* \"contracts/TokenContract.sol\":446:533  function double(uint _value) public pure returns (uint){... */\n      swap2\n      swap1\n      pop\n      jump\t// out\n        /* \"contracts/TokenContract.sol\":539:631  function register(string memory _name) public{... */\n    tag_53:\n        /* \"contracts/TokenContract.sol\":619:624  _name */\n      dup1\n        /* \"contracts/TokenContract.sol\":594:599  users */\n      0x01\n        /* \"contracts/TokenContract.sol\":594:611  users[msg.sender] */\n      0x00\n        /* \"contracts/TokenContract.sol\":600:610  msg.sender */\n      caller\n        /* \"contracts/TokenContract.sol\":594:611  users[msg.sender] */\n      0xffffffffffffffffffffffffffffffffffffffff\n      and\n      0xffffffffffffffffffffffffffffffffffffffff\n      and\n      dup2\n      mstore\n      0x20\n      add\n      swap1\n      dup2\n      mstore\n      0x20\n      add\n      0x00\n      keccak256\n        /* \"contracts/TokenContract.sol\":594:616  users[msg.sender].name */\n      0x00\n      add\n        /* \"contracts/TokenContract.sol\":594:624  users[msg.sender].name = _name */\n      swap1\n      dup2\n      tag_89\n      swap2\n      swap1\n      tag_90\n      jump\t// in\n    tag_89:\n      pop\n        /* \"contracts/TokenContract.sol\":539:631  function register(string memory _name) public{... */\n      pop\n      jump\t// out\n        /* \"#utility.yul\":7:82   */\n    tag_91:\n        /* \"#utility.yul\":40:46   */\n      0x00\n        /* \"#utility.yul\":73:75   */\n      0x40\n        /* \"#utility.yul\":67:76   */\n      mload\n        /* \"#utility.yul\":57:76   */\n      swap1\n      pop\n        /* \"#utility.yul\":7:82   */\n      swap1\n      jump\t// out\n        /* \"#utility.yul\":88:205   */\n    tag_92:\n        /* \"#utility.yul\":197:198   */\n      0x00\n        /* \"#utility.yul\":194:195   */\n      0x00\n        /* \"#utility.yul\":187:199   */\n      revert\n        /* \"#utility.yul\":211:328   */\n    tag_93:\n        /* \"#utility.yul\":320:321   */\n      0x00\n        /* \"#utility.yul\":317:318   */\n      0x00\n        /* \"#utility.yul\":310:322   */\n      revert\n        /* \"#utility.yul\":334:460   */\n    tag_94:\n        /* \"#utility.yul\":371:378   */\n      0x00\n        /* \"#utility.yul\":411:453   */\n      0xffffffffffffffffffffffffffffffffffffffff\n        /* \"#utility.yul\":404:409   */\n      dup3\n        /* \"#utility.yul\":400:454   */\n      and\n        /* \"#utility.yul\":389:454   */\n      swap1\n      pop\n        /* \"#utility.yul\":334:460   */\n      swap2\n      swap1\n      pop\n      jump\t// out\n        /* \"#utility.yul\":466:562   */\n    tag_95:\n        /* \"#utility.yul\":503:510   */\n      0x00\n        /* \"#utility.yul\":532:556   */\n      tag_149\n        /* \"#utility.yul\":550:555   */\n      dup3\n        /* \"#utility.yul\":532:556   */\n      tag_94\n      jump\t// in\n    tag_149:\n        /* \"#utility.yul\":521:556   */\n      swap1\n      pop\n        /* \"#utility.yul\":466:562   */\n      swap2\n      swap1\n      pop\n      jump\t// out\n        /* \"#utility.yul\":568:690   */\n    tag_96:\n        /* \"#utility.yul\":641:665   */\n      tag_151\n        /* \"#utility.yul\":659:664   */\n      dup2\n        /* \"#utility.yul\":641:665   */\n      tag_95\n      jump\t// in\n    tag_151:\n        /* \"#utility.yul\":634:639   */\n      dup2\n        /* \"#utility.yul\":631:666   */\n      eq\n        /* \"#utility.yul\":621:684   */\n      tag_152\n      jumpi\n        /* \"#utility.yul\":680:681   */\n      0x00\n        /* \"#utility.yul\":677:678   */\n      0x00\n        /* \"#utility.yul\":670:682   */\n      revert\n        /* \"#utility.yul\":621:684   */\n    tag_152:\n        /* \"#utility.yul\":568:690   */\n      pop\n      jump\t// out\n        /* \"#utility.yul\":696:835   */\n    tag_97:\n        /* \"#utility.yul\":742:747   */\n      0x00\n        /* \"#utility.yul\":780:786   */\n      dup2\n        /* \"#utility.yul\":767:787   */\n      calldataload\n        /* \"#utility.yul\":758:787   */\n      swap1\n      pop\n        /* \"#utility.yul\":796:829   */\n      tag_154\n        /* \"#utility.yul\":823:828   */\n      dup2\n        /* \"#utility.yul\":796:829   */\n      tag_96\n      jump\t// in\n    tag_154:\n        /* \"#utility.yul\":696:835   */\n      swap3\n      swap2\n      pop\n      pop\n      jump\t// out\n        /* \"#utility.yul\":841:918   */\n    tag_98:\n        /* \"#utility.yul\":878:885   */\n      0x00\n        /* \"#utility.yul\":907:912   */\n      dup2\n        /* \"#utility.yul\":896:912   */\n      swap1\n      pop\n        /* \"#utility.yul\":841:918   */\n      swap2\n      swap1\n      pop\n      jump\t// out\n        /* \"#utility.yul\":924:1046   */\n    tag_99:\n        /* \"#utility.yul\":997:1021   */\n      tag_157\n        /* \"#utility.yul\":1015:1020   */\n      dup2\n        /* \"#utility.yul\":997:1021   */\n      tag_98\n      jump\t// in\n    tag_157:\n        /* \"#utility.yul\":990:995   */\n      dup2\n        /* \"#utility.yul\":987:1022   */\n      eq\n        /* \"#utility.yul\":977:1040   */\n      tag_158\n      jumpi\n        /* \"#utility.yul\":1036:1037   */\n      0x00\n        /* \"#utility.yul\":1033:1034   */\n      0x00\n        /* \"#utility.yul\":1026:1038   */\n      revert\n        /* \"#utility.yul\":977:1040   */\n    tag_158:\n        /* \"#utility.yul\":924:1046   */\n      pop\n      jump\t// out\n        /* \"#utility.yul\":1052:1191   */\n    tag_100:\n        /* \"#utility.yul\":1098:1103   */\n      0x00\n        /* \"#utility.yul\":1136:1142   */\n      dup2\n        /* \"#utility.yul\":1123:1143   */\n      calldataload\n        /* \"#utility.yul\":1114:1143   */\n      swap1\n      pop\n        /* \"#utility.yul\":1152:1185   */\n      tag_160\n        /* \"#utility.yul\":1179:1184   */\n      dup2\n        /* \"#utility.yul\":1152:1185   */\n      tag_99\n      jump\t// in\n    tag_160:\n        /* \"#utility.yul\":1052:1191   */\n      swap3\n      swap2\n      pop\n      pop\n      jump\t// out\n        /* \"#utility.yul\":1197:1671   */\n    tag_14:\n        /* \"#utility.yul\":1265:1271   */\n      0x00\n        /* \"#utility.yul\":1273:1279   */\n      0x00\n        /* \"#utility.yul\":1322:1324   */\n      0x40\n        /* \"#utility.yul\":1310:1319   */\n      dup4\n        /* \"#utility.yul\":1301:1308   */\n      dup6\n        /* \"#utility.yul\":1297:1320   */\n      sub\n        /* \"#utility.yul\":1293:1325   */\n      slt\n        /* \"#utility.yul\":1290:1409   */\n      iszero\n      tag_162\n      jumpi\n        /* \"#utility.yul\":1328:1407   */\n      tag_163\n      tag_92\n      jump\t// in\n    tag_163:\n        /* \"#utility.yul\":1290:1409   */\n    tag_162:\n        /* \"#utility.yul\":1448:1449   */\n      0x00\n        /* \"#utility.yul\":1473:1526   */\n      tag_164\n        /* \"#utility.yul\":1518:1525   */\n      dup6\n        /* \"#utility.yul\":1509:1515   */\n      dup3\n        /* \"#utility.yul\":1498:1507   */\n      dup7\n        /* \"#utility.yul\":1494:1516   */\n      add\n        /* \"#utility.yul\":1473:1526   */\n      tag_97\n      jump\t// in\n    tag_164:\n        /* \"#utility.yul\":1463:1526   */\n      swap3\n      pop\n        /* \"#utility.yul\":1419:1536   */\n      pop\n        /* \"#utility.yul\":1575:1577   */\n      0x20\n        /* \"#utility.yul\":1601:1654   */\n      tag_165\n        /* \"#utility.yul\":1646:1653   */\n      dup6\n        /* \"#utility.yul\":1637:1643   */\n      dup3\n        /* \"#utility.yul\":1626:1635   */\n      dup7\n        /* \"#utility.yul\":1622:1644   */\n      add\n        /* \"#utility.yul\":1601:1654   */\n      tag_100\n      jump\t// in\n    tag_165:\n        /* \"#utility.yul\":1591:1654   */\n      swap2\n      pop\n        /* \"#utility.yul\":1546:1664   */\n      pop\n        /* \"#utility.yul\":1197:1671   */\n      swap3\n      pop\n      swap3\n      swap1\n      pop\n      jump\t// out\n        /* \"#utility.yul\":1677:1763   */\n    tag_101:\n        /* \"#utility.yul\":1712:1719   */\n      0x00\n        /* \"#utility.yul\":1752:1756   */\n      0xff\n        /* \"#utility.yul\":1745:1750   */\n      dup3\n        /* \"#utility.yul\":1741:1757   */\n      and\n        /* \"#utility.yul\":1730:1757   */\n      swap1\n      pop\n        /* \"#utility.yul\":1677:1763   */\n      swap2\n      swap1\n      pop\n      jump\t// out\n        /* \"#utility.yul\":1769:1881   */\n    tag_102:\n        /* \"#utility.yul\":1852:1874   */\n      tag_168\n        /* \"#utility.yul\":1868:1873   */\n      dup2\n        /* \"#utility.yul\":1852:1874   */\n      tag_101\n      jump\t// in\n    tag_168:\n        /* \"#utility.yul\":1847:1850   */\n      dup3\n        /* \"#utility.yul\":1840:1875   */\n      mstore\n        /* \"#utility.yul\":1769:1881   */\n      pop\n      pop\n      jump\t// out\n        /* \"#utility.yul\":1887:2101   */\n    tag_20:\n        /* \"#utility.yul\":1976:1980   */\n      0x00\n        /* \"#utility.yul\":2014:2016   */\n      0x20\n        /* \"#utility.yul\":2003:2012   */\n      dup3\n        /* \"#utility.yul\":1999:2017   */\n      add\n        /* \"#utility.yul\":1991:2017   */\n      swap1\n      pop\n        /* \"#utility.yul\":2027:2094   */\n      tag_170\n        /* \"#utility.yul\":2091:2092   */\n      0x00\n        /* \"#utility.yul\":2080:2089   */\n      dup4\n        /* \"#utility.yul\":2076:2093   */\n      add\n        /* \"#utility.yul\":2067:2073   */\n      dup5\n        /* \"#utility.yul\":2027:2094   */\n      tag_102\n      jump\t// in\n    tag_170:\n        /* \"#utility.yul\":1887:2101   */\n      swap3\n      swap2\n      pop\n      pop\n      jump\t// out\n        /* \"#utility.yul\":2107:2225   */\n    tag_103:\n        /* \"#utility.yul\":2178:2200   */\n      tag_172\n        /* \"#utility.yul\":2194:2199   */\n      dup2\n        /* \"#utility.yul\":2178:2200   */\n      tag_101\n      jump\t// in\n    tag_172:\n        /* \"#utility.yul\":2171:2176   */\n      dup2\n        /* \"#utility.yul\":2168:2201   */\n      eq\n        /* \"#utility.yul\":2158:2219   */\n      tag_173\n      jumpi\n        /* \"#utility.yul\":2215:2216   */\n      0x00\n        /* \"#utility.yul\":2212:2213   */\n      0x00\n        /* \"#utility.yul\":2205:2217   */\n      revert\n        /* \"#utility.yul\":2158:2219   */\n    tag_173:\n        /* \"#utility.yul\":2107:2225   */\n      pop\n      jump\t// out\n        /* \"#utility.yul\":2231:2366   */\n    tag_104:\n        /* \"#utility.yul\":2275:2280   */\n      0x00\n        /* \"#utility.yul\":2313:2319   */\n      dup2\n        /* \"#utility.yul\":2300:2320   */\n      calldataload\n        /* \"#utility.yul\":2291:2320   */\n      swap1\n      pop\n        /* \"#utility.yul\":2329:2360   */\n      tag_175\n        /* \"#utility.yul\":2354:2359   */\n      dup2\n        /* \"#utility.yul\":2329:2360   */\n      tag_103\n      jump\t// in\n    tag_175:\n        /* \"#utility.yul\":2231:2366   */\n      swap3\n      swap2\n      pop\n      pop\n      jump\t// out\n        /* \"#utility.yul\":2372:2697   */\n    tag_24:\n        /* \"#utility.yul\":2429:2435   */\n      0x00\n        /* \"#utility.yul\":2478:2480   */\n      0x20\n        /* \"#utility.yul\":2466:2475   */\n      dup3\n        /* \"#utility.yul\":2457:2464   */\n      dup5\n        /* \"#utility.yul\":2453:2476   */\n      sub\n        /* \"#utility.yul\":2449:2481   */\n      slt\n        /* \"#utility.yul\":2446:2565   */\n      iszero\n      tag_177\n      jumpi\n        /* \"#utility.yul\":2484:2563   */\n      tag_178\n      tag_92\n      jump\t// in\n    tag_178:\n        /* \"#utility.yul\":2446:2565   */\n    tag_177:\n        /* \"#utility.yul\":2604:2605   */\n      0x00\n        /* \"#utility.yul\":2629:2680   */\n      tag_179\n        /* \"#utility.yul\":2672:2679   */\n      dup5\n        /* \"#utility.yul\":2663:2669   */\n      dup3\n        /* \"#utility.yul\":2652:2661   */\n      dup6\n        /* \"#utility.yul\":2648:2670   */\n      add\n        /* \"#utility.yul\":2629:2680   */\n      tag_104\n      jump\t// in\n    tag_179:\n        /* \"#utility.yul\":2619:2680   */\n      swap2\n      pop\n        /* \"#utility.yul\":2575:2690   */\n      pop\n        /* \"#utility.yul\":2372:2697   */\n      swap3\n      swap2\n      pop\n      pop\n      jump\t// out\n        /* \"#utility.yul\":2703:2821   */\n    tag_105:\n        /* \"#utility.yul\":2740:2747   */\n      0x00\n        /* \"#utility.yul\":2780:2814   */\n      0xffffffffffffffffffffffffffffffff\n        /* \"#utility.yul\":2773:2778   */\n      dup3\n        /* \"#utility.yul\":2769:2815   */\n      and\n        /* \"#utility.yul\":2758:2815   */\n      swap1\n      pop\n        /* \"#utility.yul\":2703:2821   */\n      swap2\n      swap1\n      pop\n      jump\t// out\n        /* \"#utility.yul\":2827:2949   */\n    tag_106:\n        /* \"#utility.yul\":2900:2924   */\n      tag_182\n        /* \"#utility.yul\":2918:2923   */\n      dup2\n        /* \"#utility.yul\":2900:2924   */\n      tag_105\n      jump\t// in\n    tag_182:\n        /* \"#utility.yul\":2893:2898   */\n      dup2\n        /* \"#utility.yul\":2890:2925   */\n      eq\n        /* \"#utility.yul\":2880:2943   */\n      tag_183\n      jumpi\n        /* \"#utility.yul\":2939:2940   */\n      0x00\n        /* \"#utility.yul\":2936:2937   */\n      0x00\n        /* \"#utility.yul\":2929:2941   */\n      revert\n        /* \"#utility.yul\":2880:2943   */\n    tag_183:\n        /* \"#utility.yul\":2827:2949   */\n      pop\n      jump\t// out\n        /* \"#utility.yul\":2955:3094   */\n    tag_107:\n        /* \"#utility.yul\":3001:3006   */\n      0x00\n        /* \"#utility.yul\":3039:3045   */\n      dup2\n        /* \"#utility.yul\":3026:3046   */\n      calldataload\n        /* \"#utility.yul\":3017:3046   */\n      swap1\n      pop\n        /* \"#utility.yul\":3055:3088   */\n      tag_185\n        /* \"#utility.yul\":3082:3087   */\n      dup2\n        /* \"#utility.yul\":3055:3088   */\n      tag_106\n      jump\t// in\n    tag_185:\n        /* \"#utility.yul\":2955:3094   */\n      swap3\n      swap2\n      pop\n      pop\n      jump\t// out\n        /* \"#utility.yul\":3100:3429   */\n    tag_28:\n        /* \"#utility.yul\":3159:3165   */\n      0x00\n        /* \"#utility.yul\":3208:3210   */\n      0x20\n        /* \"#utility.yul\":3196:3205   */\n      dup3\n        /* \"#utility.yul\":3187:3194   */\n      dup5\n        /* \"#utility.yul\":3183:3206   */\n      sub\n        /* \"#utility.yul\":3179:3211   */\n      slt\n        /* \"#utility.yul\":3176:3295   */\n      iszero\n      tag_187\n      jumpi\n        /* \"#utility.yul\":3214:3293   */\n      tag_188\n      tag_92\n      jump\t// in\n    tag_188:\n        /* \"#utility.yul\":3176:3295   */\n    tag_187:\n        /* \"#utility.yul\":3334:3335   */\n      0x00\n        /* \"#utility.yul\":3359:3412   */\n      tag_189\n        /* \"#utility.yul\":3404:3411   */\n      dup5\n        /* \"#utility.yul\":3395:3401   */\n      dup3\n        /* \"#utility.yul\":3384:3393   */\n      dup6\n        /* \"#utility.yul\":3380:3402   */\n      add\n        /* \"#utility.yul\":3359:3412   */\n      tag_107\n      jump\t// in\n    tag_189:\n        /* \"#utility.yul\":3349:3412   */\n      swap2\n      pop\n        /* \"#utility.yul\":3305:3422   */\n      pop\n        /* \"#utility.yul\":3100:3429   */\n      swap3\n      swap2\n      pop\n      pop\n      jump\t// out\n        /* \"#utility.yul\":3435:3553   */\n    tag_108:\n        /* \"#utility.yul\":3522:3546   */\n      tag_191\n        /* \"#utility.yul\":3540:3545   */\n      dup2\n        /* \"#utility.yul\":3522:3546   */\n      tag_95\n      jump\t// in\n    tag_191:\n        /* \"#utility.yul\":3517:3520   */\n      dup3\n        /* \"#utility.yul\":3510:3547   */\n      mstore\n        /* \"#utility.yul\":3435:3553   */\n      pop\n      pop\n      jump\t// out\n        /* \"#utility.yul\":3559:3781   */\n    tag_34:\n        /* \"#utility.yul\":3652:3656   */\n      0x00\n        /* \"#utility.yul\":3690:3692   */\n      0x20\n        /* \"#utility.yul\":3679:3688   */\n      dup3\n        /* \"#utility.yul\":3675:3693   */\n      add\n        /* \"#utility.yul\":3667:3693   */\n      swap1\n      pop\n        /* \"#utility.yul\":3703:3774   */\n      tag_193\n        /* \"#utility.yul\":3771:3772   */\n      0x00\n        /* \"#utility.yul\":3760:3769   */\n      dup4\n        /* \"#utility.yul\":3756:3773   */\n      add\n        /* \"#utility.yul\":3747:3753   */\n      dup5\n        /* \"#utility.yul\":3703:3774   */\n      tag_108\n      jump\t// in\n    tag_193:\n        /* \"#utility.yul\":3559:3781   */\n      swap3\n      swap2\n      pop\n      pop\n      jump\t// out\n        /* \"#utility.yul\":3787:4116   */\n    tag_38:\n        /* \"#utility.yul\":3846:3852   */\n      0x00\n        /* \"#utility.yul\":3895:3897   */\n      0x20\n        /* \"#utility.yul\":3883:3892   */\n      dup3\n        /* \"#utility.yul\":3874:3881   */\n      dup5\n        /* \"#utility.yul\":3870:3893   */\n      sub\n        /* \"#utility.yul\":3866:3898   */\n      slt\n        /* \"#utility.yul\":3863:3982   */\n      iszero\n      tag_195\n      jumpi\n        /* \"#utility.yul\":3901:3980   */\n      tag_196\n      tag_92\n      jump\t// in\n    tag_196:\n        /* \"#utility.yul\":3863:3982   */\n    tag_195:\n        /* \"#utility.yul\":4021:4022   */\n      0x00\n        /* \"#utility.yul\":4046:4099   */\n      tag_197\n        /* \"#utility.yul\":4091:4098   */\n      dup5\n        /* \"#utility.yul\":4082:4088   */\n      dup3\n        /* \"#utility.yul\":4071:4080   */\n      dup6\n        /* \"#utility.yul\":4067:4089   */\n      add\n        /* \"#utility.yul\":4046:4099   */\n      tag_97\n      jump\t// in\n    tag_197:\n        /* \"#utility.yul\":4036:4099   */\n      swap2\n      pop\n        /* \"#utility.yul\":3992:4109   */\n      pop\n        /* \"#utility.yul\":3787:4116   */\n      swap3\n      swap2\n      pop\n      pop\n      jump\t// out\n        /* \"#utility.yul\":4122:4221   */\n    tag_109:\n        /* \"#utility.yul\":4174:4180   */\n      0x00\n        /* \"#utility.yul\":4208:4213   */\n      dup2\n        /* \"#utility.yul\":4202:4214   */\n      mload\n        /* \"#utility.yul\":4192:4214   */\n      swap1\n      pop\n        /* \"#utility.yul\":4122:4221   */\n      swap2\n      swap1\n      pop\n      jump\t// out\n        /* \"#utility.yul\":4227:4396   */\n    tag_110:\n        /* \"#utility.yul\":4311:4322   */\n      0x00\n        /* \"#utility.yul\":4345:4351   */\n      dup3\n        /* \"#utility.yul\":4340:4343   */\n      dup3\n        /* \"#utility.yul\":4333:4352   */\n      mstore\n        /* \"#utility.yul\":4385:4389   */\n      0x20\n        /* \"#utility.yul\":4380:4383   */\n      dup3\n        /* \"#utility.yul\":4376:4390   */\n      add\n        /* \"#utility.yul\":4361:4390   */\n      swap1\n      pop\n        /* \"#utility.yul\":4227:4396   */\n      swap3\n      swap2\n      pop\n      pop\n      jump\t// out\n        /* \"#utility.yul\":4402:4541   */\n    tag_111:\n        /* \"#utility.yul\":4491:4497   */\n      dup3\n        /* \"#utility.yul\":4486:4489   */\n      dup2\n        /* \"#utility.yul\":4481:4484   */\n      dup4\n        /* \"#utility.yul\":4475:4498   */\n      mcopy\n        /* \"#utility.yul\":4532:4533   */\n      0x00\n        /* \"#utility.yul\":4523:4529   */\n      dup4\n        /* \"#utility.yul\":4518:4521   */\n      dup4\n        /* \"#utility.yul\":4514:4530   */\n      add\n        /* \"#utility.yul\":4507:4534   */\n      mstore\n        /* \"#utility.yul\":4402:4541   */\n      pop\n      pop\n      pop\n      jump\t// out\n        /* \"#utility.yul\":4547:4649   */\n    tag_112:\n        /* \"#utility.yul\":4588:4594   */\n      0x00\n        /* \"#utility.yul\":4639:4641   */\n      0x1f\n        /* \"#utility.yul\":4635:4642   */\n      not\n        /* \"#utility.yul\":4630:4632   */\n      0x1f\n        /* \"#utility.yul\":4623:4628   */\n      dup4\n        /* \"#utility.yul\":4619:4633   */\n      add\n        /* \"#utility.yul\":4615:4643   */\n      and\n        /* \"#utility.yul\":4605:4643   */\n      swap1\n      pop\n        /* \"#utility.yul\":4547:4649   */\n      swap2\n      swap1\n      pop\n      jump\t// out\n        /* \"#utility.yul\":4655:5032   */\n    tag_113:\n        /* \"#utility.yul\":4743:4746   */\n      0x00\n        /* \"#utility.yul\":4771:4810   */\n      tag_203\n        /* \"#utility.yul\":4804:4809   */\n      dup3\n        /* \"#utility.yul\":4771:4810   */\n      tag_109\n      jump\t// in\n    tag_203:\n        /* \"#utility.yul\":4826:4897   */\n      tag_204\n        /* \"#utility.yul\":4890:4896   */\n      dup2\n        /* \"#utility.yul\":4885:4888   */\n      dup6\n        /* \"#utility.yul\":4826:4897   */\n      tag_110\n      jump\t// in\n    tag_204:\n        /* \"#utility.yul\":4819:4897   */\n      swap4\n      pop\n        /* \"#utility.yul\":4906:4971   */\n      tag_205\n        /* \"#utility.yul\":4964:4970   */\n      dup2\n        /* \"#utility.yul\":4959:4962   */\n      dup6\n        /* \"#utility.yul\":4952:4956   */\n      0x20\n        /* \"#utility.yul\":4945:4950   */\n      dup7\n        /* \"#utility.yul\":4941:4957   */\n      add\n        /* \"#utility.yul\":4906:4971   */\n      tag_111\n      jump\t// in\n    tag_205:\n        /* \"#utility.yul\":4996:5025   */\n      tag_206\n        /* \"#utility.yul\":5018:5024   */\n      dup2\n        /* \"#utility.yul\":4996:5025   */\n      tag_112\n      jump\t// in\n    tag_206:\n        /* \"#utility.yul\":4991:4994   */\n      dup5\n        /* \"#utility.yul\":4987:5026   */\n      add\n        /* \"#utility.yul\":4980:5026   */\n      swap2\n      pop\n        /* \"#utility.yul\":4747:5032   */\n      pop\n        /* \"#utility.yul\":4655:5032   */\n      swap3\n      swap2\n      pop\n      pop\n      jump\t// out\n        /* \"#utility.yul\":5038:5156   */\n    tag_114:\n        /* \"#utility.yul\":5125:5149   */\n      tag_208\n        /* \"#utility.yul\":5143:5148   */\n      dup2\n        /* \"#utility.yul\":5125:5149   */\n      tag_98\n      jump\t// in\n    tag_208:\n        /* \"#utility.yul\":5120:5123   */\n      dup3\n        /* \"#utility.yul\":5113:5150   */\n      mstore\n        /* \"#utility.yul\":5038:5156   */\n      pop\n      pop\n      jump\t// out\n        /* \"#utility.yul\":5162:5585   */\n    tag_41:\n        /* \"#utility.yul\":5303:5307   */\n      0x00\n        /* \"#utility.yul\":5341:5343   */\n      0x40\n        /* \"#utility.yul\":5330:5339   */\n      dup3\n        /* \"#utility.yul\":5326:5344   */\n      add\n        /* \"#utility.yul\":5318:5344   */\n      swap1\n      pop\n        /* \"#utility.yul\":5390:5399   */\n      dup2\n        /* \"#utility.yul\":5384:5388   */\n      dup2\n        /* \"#utility.yul\":5380:5400   */\n      sub\n        /* \"#utility.yul\":5376:5377   */\n      0x00\n        /* \"#utility.yul\":5365:5374   */\n      dup4\n        /* \"#utility.yul\":5361:5378   */\n      add\n        /* \"#utility.yul\":5354:5401   */\n      mstore\n        /* \"#utility.yul\":5418:5496   */\n      tag_210\n        /* \"#utility.yul\":5491:5495   */\n      dup2\n        /* \"#utility.yul\":5482:5488   */\n      dup6\n        /* \"#utility.yul\":5418:5496   */\n      tag_113\n      jump\t// in\n    tag_210:\n        /* \"#utility.yul\":5410:5496   */\n      swap1\n      pop\n        /* \"#utility.yul\":5506:5578   */\n      tag_211\n        /* \"#utility.yul\":5574:5576   */\n      0x20\n        /* \"#utility.yul\":5563:5572   */\n      dup4\n        /* \"#utility.yul\":5559:5577   */\n      add\n        /* \"#utility.yul\":5550:5556   */\n      dup5\n        /* \"#utility.yul\":5506:5578   */\n      tag_114\n      jump\t// in\n    tag_211:\n        /* \"#utility.yul\":5162:5585   */\n      swap4\n      swap3\n      pop\n      pop\n      pop\n      jump\t// out\n        /* \"#utility.yul\":5591:5920   */\n    tag_45:\n        /* \"#utility.yul\":5650:5656   */\n      0x00\n        /* \"#utility.yul\":5699:5701   */\n      0x20\n        /* \"#utility.yul\":5687:5696   */\n      dup3\n        /* \"#utility.yul\":5678:5685   */\n      dup5\n        /* \"#utility.yul\":5674:5697   */\n      sub\n        /* \"#utility.yul\":5670:5702   */\n      slt\n        /* \"#utility.yul\":5667:5786   */\n      iszero\n      tag_213\n      jumpi\n        /* \"#utility.yul\":5705:5784   */\n      tag_214\n      tag_92\n      jump\t// in\n    tag_214:\n        /* \"#utility.yul\":5667:5786   */\n    tag_213:\n        /* \"#utility.yul\":5825:5826   */\n      0x00\n        /* \"#utility.yul\":5850:5903   */\n      tag_215\n        /* \"#utility.yul\":5895:5902   */\n      dup5\n        /* \"#utility.yul\":5886:5892   */\n      dup3\n        /* \"#utility.yul\":5875:5884   */\n      dup6\n        /* \"#utility.yul\":5871:5893   */\n      add\n        /* \"#utility.yul\":5850:5903   */\n      tag_100\n      jump\t// in\n    tag_215:\n        /* \"#utility.yul\":5840:5903   */\n      swap2\n      pop\n        /* \"#utility.yul\":5796:5913   */\n      pop\n        /* \"#utility.yul\":5591:5920   */\n      swap3\n      swap2\n      pop\n      pop\n      jump\t// out\n        /* \"#utility.yul\":5926:6148   */\n    tag_48:\n        /* \"#utility.yul\":6019:6023   */\n      0x00\n        /* \"#utility.yul\":6057:6059   */\n      0x20\n        /* \"#utility.yul\":6046:6055   */\n      dup3\n        /* \"#utility.yul\":6042:6060   */\n      add\n        /* \"#utility.yul\":6034:6060   */\n      swap1\n      pop\n        /* \"#utility.yul\":6070:6141   */\n      tag_217\n        /* \"#utility.yul\":6138:6139   */\n      0x00\n        /* \"#utility.yul\":6127:6136   */\n      dup4\n        /* \"#utility.yul\":6123:6140   */\n      add\n        /* \"#utility.yul\":6114:6120   */\n      dup5\n        /* \"#utility.yul\":6070:6141   */\n      tag_114\n      jump\t// in\n    tag_217:\n        /* \"#utility.yul\":5926:6148   */\n      swap3\n      swap2\n      pop\n      pop\n      jump\t// out\n        /* \"#utility.yul\":6154:6271   */\n    tag_115:\n        /* \"#utility.yul\":6263:6264   */\n      0x00\n        /* \"#utility.yul\":6260:6261   */\n      0x00\n        /* \"#utility.yul\":6253:6265   */\n      revert\n        /* \"#utility.yul\":6277:6394   */\n    tag_116:\n        /* \"#utility.yul\":6386:6387   */\n      0x00\n        /* \"#utility.yul\":6383:6384   */\n      0x00\n        /* \"#utility.yul\":6376:6388   */\n      revert\n        /* \"#utility.yul\":6400:6580   */\n    tag_117:\n        /* \"#utility.yul\":6448:6525   */\n      0x4e487b7100000000000000000000000000000000000000000000000000000000\n        /* \"#utility.yul\":6445:6446   */\n      0x00\n        /* \"#utility.yul\":6438:6526   */\n      mstore\n        /* \"#utility.yul\":6545:6549   */\n      0x41\n        /* \"#utility.yul\":6542:6543   */\n      0x04\n        /* \"#utility.yul\":6535:6550   */\n      mstore\n        /* \"#utility.yul\":6569:6573   */\n      0x24\n        /* \"#utility.yul\":6566:6567   */\n      0x00\n        /* \"#utility.yul\":6559:6574   */\n      revert\n        /* \"#utility.yul\":6586:6867   */\n    tag_118:\n        /* \"#utility.yul\":6669:6696   */\n      tag_222\n        /* \"#utility.yul\":6691:6695   */\n      dup3\n        /* \"#utility.yul\":6669:6696   */\n      tag_112\n      jump\t// in\n    tag_222:\n        /* \"#utility.yul\":6661:6667   */\n      dup2\n        /* \"#utility.yul\":6657:6697   */\n      add\n        /* \"#utility.yul\":6799:6805   */\n      dup2\n        /* \"#utility.yul\":6787:6797   */\n      dup2\n        /* \"#utility.yul\":6784:6806   */\n      lt\n        /* \"#utility.yul\":6763:6781   */\n      0xffffffffffffffff\n        /* \"#utility.yul\":6751:6761   */\n      dup3\n        /* \"#utility.yul\":6748:6782   */\n      gt\n        /* \"#utility.yul\":6745:6807   */\n      or\n        /* \"#utility.yul\":6742:6830   */\n      iszero\n      tag_223\n      jumpi\n        /* \"#utility.yul\":6810:6828   */\n      tag_224\n      tag_117\n      jump\t// in\n    tag_224:\n        /* \"#utility.yul\":6742:6830   */\n    tag_223:\n        /* \"#utility.yul\":6850:6860   */\n      dup1\n        /* \"#utility.yul\":6846:6848   */\n      0x40\n        /* \"#utility.yul\":6839:6861   */\n      mstore\n        /* \"#utility.yul\":6629:6867   */\n      pop\n        /* \"#utility.yul\":6586:6867   */\n      pop\n      pop\n      jump\t// out\n        /* \"#utility.yul\":6873:7002   */\n    tag_119:\n        /* \"#utility.yul\":6907:6913   */\n      0x00\n        /* \"#utility.yul\":6934:6954   */\n      tag_226\n      tag_91\n      jump\t// in\n    tag_226:\n        /* \"#utility.yul\":6924:6954   */\n      swap1\n      pop\n        /* \"#utility.yul\":6963:6996   */\n      tag_227\n        /* \"#utility.yul\":6991:6995   */\n      dup3\n        /* \"#utility.yul\":6983:6989   */\n      dup3\n        /* \"#utility.yul\":6963:6996   */\n      tag_118\n      jump\t// in\n    tag_227:\n        /* \"#utility.yul\":6873:7002   */\n      swap2\n      swap1\n      pop\n      jump\t// out\n        /* \"#utility.yul\":7008:7316   */\n    tag_120:\n        /* \"#utility.yul\":7070:7074   */\n      0x00\n        /* \"#utility.yul\":7160:7178   */\n      0xffffffffffffffff\n        /* \"#utility.yul\":7152:7158   */\n      dup3\n        /* \"#utility.yul\":7149:7179   */\n      gt\n        /* \"#utility.yul\":7146:7202   */\n      iszero\n      tag_229\n      jumpi\n        /* \"#utility.yul\":7182:7200   */\n      tag_230\n      tag_117\n      jump\t// in\n    tag_230:\n        /* \"#utility.yul\":7146:7202   */\n    tag_229:\n        /* \"#utility.yul\":7220:7249   */\n      tag_231\n        /* \"#utility.yul\":7242:7248   */\n      dup3\n        /* \"#utility.yul\":7220:7249   */\n      tag_112\n      jump\t// in\n    tag_231:\n        /* \"#utility.yul\":7212:7249   */\n      swap1\n      pop\n        /* \"#utility.yul\":7304:7308   */\n      0x20\n        /* \"#utility.yul\":7298:7302   */\n      dup2\n        /* \"#utility.yul\":7294:7309   */\n      add\n        /* \"#utility.yul\":7286:7309   */\n      swap1\n      pop\n        /* \"#utility.yul\":7008:7316   */\n      swap2\n      swap1\n      pop\n      jump\t// out\n        /* \"#utility.yul\":7322:7470   */\n    tag_121:\n        /* \"#utility.yul\":7420:7426   */\n      dup3\n        /* \"#utility.yul\":7415:7418   */\n      dup2\n        /* \"#utility.yul\":7410:7413   */\n      dup4\n        /* \"#utility.yul\":7397:7427   */\n      calldatacopy\n        /* \"#utility.yul\":7461:7462   */\n      0x00\n        /* \"#utility.yul\":7452:7458   */\n      dup4\n        /* \"#utility.yul\":7447:7450   */\n      dup4\n        /* \"#utility.yul\":7443:7459   */\n      add\n        /* \"#utility.yul\":7436:7463   */\n      mstore\n        /* \"#utility.yul\":7322:7470   */\n      pop\n      pop\n      pop\n      jump\t// out\n        /* \"#utility.yul\":7476:7901   */\n    tag_122:\n        /* \"#utility.yul\":7554:7559   */\n      0x00\n        /* \"#utility.yul\":7579:7645   */\n      tag_234\n        /* \"#utility.yul\":7595:7644   */\n      tag_235\n        /* \"#utility.yul\":7637:7643   */\n      dup5\n        /* \"#utility.yul\":7595:7644   */\n      tag_120\n      jump\t// in\n    tag_235:\n        /* \"#utility.yul\":7579:7645   */\n      tag_119\n      jump\t// in\n    tag_234:\n        /* \"#utility.yul\":7570:7645   */\n      swap1\n      pop\n        /* \"#utility.yul\":7668:7674   */\n      dup3\n        /* \"#utility.yul\":7661:7666   */\n      dup2\n        /* \"#utility.yul\":7654:7675   */\n      mstore\n        /* \"#utility.yul\":7706:7710   */\n      0x20\n        /* \"#utility.yul\":7699:7704   */\n      dup2\n        /* \"#utility.yul\":7695:7711   */\n      add\n        /* \"#utility.yul\":7744:7747   */\n      dup5\n        /* \"#utility.yul\":7735:7741   */\n      dup5\n        /* \"#utility.yul\":7730:7733   */\n      dup5\n        /* \"#utility.yul\":7726:7742   */\n      add\n        /* \"#utility.yul\":7723:7748   */\n      gt\n        /* \"#utility.yul\":7720:7832   */\n      iszero\n      tag_236\n      jumpi\n        /* \"#utility.yul\":7751:7830   */\n      tag_237\n      tag_116\n      jump\t// in\n    tag_237:\n        /* \"#utility.yul\":7720:7832   */\n    tag_236:\n        /* \"#utility.yul\":7841:7895   */\n      tag_238\n        /* \"#utility.yul\":7888:7894   */\n      dup5\n        /* \"#utility.yul\":7883:7886   */\n      dup3\n        /* \"#utility.yul\":7878:7881   */\n      dup6\n        /* \"#utility.yul\":7841:7895   */\n      tag_121\n      jump\t// in\n    tag_238:\n        /* \"#utility.yul\":7560:7901   */\n      pop\n        /* \"#utility.yul\":7476:7901   */\n      swap4\n      swap3\n      pop\n      pop\n      pop\n      jump\t// out\n        /* \"#utility.yul\":7921:8261   */\n    tag_123:\n        /* \"#utility.yul\":7977:7982   */\n      0x00\n        /* \"#utility.yul\":8026:8029   */\n      dup3\n        /* \"#utility.yul\":8019:8023   */\n      0x1f\n        /* \"#utility.yul\":8011:8017   */\n      dup4\n        /* \"#utility.yul\":8007:8024   */\n      add\n        /* \"#utility.yul\":8003:8030   */\n      slt\n        /* \"#utility.yul\":7993:8115   */\n      tag_240\n      jumpi\n        /* \"#utility.yul\":8034:8113   */\n      tag_241\n      tag_115\n      jump\t// in\n    tag_241:\n        /* \"#utility.yul\":7993:8115   */\n    tag_240:\n        /* \"#utility.yul\":8151:8157   */\n      dup2\n        /* \"#utility.yul\":8138:8158   */\n      calldataload\n        /* \"#utility.yul\":8176:8255   */\n      tag_242\n        /* \"#utility.yul\":8251:8254   */\n      dup5\n        /* \"#utility.yul\":8243:8249   */\n      dup3\n        /* \"#utility.yul\":8236:8240   */\n      0x20\n        /* \"#utility.yul\":8228:8234   */\n      dup7\n        /* \"#utility.yul\":8224:8241   */\n      add\n        /* \"#utility.yul\":8176:8255   */\n      tag_122\n      jump\t// in\n    tag_242:\n        /* \"#utility.yul\":8167:8255   */\n      swap2\n      pop\n        /* \"#utility.yul\":7983:8261   */\n      pop\n        /* \"#utility.yul\":7921:8261   */\n      swap3\n      swap2\n      pop\n      pop\n      jump\t// out\n        /* \"#utility.yul\":8267:8776   */\n    tag_52:\n        /* \"#utility.yul\":8336:8342   */\n      0x00\n        /* \"#utility.yul\":8385:8387   */\n      0x20\n        /* \"#utility.yul\":8373:8382   */\n      dup3\n        /* \"#utility.yul\":8364:8371   */\n      dup5\n        /* \"#utility.yul\":8360:8383   */\n      sub\n        /* \"#utility.yul\":8356:8388   */\n      slt\n        /* \"#utility.yul\":8353:8472   */\n      iszero\n      tag_244\n      jumpi\n        /* \"#utility.yul\":8391:8470   */\n      tag_245\n      tag_92\n      jump\t// in\n    tag_245:\n        /* \"#utility.yul\":8353:8472   */\n    tag_244:\n        /* \"#utility.yul\":8539:8540   */\n      0x00\n        /* \"#utility.yul\":8528:8537   */\n      dup3\n        /* \"#utility.yul\":8524:8541   */\n      add\n        /* \"#utility.yul\":8511:8542   */\n      calldataload\n        /* \"#utility.yul\":8569:8587   */\n      0xffffffffffffffff\n        /* \"#utility.yul\":8561:8567   */\n      dup2\n        /* \"#utility.yul\":8558:8588   */\n      gt\n        /* \"#utility.yul\":8555:8672   */\n      iszero\n      tag_246\n      jumpi\n        /* \"#utility.yul\":8591:8670   */\n      tag_247\n      tag_93\n      jump\t// in\n    tag_247:\n        /* \"#utility.yul\":8555:8672   */\n    tag_246:\n        /* \"#utility.yul\":8696:8759   */\n      tag_248\n        /* \"#utility.yul\":8751:8758   */\n      dup5\n        /* \"#utility.yul\":8742:8748   */\n      dup3\n        /* \"#utility.yul\":8731:8740   */\n      dup6\n        /* \"#utility.yul\":8727:8749   */\n      add\n        /* \"#utility.yul\":8696:8759   */\n      tag_123\n      jump\t// in\n    tag_248:\n        /* \"#utility.yul\":8686:8759   */\n      swap2\n      pop\n        /* \"#utility.yul\":8482:8769   */\n      pop\n        /* \"#utility.yul\":8267:8776   */\n      swap3\n      swap2\n      pop\n      pop\n      jump\t// out\n        /* \"#utility.yul\":8782:8962   */\n    tag_124:\n        /* \"#utility.yul\":8830:8907   */\n      0x4e487b7100000000000000000000000000000000000000000000000000000000\n        /* \"#utility.yul\":8827:8828   */\n      0x00\n        /* \"#utility.yul\":8820:8908   */\n      mstore\n        /* \"#utility.yul\":8927:8931   */\n      0x11\n        /* \"#utility.yul\":8924:8925   */\n      0x04\n        /* \"#utility.yul\":8917:8932   */\n      mstore\n        /* \"#utility.yul\":8951:8955   */\n      0x24\n        /* \"#utility.yul\":8948:8949   */\n      0x00\n        /* \"#utility.yul\":8941:8956   */\n      revert\n        /* \"#utility.yul\":8968:9162   */\n    tag_59:\n        /* \"#utility.yul\":9008:9012   */\n      0x00\n        /* \"#utility.yul\":9028:9048   */\n      tag_251\n        /* \"#utility.yul\":9046:9047   */\n      dup3\n        /* \"#utility.yul\":9028:9048   */\n      tag_98\n      jump\t// in\n    tag_251:\n        /* \"#utility.yul\":9023:9048   */\n      swap2\n      pop\n        /* \"#utility.yul\":9062:9082   */\n      tag_252\n        /* \"#utility.yul\":9080:9081   */\n      dup4\n        /* \"#utility.yul\":9062:9082   */\n      tag_98\n      jump\t// in\n    tag_252:\n        /* \"#utility.yul\":9057:9082   */\n      swap3\n      pop\n        /* \"#utility.yul\":9106:9107   */\n      dup3\n        /* \"#utility.yul\":9103:9104   */\n      dup3\n        /* \"#utility.yul\":9099:9108   */\n      sub\n        /* \"#utility.yul\":9091:9108   */\n      swap1\n      pop\n        /* \"#utility.yul\":9130:9131   */\n      dup2\n        /* \"#utility.yul\":9124:9128   */\n      dup2\n        /* \"#utility.yul\":9121:9132   */\n      gt\n        /* \"#utility.yul\":9118:9155   */\n      iszero\n      tag_253\n      jumpi\n        /* \"#utility.yul\":9135:9153   */\n      tag_254\n      tag_124\n      jump\t// in\n    tag_254:\n        /* \"#utility.yul\":9118:9155   */\n    tag_253:\n        /* \"#utility.yul\":8968:9162   */\n      swap3\n      swap2\n      pop\n      pop\n      jump\t// out\n        /* \"#utility.yul\":9168:9359   */\n    tag_61:\n        /* \"#utility.yul\":9208:9211   */\n      0x00\n        /* \"#utility.yul\":9227:9247   */\n      tag_256\n        /* \"#utility.yul\":9245:9246   */\n      dup3\n        /* \"#utility.yul\":9227:9247   */\n      tag_98\n      jump\t// in\n    tag_256:\n        /* \"#utility.yul\":9222:9247   */\n      swap2\n      pop\n        /* \"#utility.yul\":9261:9281   */\n      tag_257\n        /* \"#utility.yul\":9279:9280   */\n      dup4\n        /* \"#utility.yul\":9261:9281   */\n      tag_98\n      jump\t// in\n    tag_257:\n        /* \"#utility.yul\":9256:9281   */\n      swap3\n      pop\n        /* \"#utility.yul\":9304:9305   */\n      dup3\n        /* \"#utility.yul\":9301:9302   */\n      dup3\n        /* \"#utility.yul\":9297:9306   */\n      add\n        /* \"#utility.yul\":9290:9306   */\n      swap1\n      pop\n        /* \"#utility.yul\":9325:9328   */\n      dup1\n        /* \"#utility.yul\":9322:9323   */\n      dup3\n        /* \"#utility.yul\":9319:9329   */\n      gt\n        /* \"#utility.yul\":9316:9352   */\n      iszero\n      tag_258\n      jumpi\n        /* \"#utility.yul\":9332:9350   */\n      tag_259\n      tag_124\n      jump\t// in\n    tag_259:\n        /* \"#utility.yul\":9316:9352   */\n    tag_258:\n        /* \"#utility.yul\":9168:9359   */\n      swap3\n      swap2\n      pop\n      pop\n      jump\t// out\n        /* \"#utility.yul\":9365:9644   */\n    tag_67:\n        /* \"#utility.yul\":9405:9412   */\n      0x00\n        /* \"#utility.yul\":9428:9448   */\n      tag_261\n        /* \"#utility.yul\":9446:9447   */\n      dup3\n        /* \"#utility.yul\":9428:9448   */\n      tag_105\n      jump\t// in\n    tag_261:\n        /* \"#utility.yul\":9423:9448   */\n      swap2\n      pop\n        /* \"#utility.yul\":9462:9482   */\n      tag_262\n        /* \"#utility.yul\":9480:9481   */\n      dup4\n        /* \"#utility.yul\":9462:9482   */\n      tag_105\n      jump\t// in\n    tag_262:\n        /* \"#utility.yul\":9457:9482   */\n      swap3\n      pop\n        /* \"#utility.yul\":9517:9518   */\n      dup3\n        /* \"#utility.yul\":9514:9515   */\n      dup3\n        /* \"#utility.yul\":9510:9519   */\n      mul\n        /* \"#utility.yul\":9539:9569   */\n      tag_263\n        /* \"#utility.yul\":9557:9568   */\n      dup2\n        /* \"#utility.yul\":9539:9569   */\n      tag_105\n      jump\t// in\n    tag_263:\n        /* \"#utility.yul\":9528:9569   */\n      swap2\n      pop\n        /* \"#utility.yul\":9601:9612   */\n      dup1\n        /* \"#utility.yul\":9592:9599   */\n      dup3\n        /* \"#utility.yul\":9589:9613   */\n      eq\n        /* \"#utility.yul\":9579:9637   */\n      tag_264\n      jumpi\n        /* \"#utility.yul\":9617:9635   */\n      tag_265\n      tag_124\n      jump\t// in\n    tag_265:\n        /* \"#utility.yul\":9579:9637   */\n    tag_264:\n        /* \"#utility.yul\":9413:9644   */\n      pop\n        /* \"#utility.yul\":9365:9644   */\n      swap3\n      swap2\n      pop\n      pop\n      jump\t// out\n        /* \"#utility.yul\":9650:9820   */\n    tag_125:\n        /* \"#utility.yul\":9790:9812   */\n      0x466f6e646f7320696e737566696369656e746573000000000000000000000000\n        /* \"#utility.yul\":9786:9787   */\n      0x00\n        /* \"#utility.yul\":9778:9784   */\n      dup3\n        /* \"#utility.yul\":9774:9788   */\n      add\n        /* \"#utility.yul\":9767:9813   */\n      mstore\n        /* \"#utility.yul\":9650:9820   */\n      pop\n      jump\t// out\n        /* \"#utility.yul\":9826:10192   */\n    tag_126:\n        /* \"#utility.yul\":9968:9971   */\n      0x00\n        /* \"#utility.yul\":9989:10056   */\n      tag_268\n        /* \"#utility.yul\":10053:10055   */\n      0x14\n        /* \"#utility.yul\":10048:10051   */\n      dup4\n        /* \"#utility.yul\":9989:10056   */\n      tag_110\n      jump\t// in\n    tag_268:\n        /* \"#utility.yul\":9982:10056   */\n      swap2\n      pop\n        /* \"#utility.yul\":10065:10158   */\n      tag_269\n        /* \"#utility.yul\":10154:10157   */\n      dup3\n        /* \"#utility.yul\":10065:10158   */\n      tag_125\n      jump\t// in\n    tag_269:\n        /* \"#utility.yul\":10183:10185   */\n      0x20\n        /* \"#utility.yul\":10178:10181   */\n      dup3\n        /* \"#utility.yul\":10174:10186   */\n      add\n        /* \"#utility.yul\":10167:10186   */\n      swap1\n      pop\n        /* \"#utility.yul\":9826:10192   */\n      swap2\n      swap1\n      pop\n      jump\t// out\n        /* \"#utility.yul\":10198:10617   */\n    tag_70:\n        /* \"#utility.yul\":10364:10368   */\n      0x00\n        /* \"#utility.yul\":10402:10404   */\n      0x20\n        /* \"#utility.yul\":10391:10400   */\n      dup3\n        /* \"#utility.yul\":10387:10405   */\n      add\n        /* \"#utility.yul\":10379:10405   */\n      swap1\n      pop\n        /* \"#utility.yul\":10451:10460   */\n      dup2\n        /* \"#utility.yul\":10445:10449   */\n      dup2\n        /* \"#utility.yul\":10441:10461   */\n      sub\n        /* \"#utility.yul\":10437:10438   */\n      0x00\n        /* \"#utility.yul\":10426:10435   */\n      dup4\n        /* \"#utility.yul\":10422:10439   */\n      add\n        /* \"#utility.yul\":10415:10462   */\n      mstore\n        /* \"#utility.yul\":10479:10610   */\n      tag_271\n        /* \"#utility.yul\":10605:10609   */\n      dup2\n        /* \"#utility.yul\":10479:10610   */\n      tag_126\n      jump\t// in\n    tag_271:\n        /* \"#utility.yul\":10471:10610   */\n      swap1\n      pop\n        /* \"#utility.yul\":10198:10617   */\n      swap2\n      swap1\n      pop\n      jump\t// out\n        /* \"#utility.yul\":10623:10803   */\n    tag_127:\n        /* \"#utility.yul\":10671:10748   */\n      0x4e487b7100000000000000000000000000000000000000000000000000000000\n        /* \"#utility.yul\":10668:10669   */\n      0x00\n        /* \"#utility.yul\":10661:10749   */\n      mstore\n        /* \"#utility.yul\":10768:10772   */\n      0x22\n        /* \"#utility.yul\":10765:10766   */\n      0x04\n        /* \"#utility.yul\":10758:10773   */\n      mstore\n        /* \"#utility.yul\":10792:10796   */\n      0x24\n        /* \"#utility.yul\":10789:10790   */\n      0x00\n        /* \"#utility.yul\":10782:10797   */\n      revert\n        /* \"#utility.yul\":10809:11129   */\n    tag_80:\n        /* \"#utility.yul\":10853:10859   */\n      0x00\n        /* \"#utility.yul\":10890:10891   */\n      0x02\n        /* \"#utility.yul\":10884:10888   */\n      dup3\n        /* \"#utility.yul\":10880:10892   */\n      div\n        /* \"#utility.yul\":10870:10892   */\n      swap1\n      pop\n        /* \"#utility.yul\":10937:10938   */\n      0x01\n        /* \"#utility.yul\":10931:10935   */\n      dup3\n        /* \"#utility.yul\":10927:10939   */\n      and\n        /* \"#utility.yul\":10958:10976   */\n      dup1\n        /* \"#utility.yul\":10948:11029   */\n      tag_274\n      jumpi\n        /* \"#utility.yul\":11014:11018   */\n      0x7f\n        /* \"#utility.yul\":11006:11012   */\n      dup3\n        /* \"#utility.yul\":11002:11019   */\n      and\n        /* \"#utility.yul\":10992:11019   */\n      swap2\n      pop\n        /* \"#utility.yul\":10948:11029   */\n    tag_274:\n        /* \"#utility.yul\":11076:11078   */\n      0x20\n        /* \"#utility.yul\":11068:11074   */\n      dup3\n        /* \"#utility.yul\":11065:11079   */\n      lt\n        /* \"#utility.yul\":11045:11063   */\n      dup2\n        /* \"#utility.yul\":11042:11080   */\n      sub\n        /* \"#utility.yul\":11039:11123   */\n      tag_275\n      jumpi\n        /* \"#utility.yul\":11095:11113   */\n      tag_276\n      tag_127\n      jump\t// in\n    tag_276:\n        /* \"#utility.yul\":11039:11123   */\n    tag_275:\n        /* \"#utility.yul\":10860:11129   */\n      pop\n        /* \"#utility.yul\":10809:11129   */\n      swap2\n      swap1\n      pop\n      jump\t// out\n        /* \"#utility.yul\":11135:11545   */\n    tag_87:\n        /* \"#utility.yul\":11175:11182   */\n      0x00\n        /* \"#utility.yul\":11198:11218   */\n      tag_278\n        /* \"#utility.yul\":11216:11217   */\n      dup3\n        /* \"#utility.yul\":11198:11218   */\n      tag_98\n      jump\t// in\n    tag_278:\n        /* \"#utility.yul\":11193:11218   */\n      swap2\n      pop\n        /* \"#utility.yul\":11232:11252   */\n      tag_279\n        /* \"#utility.yul\":11250:11251   */\n      dup4\n        /* \"#utility.yul\":11232:11252   */\n      tag_98\n      jump\t// in\n    tag_279:\n        /* \"#utility.yul\":11227:11252   */\n      swap3\n      pop\n        /* \"#utility.yul\":11287:11288   */\n      dup3\n        /* \"#utility.yul\":11284:11285   */\n      dup3\n        /* \"#utility.yul\":11280:11289   */\n      mul\n        /* \"#utility.yul\":11309:11339   */\n      tag_280\n        /* \"#utility.yul\":11327:11338   */\n      dup2\n        /* \"#utility.yul\":11309:11339   */\n      tag_98\n      jump\t// in\n    tag_280:\n        /* \"#utility.yul\":11298:11339   */\n      swap2\n      pop\n        /* \"#utility.yul\":11488:11489   */\n      dup3\n        /* \"#utility.yul\":11479:11486   */\n      dup3\n        /* \"#utility.yul\":11475:11490   */\n      div\n        /* \"#utility.yul\":11472:11473   */\n      dup5\n        /* \"#utility.yul\":11469:11491   */\n      eq\n        /* \"#utility.yul\":11449:11450   */\n      dup4\n        /* \"#utility.yul\":11442:11451   */\n      iszero\n        /* \"#utility.yul\":11422:11505   */\n      or\n        /* \"#utility.yul\":11399:11538   */\n      tag_281\n      jumpi\n        /* \"#utility.yul\":11518:11536   */\n      tag_282\n      tag_124\n      jump\t// in\n    tag_282:\n        /* \"#utility.yul\":11399:11538   */\n    tag_281:\n        /* \"#utility.yul\":11183:11545   */\n      pop\n        /* \"#utility.yul\":11135:11545   */\n      swap3\n      swap2\n      pop\n      pop\n      jump\t// out\n        /* \"#utility.yul\":11551:11692   */\n    tag_128:\n        /* \"#utility.yul\":11600:11604   */\n      0x00\n        /* \"#utility.yul\":11623:11626   */\n      dup2\n        /* \"#utility.yul\":11615:11626   */\n      swap1\n      pop\n        /* \"#utility.yul\":11646:11649   */\n      dup2\n        /* \"#utility.yul\":11643:11644   */\n      0x00\n        /* \"#utility.yul\":11636:11650   */\n      mstore\n        /* \"#utility.yul\":11680:11684   */\n      0x20\n        /* \"#utility.yul\":11677:11678   */\n      0x00\n        /* \"#utility.yul\":11667:11685   */\n      keccak256\n        /* \"#utility.yul\":11659:11685   */\n      swap1\n      pop\n        /* \"#utility.yul\":11551:11692   */\n      swap2\n      swap1\n      pop\n      jump\t// out\n        /* \"#utility.yul\":11698:11791   */\n    tag_129:\n        /* \"#utility.yul\":11735:11741   */\n      0x00\n        /* \"#utility.yul\":11782:11784   */\n      0x20\n        /* \"#utility.yul\":11777:11779   */\n      0x1f\n        /* \"#utility.yul\":11770:11775   */\n      dup4\n        /* \"#utility.yul\":11766:11780   */\n      add\n        /* \"#utility.yul\":11762:11785   */\n      div\n        /* \"#utility.yul\":11752:11785   */\n      swap1\n      pop\n        /* \"#utility.yul\":11698:11791   */\n      swap2\n      swap1\n      pop\n      jump\t// out\n        /* \"#utility.yul\":11797:11904   */\n    tag_130:\n        /* \"#utility.yul\":11841:11849   */\n      0x00\n        /* \"#utility.yul\":11891:11896   */\n      dup3\n        /* \"#utility.yul\":11885:11889   */\n      dup3\n        /* \"#utility.yul\":11881:11897   */\n      shl\n        /* \"#utility.yul\":11860:11897   */\n      swap1\n      pop\n        /* \"#utility.yul\":11797:11904   */\n      swap3\n      swap2\n      pop\n      pop\n      jump\t// out\n        /* \"#utility.yul\":11910:12303   */\n    tag_131:\n        /* \"#utility.yul\":11979:11985   */\n      0x00\n        /* \"#utility.yul\":12029:12030   */\n      0x08\n        /* \"#utility.yul\":12017:12027   */\n      dup4\n        /* \"#utility.yul\":12013:12031   */\n      mul\n        /* \"#utility.yul\":12052:12149   */\n      tag_287\n        /* \"#utility.yul\":12082:12148   */\n      0xffffffffffffffffffffffffffffffffffffffffffffffffffffffffffffffff\n        /* \"#utility.yul\":12071:12080   */\n      dup3\n        /* \"#utility.yul\":12052:12149   */\n      tag_130\n      jump\t// in\n    tag_287:\n        /* \"#utility.yul\":12170:12209   */\n      tag_288\n        /* \"#utility.yul\":12200:12208   */\n      dup7\n        /* \"#utility.yul\":12189:12198   */\n      dup4\n        /* \"#utility.yul\":12170:12209   */\n      tag_130\n      jump\t// in\n    tag_288:\n        /* \"#utility.yul\":12158:12209   */\n      swap6\n      pop\n        /* \"#utility.yul\":12242:12246   */\n      dup1\n        /* \"#utility.yul\":12238:12247   */\n      not\n        /* \"#utility.yul\":12231:12236   */\n      dup5\n        /* \"#utility.yul\":12227:12248   */\n      and\n        /* \"#utility.yul\":12218:12248   */\n      swap4\n      pop\n        /* \"#utility.yul\":12291:12295   */\n      dup1\n        /* \"#utility.yul\":12281:12289   */\n      dup7\n        /* \"#utility.yul\":12277:12296   */\n      and\n        /* \"#utility.yul\":12270:12275   */\n      dup5\n        /* \"#utility.yul\":12267:12297   */\n      or\n        /* \"#utility.yul\":12257:12297   */\n      swap3\n      pop\n        /* \"#utility.yul\":11986:12303   */\n      pop\n      pop\n        /* \"#utility.yul\":11910:12303   */\n      swap4\n      swap3\n      pop\n      pop\n      pop\n      jump\t// out\n        /* \"#utility.yul\":12309:12369   */\n    tag_132:\n        /* \"#utility.yul\":12337:12340   */\n      0x00\n        /* \"#utility.yul\":12358:12363   */\n      dup2\n        /* \"#utility.yul\":12351:12363   */\n      swap1\n      pop\n        /* \"#utility.yul\":12309:12369   */\n      swap2\n      swap1\n      pop\n      jump\t// out\n        /* \"#utility.yul\":12375:12517   */\n    tag_133:\n        /* \"#utility.yul\":12425:12434   */\n      0x00\n        /* \"#utility.yul\":12458:12511   */\n      tag_291\n        /* \"#utility.yul\":12476:12510   */\n      tag_292\n        /* \"#utility.yul\":12485:12509   */\n      tag_293\n        /* \"#utility.yul\":12503:12508   */\n      dup5\n        /* \"#utility.yul\":12485:12509   */\n      tag_98\n      jump\t// in\n    tag_293:\n        /* \"#utility.yul\":12476:12510   */\n      tag_132\n      jump\t// in\n    tag_292:\n        /* \"#utility.yul\":12458:12511   */\n      tag_98\n      jump\t// in\n    tag_291:\n        /* \"#utility.yul\":12445:12511   */\n      swap1\n      pop\n        /* \"#utility.yul\":12375:12517   */\n      swap2\n      swap1\n      pop\n      jump\t// out\n        /* \"#utility.yul\":12523:12598   */\n    tag_134:\n        /* \"#utility.yul\":12566:12569   */\n      0x00\n        /* \"#utility.yul\":12587:12592   */\n      dup2\n        /* \"#utility.yul\":12580:12592   */\n      swap1\n      pop\n        /* \"#utility.yul\":12523:12598   */\n      swap2\n      swap1\n      pop\n      jump\t// out\n        /* \"#utility.yul\":12604:12873   */\n    tag_135:\n        /* \"#utility.yul\":12714:12753   */\n      tag_296\n        /* \"#utility.yul\":12745:12752   */\n      dup4\n        /* \"#utility.yul\":12714:12753   */\n      tag_133\n      jump\t// in\n    tag_296:\n        /* \"#utility.yul\":12775:12866   */\n      tag_297\n        /* \"#utility.yul\":12824:12865   */\n      tag_298\n        /* \"#utility.yul\":12848:12864   */\n      dup3\n        /* \"#utility.yul\":12824:12865   */\n      tag_134\n      jump\t// in\n    tag_298:\n        /* \"#utility.yul\":12816:12822   */\n      dup5\n        /* \"#utility.yul\":12809:12813   */\n      dup5\n        /* \"#utility.yul\":12803:12814   */\n      sload\n        /* \"#utility.yul\":12775:12866   */\n      tag_131\n      jump\t// in\n    tag_297:\n        /* \"#utility.yul\":12769:12773   */\n      dup3\n        /* \"#utility.yul\":12762:12867   */\n      sstore\n        /* \"#utility.yul\":12680:12873   */\n      pop\n        /* \"#utility.yul\":12604:12873   */\n      pop\n      pop\n      pop\n      jump\t// out\n        /* \"#utility.yul\":12879:12952   */\n    tag_136:\n        /* \"#utility.yul\":12924:12927   */\n      0x00\n        /* \"#utility.yul\":12945:12946   */\n      0x00\n        /* \"#utility.yul\":12938:12946   */\n      swap1\n      pop\n        /* \"#utility.yul\":12879:12952   */\n      swap1\n      jump\t// out\n        /* \"#utility.yul\":12958:13147   */\n    tag_137:\n        /* \"#utility.yul\":13035:13067   */\n      tag_301\n      tag_136\n      jump\t// in\n    tag_301:\n        /* \"#utility.yul\":13076:13141   */\n      tag_302\n        /* \"#utility.yul\":13134:13140   */\n      dup2\n        /* \"#utility.yul\":13126:13132   */\n      dup5\n        /* \"#utility.yul\":13120:13124   */\n      dup5\n        /* \"#utility.yul\":13076:13141   */\n      tag_135\n      jump\t// in\n    tag_302:\n        /* \"#utility.yul\":13011:13147   */\n      pop\n        /* \"#utility.yul\":12958:13147   */\n      pop\n      pop\n      jump\t// out\n        /* \"#utility.yul\":13153:13339   */\n    tag_138:\n        /* \"#utility.yul\":13213:13333   */\n    tag_304:\n        /* \"#utility.yul\":13230:13233   */\n      dup2\n        /* \"#utility.yul\":13223:13228   */\n      dup2\n        /* \"#utility.yul\":13220:13234   */\n      lt\n        /* \"#utility.yul\":13213:13333   */\n      iszero\n      tag_306\n      jumpi\n        /* \"#utility.yul\":13284:13323   */\n      tag_307\n        /* \"#utility.yul\":13321:13322   */\n      0x00\n        /* \"#utility.yul\":13314:13319   */\n      dup3\n        /* \"#utility.yul\":13284:13323   */\n      tag_137\n      jump\t// in\n    tag_307:\n        /* \"#utility.yul\":13257:13258   */\n      0x01\n        /* \"#utility.yul\":13250:13255   */\n      dup2\n        /* \"#utility.yul\":13246:13259   */\n      add\n        /* \"#utility.yul\":13237:13259   */\n      swap1\n      pop\n        /* \"#utility.yul\":13213:13333   */\n      jump(tag_304)\n    tag_306:\n        /* \"#utility.yul\":13153:13339   */\n      pop\n      pop\n      jump\t// out\n        /* \"#utility.yul\":13345:13888   */\n    tag_139:\n        /* \"#utility.yul\":13446:13448   */\n      0x1f\n        /* \"#utility.yul\":13441:13444   */\n      dup3\n        /* \"#utility.yul\":13438:13449   */\n      gt\n        /* \"#utility.yul\":13435:13881   */\n      iszero\n      tag_309\n      jumpi\n        /* \"#utility.yul\":13480:13518   */\n      tag_310\n        /* \"#utility.yul\":13512:13517   */\n      dup2\n        /* \"#utility.yul\":13480:13518   */\n      tag_128\n      jump\t// in\n    tag_310:\n        /* \"#utility.yul\":13564:13593   */\n      tag_311\n        /* \"#utility.yul\":13582:13592   */\n      dup5\n        /* \"#utility.yul\":13564:13593   */\n      tag_129\n      jump\t// in\n    tag_311:\n        /* \"#utility.yul\":13554:13562   */\n      dup2\n        /* \"#utility.yul\":13550:13594   */\n      add\n        /* \"#utility.yul\":13747:13749   */\n      0x20\n        /* \"#utility.yul\":13735:13745   */\n      dup6\n        /* \"#utility.yul\":13732:13750   */\n      lt\n        /* \"#utility.yul\":13729:13778   */\n      iszero\n      tag_312\n      jumpi\n        /* \"#utility.yul\":13768:13776   */\n      dup2\n        /* \"#utility.yul\":13753:13776   */\n      swap1\n      pop\n        /* \"#utility.yul\":13729:13778   */\n    tag_312:\n        /* \"#utility.yul\":13791:13871   */\n      tag_313\n        /* \"#utility.yul\":13847:13869   */\n      tag_314\n        /* \"#utility.yul\":13865:13868   */\n      dup6\n        /* \"#utility.yul\":13847:13869   */\n      tag_129\n      jump\t// in\n    tag_314:\n        /* \"#utility.yul\":13837:13845   */\n      dup4\n        /* \"#utility.yul\":13833:13870   */\n      add\n        /* \"#utility.yul\":13820:13831   */\n      dup3\n        /* \"#utility.yul\":13791:13871   */\n      tag_138\n      jump\t// in\n    tag_313:\n        /* \"#utility.yul\":13450:13881   */\n      pop\n      pop\n        /* \"#utility.yul\":13435:13881   */\n    tag_309:\n        /* \"#utility.yul\":13345:13888   */\n      pop\n      pop\n      pop\n      jump\t// out\n        /* \"#utility.yul\":13894:14011   */\n    tag_140:\n        /* \"#utility.yul\":13948:13956   */\n      0x00\n        /* \"#utility.yul\":13998:14003   */\n      dup3\n        /* \"#utility.yul\":13992:13996   */\n      dup3\n        /* \"#utility.yul\":13988:14004   */\n      shr\n        /* \"#utility.yul\":13967:14004   */\n      swap1\n      pop\n        /* \"#utility.yul\":13894:14011   */\n      swap3\n      swap2\n      pop\n      pop\n      jump\t// out\n        /* \"#utility.yul\":14017:14186   */\n    tag_141:\n        /* \"#utility.yul\":14061:14067   */\n      0x00\n        /* \"#utility.yul\":14094:14145   */\n      tag_317\n        /* \"#utility.yul\":14142:14143   */\n      0x00\n        /* \"#utility.yul\":14138:14144   */\n      not\n        /* \"#utility.yul\":14130:14135   */\n      dup5\n        /* \"#utility.yul\":14127:14128   */\n      0x08\n        /* \"#utility.yul\":14123:14136   */\n      mul\n        /* \"#utility.yul\":14094:14145   */\n      tag_140\n      jump\t// in\n    tag_317:\n        /* \"#utility.yul\":14090:14146   */\n      not\n        /* \"#utility.yul\":14175:14179   */\n      dup1\n        /* \"#utility.yul\":14169:14173   */\n      dup4\n        /* \"#utility.yul\":14165:14180   */\n      and\n        /* \"#utility.yul\":14155:14180   */\n      swap2\n      pop\n        /* \"#utility.yul\":14068:14186   */\n      pop\n        /* \"#utility.yul\":14017:14186   */\n      swap3\n      swap2\n      pop\n      pop\n      jump\t// out\n        /* \"#utility.yul\":14191:14486   */\n    tag_142:\n        /* \"#utility.yul\":14267:14271   */\n      0x00\n        /* \"#utility.yul\":14413:14442   */\n      tag_319\n        /* \"#utility.yul\":14438:14441   */\n      dup4\n        /* \"#utility.yul\":14432:14436   */\n      dup4\n        /* \"#utility.yul\":14413:14442   */\n      tag_141\n      jump\t// in\n    tag_319:\n        /* \"#utility.yul\":14405:14442   */\n      swap2\n      pop\n        /* \"#utility.yul\":14475:14478   */\n      dup3\n        /* \"#utility.yul\":14472:14473   */\n      0x02\n        /* \"#utility.yul\":14468:14479   */\n      mul\n        /* \"#utility.yul\":14462:14466   */\n      dup3\n        /* \"#utility.yul\":14459:14480   */\n      or\n        /* \"#utility.yul\":14451:14480   */\n      swap1\n      pop\n        /* \"#utility.yul\":14191:14486   */\n      swap3\n      swap2\n      pop\n      pop\n      jump\t// out\n        /* \"#utility.yul\":14491:15886   */\n    tag_90:\n        /* \"#utility.yul\":14608:14645   */\n      tag_321\n        /* \"#utility.yul\":14641:14644   */\n      dup3\n        /* \"#utility.yul\":14608:14645   */\n      tag_109\n      jump\t// in\n    tag_321:\n        /* \"#utility.yul\":14710:14728   */\n      0xffffffffffffffff\n        /* \"#utility.yul\":14702:14708   */\n      dup2\n        /* \"#utility.yul\":14699:14729   */\n      gt\n        /* \"#utility.yul\":14696:14752   */\n      iszero\n      tag_322\n      jumpi\n        /* \"#utility.yul\":14732:14750   */\n      tag_323\n      tag_117\n      jump\t// in\n    tag_323:\n        /* \"#utility.yul\":14696:14752   */\n    tag_322:\n        /* \"#utility.yul\":14776:14814   */\n      tag_324\n        /* \"#utility.yul\":14808:14812   */\n      dup3\n        /* \"#utility.yul\":14802:14813   */\n      sload\n        /* \"#utility.yul\":14776:14814   */\n      tag_80\n      jump\t// in\n    tag_324:\n        /* \"#utility.yul\":14861:14928   */\n      tag_325\n        /* \"#utility.yul\":14921:14927   */\n      dup3\n        /* \"#utility.yul\":14913:14919   */\n      dup3\n        /* \"#utility.yul\":14907:14911   */\n      dup6\n        /* \"#utility.yul\":14861:14928   */\n      tag_139\n      jump\t// in\n    tag_325:\n        /* \"#utility.yul\":14955:14956   */\n      0x00\n        /* \"#utility.yul\":14979:14983   */\n      0x20\n        /* \"#utility.yul\":14966:14983   */\n      swap1\n      pop\n        /* \"#utility.yul\":15011:15013   */\n      0x1f\n        /* \"#utility.yul\":15003:15009   */\n      dup4\n        /* \"#utility.yul\":15000:15014   */\n      gt\n        /* \"#utility.yul\":15028:15029   */\n      0x01\n        /* \"#utility.yul\":15023:15641   */\n      dup2\n      eq\n      tag_327\n      jumpi\n        /* \"#utility.yul\":15685:15686   */\n      0x00\n        /* \"#utility.yul\":15702:15708   */\n      dup5\n        /* \"#utility.yul\":15699:15776   */\n      iszero\n      tag_328\n      jumpi\n        /* \"#utility.yul\":15751:15760   */\n      dup3\n        /* \"#utility.yul\":15746:15749   */\n      dup8\n        /* \"#utility.yul\":15742:15761   */\n      add\n        /* \"#utility.yul\":15736:15762   */\n      mload\n        /* \"#utility.yul\":15727:15762   */\n      swap1\n      pop\n        /* \"#utility.yul\":15699:15776   */\n    tag_328:\n        /* \"#utility.yul\":15802:15869   */\n      tag_329\n        /* \"#utility.yul\":15862:15868   */\n      dup6\n        /* \"#utility.yul\":15855:15860   */\n      dup3\n        /* \"#utility.yul\":15802:15869   */\n      tag_142\n      jump\t// in\n    tag_329:\n        /* \"#utility.yul\":15796:15800   */\n      dup7\n        /* \"#utility.yul\":15789:15870   */\n      sstore\n        /* \"#utility.yul\":15658:15880   */\n      pop\n        /* \"#utility.yul\":14993:15880   */\n      jump(tag_326)\n        /* \"#utility.yul\":15023:15641   */\n    tag_327:\n        /* \"#utility.yul\":15075:15079   */\n      0x1f\n        /* \"#utility.yul\":15071:15080   */\n      not\n        /* \"#utility.yul\":15063:15069   */\n      dup5\n        /* \"#utility.yul\":15059:15081   */\n      and\n        /* \"#utility.yul\":15109:15146   */\n      tag_330\n        /* \"#utility.yul\":15141:15145   */\n      dup7\n        /* \"#utility.yul\":15109:15146   */\n      tag_128\n      jump\t// in\n    tag_330:\n        /* \"#utility.yul\":15168:15169   */\n      0x00\n        /* \"#utility.yul\":15182:15390   */\n    tag_331:\n        /* \"#utility.yul\":15196:15203   */\n      dup3\n        /* \"#utility.yul\":15193:15194   */\n      dup2\n        /* \"#utility.yul\":15190:15204   */\n      lt\n        /* \"#utility.yul\":15182:15390   */\n      iszero\n      tag_333\n      jumpi\n        /* \"#utility.yul\":15275:15284   */\n      dup5\n        /* \"#utility.yul\":15270:15273   */\n      dup10\n        /* \"#utility.yul\":15266:15285   */\n      add\n        /* \"#utility.yul\":15260:15286   */\n      mload\n        /* \"#utility.yul\":15252:15258   */\n      dup3\n        /* \"#utility.yul\":15245:15287   */\n      sstore\n        /* \"#utility.yul\":15326:15327   */\n      0x01\n        /* \"#utility.yul\":15318:15324   */\n      dup3\n        /* \"#utility.yul\":15314:15328   */\n      add\n        /* \"#utility.yul\":15304:15328   */\n      swap2\n      pop\n        /* \"#utility.yul\":15373:15375   */\n      0x20\n        /* \"#utility.yul\":15362:15371   */\n      dup6\n        /* \"#utility.yul\":15358:15376   */\n      add\n        /* \"#utility.yul\":15345:15376   */\n      swap5\n      pop\n        /* \"#utility.yul\":15219:15223   */\n      0x20\n        /* \"#utility.yul\":15216:15217   */\n      dup2\n        /* \"#utility.yul\":15212:15224   */\n      add\n        /* \"#utility.yul\":15207:15224   */\n      swap1\n      pop\n        /* \"#utility.yul\":15182:15390   */\n      jump(tag_331)\n    tag_333:\n        /* \"#utility.yul\":15418:15424   */\n      dup7\n        /* \"#utility.yul\":15409:15416   */\n      dup4\n        /* \"#utility.yul\":15406:15425   */\n      lt\n        /* \"#utility.yul\":15403:15582   */\n      iszero\n      tag_334\n      jumpi\n        /* \"#utility.yul\":15476:15485   */\n      dup5\n        /* \"#utility.yul\":15471:15474   */\n      dup10\n        /* \"#utility.yul\":15467:15486   */\n      add\n        /* \"#utility.yul\":15461:15487   */\n      mload\n        /* \"#utility.yul\":15519:15567   */\n      tag_335\n        /* \"#utility.yul\":15561:15565   */\n      0x1f\n        /* \"#utility.yul\":15553:15559   */\n      dup10\n        /* \"#utility.yul\":15549:15566   */\n      and\n        /* \"#utility.yul\":15538:15547   */\n      dup3\n        /* \"#utility.yul\":15519:15567   */\n      tag_141\n      jump\t// in\n    tag_335:\n        /* \"#utility.yul\":15511:15517   */\n      dup4\n        /* \"#utility.yul\":15504:15568   */\n      sstore\n        /* \"#utility.yul\":15426:15582   */\n      pop\n        /* \"#utility.yul\":15403:15582   */\n    tag_334:\n        /* \"#utility.yul\":15628:15629   */\n      0x01\n        /* \"#utility.yul\":15624:15625   */\n      0x02\n        /* \"#utility.yul\":15616:15622   */\n      dup9\n        /* \"#utility.yul\":15612:15626   */\n      mul\n        /* \"#utility.yul\":15608:15630   */\n      add\n        /* \"#utility.yul\":15602:15606   */\n      dup9\n        /* \"#utility.yul\":15595:15631   */\n      sstore\n        /* \"#utility.yul\":15030:15641   */\n      pop\n      pop\n      pop\n        /* \"#utility.yul\":14993:15880   */\n    tag_326:\n      pop\n        /* \"#utility.yul\":14583:15886   */\n      pop\n      pop\n      pop\n        /* \"#utility.yul\":14491:15886   */\n      pop\n      pop\n      jump\t// out\n\n    auxdata: 0xa2646970667358221220767da280e09651c5c15991b55443eff10e7e9e2a674ac6c10c77b9932b8b25fe64736f6c634300081e0033\n}\n",
				"bytecode": {
					"linkReferences": {},
					"object": "608060405260055f60146101000a81548160ff021916908360ff1602179055503480156029575f5ffd5b50335f5f6101000a81548173ffffffffffffffffffffffffffffffffffffffff021916908373ffffffffffffffffffffffffffffffffffffffff160217905550606460015f5f5f9054906101000a900473ffffffffffffffffffffffffffffffffffffffff1673ffffffffffffffffffffffffffffffffffffffff1673ffffffffffffffffffffffffffffffffffffffff1681526020019081526020015f2060010181905550610fcf806100dc5f395ff3fe60806040526004361061007a575f3560e01c80638da5cb5b1161004d5780638da5cb5b14610114578063a87430ba1461013e578063eee972061461017b578063f2c298be146101b75761007a565b8063193f974c1461007e5780631ec7e345146100a65780631f64f1e3146100d0578063739e6dd0146100f8575b5f5ffd5b348015610089575f5ffd5b506100a4600480360381019061009f9190610767565b6101df565b005b3480156100b1575f5ffd5b506100ba610372565b6040516100c791906107c0565b60405180910390f35b3480156100db575f5ffd5b506100f660048036038101906100f19190610803565b610384565b005b610112600480360381019061010d9190610873565b6103f8565b005b34801561011f575f5ffd5b5061012861059a565b60405161013591906108ad565b60405180910390f35b348015610149575f5ffd5b50610164600480360381019061015f91906108c6565b6105be565b604051610172929190610970565b60405180910390f35b348015610186575f5ffd5b506101a1600480360381019061019c919061099e565b610664565b6040516101ae91906109c9565b60405180910390f35b3480156101c2575f5ffd5b506101dd60048036038101906101d89190610b0e565b610679565b005b5f5f9054906101000a900473ffffffffffffffffffffffffffffffffffffffff1673ffffffffffffffffffffffffffffffffffffffff163373ffffffffffffffffffffffffffffffffffffffff1614610236575f5ffd5b8060015f5f5f9054906101000a900473ffffffffffffffffffffffffffffffffffffffff1673ffffffffffffffffffffffffffffffffffffffff1673ffffffffffffffffffffffffffffffffffffffff1681526020019081526020015f206001015410156102a2575f5ffd5b8060015f5f5f9054906101000a900473ffffffffffffffffffffffffffffffffffffffff1673ffffffffffffffffffffffffffffffffffffffff1673ffffffffffffffffffffffffffffffffffffffff1681526020019081526020015f206001015f8282546103119190610b82565b925050819055508060015f8473ffffffffffffffffffffffffffffffffffffffff1673ffffffffffffffffffffffffffffffffffffffff1681526020019081526020015f206001015f8282546103679190610bb5565b925050819055505050565b5f60149054906101000a900460ff1681565b5f5f9054906101000a900473ffffffffffffffffffffffffffffffffffffffff1673ffffffffffffffffffffffffffffffffffffffff163373ffffffffffffffffffffffffffffffffffffffff16146103db575f5ffd5b805f60146101000a81548160ff021916908360ff16021790555050565b5f5f60149054906101000a900460ff1660ff16826104169190610be8565b6fffffffffffffffffffffffffffffffff1690508034101561046d576040517f08c379a000000000000000000000000000000000000000000000000000000000815260040161046490610c6e565b60405180910390fd5b816fffffffffffffffffffffffffffffffff1660015f3373ffffffffffffffffffffffffffffffffffffffff1673ffffffffffffffffffffffffffffffffffffffff1681526020019081526020015f206001015f8282546104ce9190610bb5565b9250508190555080341115610531573373ffffffffffffffffffffffffffffffffffffffff166108fc82346105039190610b82565b90811502906040515f60405180830381858888f1935050505015801561052b573d5f5f3e3d5ffd5b50610596565b5f5f9054906101000a900473ffffffffffffffffffffffffffffffffffffffff1673ffffffffffffffffffffffffffffffffffffffff166108fc8290811502906040515f60405180830381858888f19350505050158015610594573d5f5f3e3d5ffd5b505b5050565b5f5f9054906101000a900473ffffffffffffffffffffffffffffffffffffffff1681565b6001602052805f5260405f205f91509050805f0180546105dd90610cb9565b80601f016020809104026020016040519081016040528092919081815260200182805461060990610cb9565b80156106545780601f1061062b57610100808354040283529160200191610654565b820191905f5260205f20905b81548152906001019060200180831161063757829003601f168201915b5050505050908060010154905082565b5f6002826106729190610ce9565b9050919050565b8060015f3373ffffffffffffffffffffffffffffffffffffffff1673ffffffffffffffffffffffffffffffffffffffff1681526020019081526020015f205f0190816106c59190610eca565b5050565b5f604051905090565b5f5ffd5b5f5ffd5b5f73ffffffffffffffffffffffffffffffffffffffff82169050919050565b5f610703826106da565b9050919050565b610713816106f9565b811461071d575f5ffd5b50565b5f8135905061072e8161070a565b92915050565b5f819050919050565b61074681610734565b8114610750575f5ffd5b50565b5f813590506107618161073d565b92915050565b5f5f6040838503121561077d5761077c6106d2565b5b5f61078a85828601610720565b925050602061079b85828601610753565b9150509250929050565b5f60ff82169050919050565b6107ba816107a5565b82525050565b5f6020820190506107d35f8301846107b1565b92915050565b6107e2816107a5565b81146107ec575f5ffd5b50565b5f813590506107fd816107d9565b92915050565b5f60208284031215610818576108176106d2565b5b5f610825848285016107ef565b91505092915050565b5f6fffffffffffffffffffffffffffffffff82169050919050565b6108528161082e565b811461085c575f5ffd5b50565b5f8135905061086d81610849565b92915050565b5f60208284031215610888576108876106d2565b5b5f6108958482850161085f565b91505092915050565b6108a7816106f9565b82525050565b5f6020820190506108c05f83018461089e565b92915050565b5f602082840312156108db576108da6106d2565b5b5f6108e884828501610720565b91505092915050565b5f81519050919050565b5f82825260208201905092915050565b8281835e5f83830152505050565b5f601f19601f8301169050919050565b5f610933826108f1565b61093d81856108fb565b935061094d81856020860161090b565b61095681610919565b840191505092915050565b61096a81610734565b82525050565b5f6040820190508181035f8301526109888185610929565b90506109976020830184610961565b9392505050565b5f602082840312156109b3576109b26106d2565b5b5f6109c084828501610753565b91505092915050565b5f6020820190506109dc5f830184610961565b92915050565b5f5ffd5b5f5ffd5b7f4e487b71000000000000000000000000000000000000000000000000000000005f52604160045260245ffd5b610a2082610919565b810181811067ffffffffffffffff82111715610a3f57610a3e6109ea565b5b80604052505050565b5f610a516106c9565b9050610a5d8282610a17565b919050565b5f67ffffffffffffffff821115610a7c57610a7b6109ea565b5b610a8582610919565b9050602081019050919050565b828183375f83830152505050565b5f610ab2610aad84610a62565b610a48565b905082815260208101848484011115610ace57610acd6109e6565b5b610ad9848285610a92565b509392505050565b5f82601f830112610af557610af46109e2565b5b8135610b05848260208601610aa0565b91505092915050565b5f60208284031215610b2357610b226106d2565b5b5f82013567ffffffffffffffff811115610b4057610b3f6106d6565b5b610b4c84828501610ae1565b91505092915050565b7f4e487b71000000000000000000000000000000000000000000000000000000005f52601160045260245ffd5b5f610b8c82610734565b9150610b9783610734565b9250828203905081811115610baf57610bae610b55565b5b92915050565b5f610bbf82610734565b9150610bca83610734565b9250828201905080821115610be257610be1610b55565b5b92915050565b5f610bf28261082e565b9150610bfd8361082e565b9250828202610c0b8161082e565b9150808214610c1d57610c1c610b55565b5b5092915050565b7f466f6e646f7320696e737566696369656e7465730000000000000000000000005f82015250565b5f610c586014836108fb565b9150610c6382610c24565b602082019050919050565b5f6020820190508181035f830152610c8581610c4c565b9050919050565b7f4e487b71000000000000000000000000000000000000000000000000000000005f52602260045260245ffd5b5f6002820490506001821680610cd057607f821691505b602082108103610ce357610ce2610c8c565b5b50919050565b5f610cf382610734565b9150610cfe83610734565b9250828202610d0c81610734565b91508282048414831517610d2357610d22610b55565b5b5092915050565b5f819050815f5260205f209050919050565b5f6020601f8301049050919050565b5f82821b905092915050565b5f60088302610d867fffffffffffffffffffffffffffffffffffffffffffffffffffffffffffffffff82610d4b565b610d908683610d4b565b95508019841693508086168417925050509392505050565b5f819050919050565b5f610dcb610dc6610dc184610734565b610da8565b610734565b9050919050565b5f819050919050565b610de483610db1565b610df8610df082610dd2565b848454610d57565b825550505050565b5f5f905090565b610e0f610e00565b610e1a818484610ddb565b505050565b5b81811015610e3d57610e325f82610e07565b600181019050610e20565b5050565b601f821115610e8257610e5381610d2a565b610e5c84610d3c565b81016020851015610e6b578190505b610e7f610e7785610d3c565b830182610e1f565b50505b505050565b5f82821c905092915050565b5f610ea25f1984600802610e87565b1980831691505092915050565b5f610eba8383610e93565b9150826002028217905092915050565b610ed3826108f1565b67ffffffffffffffff811115610eec57610eeb6109ea565b5b610ef68254610cb9565b610f01828285610e41565b5f60209050601f831160018114610f32575f8415610f20578287015190505b610f2a8582610eaf565b865550610f91565b601f198416610f4086610d2a565b5f5b82811015610f6757848901518255600182019150602085019450602081019050610f42565b86831015610f845784890151610f80601f891682610e93565b8355505b6001600288020188555050505b50505050505056fea2646970667358221220767da280e09651c5c15991b55443eff10e7e9e2a674ac6c10c77b9932b8b25fe64736f6c634300081e0033",
					"opcodes": "PUSH1 0x80 PUSH1 0x40 MSTORE PUSH1 0x5 PUSH0 PUSH1 0x14 PUSH2 0x100 EXP DUP2 SLOAD DUP2 PUSH1 0xFF MUL NOT AND SWAP1 DUP4 PUSH1 0xFF AND MUL OR SWAP1 SSTORE POP CALLVALUE DUP1 ISZERO PUSH1 0x29 JUMPI PUSH0 PUSH0 REVERT JUMPDEST POP CALLER PUSH0 PUSH0 PUSH2 0x100 EXP DUP2 SLOAD DUP2 PUSH20 0xFFFFFFFFFFFFFFFFFFFFFFFFFFFFFFFFFFFFFFFF MUL NOT AND SWAP1 DUP4 PUSH20 0xFFFFFFFFFFFFFFFFFFFFFFFFFFFFFFFFFFFFFFFF AND MUL OR SWAP1 SSTORE POP PUSH1 0x64 PUSH1 0x1 PUSH0 PUSH0 PUSH0 SWAP1 SLOAD SWAP1 PUSH2 0x100 EXP SWAP1 DIV PUSH20 0xFFFFFFFFFFFFFFFFFFFFFFFFFFFFFFFFFFFFFFFF AND PUSH20 0xFFFFFFFFFFFFFFFFFFFFFFFFFFFFFFFFFFFFFFFF AND PUSH20 0xFFFFFFFFFFFFFFFFFFFFFFFFFFFFFFFFFFFFFFFF AND DUP2 MSTORE PUSH1 0x20 ADD SWAP1 DUP2 MSTORE PUSH1 0x20 ADD PUSH0 KECCAK256 PUSH1 0x1 ADD DUP2 SWAP1 SSTORE POP PUSH2 0xFCF DUP1 PUSH2 0xDC PUSH0 CODECOPY PUSH0 RETURN INVALID PUSH1 0x80 PUSH1 0x40 MSTORE PUSH1 0x4 CALLDATASIZE LT PUSH2 0x7A JUMPI PUSH0 CALLDATALOAD PUSH1 0xE0 SHR DUP1 PUSH4 0x8DA5CB5B GT PUSH2 0x4D JUMPI DUP1 PUSH4 0x8DA5CB5B EQ PUSH2 0x114 JUMPI DUP1 PUSH4 0xA87430BA EQ PUSH2 0x13E JUMPI DUP1 PUSH4 0xEEE97206 EQ PUSH2 0x17B JUMPI DUP1 PUSH4 0xF2C298BE EQ PUSH2 0x1B7 JUMPI PUSH2 0x7A JUMP JUMPDEST DUP1 PUSH4 0x193F974C EQ PUSH2 0x7E JUMPI DUP1 PUSH4 0x1EC7E345 EQ PUSH2 0xA6 JUMPI DUP1 PUSH4 0x1F64F1E3 EQ PUSH2 0xD0 JUMPI DUP1 PUSH4 0x739E6DD0 EQ PUSH2 0xF8 JUMPI JUMPDEST PUSH0 PUSH0 REVERT JUMPDEST CALLVALUE DUP1 ISZERO PUSH2 0x89 JUMPI PUSH0 PUSH0 REVERT JUMPDEST POP PUSH2 0xA4 PUSH1 0x4 DUP1 CALLDATASIZE SUB DUP2 ADD SWAP1 PUSH2 0x9F SWAP2 SWAP1 PUSH2 0x767 JUMP JUMPDEST PUSH2 0x1DF JUMP JUMPDEST STOP JUMPDEST CALLVALUE DUP1 ISZERO PUSH2 0xB1 JUMPI PUSH0 PUSH0 REVERT JUMPDEST POP PUSH2 0xBA PUSH2 0x372 JUMP JUMPDEST PUSH1 0x40 MLOAD PUSH2 0xC7 SWAP2 SWAP1 PUSH2 0x7C0 JUMP JUMPDEST PUSH1 0x40 MLOAD DUP1 SWAP2 SUB SWAP1 RETURN JUMPDEST CALLVALUE DUP1 ISZERO PUSH2 0xDB JUMPI PUSH0 PUSH0 REVERT JUMPDEST POP PUSH2 0xF6 PUSH1 0x4 DUP1 CALLDATASIZE SUB DUP2 ADD SWAP1 PUSH2 0xF1 SWAP2 SWAP1 PUSH2 0x803 JUMP JUMPDEST PUSH2 0x384 JUMP JUMPDEST STOP JUMPDEST PUSH2 0x112 PUSH1 0x4 DUP1 CALLDATASIZE SUB DUP2 ADD SWAP1 PUSH2 0x10D SWAP2 SWAP1 PUSH2 0x873 JUMP JUMPDEST PUSH2 0x3F8 JUMP JUMPDEST STOP JUMPDEST CALLVALUE DUP1 ISZERO PUSH2 0x11F JUMPI PUSH0 PUSH0 REVERT JUMPDEST POP PUSH2 0x128 PUSH2 0x59A JUMP JUMPDEST PUSH1 0x40 MLOAD PUSH2 0x135 SWAP2 SWAP1 PUSH2 0x8AD JUMP JUMPDEST PUSH1 0x40 MLOAD DUP1 SWAP2 SUB SWAP1 RETURN JUMPDEST CALLVALUE DUP1 ISZERO PUSH2 0x149 JUMPI PUSH0 PUSH0 REVERT JUMPDEST POP PUSH2 0x164 PUSH1 0x4 DUP1 CALLDATASIZE SUB DUP2 ADD SWAP1 PUSH2 0x15F SWAP2 SWAP1 PUSH2 0x8C6 JUMP JUMPDEST PUSH2 0x5BE JUMP JUMPDEST PUSH1 0x40 MLOAD PUSH2 0x172 SWAP3 SWAP2 SWAP1 PUSH2 0x970 JUMP JUMPDEST PUSH1 0x40 MLOAD DUP1 SWAP2 SUB SWAP1 RETURN JUMPDEST CALLVALUE DUP1 ISZERO PUSH2 0x186 JUMPI PUSH0 PUSH0 REVERT JUMPDEST POP PUSH2 0x1A1 PUSH1 0x4 DUP1 CALLDATASIZE SUB DUP2 ADD SWAP1 PUSH2 0x19C SWAP2 SWAP1 PUSH2 0x99E JUMP JUMPDEST PUSH2 0x664 JUMP JUMPDEST PUSH1 0x40 MLOAD PUSH2 0x1AE SWAP2 SWAP1 PUSH2 0x9C9 JUMP JUMPDEST PUSH1 0x40 MLOAD DUP1 SWAP2 SUB SWAP1 RETURN JUMPDEST CALLVALUE DUP1 ISZERO PUSH2 0x1C2 JUMPI PUSH0 PUSH0 REVERT JUMPDEST POP PUSH2 0x1DD PUSH1 0x4 DUP1 CALLDATASIZE SUB DUP2 ADD SWAP1 PUSH2 0x1D8 SWAP2 SWAP1 PUSH2 0xB0E JUMP JUMPDEST PUSH2 0x679 JUMP JUMPDEST STOP JUMPDEST PUSH0 PUSH0 SWAP1 SLOAD SWAP1 PUSH2 0x100 EXP SWAP1 DIV PUSH20 0xFFFFFFFFFFFFFFFFFFFFFFFFFFFFFFFFFFFFFFFF AND PUSH20 0xFFFFFFFFFFFFFFFFFFFFFFFFFFFFFFFFFFFFFFFF AND CALLER PUSH20 0xFFFFFFFFFFFFFFFFFFFFFFFFFFFFFFFFFFFFFFFF AND EQ PUSH2 0x236 JUMPI PUSH0 PUSH0 REVERT JUMPDEST DUP1 PUSH1 0x1 PUSH0 PUSH0 PUSH0 SWAP1 SLOAD SWAP1 PUSH2 0x100 EXP SWAP1 DIV PUSH20 0xFFFFFFFFFFFFFFFFFFFFFFFFFFFFFFFFFFFFFFFF AND PUSH20 0xFFFFFFFFFFFFFFFFFFFFFFFFFFFFFFFFFFFFFFFF AND PUSH20 0xFFFFFFFFFFFFFFFFFFFFFFFFFFFFFFFFFFFFFFFF AND DUP2 MSTORE PUSH1 0x20 ADD SWAP1 DUP2 MSTORE PUSH1 0x20 ADD PUSH0 KECCAK256 PUSH1 0x1 ADD SLOAD LT ISZERO PUSH2 0x2A2 JUMPI PUSH0 PUSH0 REVERT JUMPDEST DUP1 PUSH1 0x1 PUSH0 PUSH0 PUSH0 SWAP1 SLOAD SWAP1 PUSH2 0x100 EXP SWAP1 DIV PUSH20 0xFFFFFFFFFFFFFFFFFFFFFFFFFFFFFFFFFFFFFFFF AND PUSH20 0xFFFFFFFFFFFFFFFFFFFFFFFFFFFFFFFFFFFFFFFF AND PUSH20 0xFFFFFFFFFFFFFFFFFFFFFFFFFFFFFFFFFFFFFFFF AND DUP2 MSTORE PUSH1 0x20 ADD SWAP1 DUP2 MSTORE PUSH1 0x20 ADD PUSH0 KECCAK256 PUSH1 0x1 ADD PUSH0 DUP3 DUP3 SLOAD PUSH2 0x311 SWAP2 SWAP1 PUSH2 0xB82 JUMP JUMPDEST SWAP3 POP POP DUP2 SWAP1 SSTORE POP DUP1 PUSH1 0x1 PUSH0 DUP5 PUSH20 0xFFFFFFFFFFFFFFFFFFFFFFFFFFFFFFFFFFFFFFFF AND PUSH20 0xFFFFFFFFFFFFFFFFFFFFFFFFFFFFFFFFFFFFFFFF AND DUP2 MSTORE PUSH1 0x20 ADD SWAP1 DUP2 MSTORE PUSH1 0x20 ADD PUSH0 KECCAK256 PUSH1 0x1 ADD PUSH0 DUP3 DUP3 SLOAD PUSH2 0x367 SWAP2 SWAP1 PUSH2 0xBB5 JUMP JUMPDEST SWAP3 POP POP DUP2 SWAP1 SSTORE POP POP POP JUMP JUMPDEST PUSH0 PUSH1 0x14 SWAP1 SLOAD SWAP1 PUSH2 0x100 EXP SWAP1 DIV PUSH1 0xFF AND DUP2 JUMP JUMPDEST PUSH0 PUSH0 SWAP1 SLOAD SWAP1 PUSH2 0x100 EXP SWAP1 DIV PUSH20 0xFFFFFFFFFFFFFFFFFFFFFFFFFFFFFFFFFFFFFFFF AND PUSH20 0xFFFFFFFFFFFFFFFFFFFFFFFFFFFFFFFFFFFFFFFF AND CALLER PUSH20 0xFFFFFFFFFFFFFFFFFFFFFFFFFFFFFFFFFFFFFFFF AND EQ PUSH2 0x3DB JUMPI PUSH0 PUSH0 REVERT JUMPDEST DUP1 PUSH0 PUSH1 0x14 PUSH2 0x100 EXP DUP2 SLOAD DUP2 PUSH1 0xFF MUL NOT AND SWAP1 DUP4 PUSH1 0xFF AND MUL OR SWAP1 SSTORE POP POP JUMP JUMPDEST PUSH0 PUSH0 PUSH1 0x14 SWAP1 SLOAD SWAP1 PUSH2 0x100 EXP SWAP1 DIV PUSH1 0xFF AND PUSH1 0xFF AND DUP3 PUSH2 0x416 SWAP2 SWAP1 PUSH2 0xBE8 JUMP JUMPDEST PUSH16 0xFFFFFFFFFFFFFFFFFFFFFFFFFFFFFFFF AND SWAP1 POP DUP1 CALLVALUE LT ISZERO PUSH2 0x46D JUMPI PUSH1 0x40 MLOAD PUSH32 0x8C379A000000000000000000000000000000000000000000000000000000000 DUP2 MSTORE PUSH1 0x4 ADD PUSH2 0x464 SWAP1 PUSH2 0xC6E JUMP JUMPDEST PUSH1 0x40 MLOAD DUP1 SWAP2 SUB SWAP1 REVERT JUMPDEST DUP2 PUSH16 0xFFFFFFFFFFFFFFFFFFFFFFFFFFFFFFFF AND PUSH1 0x1 PUSH0 CALLER PUSH20 0xFFFFFFFFFFFFFFFFFFFFFFFFFFFFFFFFFFFFFFFF AND PUSH20 0xFFFFFFFFFFFFFFFFFFFFFFFFFFFFFFFFFFFFFFFF AND DUP2 MSTORE PUSH1 0x20 ADD SWAP1 DUP2 MSTORE PUSH1 0x20 ADD PUSH0 KECCAK256 PUSH1 0x1 ADD PUSH0 DUP3 DUP3 SLOAD PUSH2 0x4CE SWAP2 SWAP1 PUSH2 0xBB5 JUMP JUMPDEST SWAP3 POP POP DUP2 SWAP1 SSTORE POP DUP1 CALLVALUE GT ISZERO PUSH2 0x531 JUMPI CALLER PUSH20 0xFFFFFFFFFFFFFFFFFFFFFFFFFFFFFFFFFFFFFFFF AND PUSH2 0x8FC DUP3 CALLVALUE PUSH2 0x503 SWAP2 SWAP1 PUSH2 0xB82 JUMP JUMPDEST SWAP1 DUP2 ISZERO MUL SWAP1 PUSH1 0x40 MLOAD PUSH0 PUSH1 0x40 MLOAD DUP1 DUP4 SUB DUP2 DUP6 DUP9 DUP9 CALL SWAP4 POP POP POP POP ISZERO DUP1 ISZERO PUSH2 0x52B JUMPI RETURNDATASIZE PUSH0 PUSH0 RETURNDATACOPY RETURNDATASIZE PUSH0 REVERT JUMPDEST POP PUSH2 0x596 JUMP JUMPDEST PUSH0 PUSH0 SWAP1 SLOAD SWAP1 PUSH2 0x100 EXP SWAP1 DIV PUSH20 0xFFFFFFFFFFFFFFFFFFFFFFFFFFFFFFFFFFFFFFFF AND PUSH20 0xFFFFFFFFFFFFFFFFFFFFFFFFFFFFFFFFFFFFFFFF AND PUSH2 0x8FC DUP3 SWAP1 DUP2 ISZERO MUL SWAP1 PUSH1 0x40 MLOAD PUSH0 PUSH1 0x40 MLOAD DUP1 DUP4 SUB DUP2 DUP6 DUP9 DUP9 CALL SWAP4 POP POP POP POP ISZERO DUP1 ISZERO PUSH2 0x594 JUMPI RETURNDATASIZE PUSH0 PUSH0 RETURNDATACOPY RETURNDATASIZE PUSH0 REVERT JUMPDEST POP JUMPDEST POP POP JUMP JUMPDEST PUSH0 PUSH0 SWAP1 SLOAD SWAP1 PUSH2 0x100 EXP SWAP1 DIV PUSH20 0xFFFFFFFFFFFFFFFFFFFFFFFFFFFFFFFFFFFFFFFF AND DUP2 JUMP JUMPDEST PUSH1 0x1 PUSH1 0x20 MSTORE DUP1 PUSH0 MSTORE PUSH1 0x40 PUSH0 KECCAK256 PUSH0 SWAP2 POP SWAP1 POP DUP1 PUSH0 ADD DUP1 SLOAD PUSH2 0x5DD SWAP1 PUSH2 0xCB9 JUMP JUMPDEST DUP1 PUSH1 0x1F ADD PUSH1 0x20 DUP1 SWAP2 DIV MUL PUSH1 0x20 ADD PUSH1 0x40 MLOAD SWAP1 DUP2 ADD PUSH1 0x40 MSTORE DUP1 SWAP3 SWAP2 SWAP1 DUP2 DUP2 MSTORE PUSH1 0x20 ADD DUP3 DUP1 SLOAD PUSH2 0x609 SWAP1 PUSH2 0xCB9 JUMP JUMPDEST DUP1 ISZERO PUSH2 0x654 JUMPI DUP1 PUSH1 0x1F LT PUSH2 0x62B JUMPI PUSH2 0x100 DUP1 DUP4 SLOAD DIV MUL DUP4 MSTORE SWAP2 PUSH1 0x20 ADD SWAP2 PUSH2 0x654 JUMP JUMPDEST DUP3 ADD SWAP2 SWAP1 PUSH0 MSTORE PUSH1 0x20 PUSH0 KECCAK256 SWAP1 JUMPDEST DUP2 SLOAD DUP2 MSTORE SWAP1 PUSH1 0x1 ADD SWAP1 PUSH1 0x20 ADD DUP1 DUP4 GT PUSH2 0x637 JUMPI DUP3 SWAP1 SUB PUSH1 0x1F AND DUP3 ADD SWAP2 JUMPDEST POP POP POP POP POP SWAP1 DUP1 PUSH1 0x1 ADD SLOAD SWAP1 POP DUP3 JUMP JUMPDEST PUSH0 PUSH1 0x2 DUP3 PUSH2 0x672 SWAP2 SWAP1 PUSH2 0xCE9 JUMP JUMPDEST SWAP1 POP SWAP2 SWAP1 POP JUMP JUMPDEST DUP1 PUSH1 0x1 PUSH0 CALLER PUSH20 0xFFFFFFFFFFFFFFFFFFFFFFFFFFFFFFFFFFFFFFFF AND PUSH20 0xFFFFFFFFFFFFFFFFFFFFFFFFFFFFFFFFFFFFFFFF AND DUP2 MSTORE PUSH1 0x20 ADD SWAP1 DUP2 MSTORE PUSH1 0x20 ADD PUSH0 KECCAK256 PUSH0 ADD SWAP1 DUP2 PUSH2 0x6C5 SWAP2 SWAP1 PUSH2 0xECA JUMP JUMPDEST POP POP JUMP JUMPDEST PUSH0 PUSH1 0x40 MLOAD SWAP1 POP SWAP1 JUMP JUMPDEST PUSH0 PUSH0 REVERT JUMPDEST PUSH0 PUSH0 REVERT JUMPDEST PUSH0 PUSH20 0xFFFFFFFFFFFFFFFFFFFFFFFFFFFFFFFFFFFFFFFF DUP3 AND SWAP1 POP SWAP2 SWAP1 POP JUMP JUMPDEST PUSH0 PUSH2 0x703 DUP3 PUSH2 0x6DA JUMP JUMPDEST SWAP1 POP SWAP2 SWAP1 POP JUMP JUMPDEST PUSH2 0x713 DUP2 PUSH2 0x6F9 JUMP JUMPDEST DUP2 EQ PUSH2 0x71D JUMPI PUSH0 PUSH0 REVERT JUMPDEST POP JUMP JUMPDEST PUSH0 DUP2 CALLDATALOAD SWAP1 POP PUSH2 0x72E DUP2 PUSH2 0x70A JUMP JUMPDEST SWAP3 SWAP2 POP POP JUMP JUMPDEST PUSH0 DUP2 SWAP1 POP SWAP2 SWAP1 POP JUMP JUMPDEST PUSH2 0x746 DUP2 PUSH2 0x734 JUMP JUMPDEST DUP2 EQ PUSH2 0x750 JUMPI PUSH0 PUSH0 REVERT JUMPDEST POP JUMP JUMPDEST PUSH0 DUP2 CALLDATALOAD SWAP1 POP PUSH2 0x761 DUP2 PUSH2 0x73D JUMP JUMPDEST SWAP3 SWAP2 POP POP JUMP JUMPDEST PUSH0 PUSH0 PUSH1 0x40 DUP4 DUP6 SUB SLT ISZERO PUSH2 0x77D JUMPI PUSH2 0x77C PUSH2 0x6D2 JUMP JUMPDEST JUMPDEST PUSH0 PUSH2 0x78A DUP6 DUP3 DUP7 ADD PUSH2 0x720 JUMP JUMPDEST SWAP3 POP POP PUSH1 0x20 PUSH2 0x79B DUP6 DUP3 DUP7 ADD PUSH2 0x753 JUMP JUMPDEST SWAP2 POP POP SWAP3 POP SWAP3 SWAP1 POP JUMP JUMPDEST PUSH0 PUSH1 0xFF DUP3 AND SWAP1 POP SWAP2 SWAP1 POP JUMP JUMPDEST PUSH2 0x7BA DUP2 PUSH2 0x7A5 JUMP JUMPDEST DUP3 MSTORE POP POP JUMP JUMPDEST PUSH0 PUSH1 0x20 DUP3 ADD SWAP1 POP PUSH2 0x7D3 PUSH0 DUP4 ADD DUP5 PUSH2 0x7B1 JUMP JUMPDEST SWAP3 SWAP2 POP POP JUMP JUMPDEST PUSH2 0x7E2 DUP2 PUSH2 0x7A5 JUMP JUMPDEST DUP2 EQ PUSH2 0x7EC JUMPI PUSH0 PUSH0 REVERT JUMPDEST POP JUMP JUMPDEST PUSH0 DUP2 CALLDATALOAD SWAP1 POP PUSH2 0x7FD DUP2 PUSH2 0x7D9 JUMP JUMPDEST SWAP3 SWAP2 POP POP JUMP JUMPDEST PUSH0 PUSH1 0x20 DUP3 DUP5 SUB SLT ISZERO PUSH2 0x818 JUMPI PUSH2 0x817 PUSH2 0x6D2 JUMP JUMPDEST JUMPDEST PUSH0 PUSH2 0x825 DUP5 DUP3 DUP6 ADD PUSH2 0x7EF JUMP JUMPDEST SWAP2 POP POP SWAP3 SWAP2 POP POP JUMP JUMPDEST PUSH0 PUSH16 0xFFFFFFFFFFFFFFFFFFFFFFFFFFFFFFFF DUP3 AND SWAP1 POP SWAP2 SWAP1 POP JUMP JUMPDEST PUSH2 0x852 DUP2 PUSH2 0x82E JUMP JUMPDEST DUP2 EQ PUSH2 0x85C JUMPI PUSH0 PUSH0 REVERT JUMPDEST POP JUMP JUMPDEST PUSH0 DUP2 CALLDATALOAD SWAP1 POP PUSH2 0x86D DUP2 PUSH2 0x849 JUMP JUMPDEST SWAP3 SWAP2 POP POP JUMP JUMPDEST PUSH0 PUSH1 0x20 DUP3 DUP5 SUB SLT ISZERO PUSH2 0x888 JUMPI PUSH2 0x887 PUSH2 0x6D2 JUMP JUMPDEST JUMPDEST PUSH0 PUSH2 0x895 DUP5 DUP3 DUP6 ADD PUSH2 0x85F JUMP JUMPDEST SWAP2 POP POP SWAP3 SWAP2 POP POP JUMP JUMPDEST PUSH2 0x8A7 DUP2 PUSH2 0x6F9 JUMP JUMPDEST DUP3 MSTORE POP POP JUMP JUMPDEST PUSH0 PUSH1 0x20 DUP3 ADD SWAP1 POP PUSH2 0x8C0 PUSH0 DUP4 ADD DUP5 PUSH2 0x89E JUMP JUMPDEST SWAP3 SWAP2 POP POP JUMP JUMPDEST PUSH0 PUSH1 0x20 DUP3 DUP5 SUB SLT ISZERO PUSH2 0x8DB JUMPI PUSH2 0x8DA PUSH2 0x6D2 JUMP JUMPDEST JUMPDEST PUSH0 PUSH2 0x8E8 DUP5 DUP3 DUP6 ADD PUSH2 0x720 JUMP JUMPDEST SWAP2 POP POP SWAP3 SWAP2 POP POP JUMP JUMPDEST PUSH0 DUP2 MLOAD SWAP1 POP SWAP2 SWAP1 POP JUMP JUMPDEST PUSH0 DUP3 DUP3 MSTORE PUSH1 0x20 DUP3 ADD SWAP1 POP SWAP3 SWAP2 POP POP JUMP JUMPDEST DUP3 DUP2 DUP4 MCOPY PUSH0 DUP4 DUP4 ADD MSTORE POP POP POP JUMP JUMPDEST PUSH0 PUSH1 0x1F NOT PUSH1 0x1F DUP4 ADD AND SWAP1 POP SWAP2 SWAP1 POP JUMP JUMPDEST PUSH0 PUSH2 0x933 DUP3 PUSH2 0x8F1 JUMP JUMPDEST PUSH2 0x93D DUP2 DUP6 PUSH2 0x8FB JUMP JUMPDEST SWAP4 POP PUSH2 0x94D DUP2 DUP6 PUSH1 0x20 DUP7 ADD PUSH2 0x90B JUMP JUMPDEST PUSH2 0x956 DUP2 PUSH2 0x919 JUMP JUMPDEST DUP5 ADD SWAP2 POP POP SWAP3 SWAP2 POP POP JUMP JUMPDEST PUSH2 0x96A DUP2 PUSH2 0x734 JUMP JUMPDEST DUP3 MSTORE POP POP JUMP JUMPDEST PUSH0 PUSH1 0x40 DUP3 ADD SWAP1 POP DUP2 DUP2 SUB PUSH0 DUP4 ADD MSTORE PUSH2 0x988 DUP2 DUP6 PUSH2 0x929 JUMP JUMPDEST SWAP1 POP PUSH2 0x997 PUSH1 0x20 DUP4 ADD DUP5 PUSH2 0x961 JUMP JUMPDEST SWAP4 SWAP3 POP POP POP JUMP JUMPDEST PUSH0 PUSH1 0x20 DUP3 DUP5 SUB SLT ISZERO PUSH2 0x9B3 JUMPI PUSH2 0x9B2 PUSH2 0x6D2 JUMP JUMPDEST JUMPDEST PUSH0 PUSH2 0x9C0 DUP5 DUP3 DUP6 ADD PUSH2 0x753 JUMP JUMPDEST SWAP2 POP POP SWAP3 SWAP2 POP POP JUMP JUMPDEST PUSH0 PUSH1 0x20 DUP3 ADD SWAP1 POP PUSH2 0x9DC PUSH0 DUP4 ADD DUP5 PUSH2 0x961 JUMP JUMPDEST SWAP3 SWAP2 POP POP JUMP JUMPDEST PUSH0 PUSH0 REVERT JUMPDEST PUSH0 PUSH0 REVERT JUMPDEST PUSH32 0x4E487B7100000000000000000000000000000000000000000000000000000000 PUSH0 MSTORE PUSH1 0x41 PUSH1 0x4 MSTORE PUSH1 0x24 PUSH0 REVERT JUMPDEST PUSH2 0xA20 DUP3 PUSH2 0x919 JUMP JUMPDEST DUP2 ADD DUP2 DUP2 LT PUSH8 0xFFFFFFFFFFFFFFFF DUP3 GT OR ISZERO PUSH2 0xA3F JUMPI PUSH2 0xA3E PUSH2 0x9EA JUMP JUMPDEST JUMPDEST DUP1 PUSH1 0x40 MSTORE POP POP POP JUMP JUMPDEST PUSH0 PUSH2 0xA51 PUSH2 0x6C9 JUMP JUMPDEST SWAP1 POP PUSH2 0xA5D DUP3 DUP3 PUSH2 0xA17 JUMP JUMPDEST SWAP2 SWAP1 POP JUMP JUMPDEST PUSH0 PUSH8 0xFFFFFFFFFFFFFFFF DUP3 GT ISZERO PUSH2 0xA7C JUMPI PUSH2 0xA7B PUSH2 0x9EA JUMP JUMPDEST JUMPDEST PUSH2 0xA85 DUP3 PUSH2 0x919 JUMP JUMPDEST SWAP1 POP PUSH1 0x20 DUP2 ADD SWAP1 POP SWAP2 SWAP1 POP JUMP JUMPDEST DUP3 DUP2 DUP4 CALLDATACOPY PUSH0 DUP4 DUP4 ADD MSTORE POP POP POP JUMP JUMPDEST PUSH0 PUSH2 0xAB2 PUSH2 0xAAD DUP5 PUSH2 0xA62 JUMP JUMPDEST PUSH2 0xA48 JUMP JUMPDEST SWAP1 POP DUP3 DUP2 MSTORE PUSH1 0x20 DUP2 ADD DUP5 DUP5 DUP5 ADD GT ISZERO PUSH2 0xACE JUMPI PUSH2 0xACD PUSH2 0x9E6 JUMP JUMPDEST JUMPDEST PUSH2 0xAD9 DUP5 DUP3 DUP6 PUSH2 0xA92 JUMP JUMPDEST POP SWAP4 SWAP3 POP POP POP JUMP JUMPDEST PUSH0 DUP3 PUSH1 0x1F DUP4 ADD SLT PUSH2 0xAF5 JUMPI PUSH2 0xAF4 PUSH2 0x9E2 JUMP JUMPDEST JUMPDEST DUP2 CALLDATALOAD PUSH2 0xB05 DUP5 DUP3 PUSH1 0x20 DUP7 ADD PUSH2 0xAA0 JUMP JUMPDEST SWAP2 POP POP SWAP3 SWAP2 POP POP JUMP JUMPDEST PUSH0 PUSH1 0x20 DUP3 DUP5 SUB SLT ISZERO PUSH2 0xB23 JUMPI PUSH2 0xB22 PUSH2 0x6D2 JUMP JUMPDEST JUMPDEST PUSH0 DUP3 ADD CALLDATALOAD PUSH8 0xFFFFFFFFFFFFFFFF DUP2 GT ISZERO PUSH2 0xB40 JUMPI PUSH2 0xB3F PUSH2 0x6D6 JUMP JUMPDEST JUMPDEST PUSH2 0xB4C DUP5 DUP3 DUP6 ADD PUSH2 0xAE1 JUMP JUMPDEST SWAP2 POP POP SWAP3 SWAP2 POP POP JUMP JUMPDEST PUSH32 0x4E487B7100000000000000000000000000000000000000000000000000000000 PUSH0 MSTORE PUSH1 0x11 PUSH1 0x4 MSTORE PUSH1 0x24 PUSH0 REVERT JUMPDEST PUSH0 PUSH2 0xB8C DUP3 PUSH2 0x734 JUMP JUMPDEST SWAP2 POP PUSH2 0xB97 DUP4 PUSH2 0x734 JUMP JUMPDEST SWAP3 POP DUP3 DUP3 SUB SWAP1 POP DUP2 DUP2 GT ISZERO PUSH2 0xBAF JUMPI PUSH2 0xBAE PUSH2 0xB55 JUMP JUMPDEST JUMPDEST SWAP3 SWAP2 POP POP JUMP JUMPDEST PUSH0 PUSH2 0xBBF DUP3 PUSH2 0x734 JUMP JUMPDEST SWAP2 POP PUSH2 0xBCA DUP4 PUSH2 0x734 JUMP JUMPDEST SWAP3 POP DUP3 DUP3 ADD SWAP1 POP DUP1 DUP3 GT ISZERO PUSH2 0xBE2 JUMPI PUSH2 0xBE1 PUSH2 0xB55 JUMP JUMPDEST JUMPDEST SWAP3 SWAP2 POP POP JUMP JUMPDEST PUSH0 PUSH2 0xBF2 DUP3 PUSH2 0x82E JUMP JUMPDEST SWAP2 POP PUSH2 0xBFD DUP4 PUSH2 0x82E JUMP JUMPDEST SWAP3 POP DUP3 DUP3 MUL PUSH2 0xC0B DUP2 PUSH2 0x82E JUMP JUMPDEST SWAP2 POP DUP1 DUP3 EQ PUSH2 0xC1D JUMPI PUSH2 0xC1C PUSH2 0xB55 JUMP JUMPDEST JUMPDEST POP SWAP3 SWAP2 POP POP JUMP JUMPDEST PUSH32 0x466F6E646F7320696E737566696369656E746573000000000000000000000000 PUSH0 DUP3 ADD MSTORE POP JUMP JUMPDEST PUSH0 PUSH2 0xC58 PUSH1 0x14 DUP4 PUSH2 0x8FB JUMP JUMPDEST SWAP2 POP PUSH2 0xC63 DUP3 PUSH2 0xC24 JUMP JUMPDEST PUSH1 0x20 DUP3 ADD SWAP1 POP SWAP2 SWAP1 POP JUMP JUMPDEST PUSH0 PUSH1 0x20 DUP3 ADD SWAP1 POP DUP2 DUP2 SUB PUSH0 DUP4 ADD MSTORE PUSH2 0xC85 DUP2 PUSH2 0xC4C JUMP JUMPDEST SWAP1 POP SWAP2 SWAP1 POP JUMP JUMPDEST PUSH32 0x4E487B7100000000000000000000000000000000000000000000000000000000 PUSH0 MSTORE PUSH1 0x22 PUSH1 0x4 MSTORE PUSH1 0x24 PUSH0 REVERT JUMPDEST PUSH0 PUSH1 0x2 DUP3 DIV SWAP1 POP PUSH1 0x1 DUP3 AND DUP1 PUSH2 0xCD0 JUMPI PUSH1 0x7F DUP3 AND SWAP2 POP JUMPDEST PUSH1 0x20 DUP3 LT DUP2 SUB PUSH2 0xCE3 JUMPI PUSH2 0xCE2 PUSH2 0xC8C JUMP JUMPDEST JUMPDEST POP SWAP2 SWAP1 POP JUMP JUMPDEST PUSH0 PUSH2 0xCF3 DUP3 PUSH2 0x734 JUMP JUMPDEST SWAP2 POP PUSH2 0xCFE DUP4 PUSH2 0x734 JUMP JUMPDEST SWAP3 POP DUP3 DUP3 MUL PUSH2 0xD0C DUP2 PUSH2 0x734 JUMP JUMPDEST SWAP2 POP DUP3 DUP3 DIV DUP5 EQ DUP4 ISZERO OR PUSH2 0xD23 JUMPI PUSH2 0xD22 PUSH2 0xB55 JUMP JUMPDEST JUMPDEST POP SWAP3 SWAP2 POP POP JUMP JUMPDEST PUSH0 DUP2 SWAP1 POP DUP2 PUSH0 MSTORE PUSH1 0x20 PUSH0 KECCAK256 SWAP1 POP SWAP2 SWAP1 POP JUMP JUMPDEST PUSH0 PUSH1 0x20 PUSH1 0x1F DUP4 ADD DIV SWAP1 POP SWAP2 SWAP1 POP JUMP JUMPDEST PUSH0 DUP3 DUP3 SHL SWAP1 POP SWAP3 SWAP2 POP POP JUMP JUMPDEST PUSH0 PUSH1 0x8 DUP4 MUL PUSH2 0xD86 PUSH32 0xFFFFFFFFFFFFFFFFFFFFFFFFFFFFFFFFFFFFFFFFFFFFFFFFFFFFFFFFFFFFFFFF DUP3 PUSH2 0xD4B JUMP JUMPDEST PUSH2 0xD90 DUP7 DUP4 PUSH2 0xD4B JUMP JUMPDEST SWAP6 POP DUP1 NOT DUP5 AND SWAP4 POP DUP1 DUP7 AND DUP5 OR SWAP3 POP POP POP SWAP4 SWAP3 POP POP POP JUMP JUMPDEST PUSH0 DUP2 SWAP1 POP SWAP2 SWAP1 POP JUMP JUMPDEST PUSH0 PUSH2 0xDCB PUSH2 0xDC6 PUSH2 0xDC1 DUP5 PUSH2 0x734 JUMP JUMPDEST PUSH2 0xDA8 JUMP JUMPDEST PUSH2 0x734 JUMP JUMPDEST SWAP1 POP SWAP2 SWAP1 POP JUMP JUMPDEST PUSH0 DUP2 SWAP1 POP SWAP2 SWAP1 POP JUMP JUMPDEST PUSH2 0xDE4 DUP4 PUSH2 0xDB1 JUMP JUMPDEST PUSH2 0xDF8 PUSH2 0xDF0 DUP3 PUSH2 0xDD2 JUMP JUMPDEST DUP5 DUP5 SLOAD PUSH2 0xD57 JUMP JUMPDEST DUP3 SSTORE POP POP POP POP JUMP JUMPDEST PUSH0 PUSH0 SWAP1 POP SWAP1 JUMP JUMPDEST PUSH2 0xE0F PUSH2 0xE00 JUMP JUMPDEST PUSH2 0xE1A DUP2 DUP5 DUP5 PUSH2 0xDDB JUMP JUMPDEST POP POP POP JUMP JUMPDEST JUMPDEST DUP2 DUP2 LT ISZERO PUSH2 0xE3D JUMPI PUSH2 0xE32 PUSH0 DUP3 PUSH2 0xE07 JUMP JUMPDEST PUSH1 0x1 DUP2 ADD SWAP1 POP PUSH2 0xE20 JUMP JUMPDEST POP POP JUMP JUMPDEST PUSH1 0x1F DUP3 GT ISZERO PUSH2 0xE82 JUMPI PUSH2 0xE53 DUP2 PUSH2 0xD2A JUMP JUMPDEST PUSH2 0xE5C DUP5 PUSH2 0xD3C JUMP JUMPDEST DUP2 ADD PUSH1 0x20 DUP6 LT ISZERO PUSH2 0xE6B JUMPI DUP2 SWAP1 POP JUMPDEST PUSH2 0xE7F PUSH2 0xE77 DUP6 PUSH2 0xD3C JUMP JUMPDEST DUP4 ADD DUP3 PUSH2 0xE1F JUMP JUMPDEST POP POP JUMPDEST POP POP POP JUMP JUMPDEST PUSH0 DUP3 DUP3 SHR SWAP1 POP SWAP3 SWAP2 POP POP JUMP JUMPDEST PUSH0 PUSH2 0xEA2 PUSH0 NOT DUP5 PUSH1 0x8 MUL PUSH2 0xE87 JUMP JUMPDEST NOT DUP1 DUP4 AND SWAP2 POP POP SWAP3 SWAP2 POP POP JUMP JUMPDEST PUSH0 PUSH2 0xEBA DUP4 DUP4 PUSH2 0xE93 JUMP JUMPDEST SWAP2 POP DUP3 PUSH1 0x2 MUL DUP3 OR SWAP1 POP SWAP3 SWAP2 POP POP JUMP JUMPDEST PUSH2 0xED3 DUP3 PUSH2 0x8F1 JUMP JUMPDEST PUSH8 0xFFFFFFFFFFFFFFFF DUP2 GT ISZERO PUSH2 0xEEC JUMPI PUSH2 0xEEB PUSH2 0x9EA JUMP JUMPDEST JUMPDEST PUSH2 0xEF6 DUP3 SLOAD PUSH2 0xCB9 JUMP JUMPDEST PUSH2 0xF01 DUP3 DUP3 DUP6 PUSH2 0xE41 JUMP JUMPDEST PUSH0 PUSH1 0x20 SWAP1 POP PUSH1 0x1F DUP4 GT PUSH1 0x1 DUP2 EQ PUSH2 0xF32 JUMPI PUSH0 DUP5 ISZERO PUSH2 0xF20 JUMPI DUP3 DUP8 ADD MLOAD SWAP1 POP JUMPDEST PUSH2 0xF2A DUP6 DUP3 PUSH2 0xEAF JUMP JUMPDEST DUP7 SSTORE POP PUSH2 0xF91 JUMP JUMPDEST PUSH1 0x1F NOT DUP5 AND PUSH2 0xF40 DUP7 PUSH2 0xD2A JUMP JUMPDEST PUSH0 JUMPDEST DUP3 DUP2 LT ISZERO PUSH2 0xF67 JUMPI DUP5 DUP10 ADD MLOAD DUP3 SSTORE PUSH1 0x1 DUP3 ADD SWAP2 POP PUSH1 0x20 DUP6 ADD SWAP5 POP PUSH1 0x20 DUP2 ADD SWAP1 POP PUSH2 0xF42 JUMP JUMPDEST DUP7 DUP4 LT ISZERO PUSH2 0xF84 JUMPI DUP5 DUP10 ADD MLOAD PUSH2 0xF80 PUSH1 0x1F DUP10 AND DUP3 PUSH2 0xE93 JUMP JUMPDEST DUP4 SSTORE POP JUMPDEST PUSH1 0x1 PUSH1 0x2 DUP9 MUL ADD DUP9 SSTORE POP POP POP JUMPDEST POP POP POP POP POP POP JUMP INVALID LOG2 PUSH5 0x6970667358 0x22 SLT KECCAK256 PUSH23 0x7DA280E09651C5C15991B55443EFF10E7E9E2A674AC6C1 0xC PUSH24 0xB9932B8B25FE64736F6C634300081E003300000000000000 "
				},
				"gasEstimates": {
					"creation": {
						"codeDepositCost": "809400",
						"executionCost": "73764",
						"totalCost": "883164"
					},
					"external": {
						"buyToken(uint128)": "infinite",
						"double(uint256)": "infinite",
						"giveToken(address,uint256)": "infinite",
						"owner()": "2507",
						"register(string)": "infinite",
						"tokenValue()": "2539",
						"updateTokenPrice(uint8)": "26936",
						"users(address)": "infinite"
					}
				},
				"methodIdentifiers": {
					"buyToken(uint128)": "739e6dd0",
					"double(uint256)": "eee97206",
					"giveToken(address,uint256)": "193f974c",
					"owner()": "8da5cb5b",
					"register(string)": "f2c298be",
					"tokenValue()": "1ec7e345",
					"updateTokenPrice(uint8)": "1f64f1e3",
					"users(address)": "a87430ba"
				}
			},
			"storageLayout": {
				"storage": [
					{
						"astId": 3,
						"contract": "contracts/TokenContract.sol:TokenContract",
						"label": "owner",
						"offset": 0,
						"slot": "0",
						"type": "t_address"
					},
					{
						"astId": 6,
						"contract": "contracts/TokenContract.sol:TokenContract",
						"label": "tokenValue",
						"offset": 20,
						"slot": "0",
						"type": "t_uint8"
					},
					{
						"astId": 16,
						"contract": "contracts/TokenContract.sol:TokenContract",
						"label": "users",
						"offset": 0,
						"slot": "1",
						"type": "t_mapping(t_address,t_struct(Receivers)11_storage)"
					}
				],
				"types": {
					"t_address": {
						"encoding": "inplace",
						"label": "address",
						"numberOfBytes": "20"
					},
					"t_mapping(t_address,t_struct(Receivers)11_storage)": {
						"encoding": "mapping",
						"key": "t_address",
						"label": "mapping(address => struct TokenContract.Receivers)",
						"numberOfBytes": "32",
						"value": "t_struct(Receivers)11_storage"
					},
					"t_string_storage": {
						"encoding": "bytes",
						"label": "string",
						"numberOfBytes": "32"
					},
					"t_struct(Receivers)11_storage": {
						"encoding": "inplace",
						"label": "struct TokenContract.Receivers",
						"members": [
							{
								"astId": 8,
								"contract": "contracts/TokenContract.sol:TokenContract",
								"label": "name",
								"offset": 0,
								"slot": "0",
								"type": "t_string_storage"
							},
							{
								"astId": 10,
								"contract": "contracts/TokenContract.sol:TokenContract",
								"label": "tokens",
								"offset": 0,
								"slot": "1",
								"type": "t_uint256"
							}
						],
						"numberOfBytes": "64"
					},
					"t_uint256": {
						"encoding": "inplace",
						"label": "uint256",
						"numberOfBytes": "32"
					},
					"t_uint8": {
						"encoding": "inplace",
						"label": "uint8",
						"numberOfBytes": "1"
					}
				}
			},
			"userdoc": {
				"kind": "user",
				"methods": {},
				"version": 1
			}
		}
	}
}